{
  "transactions": [
    {
      "hash": "0xe6a5c2cb2ab39f87a07a4801985ec7898d2c28e01f9da450ea0a7806f2de2633",
      "transactionType": "CREATE",
      "contractName": "Vote",
      "contractAddress": "0xffa6c34fba0c3b6cf8ec958ed291c87589ad9528",
      "function": null,
      "arguments": null,
      "transaction": {
        "from": "0xf39fd6e51aad88f6f4ce6ab8827279cfffb92266",
        "gas": "0x7fa25",
        "value": "0x0",
        "input": "0x6080604052348015600f57600080fd5b506106518061001f6000396000f3fe608060405234801561001057600080fd5b50600436106100365760003560e01c8063c5b364411461003b578063e69b9edc14610062575b600080fd5b61004e610049366004610556565b610075565b604051901515815260200160405180910390f35b61004e610070366004610556565b6102a9565b60007f2909c0a05d58f8b7f14a4ef9b6dfbc139611bb545981c04988c895be90f3500081805b82600101548110156100db57600081815260208490526040902060010154336001600160a01b03909116036100d357600191506100db565b60010161009b565b50806100fa57604051635c9ee2ab60e11b815260040160405180910390fd5b60008581527f9a70c69f78b954ec2ace8c62308c5ea2ed35f782ee583f10b56d88886fa9930060209081526040918290208251808401909352600e83526d686561646572496473203d20257360901b918301919091529061015c9060036104ec565b60408051808201909152600f81526e24702e68656164657273203d20257360881b6020820152815461018e91906104ec565b80546101e15760405162461bcd60e51b815260206004820152601d60248201527f4e6f206865616465727320666f7220746869732070726f706f73616c2e00000060448201526064015b60405180910390fd5b8054600190829087359081106101f9576101f9610589565b90600052602060002090600402016001016000828254610219919061059f565b909155506001905081868260200201358154811061023957610239610589565b90600052602060002090600402016001016000828254610259919061059f565b90915550600190508186600260200201358154811061027a5761027a610589565b9060005260206000209060040201600101600082825461029a919061059f565b90915550939695505050505050565b60008281527f9a70c69f78b954ec2ace8c62308c5ea2ed35f782ee583f10b56d88886fa993006020526040812060018101546103275760405162461bcd60e51b815260206004820152601a60248201527f4e6f20636d647320666f7220746869732070726f706f73616c2e00000000000060448201526064016101d8565b6001810180548435919060009061034057610340610589565b906000526020600020906003020160000154036103a1576003600182018460005b60200201358154811061037657610376610589565b90600052602060002090600302016002016000828254610396919061059f565b909155506104e59050565b600180820180548535929081106103ba576103ba610589565b90600052602060002090600302016000015403610421576001810180546003919085359081106103ec576103ec610589565b9060005260206000209060030201600201600082825461040c919061059f565b90915550600290506001808301908590610361565b60018101805460039190853590811061043c5761043c610589565b9060005260206000209060030201600201600082825461045c919061059f565b909155505060018101805460029190602086013590811061047f5761047f610589565b9060005260206000209060030201600201600082825461049f919061059f565b90915550506001818101805460408601359081106104bf576104bf610589565b906000526020600020906003020160020160008282546104df919061059f565b90915550505b5092915050565b61053182826040516024016105029291906105c6565b60408051601f198184030181529190526020810180516001600160e01b03166309710a9d60e41b179052610535565b5050565b80516a636f6e736f6c652e6c6f67602083016000808483855afa5050505050565b6000806080838503121561056957600080fd5b823591508360808401111561057d57600080fd5b50926020919091019150565b634e487b7160e01b600052603260045260246000fd5b808201808211156105c057634e487b7160e01b600052601160045260246000fd5b92915050565b604081526000835180604084015260005b818110156105f457602081870181015160608684010152016105d7565b506000606082850101526060601f19601f830116840101915050826020830152939250505056fea264697066735822122046b80d74f533b77ad9be81de74867052e428d17a3465e23c0d4af70e2b1b9fce64736f6c634300081a0033",
        "nonce": "0x21df",
        "chainId": "0xaa36a7"
      },
      "additionalContracts": [],
      "isFixedGasLimit": false
    },
    {
      "hash": "0x242af302bc0ed73dc799ac60729ec837b30f9aac4996c157fa4902b17014ba05",
      "transactionType": "CREATE",
      "contractName": "Clone",
      "contractAddress": "0xfdf4d8e40e028101f5c170d35d7ff01bf1054209",
      "function": null,
      "arguments": null,
      "transaction": {
        "from": "0xf39fd6e51aad88f6f4ce6ab8827279cfffb92266",
        "gas": "0xa38cd",
        "value": "0x0",
        "input": "0x6080604052348015600f57600080fd5b5061085d8061001f6000396000f3fe608060405234801561001057600080fd5b506004361061002b5760003560e01c80638ca89f7714610030575b600080fd5b61004361003e366004610169565b61005f565b6040516001600160a01b03909116815260200160405180910390f35b60006100d16100957f267691be3525af8a813d30db0c9e2bad08f63baecf6dceb85e2cf3676cff56f4546001600160a01b031690565b84848080601f0160208091040260200160405190810160405280939291908181526020018383808284376000920191909152506100d892505050565b9392505050565b600082826040516100e89061015c565b6100f39291906101dd565b604051809103906000f08015801561010f573d6000803e3d6000fd5b50604080516001600160a01b038087168252831660208201529192507f9678a1e87ca9f1a37dc659a97b39d812d98cd236947e1b53b3d0d6fd346acb6e910160405180910390a192915050565b6105ed8061023b83390190565b6000806020838503121561017c57600080fd5b823567ffffffffffffffff81111561019357600080fd5b8301601f810185136101a457600080fd5b803567ffffffffffffffff8111156101bb57600080fd5b8560208284010111156101cd57600080fd5b6020919091019590945092505050565b60018060a01b0383168152604060208201526000825180604084015260005b8181101561021957602081860181015160608684010152016101fc565b506000606082850101526060601f19601f830116840101915050939250505056fe60806040526040516105ed3803806105ed8339810160408190526100229161034b565b61002c828261003c565b6100358261011c565b5050610486565b61004582610160565b6040516001600160a01b03831681527fa657f2ad315cf3bb35cf1964158da75c3f334481df05a4a1644b2376b17a59b29060200160405180910390a18051156101105761010b6001600160a01b03831663dc9cc6456100a384610411565b6040516001600160e01b031960e084901b81168252919091166004820152602401602060405180830381865afa1580156100e1573d6000803e3d6000fd5b505050506040513d601f19601f82011682018060405250810190610105919061044f565b826101d5565b505050565b61011861024c565b5050565b807fa3f0ad74e5423aebfd80d3ef4346578335a9a72aeaee59ff6cb3582b35133d505b80546001600160a01b0319166001600160a01b039290921691909117905550565b806001600160a01b03163b6000036101ae5760405162461bcd60e51b815260206004820152600c60248201526b1393d397d0d3d395149050d560a21b60448201526064015b60405180910390fd5b807f267691be3525af8a813d30db0c9e2bad08f63baecf6dceb85e2cf3676cff56f461013f565b6060600080846001600160a01b0316846040516101f2919061046a565b600060405180830381855af49150503d806000811461022d576040519150601f19603f3d011682016040523d82523d6000602084013e610232565b606091505b50909250905061024385838361026d565b95945050505050565b341561026b5760405163b398979f60e01b815260040160405180910390fd5b565b6060826102825761027d826102cc565b6102c5565b815115801561029957506001600160a01b0384163b155b156102c257604051639996b31560e01b81526001600160a01b03851660048201526024016101a5565b50805b9392505050565b8051156102dc5780518082602001fd5b604051630a12f52160e11b815260040160405180910390fd5b80516001600160a01b038116811461030c57600080fd5b919050565b634e487b7160e01b600052604160045260246000fd5b60005b8381101561034257818101518382015260200161032a565b50506000910152565b6000806040838503121561035e57600080fd5b610367836102f5565b60208401519092506001600160401b0381111561038357600080fd5b8301601f8101851361039457600080fd5b80516001600160401b038111156103ad576103ad610311565b604051601f8201601f19908116603f011681016001600160401b03811182821017156103db576103db610311565b6040528181528282016020018710156103f357600080fd5b610404826020830160208601610327565b8093505050509250929050565b805160208201516001600160e01b0319811691906004821015610448576001600160e01b0319600483900360031b81901b82161692505b5050919050565b60006020828403121561046157600080fd5b6102c5826102f5565b6000825161047c818460208701610327565b9190910192915050565b610158806104956000396000f3fe608060405261000c61000e565b005b61001e610019610020565b6100ce565b565b60006100537f267691be3525af8a813d30db0c9e2bad08f63baecf6dceb85e2cf3676cff56f4546001600160a01b031690565b60405163dc9cc64560e01b81526001600160e01b03196000351660048201526001600160a01b03919091169063dc9cc64590602401602060405180830381865afa1580156100a5573d6000803e3d6000fd5b505050506040513d601f19601f820116820180604052508101906100c991906100f2565b905090565b3660008037600080366000845af43d6000803e8080156100ed573d6000f35b3d6000fd5b60006020828403121561010457600080fd5b81516001600160a01b038116811461011b57600080fd5b939250505056fea2646970667358221220edeb9a03e51fb4befaa08189d6da8fca48148c9e6789ddf587ece46a3ab49f3b64736f6c634300081a0033a2646970667358221220469c656541d2eead9f5dc2821929cf53100c7d005813e6ff26caf71acfba728d64736f6c634300081a0033",
        "nonce": "0x21e0",
        "chainId": "0xaa36a7"
      },
      "additionalContracts": [],
      "isFixedGasLimit": false
    },
    {
      "hash": "0xd5b58566667a34636898fb81130f7e2bef62cdfe94123193ef272b3c72094410",
      "transactionType": "CREATE",
      "contractName": "Initialize",
      "contractAddress": "0xde96e0f0900d95b9a3ad093c7a8d7ebcdc62e1af",
      "function": null,
      "arguments": null,
      "transaction": {
        "from": "0xf39fd6e51aad88f6f4ce6ab8827279cfffb92266",
        "gas": "0x50ef1",
        "value": "0x0",
        "input": "0x6080604052348015600f57600080fd5b506103a68061001f6000396000f3fe608060405234801561001057600080fd5b506004361061002b5760003560e01c8063dc1ec0e514610030575b600080fd5b61004361003e36600461026f565b610057565b604051901515815260200160405180910390f35b7f2909c0a05d58f8b7f14a4ef9b6dfbc139611bb545981c04988c895be90f35001546000907f2909c0a05d58f8b7f14a4ef9b6dfbc139611bb545981c04988c895be90f3500090156100ef5760405162461bcd60e51b815260206004820152601f60248201527f496e697469616c697a653a20616c726561647920696e697469616c697a656400604482015260640160405180910390fd5b82357f9a70c69f78b954ec2ace8c62308c5ea2ed35f782ee583f10b56d88886fa9930290815560208401357f9a70c69f78b954ec2ace8c62308c5ea2ed35f782ee583f10b56d88886fa993035560408401357f9a70c69f78b954ec2ace8c62308c5ea2ed35f782ee583f10b56d88886fa993045560608401357f9a70c69f78b954ec2ace8c62308c5ea2ed35f782ee583f10b56d88886fa99305557f2909c0a05d58f8b7f14a4ef9b6dfbc139611bb545981c04988c895be90f35001547f2909c0a05d58f8b7f14a4ef9b6dfbc139611bb545981c04988c895be90f35000919060005b8781101561025e5760008281526020859052604090208290558888828181106101fd576101fd610303565b90506020020160208101906102129190610319565b60008381526020869052604081206001810180546001600160a01b0319166001600160a01b0394909416939093179092556002909101558161025381610349565b9250506001016101d2565b506001928301555095945050505050565b600080600083850360a081121561028557600080fd5b843567ffffffffffffffff81111561029c57600080fd5b8501601f810187136102ad57600080fd5b803567ffffffffffffffff8111156102c457600080fd5b8760208260051b84010111156102d957600080fd5b602091909101945092506080601f19820112156102f557600080fd5b506020840190509250925092565b634e487b7160e01b600052603260045260246000fd5b60006020828403121561032b57600080fd5b81356001600160a01b038116811461034257600080fd5b9392505050565b60006001820161036957634e487b7160e01b600052601160045260246000fd5b506001019056fea264697066735822122019695d333acabb86cedcfa0a9010b75acf4f4143b004e5a2203f4d5dc1c3204e64736f6c634300081a0033",
        "nonce": "0x21e1",
        "chainId": "0xaa36a7"
      },
      "additionalContracts": [],
      "isFixedGasLimit": false
    },
    {
      "hash": "0xee3cec835cb1bb5d1dc7a010efa28ceda88f3ab7e8c6a86f9ab88bd7a10a7a51",
      "transactionType": "CREATE",
      "contractName": "Propose",
      "contractAddress": "0x89a18e5e226fc1ea2079265a068c6701c6550b84",
      "function": null,
      "arguments": null,
      "transaction": {
        "from": "0xf39fd6e51aad88f6f4ce6ab8827279cfffb92266",
        "gas": "0xaa72a",
        "value": "0x0",
        "input": "0x6080604052348015600f57600080fd5b506108c18061001f6000396000f3fe608060405234801561001057600080fd5b506004361061002b5760003560e01c80639f46786e14610030575b600080fd5b61004361003e366004610297565b610055565b60405190815260200160405180910390f35b60007f2909c0a05d58f8b7f14a4ef9b6dfbc139611bb545981c04988c895be90f3500081805b82600101548110156100bb57600081815260208490526040902060010154336001600160a01b03909116036100b357600191506100bb565b60010161007b565b50806100da57604051635c9ee2ab60e11b815260040160405180910390fd5b7f9a70c69f78b954ec2ace8c62308c5ea2ed35f782ee583f10b56d88886fa993015460008181527f9a70c69f78b954ec2ace8c62308c5ea2ed35f782ee583f10b56d88886fa9930060208190526040822092955091907fe4fa6871814422bfe1d10a118a3483c970f3cc6a461f81c9d5701005cfdaf400907f2909c0a05d58f8b7f14a4ef9b6dfbc139611bb545981c04988c895be90f35000905b81600101548110156101ce57600081815260208381526040822060019081015460088801805480840182559085529290932090910180546001600160a01b0319166001600160a01b039093169290921790915501610175565b5060006101db89806102d9565b506020111561021457826101ef89806102d9565b815460018101835560009283526020909220909160040201610211828261038f565b50505b600061022360208a018a61043a565b6102319060208101906102f9565b9050111561026f576001830161024a60208a018a61043a565b81546001810183556000928352602090922090916003020161026c828261072a565b50505b42600a84015560018401805490600061028783610872565b9190505550505050505050919050565b6000602082840312156102a957600080fd5b813567ffffffffffffffff8111156102c057600080fd5b8201606081850312156102d257600080fd5b9392505050565b60008235607e198336030181126102ef57600080fd5b9190910192915050565b6000808335601e1984360301811261031057600080fd5b83018035915067ffffffffffffffff82111561032b57600080fd5b6020019150600581901b360382131561034357600080fd5b9250929050565b634e487b7160e01b600052604160045260246000fd5b634e487b7160e01b600052601160045260246000fd5b5b8181101561038b5760008155600101610377565b5050565b813581556020820135600182015560408201356002820155600381016103b860608401846102f9565b67ffffffffffffffff8111156103d0576103d061034a565b600160401b8111156103e4576103e461034a565b82548184558082101561040a57836000526020600020610408828201848301610376565b505b50600092835260208320925b8181101561043257823584820155602090920191600101610416565b505050505050565b60008235605e198336030181126102ef57600080fd5b60008235603e198336030181126102ef57600080fd5b600181811c9082168061047a57607f821691505b60208210810361049a57634e487b7160e01b600052602260045260246000fd5b50919050565b6104aa8154610466565b801561038b57601f8111600181146104c457505060009055565b6000838152602090206104e2601f840160051c820160018301610376565b5060008381526020812081855555505050565b505050565b6000808335601e1984360301811261051157600080fd5b83018035915067ffffffffffffffff82111561052c57600080fd5b60200191503681900382131561034357600080fd5b601f8211156104f557806000526020600020601f840160051c810160208510156105685750805b61057a601f850160051c830182610376565b5050505050565b67ffffffffffffffff8311156105995761059961034a565b6105ad836105a78354610466565b83610541565b6000601f8411600181146105e157600085156105c95750838201355b600019600387901b1c1916600186901b17835561057a565b600083815260209020601f19861690835b8281101561061257868501358255602094850194600190920191016105f2565b508682101561062f5760001960f88860031b161c19848701351681555b505060018560011b0183555050505050565b61064b82836104fa565b67ffffffffffffffff8111156106635761066361034a565b610677816106718554610466565b85610541565b6000601f8211600181146106ab57600083156106935750838201355b600019600385901b1c1916600184901b178555610705565b600085815260209020601f19841690835b828110156106dc57868501358255602094850194600190920191016106bc565b50848210156106f95760001960f88660031b161c19848701351681555b505060018360011b0185555b5050505061071660208301836104fa565b610724818360018601610581565b50505050565b813581556001810161073f60208401846102f9565b600160401b8111156107535761075361034a565b82548184558082101561081f576001600160ff1b038116811461077857610778610360565b6001600160ff1b038216821461079057610790610360565b8360005260206000208160011b81018360011b820191505b8082101561081c576107ba8254610466565b801561080457601f8111600181146107d55760008455610802565b6000848152602090206107f3601f840160051c820160018301610376565b50600084815260208120818655555b505b50610811600183016104a0565b6002820191506107a8565b50505b506000928352602083209282905b8281101561085e576108486108428386610450565b86610641565b600294909401936020919091019060010161082d565b505050505060409190910135600290910155565b60006001820161088457610884610360565b506001019056fea26469706673582212200d96a691d2254ba7e2de634be51f0f34661cf375a0278fd42766b1369a08060a64736f6c634300081a0033",
        "nonce": "0x21e2",
        "chainId": "0xaa36a7"
      },
      "additionalContracts": [],
      "isFixedGasLimit": false
    },
    {
      "hash": "0x2411cc2a93e78a8fbcab22b4408f148ce435f6a91f71882d3c515fb333eea4a8",
      "transactionType": "CREATE",
      "contractName": "Fork",
      "contractAddress": "0x8631f5abd740e75b5c7bb426354ab04482e359d5",
      "function": null,
      "arguments": null,
      "transaction": {
        "from": "0xf39fd6e51aad88f6f4ce6ab8827279cfffb92266",
        "gas": "0x9f47e",
        "value": "0x0",
        "input": "0x6080604052348015600f57600080fd5b5061081e8061001f6000396000f3fe608060405234801561001057600080fd5b506004361061002b5760003560e01c8063603d9eb714610030575b600080fd5b61004361003e3660046101fb565b610055565b60405190815260200160405180910390f35b60008281527f9a70c69f78b954ec2ace8c62308c5ea2ed35f782ee583f10b56d88886fa9930060208190526040822084919083805b60088301548110156100d757600883018054339190839081106100af576100af610249565b6000918252602090912001546001600160a01b031614806100cd5750815b915060010161008a565b50806101205760405162461bcd60e51b81526020600482015260146024820152732cb7ba9030b932903737ba103a3432903932b81760611b604482015260640160405180910390fd5b60008781527f9a70c69f78b954ec2ace8c62308c5ea2ed35f782ee583f10b56d88886fa99300602081905260408220909161015b898061025f565b5060201115610194578061016f898061025f565b815460018101835560009283526020909220909160040201610191828261032f565b50505b60006101a360208a018a6103da565b6101b190602081019061027f565b905011156101ef57600181016101ca60208a018a6103da565b8154600181018355600092835260209092209091600302016101ec82826106ca565b50505b50505050505092915050565b6000806040838503121561020e57600080fd5b82359150602083013567ffffffffffffffff81111561022c57600080fd5b83016060818603121561023e57600080fd5b809150509250929050565b634e487b7160e01b600052603260045260246000fd5b60008235607e1983360301811261027557600080fd5b9190910192915050565b6000808335601e1984360301811261029657600080fd5b83018035915067ffffffffffffffff8211156102b157600080fd5b6020019150600581901b36038213156102c957600080fd5b9250929050565b634e487b7160e01b600052604160045260246000fd5b600181901b6001600160ff1b038216821461031157634e487b7160e01b600052601160045260246000fd5b919050565b5b8181101561032b5760008155600101610317565b5050565b81358155602082013560018201556040820135600282015560038101610358606084018461027f565b67ffffffffffffffff811115610370576103706102d0565b600160401b811115610384576103846102d0565b8254818455808210156103aa578360005260206000206103a8828201848301610316565b505b50600092835260208320925b818110156103d2578235848201556020909201916001016103b6565b505050505050565b60008235605e1983360301811261027557600080fd5b60008235603e1983360301811261027557600080fd5b600181811c9082168061041a57607f821691505b60208210810361043a57634e487b7160e01b600052602260045260246000fd5b50919050565b61044a8154610406565b801561032b57601f81116001811461046457505060009055565b600083815260209020610482601f840160051c820160018301610316565b5060008381526020812081855555505050565b505050565b6000808335601e198436030181126104b157600080fd5b83018035915067ffffffffffffffff8211156104cc57600080fd5b6020019150368190038213156102c957600080fd5b601f82111561049557806000526020600020601f840160051c810160208510156105085750805b61051a601f850160051c830182610316565b5050505050565b67ffffffffffffffff831115610539576105396102d0565b61054d836105478354610406565b836104e1565b6000601f84116001811461058157600085156105695750838201355b600019600387901b1c1916600186901b17835561051a565b600083815260209020601f19861690835b828110156105b25786850135825560209485019460019092019101610592565b50868210156105cf5760001960f88860031b161c19848701351681555b505060018560011b0183555050505050565b6105eb828361049a565b67ffffffffffffffff811115610603576106036102d0565b610617816106118554610406565b856104e1565b6000601f82116001811461064b57600083156106335750838201355b600019600385901b1c1916600184901b1785556106a5565b600085815260209020601f19841690835b8281101561067c578685013582556020948501946001909201910161065c565b50848210156106995760001960f88660031b161c19848701351681555b505060018360011b0185555b505050506106b6602083018361049a565b6106c4818360018601610521565b50505050565b81358155600181016106df602084018461027f565b600160401b8111156106f3576106f36102d0565b82548184558082101561079557610709816102e6565b610712836102e6565b60008681526020902091820191015b81811015610792576107338154610406565b801561077d57601f81116001811461074e576000835561077b565b60008381526020902061076c601f840160051c820160018301610316565b50600083815260208120818555555b505b5061078a60018201610440565b600201610721565b50505b506000928352602083209282905b828110156107d4576107be6107b883866103f0565b866105e1565b60029490940193602091909101906001016107a3565b50505050506040919091013560029091015556fea26469706673582212201aa5be0ad5625432d8767127890feb49c19280a0a5aff60ea2d196593c4e737e64736f6c634300081a0033",
        "nonce": "0x21e3",
        "chainId": "0xaa36a7"
      },
      "additionalContracts": [],
      "isFixedGasLimit": false
    },
    {
      "hash": "0xe012efa4c9d44e07e8c0325b1a0b6616228fd5a021e9220baa430e85f7a588ef",
      "transactionType": "CREATE",
      "contractName": "Tally",
      "contractAddress": "0x3ff7d9476ccdd841ee54ced9c32d0f37eca348a4",
      "function": null,
      "arguments": null,
      "transaction": {
        "from": "0xf39fd6e51aad88f6f4ce6ab8827279cfffb92266",
        "gas": "0xe6da6",
        "value": "0x0",
        "input": "0x6080604052348015600f57600080fd5b50610c328061001f6000396000f3fe608060405234801561001057600080fd5b506004361061002b5760003560e01c8063ed8b6b3114610030575b600080fd5b61004361003e366004610b59565b610057565b604051901515815260200160405180910390f35b60008181527f9a70c69f78b954ec2ace8c62308c5ea2ed35f782ee583f10b56d88886fa993006020819052604082207f9a70c69f78b954ec2ace8c62308c5ea2ed35f782ee583f10b56d88886fa9930354849291906100fd5760405162461bcd60e51b815260206004820152601d60248201527f5365742074616c6c7920696e74657276616c20617420636f6e6669672e00000060448201526064015b60405180910390fd5b600382015460028201906000906101149042610b88565b815260208101919091526040016000205460ff161561017f5760405162461bcd60e51b815260206004820152602160248201527f5468697320696e74657276616c20697320616c72656164792074616c6c6965646044820152601760f91b60648201526084016100f4565b60008581527f9a70c69f78b954ec2ace8c62308c5ea2ed35f782ee583f10b56d88886fa9930060208190526040909120806101b8610a18565b6002840154600a84015442916101cd91610baa565b116102525760405162461bcd60e51b815260206004820152604960248201527f546869732070726f706f73616c20686173206265656e20657870697265642e2060448201527f596f752063616e6e6f742072756e206e65772074616c6c7920746f20757064616064820152683a32903930b735b99760b91b608482015260a4016100f4565b815467ffffffffffffffff81111561026c5761026c610bbd565b604051908082528060200260200182016040528015610295578160200160208202803683370190505b50815281546040805160208084028201810190925282815261037292909185919060009084015b8282101561036457838290600052602060002090600402016040518060800160405290816000820154815260200160018201548152602001600282015481526020016003820180548060200260200160405190810160405280929190818152602001828054801561034c57602002820191906000526020600020905b815481526020019060010190808311610338575b505050505081525050815260200190600101906102bc565b50505050600685015461081b565b80825280516000918491839061038a5761038a610bd3565b6020026020010151815481106103a2576103a2610bd3565b600091825260208220600491820201600101546005880154918701549093509083101591036103ff57604080516003808252608082019092529060208201606080368337505081516103fd9260048901925060200190610a6b565b505b80156104d1578251805160009061041857610418610bd3565b60200260200101518560030160010160008154811061043957610439610bd3565b60009182526020909120015582518051600190811061045a5761045a610bd3565b60200260200101518560030160010160018154811061047b5761047b610bd3565b60009182526020909120015582518051600290811061049c5761049c610bd3565b6020026020010151856003016001016002815481106104bd576104bd610bd3565b600091825260209091200155835460068601555b60005b60038110156105da57600486018054829081106104f3576104f3610bd3565b60009182526020909120015460c08501819052865411156105d257856000018460c001518154811061052757610527610bd3565b9060005260206000209060040201604051806080016040529081600082015481526020016001820154815260200160028201548152602001600382018054806020026020016040519081016040528092919081815260200182805480156105ad57602002820191906000526020600020905b815481526020019060010190808311610599575b505050505081525050846080015182600381106105cc576105cc610bd3565b60200201525b6001016104d4565b5060005b600381101561078057836080015181600381106105fd576105fd610bd3565b60200201515160c08501518754889190811061061b5761061b610bd3565b60009182526020909120600490910201556080840151816003811061064257610642610bd3565b602002015160200151866000018560c001518154811061066457610664610bd3565b9060005260206000209060040201600101819055508360800151816003811061068f5761068f610bd3565b602002015160400151866000018560c00151815481106106b1576106b1610bd3565b90600052602060002090600402016002018190555060005b846080015182600381106106df576106df610bd3565b60200201516060015151811015610777578460800151826003811061070657610706610bd3565b602002015160600151818151811061072057610720610bd3565b6020026020010151876000018660c001518154811061074157610741610bd3565b9060005260206000209060040201600301828154811061076357610763610bd3565b6000918252602090912001556001016106c9565b506001016105de565b5060038601546107d25760405162461bcd60e51b815260206004820152601d60248201527f5365742074616c6c7920696e74657276616c20617420636f6e6669672e00000060448201526064016100f4565b60018560020160008860020160010154426107ed9190610b88565b81526020810191909152604001600020805460ff191691151591909117905550979998505050505050505050565b815160609080831061083d575050604080516000815260208101909152610a12565b60006108498483610be9565b905060008167ffffffffffffffff81111561086657610866610bbd565b60405190808252806020026020018201604052801561088f578160200160208202803683370190505b50905060005b828110156108cc576108a78682610baa565b8282815181106108b9576108b9610bd3565b6020908102919091010152600101610895565b5060005b82811015610a0c5760005b60016108e78386610be9565b6108f19190610be9565b811015610a03578783610905836001610baa565b8151811061091557610915610bd3565b60200260200101518151811061092d5761092d610bd3565b6020026020010151602001518884838151811061094c5761094c610bd3565b60200260200101518151811061096457610964610bd3565b60200260200101516020015110156109fb5782610982826001610baa565b8151811061099257610992610bd3565b60200260200101518382815181106109ac576109ac610bd3565b60200260200101518483815181106109c6576109c6610bd3565b60200260200101858460016109db9190610baa565b815181106109eb576109eb610bd3565b6020908102919091010191909152525b6001016108db565b506001016108d0565b50925050505b92915050565b604051806101000160405280606081526020016060815260200160608152602001600015158152602001610a4a610ab6565b8152602001610a57610afb565b815260200160008152602001600081525090565b828054828255906000526020600020908101928215610aa6579160200282015b82811115610aa6578251825591602001919060010190610a8b565b50610ab2929150610b44565b5090565b60405180606001604052806003905b6040805160808101825260008082526020808301829052928201526060808201528252600019909201910181610ac55790505090565b60405180606001604052806003905b610b2e60405180606001604052806000815260200160608152602001600081525090565b815260200190600190039081610b0a5790505090565b5b80821115610ab25760008155600101610b45565b600060208284031215610b6b57600080fd5b5035919050565b634e487b7160e01b600052601160045260246000fd5b600082610ba557634e487b7160e01b600052601260045260246000fd5b500490565b80820180821115610a1257610a12610b72565b634e487b7160e01b600052604160045260246000fd5b634e487b7160e01b600052603260045260246000fd5b81810381811115610a1257610a12610b7256fea264697066735822122022eb32bc95c7ddb7c7db5042d1800e1712257770fab48f6670b62c9b100f7ed264736f6c634300081a0033",
        "nonce": "0x21e4",
        "chainId": "0xaa36a7"
      },
      "additionalContracts": [],
      "isFixedGasLimit": false
    },
    {
      "hash": "0x8956056f23b6f89415286fa57496b654829148d870fdb1ec974d31005315daf7",
      "transactionType": "CREATE",
      "contractName": "Execute",
      "contractAddress": "0x73edfc8c0625629a0f3df35f75e52b271e59c6a0",
      "function": null,
      "arguments": null,
      "transaction": {
        "from": "0xf39fd6e51aad88f6f4ce6ab8827279cfffb92266",
        "gas": "0xc94c9",
        "value": "0x0",
        "input": "0x6080604052348015600f57600080fd5b50610a838061001f6000396000f3fe608060405234801561001057600080fd5b506004361061002b5760003560e01c8063fe0d94c114610030575b600080fd5b61004361003e36600461080a565b610057565b604051901515815260200160405180910390f35b60008181527f9a70c69f78b954ec2ace8c62308c5ea2ed35f782ee583f10b56d88886fa993006020819052604082207f9a70c69f78b954ec2ace8c62308c5ea2ed35f782ee583f10b56d88886fa9930254600a82015442916100b891610823565b111561010b5760405162461bcd60e51b815260206004820152601a60248201527f50726f706f73616c206d7573742062652066696e69736865642e00000000000060448201526064015b60405180910390fd5b600181015461015c5760405162461bcd60e51b815260206004820152601960248201527f4e6f20626f647920666f726b7320746f20657865637574652e000000000000006044820152606401610102565b60058101546101b75760405162461bcd60e51b815260206004820152602160248201527f54616c6c79206d75737420626520646f6e65206174206c65617374206f6e63656044820152601760f91b6064820152608401610102565b600081600101826003016002016000815481106101d6576101d6610844565b9060005260206000200154815481106101f1576101f1610844565b9060005260206000209060030201600101905060005b815481101561042357600082828154811061022457610224610844565b906000526020600020906002020160405180604001604052908160008201805461024d9061085a565b80601f01602080910402602001604051908101604052809291908181526020018280546102799061085a565b80156102c65780601f1061029b576101008083540402835291602001916102c6565b820191906000526020600020905b8154815290600101906020018083116102a957829003601f168201915b505050505081526020016001820180546102df9061085a565b80601f016020809104026020016040519081016040528092919081815260200182805461030b9061085a565b80156103585780601f1061032d57610100808354040283529160200191610358565b820191906000526020600020905b81548152906001019060200180831161033b57829003601f168201915b5050505050815250509050600080306001600160a01b031683600001518051906020012084602001516040516020016103929291906108b8565b60408051601f19818403018152908290526103ac916108e9565b600060405180830381855af49150503d80600081146103e7576040519150601f19603f3d011682016040523d82523d6000602084013e6103ec565b606091505b509150915081610418576103ff8161042c565b60405162461bcd60e51b81526004016101029190610905565b505050600101610207565b50505050919050565b6060815160240361045457600061044283610463565b905061044d81610510565b9392505050565b61045d826106ad565b92915050565b600081516000036104b65760405162461bcd60e51b815260206004820152601f60248201527f72657665727465642077697468206e6f206572726f72206d6573736167652e006044820152606401610102565b6004825110156105085760405162461bcd60e51b815260206004820152601d60248201527f4461746120746f6f2073686f727420666f722070616e696320636f64650000006044820152606401610102565b506024015190565b60608160010361055357505060408051808201909152601881527f70616e69633a204469766973696f6e206279207a65726f2e0000000000000000602082015290565b8160110361057a5760405180606001604052806026815260200161094f6026913992915050565b816012036105a1576040518060600160405280602581526020016109d86025913992915050565b816021036105e257505060408051808201909152601f81527f70616e69633a20506f702066726f6d20616e20656d7074792061727261792e00602082015290565b81602203610609576040518060600160405280602c8152602001610a22602c913992915050565b81603103610630576040518060600160405280602581526020016109fd6025913992915050565b81603203610657576040518060600160405280602881526020016109b06028913992915050565b8160410361067e576040518060600160405280603b8152602001610975603b913992915050565b50506040805180820190915260138152722ab735b737bbb7103830b734b19031b7b2329760691b602082015290565b606081516000036107005760405162461bcd60e51b815260206004820152601f60248201527f72657665727465642077697468206e6f206572726f72206d6573736167652e006044820152606401610102565b6044825110156107525760405162461bcd60e51b815260206004820181905260248201527f4461746120746f6f2073686f727420666f722072657665727420726561736f6e6044820152606401610102565b604482015160008167ffffffffffffffff81111561077257610772610938565b6040519080825280601f01601f19166020018201604052801561079c576020820181803683370190505b50905060005b8281101561080257846107b6826044610823565b815181106107c6576107c6610844565b602001015160f81c60f81b8282815181106107e3576107e3610844565b60200101906001600160f81b031916908160001a9053506001016107a2565b509392505050565b60006020828403121561081c57600080fd5b5035919050565b8082018082111561045d57634e487b7160e01b600052601160045260246000fd5b634e487b7160e01b600052603260045260246000fd5b600181811c9082168061086e57607f821691505b60208210810361088e57634e487b7160e01b600052602260045260246000fd5b50919050565b60005b838110156108af578181015183820152602001610897565b50506000910152565b6001600160e01b03198316815281516000906108db816004850160208701610894565b919091016004019392505050565b600082516108fb818460208701610894565b9190910192915050565b6020815260008251806020840152610924816040850160208701610894565b601f01601f19169190910160400192915050565b634e487b7160e01b600052604160045260246000fdfe70616e69633a2041726974686d65746963206f7065726174696f6e20756e646572666c6f772e70616e69633a205a65726f2d696e697469616c697a6564207661726961626c65206f6620696e7465726e616c2066756e6374696f6e20747970652e70616e69633a206172726179206f75742d6f662d626f756e6473206163636573732028307833322970616e69633a2041726974686d65746963206f7065726174696f6e206f766572666c6f772e70616e69633a20416c6c6f636174696f6e206f6620746f6f206d756368206d656d6f72792e70616e69633a204172726179206f72206d656d6f727920616363657373206f7574206f6620626f756e64732ea26469706673582212200cdd9a4fd41c52394b55de786e91843ab6dbce7e6f34230648ecef169837e87864736f6c634300081a0033",
        "nonce": "0x21e5",
        "chainId": "0xaa36a7"
      },
      "additionalContracts": [],
      "isFixedGasLimit": false
    },
    {
      "hash": "0x1faecf388fda8cad5b51b6840ce43a9b97d1a5ec9f0d2c812713ee649a5a34d8",
      "transactionType": "CREATE",
      "contractName": "MemberJoinProtected",
      "contractAddress": "0x45d1989afcc3d7724b64bc72a0bfb5cd0d4d6c4e",
      "function": null,
      "arguments": null,
      "transaction": {
        "from": "0xf39fd6e51aad88f6f4ce6ab8827279cfffb92266",
        "gas": "0x52ae9",
        "value": "0x0",
        "input": "0x6080604052348015600f57600080fd5b506103c08061001f6000396000f3fe608060405234801561001057600080fd5b506004361061002b5760003560e01c806306f7e36d14610030575b600080fd5b61004361003e366004610247565b610057565b604051901515815260200160405180910390f35b60008281527f9a70c69f78b954ec2ace8c62308c5ea2ed35f782ee583f10b56d88886fa993006020819052604082208491907f2909c0a05d58f8b7f14a4ef9b6dfbc139611bb545981c04988c895be90f35000845b86518110156101b5578681815181106100c7576100c761034d565b6020026020010151600001518260000160008385600101546100e99190610363565b8152602081019190915260400160002055865187908290811061010e5761010e61034d565b6020026020010151602001518260000160008385600101546101309190610363565b815260200190815260200160002060010160006101000a8154816001600160a01b0302191690836001600160a01b031602179055508681815181106101775761017761034d565b6020026020010151604001518260000160008385600101546101999190610363565b81526020810191909152604001600020600201556001016100ac565b50855181600101546101c79190610363565b6001909101555091949350505050565b634e487b7160e01b600052604160045260246000fd5b6040516060810167ffffffffffffffff81118282101715610210576102106101d7565b60405290565b604051601f8201601f1916810167ffffffffffffffff8111828210171561023f5761023f6101d7565b604052919050565b6000806040838503121561025a57600080fd5b82359150602083013567ffffffffffffffff81111561027857600080fd5b8301601f8101851361028957600080fd5b803567ffffffffffffffff8111156102a3576102a36101d7565b6102b260208260051b01610216565b808282526020820191506020606084028501019250878311156102d457600080fd5b6020840193505b8284101561033f57606084890312156102f357600080fd5b6102fb6101ed565b8435815260208501356001600160a01b038116811461031957600080fd5b8060208301525060408501356040820152808352506020820191506060840193506102db565b809450505050509250929050565b634e487b7160e01b600052603260045260246000fd5b8082018082111561038457634e487b7160e01b600052601160045260246000fd5b9291505056fea26469706673582212207967f7ae80268022217cedf7e72f003e57ed85a5653cf2e7b213b14bef92178e64736f6c634300081a0033",
        "nonce": "0x21e6",
        "chainId": "0xaa36a7"
      },
      "additionalContracts": [],
      "isFixedGasLimit": false
    },
    {
      "hash": "0x30e8043cd82208b6551a93519f75fd290b167c8f5ec86b7c300dafc8a709cc9b",
      "transactionType": "CREATE",
      "contractName": "SetConfigsProtected",
      "contractAddress": "0x5fc875e96b7f3cab4aae3d83bfc321125ca3f258",
      "function": null,
      "arguments": null,
      "transaction": {
        "from": "0xf39fd6e51aad88f6f4ce6ab8827279cfffb92266",
        "gas": "0x89e3a",
        "value": "0x0",
        "input": "0x6080604052348015600f57600080fd5b506106e78061001f6000396000f3fe608060405234801561001057600080fd5b50600436106100415760003560e01c80635cefc4ad146100465780635ebf4de31461010557806369c30f0e14610255575b600080fd5b6100f1610054366004610446565b60009182527f9a70c69f78b954ec2ace8c62308c5ea2ed35f782ee583f10b56d88886fa9930060205280517f9a70c69f78b954ec2ace8c62308c5ea2ed35f782ee583f10b56d88886fa993025560408101517f9a70c69f78b954ec2ace8c62308c5ea2ed35f782ee583f10b56d88886fa9930455606001517f9a70c69f78b954ec2ace8c62308c5ea2ed35f782ee583f10b56d88886fa993055590565b604051901515815260200160405180910390f35b6100f1610113366004610508565b60009182527f9a70c69f78b954ec2ace8c62308c5ea2ed35f782ee583f10b56d88886fa99300602090815281517fe4fa6871814422bfe1d10a118a3483c970f3cc6a461f81c9d5701005cfdaf40380546001600160a01b039283166001600160a01b0319909116179055908201517fe4fa6871814422bfe1d10a118a3483c970f3cc6a461f81c9d5701005cfdaf4045560408201517fe4fa6871814422bfe1d10a118a3483c970f3cc6a461f81c9d5701005cfdaf40580546060850151608086015160a090960151909416600160501b027fffff0000000000000000000000000000000000000000ffffffffffffffffffff63ffffffff968716660100000000000002166601000000000000600160f01b031961ffff9096166401000000000265ffffffffffff19909316969094169590951717929092161791909117905590565b6100f16102633660046105ab565b60008281527f9a70c69f78b954ec2ace8c62308c5ea2ed35f782ee583f10b56d88886fa99300602081815260408084207fe4fa6871814422bfe1d10a118a3483c970f3cc6a461f81c9d5701005cfdaf40354825163288688f960e21b8152925188959492937fe4fa6871814422bfe1d10a118a3483c970f3cc6a461f81c9d5701005cfdaf400936001600160a01b039093169263a21a23e49260048084019382900301818b875af115801561031c573d6000803e3d6000fd5b505050506040513d601f19601f8201168201806040525081019061034091906105ec565b60028201805467ffffffffffffffff9290921667ffffffffffffffff199092168217905560058201546003830154604080516020808201959095528151808203909501855280820191829052630200057560e51b9091526001600160a01b03600160501b909304831693634000aea0936103c19316918b919060440161061d565b6020604051808303816000875af11580156103e0573d6000803e3d6000fd5b505050506040513d601f19601f82011682018060405250810190610404919061068f565b505050505092915050565b60405160c0810167ffffffffffffffff8111828210171561044057634e487b7160e01b600052604160045260246000fd5b60405290565b60008082840360a081121561045a57600080fd5b833592506080601f198201121561047057600080fd5b506040516080810167ffffffffffffffff811182821017156104a257634e487b7160e01b600052604160045260246000fd5b60409081526020858101358352858201359083015260608086013591830191909152608090940135938101939093525092909150565b80356001600160a01b03811681146104ef57600080fd5b919050565b803563ffffffff811681146104ef57600080fd5b60008082840360e081121561051c57600080fd5b8335925060c0601f198201121561053257600080fd5b5061053b61040f565b610547602085016104d8565b81526040840135602082015261055f606085016104f4565b6040820152608084013561ffff8116811461057957600080fd5b606082015261058a60a085016104f4565b608082015261059b60c085016104d8565b60a0820152809150509250929050565b600080604083850312156105be57600080fd5b8235915060208301356bffffffffffffffffffffffff811681146105e157600080fd5b809150509250929050565b6000602082840312156105fe57600080fd5b815167ffffffffffffffff8116811461061657600080fd5b9392505050565b60018060a01b03841681526bffffffffffffffffffffffff83166020820152606060408201526000825180606084015260005b8181101561066d5760208186018101516080868401015201610650565b506000608082850101526080601f19601f830116840101915050949350505050565b6000602082840312156106a157600080fd5b8151801515811461061657600080fdfea2646970667358221220b886ebc50e8eebe1b5466900be9f742827f7a099f201f04cddf78defebea11a364736f6c634300081a0033",
        "nonce": "0x21e7",
        "chainId": "0xaa36a7"
      },
      "additionalContracts": [],
      "isFixedGasLimit": false
    },
    {
      "hash": "0x2dbe4a77fe37dcd500add1ae9ade5b9516f17f63f1ce233fe92a113c75c8c321",
      "transactionType": "CREATE",
      "contractName": "ConfigOverrideProtected",
      "contractAddress": "0x887aabee3f11ff3fac73462cb7f199e7c8661831",
      "function": null,
      "arguments": null,
      "transaction": {
        "from": "0xf39fd6e51aad88f6f4ce6ab8827279cfffb92266",
        "gas": "0x2aa07",
        "value": "0x0",
        "input": "0x6080604052348015600f57600080fd5b506101778061001f6000396000f3fe608060405234801561001057600080fd5b506004361061002b5760003560e01c80639f31e87b14610030575b600080fd5b6100be61003e3660046100d2565b60009182527f9a70c69f78b954ec2ace8c62308c5ea2ed35f782ee583f10b56d88886fa993006020908152905163ed8b6b3160e01b83527f147a311fe1db87247fe76cc1e6db3134e5d52a59e0824f018dad572e05b140009091527f5383e7c9ddd7d9b1763c1c2f58463c31530bb7fd97b38b4d6c0ce4a8002064665590565b604051901515815260200160405180910390f35b60008082840360408112156100e657600080fd5b833592506020601f19820112156100fc57600080fd5b506040516020810181811067ffffffffffffffff8211171561012e57634e487b7160e01b600052604160045260246000fd5b604052602093909301358352509290915056fea2646970667358221220a9f8415f4091816158e15e2743b79ecffedc2537bc8bd21d59883933114a2f4764736f6c634300081a0033",
        "nonce": "0x21e8",
        "chainId": "0xaa36a7"
      },
      "additionalContracts": [],
      "isFixedGasLimit": false
    },
    {
      "hash": "0xfd272152b34f191b17cc83600dfb02ba9d58b1d7cbffd17fb830d68c08cf9168",
      "transactionType": "CREATE",
      "contractName": "SaveTextProtected",
      "contractAddress": "0x71e1fbdda6fe101e2e63bdafd427c1e4e62cb042",
      "function": null,
      "arguments": null,
      "transaction": {
        "from": "0xf39fd6e51aad88f6f4ce6ab8827279cfffb92266",
        "gas": "0x4182d",
        "value": "0x0",
        "input": "0x6080604052348015600f57600080fd5b506102c58061001f6000396000f3fe608060405234801561001057600080fd5b506004361061002b5760003560e01c80639877696714610030575b600080fd5b61004361003e366004610186565b610057565b604051901515815260200160405180910390f35b60008381527f9a70c69f78b954ec2ace8c62308c5ea2ed35f782ee583f10b56d88886fa99300602081815260408084208685527ec2b62a56d6a36d26f9b1ee520f3f92694a04313c94e467f10a03b080d779008084529185207ec2b62a56d6a36d26f9b1ee520f3f92694a04313c94e467f10a03b080d7790154815586518995949293926100ec9160018401918a0190610110565b506001820180549060006100ff83610268565b919050555050505050509392505050565b82805482825590600052602060002090810192821561014b579160200282015b8281111561014b578251825591602001919060010190610130565b5061015792915061015b565b5090565b5b80821115610157576000815560010161015c565b634e487b7160e01b600052604160045260246000fd5b60008060006060848603121561019b57600080fd5b8335925060208401359150604084013567ffffffffffffffff8111156101c057600080fd5b8401601f810186136101d157600080fd5b803567ffffffffffffffff8111156101eb576101eb610170565b8060051b604051601f19603f830116810181811067ffffffffffffffff8211171561021857610218610170565b60405291825260208184018101929081018984111561023657600080fd5b6020850194505b838510156102595784358082526020958601959093500161023d565b50809450505050509250925092565b60006001820161028857634e487b7160e01b600052601160045260246000fd5b506001019056fea264697066735822122066a855a438a466fba3fa13d4b3ef48e4d6c60979e355d921cae32dc89d08bea564736f6c634300081a0033",
        "nonce": "0x21e9",
        "chainId": "0xaa36a7"
      },
      "additionalContracts": [],
      "isFixedGasLimit": false
    },
    {
      "hash": "0x4a8a77393a24308917bbfbc245e6468febab6a26a6fc277a68b68d458947f776",
      "transactionType": "CREATE",
      "contractName": "Getter",
      "contractAddress": "0xa6197989532384585379282a8c4b0141f54d0609",
      "function": null,
      "arguments": null,
      "transaction": {
        "from": "0xf39fd6e51aad88f6f4ce6ab8827279cfffb92266",
        "gas": "0x12bd6d",
        "value": "0x0",
        "input": "0x6080604052348015600f57600080fd5b506110218061001f6000396000f3fe608060405234801561001057600080fd5b50600436106100ea5760003560e01c8063a4c5e9cb1161008c578063c7f758a811610066578063c7f758a81461046d578063cb37be9e1461048d578063de3d9fb714610495578063e8109953146104d057600080fd5b8063a4c5e9cb14610300578063ab3545e51461033b578063c1e582ba146103e757600080fd5b80636c996f88116100c85780636c996f8814610183578063787e0fe0146101a35780637f4ef9d4146101ab5780639a5ea6a0146101cb57600080fd5b806325be10bd146100ef5780632a2c16a0146101655780632b7efac11461017b575b600080fd5b6101516100fd366004610c00565b60408051602080820183526000918290526001600160e01b03199390931681527f147a311fe1db87247fe76cc1e6db3134e5d52a59e0824f018dad572e05b140008352819020815192830190915254815290565b604051905181526020015b60405180910390f35b61016d6104f0565b60405190815260200161015c565b61016d61051d565b610196610191366004610c31565b610544565b60405161015c9190610c86565b61016d610630565b6101be6101b9366004610c31565b610646565b60405161015c9190610d16565b6102946040805160c081018252600080825260208201819052918101829052606081018290526080810182905260a08101919091527fe4fa6871814422bfe1d10a118a3483c970f3cc6a461f81c9d5701005cfdaf4006040805160c08101825260038301546001600160a01b0390811682526004840154602083015260059093015463ffffffff8082169383019390935261ffff6401000000008204166060830152660100000000000081049092166080820152600160501b90910490911660a0820152919050565b60405161015c9190600060c08201905060018060a01b0383511682526020830151602083015263ffffffff604084015116604083015261ffff606084015116606083015263ffffffff608084015116608083015260018060a01b0360a08401511660a083015292915050565b6103086106f5565b60405161015c91908151815260208083015190820152604080830151908201526060918201519181019190915260800190565b6103bc610349366004610c31565b6040805160608082018352600080835260208084018290529284018190529384527f2909c0a05d58f8b7f14a4ef9b6dfbc139611bb545981c04988c895be90f35000825292829020825193840183528054845260018101546001600160a01b031691840191909152600201549082015290565b60408051825181526020808401516001600160a01b031690820152918101519082015260600161015c565b6104526103f5366004610c31565b60408051808201909152600080825260208201527fe4fa6871814422bfe1d10a118a3483c970f3cc6a461f81c9d5701005cfdaf4006000928352602090815260409283902083518085019094528054845260010154908301525090565b6040805182518152602092830151928101929092520161015c565b61048061047b366004610c31565b6107c9565b60405161015c9190610dac565b61016d610965565b7fe4fa6871814422bfe1d10a118a3483c970f3cc6a461f81c9d5701005cfdaf4025460405167ffffffffffffffff909116815260200161015c565b6104e36104de366004610e66565b61098d565b60405161015c9190610ece565b60007fe4fa6871814422bfe1d10a118a3483c970f3cc6a461f81c9d5701005cfdaf4005b60010154905090565b60007ec2b62a56d6a36d26f9b1ee520f3f92694a04313c94e467f10a03b080d77900610514565b6060600080516020610fcc8339815191526000838152602091825260408082208054825181860281018601909352808352919390929084015b8282101561062557838290600052602060002090600402016040518060800160405290816000820154815260200160018201548152602001600282015481526020016003820180548060200260200160405190810160405280929190818152602001828054801561060d57602002820191906000526020600020905b8154815260200190600101908083116105f9575b5050505050815250508152602001906001019061057d565b505050509050919050565b6000600080516020610fcc833981519152610514565b6040805180820190915260008152606060208201527ec2b62a56d6a36d26f9b1ee520f3f92694a04313c94e467f10a03b080d7790060008381526020918252604090819020815180830183528154815260018201805484518187028101870190955280855291949293858401939092908301828280156106e557602002820191906000526020600020905b8154815260200190600101908083116106d1575b5050505050815250509050919050565b6107206040518060800160405280600081526020016000815260200160008152602001600081525090565b50604080516080810182527f9a70c69f78b954ec2ace8c62308c5ea2ed35f782ee583f10b56d88886fa993025481527f9a70c69f78b954ec2ace8c62308c5ea2ed35f782ee583f10b56d88886fa993035460208201527f9a70c69f78b954ec2ace8c62308c5ea2ed35f782ee583f10b56d88886fa9930454918101919091527f9a70c69f78b954ec2ace8c62308c5ea2ed35f782ee583f10b56d88886fa9930554606082015290565b6107d1610b99565b6000828152600080516020610fcc8339815191526020908152604091829020825161016081018452600382018054606083019081526004840180548751818802810188019098528088529496939586959294608087019390929183018282801561085a57602002820191906000526020600020905b815481526020019060010190808311610846575b50505050508152602001600282018054806020026020016040519081016040528092919081815260200182805480156108b257602002820191906000526020600020905b81548152602001906001019080831161089e575b5050505050815260200160038201548152602001600482015481526020016005820180548060200260200160405190810160405280929190818152602001828054801561092857602002820191906000526020600020905b81546001600160a01b0316815260019091019060200180831161090a575b5050509183525050600682015460208083019190915260079092015460409182015291835284549083015260019093015492019190915292915050565b60007f2909c0a05d58f8b7f14a4ef9b6dfbc139611bb545981c04988c895be90f35000610514565b6109b160405180606001604052806000815260200160608152602001600081525090565b6000838152600080516020610fcc833981519152602052604090206001018054839081106109e1576109e1610f7b565b90600052602060002090600302016040518060600160405290816000820154815260200160018201805480602002602001604051908101604052809291908181526020016000905b82821015610b7f5783829060005260206000209060020201604051806040016040529081600082018054610a5c90610f91565b80601f0160208091040260200160405190810160405280929190818152602001828054610a8890610f91565b8015610ad55780601f10610aaa57610100808354040283529160200191610ad5565b820191906000526020600020905b815481529060010190602001808311610ab857829003601f168201915b50505050508152602001600182018054610aee90610f91565b80601f0160208091040260200160405190810160405280929190818152602001828054610b1a90610f91565b8015610b675780601f10610b3c57610100808354040283529160200191610b67565b820191906000526020600020905b815481529060010190602001808311610b4a57829003601f168201915b50505050508152505081526020019060010190610a29565b505050508152602001600282015481525050905092915050565b6040518060600160405280610bec60405180610100016040528060008152602001606081526020016060815260200160008152602001600081526020016060815260200160008152602001600081525090565b815260200160008152602001600081525090565b600060208284031215610c1257600080fd5b81356001600160e01b031981168114610c2a57600080fd5b9392505050565b600060208284031215610c4357600080fd5b5035919050565b600081518084526020840193506020830160005b82811015610c7c578151865260209586019590910190600101610c5e565b5093949350505050565b6000602082016020835280845180835260408501915060408160051b86010192506020860160005b82811015610d0a57603f1987860301845281518051865260208101516020870152604081015160408701526060810151905060806060870152610cf46080870182610c4a565b9550506020938401939190910190600101610cae565b50929695505050505050565b6020808252825182820152828101516040808401528051606084018190526000929190910190829060808501905b80831015610d675783518252602082019150602084019350600183019250610d44565b5095945050505050565b600081518084526020840193506020830160005b82811015610c7c5781516001600160a01b0316865260209586019590910190600101610d85565b60208152600082516060602084015280516080840152602081015161010060a0850152610ddd610180850182610c4a565b90506040820151607f198583030160c0860152610dfa8282610c4a565b915050606082015160e0850152608082015161010085015260a0820151607f1985830301610120860152610e2e8282610d71565b91505060c082015161014085015260e08201516101608501526020850151604085015260408501516060850152809250505092915050565b60008060408385031215610e7957600080fd5b50508035926020909101359150565b6000815180845260005b81811015610eae57602081850181015186830182015201610e92565b506000602082860101526020601f19601f83011685010191505092915050565b602081526000608082018351602084015260208401516060604085015281815180845260a08601915060a08160051b870101935060208301925060005b81811015610f6357609f198786030183528351805160408752610f316040880182610e88565b9050602082015191508681036020880152610f4c8183610e88565b965050506020938401939290920191600101610f0b565b50505050604084015160608401528091505092915050565b634e487b7160e01b600052603260045260246000fd5b600181811c90821680610fa557607f821691505b602082108103610fc557634e487b7160e01b600052602260045260246000fd5b5091905056fe9a70c69f78b954ec2ace8c62308c5ea2ed35f782ee583f10b56d88886fa99300a26469706673582212200540020a12a96dda73c1f347dd7dc00fe8a48dc141f23499876d49705cf5de9764736f6c634300081a0033",
        "nonce": "0x21ea",
        "chainId": "0xaa36a7"
      },
      "additionalContracts": [],
      "isFixedGasLimit": false
    },
    {
      "hash": "0x275ea68735d1bc0256b437a8403ce21fa2e2033d275a589f71ac6adb8835ffd4",
      "transactionType": "CREATE",
      "contractName": "TextDAOFacade",
      "contractAddress": "0x5aeaaab8171cbfc4f966c6467d161c5e81e17e60",
      "function": null,
      "arguments": null,
      "transaction": {
        "from": "0xf39fd6e51aad88f6f4ce6ab8827279cfffb92266",
        "gas": "0xde708",
        "value": "0x0",
        "input": "0x6080604052348015600f57600080fd5b50610bb88061001f6000396000f3fe608060405234801561001057600080fd5b506004361061018e5760003560e01c8063a4c5e9cb116100de578063cb37be9e11610097578063e69b9edc11610071578063e69b9edc146103f9578063e810995314610444578063ed8b6b3114610464578063fe0d94c11461046457600080fd5b8063cb37be9e146101dd578063dc1ec0e514610427578063de3d9fb71461043557600080fd5b8063a4c5e9cb14610315578063ab3545e514610350578063bca2007b146103aa578063c1e582ba146103b8578063c5b36441146103f9578063c7f758a81461040757600080fd5b8063603d9eb71161014b5780637f4ef9d4116101255780637f4ef9d41461023d5780638124b78e146102715780639a5ea6a0146102825780639f46786e1461030157600080fd5b8063603d9eb71461020e5780636c996f881461021c578063787e0fe0146101dd57600080fd5b806306f7e36d1461019357806325be10bd146101a85780632a2c16a0146101dd5780632b7efac1146101dd5780633fc765ad146101ee5780634f4a953614610200575b600080fd5b6101a66101a136600461053e565b505050565b005b6101c96101b63660046105bf565b5060408051602081019091526000815290565b604051905181526020015b60405180910390f35b60005b6040519081526020016101d4565b6101a66101fc366004610608565b5050565b6101a66101a1366004610635565b6101a66101fc3660046106b4565b61023061022a3660046106fb565b50606090565b6040516101d49190610750565b61026461024b3660046106fb565b5060408051808201909152600081526060602082015290565b6040516101d491906107e0565b6101a661027f36600461083b565b50565b6040805160c08082018352600080835260208084018281528486018381526060808701858152608080890187815260a0998a018881528b51988952955196880196909652925163ffffffff908116998701999099525161ffff169085015291519095169082015292516001600160a01b031691830191909152016101d4565b6101e061030f366004610864565b50600090565b61031d61047a565b6040516101d491908151815260208083015190820152604080830151908201526060918201519181019190915260800190565b61037f61035e3660046106fb565b50604080516060810182526000808252602082018190529181019190915290565b60408051825181526020808401516001600160a01b03169082015291810151908201526060016101d4565b6101a661027f3660046108a1565b6103de6103c63660046106fb565b50604080518082019091526000808252602082015290565b604080518251815260209283015192810192909252016101d4565b6101a66101fc3660046108bd565b61041a6104153660046106fb565b6104a5565b6040516101d4919061092b565b6101a66101a13660046109e5565b604051600081526020016101d4565b610457610452366004610a6d565b6104ad565b6040516101d49190610ad5565b6101a661027f3660046106fb565b919050565b90565b6104776040518060800160405280600081526020016000815260200160008152602001600081525090565b6104726104d7565b6104d160405180606001604052806000815260200160608152602001600081525090565b92915050565b604051806060016040528061052a60405180610100016040528060008152602001606081526020016060815260200160008152602001600081526020016060815260200160008152602001600081525090565b815260200160008152602001600081525090565b60008060006040848603121561055357600080fd5b83359250602084013567ffffffffffffffff81111561057157600080fd5b8401601f8101861361058257600080fd5b803567ffffffffffffffff81111561059957600080fd5b8660206060830284010111156105ae57600080fd5b939660209190910195509293505050565b6000602082840312156105d157600080fd5b81356001600160e01b0319811681146105e957600080fd5b9392505050565b60006080828403121561060257600080fd5b50919050565b60008060a0838503121561061b57600080fd5b8235915061062c84602085016105f0565b90509250929050565b60008060006040848603121561064a57600080fd5b83359250602084013567ffffffffffffffff81111561066857600080fd5b8401601f8101861361067957600080fd5b803567ffffffffffffffff81111561069057600080fd5b8660208284010111156105ae57600080fd5b60006060828403121561060257600080fd5b600080604083850312156106c757600080fd5b82359150602083013567ffffffffffffffff8111156106e557600080fd5b6106f1858286016106a2565b9150509250929050565b60006020828403121561070d57600080fd5b5035919050565b600081518084526020840193506020830160005b82811015610746578151865260209586019590910190600101610728565b5093949350505050565b6000602082016020835280845180835260408501915060408160051b86010192506020860160005b828110156107d457603f19878603018452815180518652602081015160208701526040810151604087015260608101519050608060608701526107be6080870182610714565b9550506020938401939190910190600101610778565b50929695505050505050565b6020808252825182820152828101516040808401528051606084018190526000929190910190829060808501905b80831015610831578351825260208201915060208401935060018301925061080e565b5095945050505050565b60006020828403121561084d57600080fd5b81356001600160a01b03811681146105e957600080fd5b60006020828403121561087657600080fd5b813567ffffffffffffffff81111561088d57600080fd5b610899848285016106a2565b949350505050565b6000608082840312156108b357600080fd5b6105e983836105f0565b600080608083850312156108d057600080fd5b82359150608083018410156108e457600080fd5b50926020919091019150565b600081518084526020840193506020830160005b828110156107465781516001600160a01b0316865260209586019590910190600101610904565b60208152600082516060602084015280516080840152602081015161010060a085015261095c610180850182610714565b90506040820151607f198583030160c08601526109798282610714565b915050606082015160e0850152608082015161010085015260a0820151607f19858303016101208601526109ad82826108f0565b91505060c082015161014085015260e08201516101608501526020850151604085015260408501516060850152809250505092915050565b600080600060a084860312156109fa57600080fd5b833567ffffffffffffffff811115610a1157600080fd5b8401601f81018613610a2257600080fd5b803567ffffffffffffffff811115610a3957600080fd5b8660208260051b8401011115610a4e57600080fd5b602091820194509250610a6490869086016105f0565b90509250925092565b60008060408385031215610a8057600080fd5b50508035926020909101359150565b6000815180845260005b81811015610ab557602081850181015186830182015201610a99565b506000602082860101526020601f19601f83011685010191505092915050565b602081526000608082018351602084015260208401516060604085015281815180845260a08601915060a08160051b870101935060208301925060005b81811015610b6a57609f198786030183528351805160408752610b386040880182610a8f565b9050602082015191508681036020880152610b538183610a8f565b965050506020938401939290920191600101610b12565b5050505060408401516060840152809150509291505056fea2646970667358221220cd5e26abb9ab710f3944b5e4fef02ca5f7735e7be8f172aeef03b00fe1ad638a64736f6c634300081a0033",
        "nonce": "0x21eb",
        "chainId": "0xaa36a7"
      },
      "additionalContracts": [],
      "isFixedGasLimit": false
    },
    {
      "hash": "0x5b132c6b7374511940e8ad51baa88110d4ca6bfc29687f8a5a70d932a4b4167d",
      "transactionType": "CREATE",
      "contractName": "Dictionary",
      "contractAddress": "0x70ef722657864f950edc4f3dd885caa2d35db872",
      "function": null,
      "arguments": [
        "0xf39Fd6e51aad88F6F4ce6aB8827279cffFb92266"
      ],
      "transaction": {
        "from": "0xf39fd6e51aad88f6f4ce6ab8827279cfffb92266",
        "gas": "0xa7856",
        "value": "0x0",
        "input": "0x608060405234801561001057600080fd5b5060405161091438038061091483398101604081905261002f916100c0565b806001600160a01b03811661005e57604051631e4fbdf760e01b81526000600482015260240160405180910390fd5b6100678161006e565b50506100f0565b600380546001600160a01b038381166001600160a01b0319831681179093556040519116919082907f8be0079c531659141344cd1fd0a4f28419497f9722a3daafe3b4186f6b6457e090600090a35050565b6000602082840312156100d257600080fd5b81516001600160a01b03811681146100e957600080fd5b9392505050565b610815806100ff6000396000f3fe608060405234801561001057600080fd5b50600436106100935760003560e01c8063715018a611610066578063715018a61461012f5780638da5cb5b14610137578063a5954dd714610148578063dc9cc6451461015d578063f2fde38b1461017057600080fd5b806301ffc9a7146100985780630815f6fd146100e25780635c60da1b146100f7578063651dc03d1461011c575b600080fd5b6100cd6100a63660046106f5565b6001600160e01b0319166000908152602081905260409020546001600160a01b0316151590565b60405190151581526020015b60405180910390f35b6100f56100f036600461072e565b610183565b005b6002546001600160a01b03165b6040516001600160a01b0390911681526020016100d9565b6100f561012a366004610761565b610199565b6100f56101ad565b6003546001600160a01b0316610104565b6101506101c1565b6040516100d9919061077c565b61010461016b3660046106f5565b610246565b6100f561017e366004610761565b6102df565b61018b61031a565b6101958282610347565b5050565b6101a161031a565b6101aa81610371565b50565b6101b561031a565b6101bf60006103c6565b565b6060600180548060200260200160405190810160405280929190818152602001828054801561023c57602002820191906000526020600020906000905b82829054906101000a900460e01b6001600160e01b031916815260200190600401906020826003010492830192600103820291508084116101fe5790505b5050505050905090565b6001600160e01b031981166000908152602081905260408120546001600160a01b031680156102755792915050565b5060008080526020527fad3228b676f7d3cd4284a5443f17f1962b36e491b30a40b2405849e597ba5fb5546001600160a01b031680156102b55792915050565b60405163404ceef760e11b81526001600160e01b0319841660048201526024015b60405180910390fd5b6102e761031a565b6001600160a01b03811661031157604051631e4fbdf760e01b8152600060048201526024016102d6565b6101aa816103c6565b6003546001600160a01b031633146101bf5760405163118cdaa760e01b81523360048201526024016102d6565b6001600160a01b03811661035e5761019582610418565b61036782610514565b61019582826105bb565b600280546001600160a01b0319166001600160a01b0383169081179091556040519081527f159f10d3da077d18f228d52be447d552e7d1892d10f7af8f615658160e374729906020015b60405180910390a150565b600380546001600160a01b038381166001600160a01b0319831681179093556040519116919082907f8be0079c531659141344cd1fd0a4f28419497f9722a3daafe3b4186f6b6457e090600090a35050565b60005b6001548110156104bd57816001600160e01b03191660018281548110610443576104436107c9565b90600052602060002090600891828204019190066004029054906101000a900460e01b6001600160e01b031916036104b55760018181548110610488576104886107c9565b90600052602060002090600891828204019190066004026101000a81549063ffffffff02191690556104bd565b60010161041b565b506001600160e01b031981166000818152602081815260409182902080546001600160a01b031916905590519182527fb0f2f3a9229724df0b95683e95488b72aed817bc1a5bd6fe1d2e7504e92871cb91016103bb565b61051d81610660565b156105255750565b6001805480820182556000919091527fb10e2d527612073b26eecdfd717e6a320cf44b4afac2b0732d9fcbe2b7fa0cf66008820401805463ffffffff60079093166004026101000a928302191660e084901c929092029190911790556040516001600160e01b0319821681527fbe533f538959a17d76f1b09e966e741ee3b1183099682f96216c93d21feaecba906020016103bb565b806001600160a01b03163b6000036105f157604051630c76093760e01b81526001600160a01b03821660048201526024016102d6565b6001600160e01b031982166000818152602081815260409182902080546001600160a01b0319166001600160a01b0386169081179091558251938452908301527fda3c8142b3c1d27633026f55bfcb4eeb0b5b8db0daa0a3e10c2213a441722ad1910160405180910390a15050565b6000805b6001548110156106cf57826001600160e01b0319166001828154811061068c5761068c6107c9565b90600052602060002090600891828204019190066004029054906101000a900460e01b6001600160e01b031916036106c75750600192915050565b600101610664565b50600092915050565b80356001600160e01b0319811681146106f057600080fd5b919050565b60006020828403121561070757600080fd5b610710826106d8565b9392505050565b80356001600160a01b03811681146106f057600080fd5b6000806040838503121561074157600080fd5b61074a836106d8565b915061075860208401610717565b90509250929050565b60006020828403121561077357600080fd5b61071082610717565b602080825282518282018190526000918401906040840190835b818110156107be5783516001600160e01b031916835260209384019390920191600101610796565b509095945050505050565b634e487b7160e01b600052603260045260246000fdfea2646970667358221220412e573aa59fd977a3266ad81937acabd215642956df49437ac017320511d9db64736f6c634300081a0033000000000000000000000000f39fd6e51aad88f6f4ce6ab8827279cfffb92266",
        "nonce": "0x21ec",
        "chainId": "0xaa36a7"
      },
      "additionalContracts": [],
      "isFixedGasLimit": false
    },
    {
      "hash": "0x79ea5c085a4dee1e03d003611906a381a817e9d775c299c399486154bee32194",
      "transactionType": "CALL",
      "contractName": "Dictionary",
      "contractAddress": "0x70ef722657864f950edc4f3dd885caa2d35db872",
      "function": "setImplementation(bytes4,address)",
      "arguments": [
        "0x8ca89f7700000000000000000000000000000000000000000000000000000000",
        "0xFdF4D8E40E028101F5C170d35D7FF01bF1054209"
      ],
      "transaction": {
        "from": "0xf39fd6e51aad88f6f4ce6ab8827279cfffb92266",
        "to": "0x70ef722657864f950edc4f3dd885caa2d35db872",
        "gas": "0x206fc",
        "value": "0x0",
        "input": "0x0815f6fd8ca89f7700000000000000000000000000000000000000000000000000000000000000000000000000000000fdf4d8e40e028101f5c170d35d7ff01bf1054209",
        "nonce": "0x21ed",
        "chainId": "0xaa36a7"
      },
      "additionalContracts": [],
      "isFixedGasLimit": false
    },
    {
      "hash": "0x071318ec11fb2588ca9f965bb5291531c03cd3bc5d56e6072b996ac457b3dc0d",
      "transactionType": "CALL",
      "contractName": "Dictionary",
      "contractAddress": "0x70ef722657864f950edc4f3dd885caa2d35db872",
      "function": "setImplementation(bytes4,address)",
      "arguments": [
        "0xdc1ec0e500000000000000000000000000000000000000000000000000000000",
        "0xdE96E0F0900d95B9a3AD093c7a8d7EBCDc62e1AF"
      ],
      "transaction": {
        "from": "0xf39fd6e51aad88f6f4ce6ab8827279cfffb92266",
        "to": "0x70ef722657864f950edc4f3dd885caa2d35db872",
        "gas": "0x151c0",
        "value": "0x0",
        "input": "0x0815f6fddc1ec0e500000000000000000000000000000000000000000000000000000000000000000000000000000000de96e0f0900d95b9a3ad093c7a8d7ebcdc62e1af",
        "nonce": "0x21ee",
        "chainId": "0xaa36a7"
      },
      "additionalContracts": [],
      "isFixedGasLimit": false
    },
    {
      "hash": "0xf98cb545c3bd5247fd99fc86e68df4c9cee96ba27de00575c480e6f1ddf1ee75",
      "transactionType": "CALL",
      "contractName": "Dictionary",
      "contractAddress": "0x70ef722657864f950edc4f3dd885caa2d35db872",
      "function": "setImplementation(bytes4,address)",
      "arguments": [
        "0x9f46786e00000000000000000000000000000000000000000000000000000000",
        "0x89a18e5E226fc1eA2079265a068c6701c6550b84"
      ],
      "transaction": {
        "from": "0xf39fd6e51aad88f6f4ce6ab8827279cfffb92266",
        "to": "0x70ef722657864f950edc4f3dd885caa2d35db872",
        "gas": "0x1691b",
        "value": "0x0",
        "input": "0x0815f6fd9f46786e0000000000000000000000000000000000000000000000000000000000000000000000000000000089a18e5e226fc1ea2079265a068c6701c6550b84",
        "nonce": "0x21ef",
        "chainId": "0xaa36a7"
      },
      "additionalContracts": [],
      "isFixedGasLimit": false
    },
    {
      "hash": "0xc994c9c88d7d82874648d83654a313052f99972d349ac1b7079f63b75e6bca7b",
      "transactionType": "CALL",
      "contractName": "Dictionary",
      "contractAddress": "0x70ef722657864f950edc4f3dd885caa2d35db872",
      "function": "setImplementation(bytes4,address)",
      "arguments": [
        "0x603d9eb700000000000000000000000000000000000000000000000000000000",
        "0x8631f5ABD740e75b5C7bB426354aB04482E359D5"
      ],
      "transaction": {
        "from": "0xf39fd6e51aad88f6f4ce6ab8827279cfffb92266",
        "to": "0x70ef722657864f950edc4f3dd885caa2d35db872",
        "gas": "0x16c96",
        "value": "0x0",
        "input": "0x0815f6fd603d9eb7000000000000000000000000000000000000000000000000000000000000000000000000000000008631f5abd740e75b5c7bb426354ab04482e359d5",
        "nonce": "0x21f0",
        "chainId": "0xaa36a7"
      },
      "additionalContracts": [],
      "isFixedGasLimit": false
    },
    {
      "hash": "0x352e32386eac74acdb7eb1ef7c4dc613d61db52ce206c2ff1de7c9d5c9fbb925",
      "transactionType": "CALL",
      "contractName": "Dictionary",
      "contractAddress": "0x70ef722657864f950edc4f3dd885caa2d35db872",
      "function": "setImplementation(bytes4,address)",
      "arguments": [
        "0xc5b3644100000000000000000000000000000000000000000000000000000000",
        "0xfFA6c34fba0C3b6Cf8Ec958eD291C87589Ad9528"
      ],
      "transaction": {
        "from": "0xf39fd6e51aad88f6f4ce6ab8827279cfffb92266",
        "to": "0x70ef722657864f950edc4f3dd885caa2d35db872",
        "gas": "0x15b9f",
        "value": "0x0",
        "input": "0x0815f6fdc5b3644100000000000000000000000000000000000000000000000000000000000000000000000000000000ffa6c34fba0c3b6cf8ec958ed291c87589ad9528",
        "nonce": "0x21f1",
        "chainId": "0xaa36a7"
      },
      "additionalContracts": [],
      "isFixedGasLimit": false
    },
    {
      "hash": "0xe08d0e133bdc39254fff99efe31ea2a9c767c4f4a8187ff1c24b6e6e4b8ccc76",
      "transactionType": "CALL",
      "contractName": "Dictionary",
      "contractAddress": "0x70ef722657864f950edc4f3dd885caa2d35db872",
      "function": "setImplementation(bytes4,address)",
      "arguments": [
        "0xe69b9edc00000000000000000000000000000000000000000000000000000000",
        "0xfFA6c34fba0C3b6Cf8Ec958eD291C87589Ad9528"
      ],
      "transaction": {
        "from": "0xf39fd6e51aad88f6f4ce6ab8827279cfffb92266",
        "to": "0x70ef722657864f950edc4f3dd885caa2d35db872",
        "gas": "0x15ee9",
        "value": "0x0",
        "input": "0x0815f6fde69b9edc00000000000000000000000000000000000000000000000000000000000000000000000000000000ffa6c34fba0c3b6cf8ec958ed291c87589ad9528",
        "nonce": "0x21f2",
        "chainId": "0xaa36a7"
      },
      "additionalContracts": [],
      "isFixedGasLimit": false
    },
    {
      "hash": "0xb428a553e6ad973424669ef44ce2629857cdbba2feded883a2f720f864e7708a",
      "transactionType": "CALL",
      "contractName": "Dictionary",
      "contractAddress": "0x70ef722657864f950edc4f3dd885caa2d35db872",
      "function": "setImplementation(bytes4,address)",
      "arguments": [
        "0xed8b6b3100000000000000000000000000000000000000000000000000000000",
        "0x3FF7d9476CcdD841ee54ceD9C32d0F37eCa348a4"
      ],
      "transaction": {
        "from": "0xf39fd6e51aad88f6f4ce6ab8827279cfffb92266",
        "to": "0x70ef722657864f950edc4f3dd885caa2d35db872",
        "gas": "0x1770b",
        "value": "0x0",
        "input": "0x0815f6fded8b6b31000000000000000000000000000000000000000000000000000000000000000000000000000000003ff7d9476ccdd841ee54ced9c32d0f37eca348a4",
        "nonce": "0x21f3",
        "chainId": "0xaa36a7"
      },
      "additionalContracts": [],
      "isFixedGasLimit": false
    },
    {
      "hash": "0x16b737210a025a063ab565e00ad1ce366b98d1e68bb1994aa91b7161950b53c9",
      "transactionType": "CALL",
      "contractName": "Dictionary",
      "contractAddress": "0x70ef722657864f950edc4f3dd885caa2d35db872",
      "function": "setImplementation(bytes4,address)",
      "arguments": [
        "0xfe0d94c100000000000000000000000000000000000000000000000000000000",
        "0x73edFC8C0625629a0f3df35f75e52b271e59C6A0"
      ],
      "transaction": {
        "from": "0xf39fd6e51aad88f6f4ce6ab8827279cfffb92266",
        "to": "0x70ef722657864f950edc4f3dd885caa2d35db872",
        "gas": "0x17a87",
        "value": "0x0",
        "input": "0x0815f6fdfe0d94c10000000000000000000000000000000000000000000000000000000000000000000000000000000073edfc8c0625629a0f3df35f75e52b271e59c6a0",
        "nonce": "0x21f4",
        "chainId": "0xaa36a7"
      },
      "additionalContracts": [],
      "isFixedGasLimit": false
    },
    {
      "hash": "0x4eea0aadfd4556cde57a333c917f07d5987f84c7e7c8ad2bad8f964c89483498",
      "transactionType": "CALL",
      "contractName": "Dictionary",
      "contractAddress": "0x70ef722657864f950edc4f3dd885caa2d35db872",
      "function": "setImplementation(bytes4,address)",
      "arguments": [
        "0x06f7e36d00000000000000000000000000000000000000000000000000000000",
        "0x45d1989AfcC3D7724B64bc72A0bfb5Cd0D4d6c4e"
      ],
      "transaction": {
        "from": "0xf39fd6e51aad88f6f4ce6ab8827279cfffb92266",
        "to": "0x70ef722657864f950edc4f3dd885caa2d35db872",
        "gas": "0x1cf92",
        "value": "0x0",
        "input": "0x0815f6fd06f7e36d0000000000000000000000000000000000000000000000000000000000000000000000000000000045d1989afcc3d7724b64bc72a0bfb5cd0d4d6c4e",
        "nonce": "0x21f5",
        "chainId": "0xaa36a7"
      },
      "additionalContracts": [],
      "isFixedGasLimit": false
    },
    {
      "hash": "0x2bc7f168f58226caf66630f3a2d804f0fa02b8cceec03c7967b818c9aba5ec11",
      "transactionType": "CALL",
      "contractName": "Dictionary",
      "contractAddress": "0x70ef722657864f950edc4f3dd885caa2d35db872",
      "function": "setImplementation(bytes4,address)",
      "arguments": [
        "0x5cefc4ad00000000000000000000000000000000000000000000000000000000",
        "0x5Fc875e96b7f3cab4aAE3D83bfc321125CA3f258"
      ],
      "transaction": {
        "from": "0xf39fd6e51aad88f6f4ce6ab8827279cfffb92266",
        "to": "0x70ef722657864f950edc4f3dd885caa2d35db872",
        "gas": "0x1769a",
        "value": "0x0",
        "input": "0x0815f6fd5cefc4ad000000000000000000000000000000000000000000000000000000000000000000000000000000005fc875e96b7f3cab4aae3d83bfc321125ca3f258",
        "nonce": "0x21f6",
        "chainId": "0xaa36a7"
      },
      "additionalContracts": [],
      "isFixedGasLimit": false
    },
    {
      "hash": "0xfff932e70418956e3c1cb2f915fa3f143b324ec65d07edb197dbd577b3cb28cf",
      "transactionType": "CALL",
      "contractName": "Dictionary",
      "contractAddress": "0x70ef722657864f950edc4f3dd885caa2d35db872",
      "function": "setImplementation(bytes4,address)",
      "arguments": [
        "0x9f31e87b00000000000000000000000000000000000000000000000000000000",
        "0x887aAbee3f11Ff3FaC73462cb7f199E7C8661831"
      ],
      "transaction": {
        "from": "0xf39fd6e51aad88f6f4ce6ab8827279cfffb92266",
        "to": "0x70ef722657864f950edc4f3dd885caa2d35db872",
        "gas": "0x179e4",
        "value": "0x0",
        "input": "0x0815f6fd9f31e87b00000000000000000000000000000000000000000000000000000000000000000000000000000000887aabee3f11ff3fac73462cb7f199e7c8661831",
        "nonce": "0x21f7",
        "chainId": "0xaa36a7"
      },
      "additionalContracts": [],
      "isFixedGasLimit": false
    },
    {
      "hash": "0x139524484d7a5f35361ee0f508a45a15d911ccc7fe92a3641e3a50ee2a3b023e",
      "transactionType": "CALL",
      "contractName": "Dictionary",
      "contractAddress": "0x70ef722657864f950edc4f3dd885caa2d35db872",
      "function": "setImplementation(bytes4,address)",
      "arguments": [
        "0x9877696700000000000000000000000000000000000000000000000000000000",
        "0x71E1FbdDa6fe101e2e63bDaFD427c1e4e62Cb042"
      ],
      "transaction": {
        "from": "0xf39fd6e51aad88f6f4ce6ab8827279cfffb92266",
        "to": "0x70ef722657864f950edc4f3dd885caa2d35db872",
        "gas": "0x1939c",
        "value": "0x0",
        "input": "0x0815f6fd987769670000000000000000000000000000000000000000000000000000000000000000000000000000000071e1fbdda6fe101e2e63bdafd427c1e4e62cb042",
        "nonce": "0x21f8",
        "chainId": "0xaa36a7"
      },
      "additionalContracts": [],
      "isFixedGasLimit": false
    },
    {
      "hash": "0x2ed38ce9266b06e7f9dc5e0d3bdcb60a9e46e5196f314392aa454cec34aefa94",
      "transactionType": "CALL",
      "contractName": "Dictionary",
      "contractAddress": "0x70ef722657864f950edc4f3dd885caa2d35db872",
      "function": "setImplementation(bytes4,address)",
      "arguments": [
        "0xc7f758a800000000000000000000000000000000000000000000000000000000",
        "0xA6197989532384585379282a8c4B0141F54D0609"
      ],
      "transaction": {
        "from": "0xf39fd6e51aad88f6f4ce6ab8827279cfffb92266",
        "to": "0x70ef722657864f950edc4f3dd885caa2d35db872",
        "gas": "0x19717",
        "value": "0x0",
        "input": "0x0815f6fdc7f758a800000000000000000000000000000000000000000000000000000000000000000000000000000000a6197989532384585379282a8c4b0141f54d0609",
        "nonce": "0x21f9",
        "chainId": "0xaa36a7"
      },
      "additionalContracts": [],
      "isFixedGasLimit": false
    },
    {
      "hash": "0x54be3d36b0b6f9450097d661e39d8eefdd538a043d53da00c0637d5161a49cd2",
      "transactionType": "CALL",
      "contractName": "Dictionary",
      "contractAddress": "0x70ef722657864f950edc4f3dd885caa2d35db872",
      "function": "setImplementation(bytes4,address)",
      "arguments": [
        "0x6c996f8800000000000000000000000000000000000000000000000000000000",
        "0xA6197989532384585379282a8c4B0141F54D0609"
      ],
      "transaction": {
        "from": "0xf39fd6e51aad88f6f4ce6ab8827279cfffb92266",
        "to": "0x70ef722657864f950edc4f3dd885caa2d35db872",
        "gas": "0x183c4",
        "value": "0x0",
        "input": "0x0815f6fd6c996f8800000000000000000000000000000000000000000000000000000000000000000000000000000000a6197989532384585379282a8c4b0141f54d0609",
        "nonce": "0x21fa",
        "chainId": "0xaa36a7"
      },
      "additionalContracts": [],
      "isFixedGasLimit": false
    },
    {
      "hash": "0x42a74df394762e5c8ba7a394fd56eb05aedabdbc3921b5a974015e401399366d",
      "transactionType": "CALL",
      "contractName": "Dictionary",
      "contractAddress": "0x70ef722657864f950edc4f3dd885caa2d35db872",
      "function": "setImplementation(bytes4,address)",
      "arguments": [
        "0xe810995300000000000000000000000000000000000000000000000000000000",
        "0xA6197989532384585379282a8c4B0141F54D0609"
      ],
      "transaction": {
        "from": "0xf39fd6e51aad88f6f4ce6ab8827279cfffb92266",
        "to": "0x70ef722657864f950edc4f3dd885caa2d35db872",
        "gas": "0x1870e",
        "value": "0x0",
        "input": "0x0815f6fde810995300000000000000000000000000000000000000000000000000000000000000000000000000000000a6197989532384585379282a8c4b0141f54d0609",
        "nonce": "0x21fb",
        "chainId": "0xaa36a7"
      },
      "additionalContracts": [],
      "isFixedGasLimit": false
    },
    {
      "hash": "0x42b5cba401477ab013233fec2c5a9cfe701ee2ea292571deef3cc68413186307",
      "transactionType": "CALL",
      "contractName": "Dictionary",
      "contractAddress": "0x70ef722657864f950edc4f3dd885caa2d35db872",
      "function": "setImplementation(bytes4,address)",
      "arguments": [
        "0x787e0fe000000000000000000000000000000000000000000000000000000000",
        "0xA6197989532384585379282a8c4B0141F54D0609"
      ],
      "transaction": {
        "from": "0xf39fd6e51aad88f6f4ce6ab8827279cfffb92266",
        "to": "0x70ef722657864f950edc4f3dd885caa2d35db872",
        "gas": "0x1a18c",
        "value": "0x0",
        "input": "0x0815f6fd787e0fe000000000000000000000000000000000000000000000000000000000000000000000000000000000a6197989532384585379282a8c4b0141f54d0609",
        "nonce": "0x21fc",
        "chainId": "0xaa36a7"
      },
      "additionalContracts": [],
      "isFixedGasLimit": false
    },
    {
      "hash": "0xa08d1059afd191f37c6633d3940dceedd1b8a946822d0087ce5af17740c3cf1e",
      "transactionType": "CALL",
      "contractName": "Dictionary",
      "contractAddress": "0x70ef722657864f950edc4f3dd885caa2d35db872",
      "function": "setImplementation(bytes4,address)",
      "arguments": [
        "0xa4c5e9cb00000000000000000000000000000000000000000000000000000000",
        "0xA6197989532384585379282a8c4B0141F54D0609"
      ],
      "transaction": {
        "from": "0xf39fd6e51aad88f6f4ce6ab8827279cfffb92266",
        "to": "0x70ef722657864f950edc4f3dd885caa2d35db872",
        "gas": "0x1f46c",
        "value": "0x0",
        "input": "0x0815f6fda4c5e9cb00000000000000000000000000000000000000000000000000000000000000000000000000000000a6197989532384585379282a8c4b0141f54d0609",
        "nonce": "0x21fd",
        "chainId": "0xaa36a7"
      },
      "additionalContracts": [],
      "isFixedGasLimit": false
    },
    {
      "hash": "0x44fad1f5600c290e703e9c7df2381857d21556c21d12929627b680ab4799e852",
      "transactionType": "CALL",
      "contractName": "Dictionary",
      "contractAddress": "0x70ef722657864f950edc4f3dd885caa2d35db872",
      "function": "setImplementation(bytes4,address)",
      "arguments": [
        "0x7f4ef9d400000000000000000000000000000000000000000000000000000000",
        "0xA6197989532384585379282a8c4B0141F54D0609"
      ],
      "transaction": {
        "from": "0xf39fd6e51aad88f6f4ce6ab8827279cfffb92266",
        "to": "0x70ef722657864f950edc4f3dd885caa2d35db872",
        "gas": "0x1b3a8",
        "value": "0x0",
        "input": "0x0815f6fd7f4ef9d400000000000000000000000000000000000000000000000000000000000000000000000000000000a6197989532384585379282a8c4b0141f54d0609",
        "nonce": "0x21fe",
        "chainId": "0xaa36a7"
      },
      "additionalContracts": [],
      "isFixedGasLimit": false
    },
    {
      "hash": "0xfb326ff7902da247b15492b40c4ac48b61c8876591c385291a20a5512003ccba",
      "transactionType": "CALL",
      "contractName": "Dictionary",
      "contractAddress": "0x70ef722657864f950edc4f3dd885caa2d35db872",
      "function": "setImplementation(bytes4,address)",
      "arguments": [
        "0x2b7efac100000000000000000000000000000000000000000000000000000000",
        "0xA6197989532384585379282a8c4B0141F54D0609"
      ],
      "transaction": {
        "from": "0xf39fd6e51aad88f6f4ce6ab8827279cfffb92266",
        "to": "0x70ef722657864f950edc4f3dd885caa2d35db872",
        "gas": "0x19ebe",
        "value": "0x0",
        "input": "0x0815f6fd2b7efac100000000000000000000000000000000000000000000000000000000000000000000000000000000a6197989532384585379282a8c4b0141f54d0609",
        "nonce": "0x21ff",
        "chainId": "0xaa36a7"
      },
      "additionalContracts": [],
      "isFixedGasLimit": false
    },
    {
      "hash": "0xb175b93fc02433e67ec95d3f7656f57f7b01ac158ca50205ddd1990fe6a1aca2",
      "transactionType": "CALL",
      "contractName": "Dictionary",
      "contractAddress": "0x70ef722657864f950edc4f3dd885caa2d35db872",
      "function": "setImplementation(bytes4,address)",
      "arguments": [
        "0xab3545e500000000000000000000000000000000000000000000000000000000",
        "0xA6197989532384585379282a8c4B0141F54D0609"
      ],
      "transaction": {
        "from": "0xf39fd6e51aad88f6f4ce6ab8827279cfffb92266",
        "to": "0x70ef722657864f950edc4f3dd885caa2d35db872",
        "gas": "0x1a209",
        "value": "0x0",
        "input": "0x0815f6fdab3545e500000000000000000000000000000000000000000000000000000000000000000000000000000000a6197989532384585379282a8c4b0141f54d0609",
        "nonce": "0x2200",
        "chainId": "0xaa36a7"
      },
      "additionalContracts": [],
      "isFixedGasLimit": false
    },
    {
      "hash": "0x78dc4bba8ed8410164d6bb8878be1068843e89fd7bfc04a869b8ce9b5db564c1",
      "transactionType": "CALL",
      "contractName": "Dictionary",
      "contractAddress": "0x70ef722657864f950edc4f3dd885caa2d35db872",
      "function": "setImplementation(bytes4,address)",
      "arguments": [
        "0xcb37be9e00000000000000000000000000000000000000000000000000000000",
        "0xA6197989532384585379282a8c4B0141F54D0609"
      ],
      "transaction": {
        "from": "0xf39fd6e51aad88f6f4ce6ab8827279cfffb92266",
        "to": "0x70ef722657864f950edc4f3dd885caa2d35db872",
        "gas": "0x1be1d",
        "value": "0x0",
        "input": "0x0815f6fdcb37be9e00000000000000000000000000000000000000000000000000000000000000000000000000000000a6197989532384585379282a8c4b0141f54d0609",
        "nonce": "0x2201",
        "chainId": "0xaa36a7"
      },
      "additionalContracts": [],
      "isFixedGasLimit": false
    },
    {
      "hash": "0x84d1a9942cb3c2c5046d20991fe1673338723ee99e8f80e74eee92bb84d71e5e",
      "transactionType": "CALL",
      "contractName": "Dictionary",
      "contractAddress": "0x70ef722657864f950edc4f3dd885caa2d35db872",
      "function": "setImplementation(bytes4,address)",
      "arguments": [
        "0xc1e582ba00000000000000000000000000000000000000000000000000000000",
        "0xA6197989532384585379282a8c4B0141F54D0609"
      ],
      "transaction": {
        "from": "0xf39fd6e51aad88f6f4ce6ab8827279cfffb92266",
        "to": "0x70ef722657864f950edc4f3dd885caa2d35db872",
        "gas": "0x1c198",
        "value": "0x0",
        "input": "0x0815f6fdc1e582ba00000000000000000000000000000000000000000000000000000000000000000000000000000000a6197989532384585379282a8c4b0141f54d0609",
        "nonce": "0x2202",
        "chainId": "0xaa36a7"
      },
      "additionalContracts": [],
      "isFixedGasLimit": false
    },
    {
      "hash": "0x7dd2fba43e7d19b8132dd645d2a9c8d2cea231059912a4fd55f9a03ff10c9fc9",
      "transactionType": "CALL",
      "contractName": "Dictionary",
      "contractAddress": "0x70ef722657864f950edc4f3dd885caa2d35db872",
      "function": "setImplementation(bytes4,address)",
      "arguments": [
        "0x2a2c16a000000000000000000000000000000000000000000000000000000000",
        "0xA6197989532384585379282a8c4B0141F54D0609"
      ],
      "transaction": {
        "from": "0xf39fd6e51aad88f6f4ce6ab8827279cfffb92266",
        "to": "0x70ef722657864f950edc4f3dd885caa2d35db872",
        "gas": "0x1abe8",
        "value": "0x0",
        "input": "0x0815f6fd2a2c16a000000000000000000000000000000000000000000000000000000000000000000000000000000000a6197989532384585379282a8c4b0141f54d0609",
        "nonce": "0x2203",
        "chainId": "0xaa36a7"
      },
      "additionalContracts": [],
      "isFixedGasLimit": false
    },
    {
      "hash": "0x89ab422090d3ae085aacc91a3b0de50a886837351cb22e3f84239bd5f5241ec5",
      "transactionType": "CALL",
      "contractName": "Dictionary",
      "contractAddress": "0x70ef722657864f950edc4f3dd885caa2d35db872",
      "function": "setImplementation(bytes4,address)",
      "arguments": [
        "0xde3d9fb700000000000000000000000000000000000000000000000000000000",
        "0xA6197989532384585379282a8c4B0141F54D0609"
      ],
      "transaction": {
        "from": "0xf39fd6e51aad88f6f4ce6ab8827279cfffb92266",
        "to": "0x70ef722657864f950edc4f3dd885caa2d35db872",
        "gas": "0x1af32",
        "value": "0x0",
        "input": "0x0815f6fdde3d9fb700000000000000000000000000000000000000000000000000000000000000000000000000000000a6197989532384585379282a8c4b0141f54d0609",
        "nonce": "0x2204",
        "chainId": "0xaa36a7"
      },
      "additionalContracts": [],
      "isFixedGasLimit": false
    },
    {
      "hash": "0xacaf7050931ba0ea89e6b4a6d00a64a8d760453b4048e3503209d9dd2c67b292",
      "transactionType": "CALL",
      "contractName": "Dictionary",
      "contractAddress": "0x70ef722657864f950edc4f3dd885caa2d35db872",
      "function": "setImplementation(bytes4,address)",
      "arguments": [
        "0x9a5ea6a000000000000000000000000000000000000000000000000000000000",
        "0xA6197989532384585379282a8c4B0141F54D0609"
      ],
      "transaction": {
        "from": "0xf39fd6e51aad88f6f4ce6ab8827279cfffb92266",
        "to": "0x70ef722657864f950edc4f3dd885caa2d35db872",
        "gas": "0x238e1",
        "value": "0x0",
        "input": "0x0815f6fd9a5ea6a000000000000000000000000000000000000000000000000000000000000000000000000000000000a6197989532384585379282a8c4b0141f54d0609",
        "nonce": "0x2205",
        "chainId": "0xaa36a7"
      },
      "additionalContracts": [],
      "isFixedGasLimit": false
    },
    {
      "hash": "0xff415d16fb511a2bf481b70160c25c2ac5ffb3983b86262fa94517762483d913",
      "transactionType": "CALL",
      "contractName": "Dictionary",
      "contractAddress": "0x70ef722657864f950edc4f3dd885caa2d35db872",
      "function": "setImplementation(bytes4,address)",
      "arguments": [
        "0x25be10bd00000000000000000000000000000000000000000000000000000000",
        "0xA6197989532384585379282a8c4B0141F54D0609"
      ],
      "transaction": {
        "from": "0xf39fd6e51aad88f6f4ce6ab8827279cfffb92266",
        "to": "0x70ef722657864f950edc4f3dd885caa2d35db872",
        "gas": "0x1daad",
        "value": "0x0",
        "input": "0x0815f6fd25be10bd00000000000000000000000000000000000000000000000000000000000000000000000000000000a6197989532384585379282a8c4b0141f54d0609",
        "nonce": "0x2206",
        "chainId": "0xaa36a7"
      },
      "additionalContracts": [],
      "isFixedGasLimit": false
    },
    {
      "hash": "0x57bd3c6297027d01b31af1aca7decf42b49ed99aa05f198017cdb8f6f65a1cee",
      "transactionType": "CALL",
      "contractName": "Dictionary",
      "contractAddress": "0x70ef722657864f950edc4f3dd885caa2d35db872",
      "function": "upgradeFacade(address)",
      "arguments": [
        "0x5AeaAab8171CbFc4F966c6467d161c5e81E17e60"
      ],
      "transaction": {
        "from": "0xf39fd6e51aad88f6f4ce6ab8827279cfffb92266",
        "to": "0x70ef722657864f950edc4f3dd885caa2d35db872",
        "gas": "0x10dbe",
        "value": "0x0",
        "input": "0x651dc03d0000000000000000000000005aeaaab8171cbfc4f966c6467d161c5e81e17e60",
        "nonce": "0x2207",
        "chainId": "0xaa36a7"
      },
      "additionalContracts": [],
      "isFixedGasLimit": false
    },
    {
      "hash": "0x7619fc31196a93ef25b08d95aa1593101baef5096efcf49bdcf7b030bc7c2b18",
      "transactionType": "CREATE",
      "contractName": null,
      "contractAddress": "0x31d0acb215ae30c92ed0a59745de4f3356439caf",
      "function": null,
      "arguments": null,
      "transaction": {
        "from": "0xf39fd6e51aad88f6f4ce6ab8827279cfffb92266",
        "gas": "0x3de18",
        "value": "0x0",
        "input": "0x60806040526040516105ed3803806105ed8339810160408190526100229161034b565b61002c828261003c565b6100358261011c565b5050610486565b61004582610160565b6040516001600160a01b03831681527fa657f2ad315cf3bb35cf1964158da75c3f334481df05a4a1644b2376b17a59b29060200160405180910390a18051156101105761010b6001600160a01b03831663dc9cc6456100a384610411565b6040516001600160e01b031960e084901b81168252919091166004820152602401602060405180830381865afa1580156100e1573d6000803e3d6000fd5b505050506040513d601f19601f82011682018060405250810190610105919061044f565b826101d5565b505050565b61011861024c565b5050565b807fa3f0ad74e5423aebfd80d3ef4346578335a9a72aeaee59ff6cb3582b35133d505b80546001600160a01b0319166001600160a01b039290921691909117905550565b806001600160a01b03163b6000036101ae5760405162461bcd60e51b815260206004820152600c60248201526b1393d397d0d3d395149050d560a21b60448201526064015b60405180910390fd5b807f267691be3525af8a813d30db0c9e2bad08f63baecf6dceb85e2cf3676cff56f461013f565b6060600080846001600160a01b0316846040516101f2919061046a565b600060405180830381855af49150503d806000811461022d576040519150601f19603f3d011682016040523d82523d6000602084013e610232565b606091505b50909250905061024385838361026d565b95945050505050565b341561026b5760405163b398979f60e01b815260040160405180910390fd5b565b6060826102825761027d826102cc565b6102c5565b815115801561029957506001600160a01b0384163b155b156102c257604051639996b31560e01b81526001600160a01b03851660048201526024016101a5565b50805b9392505050565b8051156102dc5780518082602001fd5b604051630a12f52160e11b815260040160405180910390fd5b80516001600160a01b038116811461030c57600080fd5b919050565b634e487b7160e01b600052604160045260246000fd5b60005b8381101561034257818101518382015260200161032a565b50506000910152565b6000806040838503121561035e57600080fd5b610367836102f5565b60208401519092506001600160401b0381111561038357600080fd5b8301601f8101851361039457600080fd5b80516001600160401b038111156103ad576103ad610311565b604051601f8201601f19908116603f011681016001600160401b03811182821017156103db576103db610311565b6040528181528282016020018710156103f357600080fd5b610404826020830160208601610327565b8093505050509250929050565b805160208201516001600160e01b0319811691906004821015610448576001600160e01b0319600483900360031b81901b82161692505b5050919050565b60006020828403121561046157600080fd5b6102c5826102f5565b6000825161047c818460208701610327565b9190910192915050565b610158806104956000396000f3fe608060405261000c61000e565b005b61001e610019610020565b6100ce565b565b60006100537f267691be3525af8a813d30db0c9e2bad08f63baecf6dceb85e2cf3676cff56f4546001600160a01b031690565b60405163dc9cc64560e01b81526001600160e01b03196000351660048201526001600160a01b03919091169063dc9cc64590602401602060405180830381865afa1580156100a5573d6000803e3d6000fd5b505050506040513d601f19601f820116820180604052508101906100c991906100f2565b905090565b3660008037600080366000845af43d6000803e8080156100ed573d6000f35b3d6000fd5b60006020828403121561010457600080fd5b81516001600160a01b038116811461011b57600080fd5b939250505056fea2646970667358221220edeb9a03e51fb4befaa08189d6da8fca48148c9e6789ddf587ece46a3ab49f3b64736f6c634300081a003300000000000000000000000070ef722657864f950edc4f3dd885caa2d35db87200000000000000000000000000000000000000000000000000000000000000400000000000000000000000000000000000000000000000000000000000000000",
        "nonce": "0x2208",
        "chainId": "0xaa36a7"
      },
      "additionalContracts": [],
      "isFixedGasLimit": false
    }
  ],
  "receipts": [
    {
      "status": "0x1",
      "cumulativeGasUsed": "0x6234a",
      "logs": [],
      "logsBloom": "0x00000000000000000000000000000000000000000000000000000000000000000000000000000000000000000000000000000000000000000000000000000000000000000000000000000000000000000000000000000000000000000000000000000000000000000000000000000000000000000000000000000000000000000000000000000000000000000000000000000000000000000000000000000000000000000000000000000000000000000000000000000000000000000000000000000000000000000000000000000000000000000000000000000000000000000000000000000000000000000000000000000000000000000000000000000000",
      "type": "0x0",
      "transactionHash": "0xe6a5c2cb2ab39f87a07a4801985ec7898d2c28e01f9da450ea0a7806f2de2633",
      "transactionIndex": "0x0",
      "blockHash": "0xb506582392d1af01acdc313e3d05d08e5ce83da34d0ca36c4259bab89b13b022",
      "blockNumber": "0x5d5633",
      "gasUsed": "0x6234a",
      "effectiveGasPrice": "0x3b9aca12",
      "blobGasPrice": "0x1",
      "from": "0xf39fd6e51aad88f6f4ce6ab8827279cfffb92266",
      "to": null,
      "contractAddress": "0xffa6c34fba0c3b6cf8ec958ed291c87589ad9528",
      "root": "0x0000000000000000000000000000000000000000000000000000000000000000"
    },
    {
      "status": "0x1",
      "cumulativeGasUsed": "0x7dd75",
      "logs": [],
      "logsBloom": "0x00000000000000000000000000000000000000000000000000000000000000000000000000000000000000000000000000000000000000000000000000000000000000000000000000000000000000000000000000000000000000000000000000000000000000000000000000000000000000000000000000000000000000000000000000000000000000000000000000000000000000000000000000000000000000000000000000000000000000000000000000000000000000000000000000000000000000000000000000000000000000000000000000000000000000000000000000000000000000000000000000000000000000000000000000000000",
      "type": "0x0",
      "transactionHash": "0x242af302bc0ed73dc799ac60729ec837b30f9aac4996c157fa4902b17014ba05",
      "transactionIndex": "0x0",
      "blockHash": "0xab786b07f81bf10f808474a89729163650d258380cb1f6dd300971c8249271d2",
      "blockNumber": "0x5d5634",
      "gasUsed": "0x7dd75",
      "effectiveGasPrice": "0x3b9aca12",
      "blobGasPrice": "0x1",
      "from": "0xf39fd6e51aad88f6f4ce6ab8827279cfffb92266",
      "to": null,
      "contractAddress": "0xfdf4d8e40e028101f5c170d35d7ff01bf1054209",
      "root": "0x0000000000000000000000000000000000000000000000000000000000000000"
    },
    {
      "status": "0x1",
      "cumulativeGasUsed": "0x3e45a",
      "logs": [],
      "logsBloom": "0x00000000000000000000000000000000000000000000000000000000000000000000000000000000000000000000000000000000000000000000000000000000000000000000000000000000000000000000000000000000000000000000000000000000000000000000000000000000000000000000000000000000000000000000000000000000000000000000000000000000000000000000000000000000000000000000000000000000000000000000000000000000000000000000000000000000000000000000000000000000000000000000000000000000000000000000000000000000000000000000000000000000000000000000000000000000",
      "type": "0x0",
      "transactionHash": "0xd5b58566667a34636898fb81130f7e2bef62cdfe94123193ef272b3c72094410",
      "transactionIndex": "0x0",
      "blockHash": "0x89b5a60b93ad43d27d26ddc0df0ee0893e758fdad4fbded3d9eb37bf61cbd492",
      "blockNumber": "0x5d5635",
      "gasUsed": "0x3e45a",
      "effectiveGasPrice": "0x3b9aca12",
      "blobGasPrice": "0x1",
      "from": "0xf39fd6e51aad88f6f4ce6ab8827279cfffb92266",
      "to": null,
      "contractAddress": "0xde96e0f0900d95b9a3ad093c7a8d7ebcdc62e1af",
      "root": "0x0000000000000000000000000000000000000000000000000000000000000000"
    },
    {
      "status": "0x1",
      "cumulativeGasUsed": "0xc16ba",
      "logs": [],
      "logsBloom": "0x00000000000000000000000000000000000000000000000000000000000000000000000000000000000000000000000000000000000000000000000000000000000000000000000000000000000000000000000000000000000000000000000000000000000000000000000000000000000000000000000000000000000000000000000000000000000000000000000000000000000000000000000000000000000000000000000000000000000000000000000000000000000000000000000000000000000000000000000000000000000000000000000000000000000000000000000000000000000000000000000000000000000000000000000000000000",
      "type": "0x0",
      "transactionHash": "0xee3cec835cb1bb5d1dc7a010efa28ceda88f3ab7e8c6a86f9ab88bd7a10a7a51",
      "transactionIndex": "0x1",
      "blockHash": "0x89b5a60b93ad43d27d26ddc0df0ee0893e758fdad4fbded3d9eb37bf61cbd492",
      "blockNumber": "0x5d5635",
      "gasUsed": "0x83260",
      "effectiveGasPrice": "0x3b9aca12",
      "blobGasPrice": "0x1",
      "from": "0xf39fd6e51aad88f6f4ce6ab8827279cfffb92266",
      "to": null,
      "contractAddress": "0x89a18e5e226fc1ea2079265a068c6701c6550b84",
      "root": "0x0000000000000000000000000000000000000000000000000000000000000000"
    },
    {
      "status": "0x1",
      "cumulativeGasUsed": "0x7a8e5",
      "logs": [],
      "logsBloom": "0x00000000000000000000000000000000000000000000000000000000000000000000000000000000000000000000000000000000000000000000000000000000000000000000000000000000000000000000000000000000000000000000000000000000000000000000000000000000000000000000000000000000000000000000000000000000000000000000000000000000000000000000000000000000000000000000000000000000000000000000000000000000000000000000000000000000000000000000000000000000000000000000000000000000000000000000000000000000000000000000000000000000000000000000000000000000",
      "type": "0x0",
      "transactionHash": "0x2411cc2a93e78a8fbcab22b4408f148ce435f6a91f71882d3c515fb333eea4a8",
      "transactionIndex": "0x0",
      "blockHash": "0xaddf6773224461979b380f38c7ae22006538e7b8c95d496f09f62e9263b9e23c",
      "blockNumber": "0x5d5636",
      "gasUsed": "0x7a8e5",
      "effectiveGasPrice": "0x3b9aca12",
      "blobGasPrice": "0x1",
      "from": "0xf39fd6e51aad88f6f4ce6ab8827279cfffb92266",
      "to": null,
      "contractAddress": "0x8631f5abd740e75b5c7bb426354ab04482e359d5",
      "root": "0x0000000000000000000000000000000000000000000000000000000000000000"
    },
    {
      "status": "0x1",
      "cumulativeGasUsed": "0x12c2f0",
      "logs": [],
      "logsBloom": "0x00000000000000000000000000000000000000000000000000000000000000000000000000000000000000000000000000000000000000000000000000000000000000000000000000000000000000000000000000000000000000000000000000000000000000000000000000000000000000000000000000000000000000000000000000000000000000000000000000000000000000000000000000000000000000000000000000000000000000000000000000000000000000000000000000000000000000000000000000000000000000000000000000000000000000000000000000000000000000000000000000000000000000000000000000000000",
      "type": "0x0",
      "transactionHash": "0xe012efa4c9d44e07e8c0325b1a0b6616228fd5a021e9220baa430e85f7a588ef",
      "transactionIndex": "0x1",
      "blockHash": "0xaddf6773224461979b380f38c7ae22006538e7b8c95d496f09f62e9263b9e23c",
      "blockNumber": "0x5d5636",
      "gasUsed": "0xb1a0b",
      "effectiveGasPrice": "0x3b9aca12",
      "blobGasPrice": "0x1",
      "from": "0xf39fd6e51aad88f6f4ce6ab8827279cfffb92266",
      "to": null,
      "contractAddress": "0x3ff7d9476ccdd841ee54ced9c32d0f37eca348a4",
      "root": "0x0000000000000000000000000000000000000000000000000000000000000000"
    },
    {
      "status": "0x1",
      "cumulativeGasUsed": "0x1c7123",
      "logs": [],
      "logsBloom": "0x00000000000000000000000000000000000000000000000000000000000000000000000000000000000000000000000000000000000000000000000000000000000000000000000000000000000000000000000000000000000000000000000000000000000000000000000000000000000000000000000000000000000000000000000000000000000000000000000000000000000000000000000000000000000000000000000000000000000000000000000000000000000000000000000000000000000000000000000000000000000000000000000000000000000000000000000000000000000000000000000000000000000000000000000000000000",
      "type": "0x0",
      "transactionHash": "0x8956056f23b6f89415286fa57496b654829148d870fdb1ec974d31005315daf7",
      "transactionIndex": "0x2",
      "blockHash": "0xaddf6773224461979b380f38c7ae22006538e7b8c95d496f09f62e9263b9e23c",
      "blockNumber": "0x5d5636",
      "gasUsed": "0x9ae33",
      "effectiveGasPrice": "0x3b9aca12",
      "blobGasPrice": "0x1",
      "from": "0xf39fd6e51aad88f6f4ce6ab8827279cfffb92266",
      "to": null,
      "contractAddress": "0x73edfc8c0625629a0f3df35f75e52b271e59c6a0",
      "root": "0x0000000000000000000000000000000000000000000000000000000000000000"
    },
    {
      "status": "0x1",
      "cumulativeGasUsed": "0x3f9de",
      "logs": [],
      "logsBloom": "0x00000000000000000000000000000000000000000000000000000000000000000000000000000000000000000000000000000000000000000000000000000000000000000000000000000000000000000000000000000000000000000000000000000000000000000000000000000000000000000000000000000000000000000000000000000000000000000000000000000000000000000000000000000000000000000000000000000000000000000000000000000000000000000000000000000000000000000000000000000000000000000000000000000000000000000000000000000000000000000000000000000000000000000000000000000000",
      "type": "0x0",
      "transactionHash": "0x1faecf388fda8cad5b51b6840ce43a9b97d1a5ec9f0d2c812713ee649a5a34d8",
      "transactionIndex": "0x0",
      "blockHash": "0x3ccef54e041029fb4d8e7eef283f495707dfbcf72d5d99ae261d62a0c2d11a37",
      "blockNumber": "0x5d5637",
      "gasUsed": "0x3f9de",
      "effectiveGasPrice": "0x3b9aca12",
      "blobGasPrice": "0x1",
      "from": "0xf39fd6e51aad88f6f4ce6ab8827279cfffb92266",
      "to": null,
      "contractAddress": "0x45d1989afcc3d7724b64bc72a0bfb5cd0d4d6c4e",
      "root": "0x0000000000000000000000000000000000000000000000000000000000000000"
    },
    {
      "status": "0x1",
      "cumulativeGasUsed": "0x6a18b",
      "logs": [],
      "logsBloom": "0x00000000000000000000000000000000000000000000000000000000000000000000000000000000000000000000000000000000000000000000000000000000000000000000000000000000000000000000000000000000000000000000000000000000000000000000000000000000000000000000000000000000000000000000000000000000000000000000000000000000000000000000000000000000000000000000000000000000000000000000000000000000000000000000000000000000000000000000000000000000000000000000000000000000000000000000000000000000000000000000000000000000000000000000000000000000",
      "type": "0x0",
      "transactionHash": "0x30e8043cd82208b6551a93519f75fd290b167c8f5ec86b7c300dafc8a709cc9b",
      "transactionIndex": "0x0",
      "blockHash": "0x30788678753f84823016a60b5337acdb7b591fe22891f8aad856f3316b26a9d4",
      "blockNumber": "0x5d5638",
      "gasUsed": "0x6a18b",
      "effectiveGasPrice": "0x3b9aca12",
      "blobGasPrice": "0x1",
      "from": "0xf39fd6e51aad88f6f4ce6ab8827279cfffb92266",
      "to": null,
      "contractAddress": "0x5fc875e96b7f3cab4aae3d83bfc321125ca3f258",
      "root": "0x0000000000000000000000000000000000000000000000000000000000000000"
    },
    {
      "status": "0x1",
      "cumulativeGasUsed": "0x20cbd",
      "logs": [],
      "logsBloom": "0x00000000000000000000000000000000000000000000000000000000000000000000000000000000000000000000000000000000000000000000000000000000000000000000000000000000000000000000000000000000000000000000000000000000000000000000000000000000000000000000000000000000000000000000000000000000000000000000000000000000000000000000000000000000000000000000000000000000000000000000000000000000000000000000000000000000000000000000000000000000000000000000000000000000000000000000000000000000000000000000000000000000000000000000000000000000",
      "type": "0x0",
      "transactionHash": "0x2dbe4a77fe37dcd500add1ae9ade5b9516f17f63f1ce233fe92a113c75c8c321",
      "transactionIndex": "0x0",
      "blockHash": "0x03e90b7ea00ed0bff5e80d96926d2f49b59483b20508e76b5022f0bbda8389df",
      "blockNumber": "0x5d5639",
      "gasUsed": "0x20cbd",
      "effectiveGasPrice": "0x3b9aca12",
      "blobGasPrice": "0x1",
      "from": "0xf39fd6e51aad88f6f4ce6ab8827279cfffb92266",
      "to": null,
      "contractAddress": "0x887aabee3f11ff3fac73462cb7f199e7c8661831",
      "root": "0x0000000000000000000000000000000000000000000000000000000000000000"
    },
    {
      "status": "0x1",
      "cumulativeGasUsed": "0x3267a",
      "logs": [],
      "logsBloom": "0x00000000000000000000000000000000000000000000000000000000000000000000000000000000000000000000000000000000000000000000000000000000000000000000000000000000000000000000000000000000000000000000000000000000000000000000000000000000000000000000000000000000000000000000000000000000000000000000000000000000000000000000000000000000000000000000000000000000000000000000000000000000000000000000000000000000000000000000000000000000000000000000000000000000000000000000000000000000000000000000000000000000000000000000000000000000",
      "type": "0x0",
      "transactionHash": "0xfd272152b34f191b17cc83600dfb02ba9d58b1d7cbffd17fb830d68c08cf9168",
      "transactionIndex": "0x0",
      "blockHash": "0x61fee2f53565d7762780a9021279f7c2198a10accf89bb12984c68f3188a2c47",
      "blockNumber": "0x5d563a",
      "gasUsed": "0x3267a",
      "effectiveGasPrice": "0x3b9aca12",
      "blobGasPrice": "0x1",
      "from": "0xf39fd6e51aad88f6f4ce6ab8827279cfffb92266",
      "to": null,
      "contractAddress": "0x71e1fbdda6fe101e2e63bdafd427c1e4e62cb042",
      "root": "0x0000000000000000000000000000000000000000000000000000000000000000"
    },
    {
      "status": "0x1",
      "cumulativeGasUsed": "0xe6b58",
      "logs": [],
      "logsBloom": "0x00000000000000000000000000000000000000000000000000000000000000000000000000000000000000000000000000000000000000000000000000000000000000000000000000000000000000000000000000000000000000000000000000000000000000000000000000000000000000000000000000000000000000000000000000000000000000000000000000000000000000000000000000000000000000000000000000000000000000000000000000000000000000000000000000000000000000000000000000000000000000000000000000000000000000000000000000000000000000000000000000000000000000000000000000000000",
      "type": "0x0",
      "transactionHash": "0x4a8a77393a24308917bbfbc245e6468febab6a26a6fc277a68b68d458947f776",
      "transactionIndex": "0x0",
      "blockHash": "0x7a65d22baf4ea228530e7c8f291034514e24b58d6f3ac237a64a8c23da355e63",
      "blockNumber": "0x5d563b",
      "gasUsed": "0xe6b58",
      "effectiveGasPrice": "0x3b9aca12",
      "blobGasPrice": "0x1",
      "from": "0xf39fd6e51aad88f6f4ce6ab8827279cfffb92266",
      "to": null,
      "contractAddress": "0xa6197989532384585379282a8c4b0141f54d0609",
      "root": "0x0000000000000000000000000000000000000000000000000000000000000000"
    },
    {
      "status": "0x1",
      "cumulativeGasUsed": "0x191dce",
      "logs": [],
      "logsBloom": "0x00000000000000000000000000000000000000000000000000000000000000000000000000000000000000000000000000000000000000000000000000000000000000000000000000000000000000000000000000000000000000000000000000000000000000000000000000000000000000000000000000000000000000000000000000000000000000000000000000000000000000000000000000000000000000000000000000000000000000000000000000000000000000000000000000000000000000000000000000000000000000000000000000000000000000000000000000000000000000000000000000000000000000000000000000000000",
      "type": "0x0",
      "transactionHash": "0x275ea68735d1bc0256b437a8403ce21fa2e2033d275a589f71ac6adb8835ffd4",
      "transactionIndex": "0x1",
      "blockHash": "0x7a65d22baf4ea228530e7c8f291034514e24b58d6f3ac237a64a8c23da355e63",
      "blockNumber": "0x5d563b",
      "gasUsed": "0xab276",
      "effectiveGasPrice": "0x3b9aca12",
      "blobGasPrice": "0x1",
      "from": "0xf39fd6e51aad88f6f4ce6ab8827279cfffb92266",
      "to": null,
      "contractAddress": "0x5aeaaab8171cbfc4f966c6467d161c5e81e17e60",
      "root": "0x0000000000000000000000000000000000000000000000000000000000000000"
    },
    {
      "status": "0x1",
      "cumulativeGasUsed": "0x80e60",
      "logs": [
        {
          "address": "0x70ef722657864f950edc4f3dd885caa2d35db872",
          "topics": [
            "0x8be0079c531659141344cd1fd0a4f28419497f9722a3daafe3b4186f6b6457e0",
            "0x0000000000000000000000000000000000000000000000000000000000000000",
            "0x000000000000000000000000f39fd6e51aad88f6f4ce6ab8827279cfffb92266"
          ],
          "data": "0x",
          "blockHash": "0xf507f7fb789a1c2844fa28d4bbce079fc4715c38eab267bb07b360a3bbde7461",
          "blockNumber": "0x5d563c",
          "blockTimestamp": "0x666e4d03",
          "transactionHash": "0x5b132c6b7374511940e8ad51baa88110d4ca6bfc29687f8a5a70d932a4b4167d",
          "transactionIndex": "0x0",
          "logIndex": "0x0",
          "removed": false
        }
      ],
      "logsBloom": "0x00000000000000000000000000000000000000000000000000800000000000000000000000000000000000000000000000000000000000000000000000000000000000000000000000000000000000000001000000000000000000000000000000100000020000000000000100000800000000000000000000000000000000400000000000000000000000000000000000000000000000000000000000000000000000000000000000000000000000000000000000000000000000000000000000000000000000200000000000000000000000002000000000020000000020000000000000000000000000000000000000000000000000040000000000000000",
      "type": "0x0",
      "transactionHash": "0x5b132c6b7374511940e8ad51baa88110d4ca6bfc29687f8a5a70d932a4b4167d",
      "transactionIndex": "0x0",
      "blockHash": "0xf507f7fb789a1c2844fa28d4bbce079fc4715c38eab267bb07b360a3bbde7461",
      "blockNumber": "0x5d563c",
      "gasUsed": "0x80e60",
      "effectiveGasPrice": "0x3b9aca12",
      "blobGasPrice": "0x1",
      "from": "0xf39fd6e51aad88f6f4ce6ab8827279cfffb92266",
      "to": null,
      "contractAddress": "0x70ef722657864f950edc4f3dd885caa2d35db872",
      "root": "0x0000000000000000000000000000000000000000000000000000000000000000"
    },
    {
      "status": "0x1",
      "cumulativeGasUsed": "0x9861d",
      "logs": [
        {
          "address": "0x70ef722657864f950edc4f3dd885caa2d35db872",
          "topics": [
            "0xbe533f538959a17d76f1b09e966e741ee3b1183099682f96216c93d21feaecba"
          ],
          "data": "0x8ca89f7700000000000000000000000000000000000000000000000000000000",
          "blockHash": "0xf507f7fb789a1c2844fa28d4bbce079fc4715c38eab267bb07b360a3bbde7461",
          "blockNumber": "0x5d563c",
          "blockTimestamp": "0x666e4d03",
          "transactionHash": "0x79ea5c085a4dee1e03d003611906a381a817e9d775c299c399486154bee32194",
          "transactionIndex": "0x1",
          "logIndex": "0x1",
          "removed": false
        },
        {
          "address": "0x70ef722657864f950edc4f3dd885caa2d35db872",
          "topics": [
            "0xda3c8142b3c1d27633026f55bfcb4eeb0b5b8db0daa0a3e10c2213a441722ad1"
          ],
          "data": "0x8ca89f7700000000000000000000000000000000000000000000000000000000000000000000000000000000fdf4d8e40e028101f5c170d35d7ff01bf1054209",
          "blockHash": "0xf507f7fb789a1c2844fa28d4bbce079fc4715c38eab267bb07b360a3bbde7461",
          "blockNumber": "0x5d563c",
          "blockTimestamp": "0x666e4d03",
          "transactionHash": "0x79ea5c085a4dee1e03d003611906a381a817e9d775c299c399486154bee32194",
          "transactionIndex": "0x1",
          "logIndex": "0x2",
          "removed": false
        }
      ],
      "logsBloom": "0x00000000000000000000000000000000000000000000000000000000000000080000000000000000000000000000000000000000000000000000000000000000000000000000000000000000000000000000000000000000000000000000000000100000000000000000200000000000000000000000000010000000000000000000000000000000000000000000100000000000000000000000000000000000000000000000000000004000080000000000000000000000000000000000000000000000000000000000000000000000000000000000000000020000000000000000000000000000000000000000000000000000000000040000000000000000",
      "type": "0x0",
      "transactionHash": "0x79ea5c085a4dee1e03d003611906a381a817e9d775c299c399486154bee32194",
      "transactionIndex": "0x1",
      "blockHash": "0xf507f7fb789a1c2844fa28d4bbce079fc4715c38eab267bb07b360a3bbde7461",
      "blockNumber": "0x5d563c",
      "gasUsed": "0x177bd",
      "effectiveGasPrice": "0x3b9aca12",
      "blobGasPrice": "0x1",
      "from": "0xf39fd6e51aad88f6f4ce6ab8827279cfffb92266",
      "to": "0x70ef722657864f950edc4f3dd885caa2d35db872",
      "contractAddress": null,
      "root": "0x0000000000000000000000000000000000000000000000000000000000000000"
    },
    {
      "status": "0x1",
      "cumulativeGasUsed": "0xa7aa4",
      "logs": [
        {
          "address": "0x70ef722657864f950edc4f3dd885caa2d35db872",
          "topics": [
            "0xbe533f538959a17d76f1b09e966e741ee3b1183099682f96216c93d21feaecba"
          ],
          "data": "0xdc1ec0e500000000000000000000000000000000000000000000000000000000",
          "blockHash": "0xf507f7fb789a1c2844fa28d4bbce079fc4715c38eab267bb07b360a3bbde7461",
          "blockNumber": "0x5d563c",
          "blockTimestamp": "0x666e4d03",
          "transactionHash": "0x071318ec11fb2588ca9f965bb5291531c03cd3bc5d56e6072b996ac457b3dc0d",
          "transactionIndex": "0x2",
          "logIndex": "0x3",
          "removed": false
        },
        {
          "address": "0x70ef722657864f950edc4f3dd885caa2d35db872",
          "topics": [
            "0xda3c8142b3c1d27633026f55bfcb4eeb0b5b8db0daa0a3e10c2213a441722ad1"
          ],
          "data": "0xdc1ec0e500000000000000000000000000000000000000000000000000000000000000000000000000000000de96e0f0900d95b9a3ad093c7a8d7ebcdc62e1af",
          "blockHash": "0xf507f7fb789a1c2844fa28d4bbce079fc4715c38eab267bb07b360a3bbde7461",
          "blockNumber": "0x5d563c",
          "blockTimestamp": "0x666e4d03",
          "transactionHash": "0x071318ec11fb2588ca9f965bb5291531c03cd3bc5d56e6072b996ac457b3dc0d",
          "transactionIndex": "0x2",
          "logIndex": "0x4",
          "removed": false
        }
      ],
      "logsBloom": "0x00000000000000000000000000000000000000000000000000000000000000080000000000000000000000000000000000000000000000000000000000000000000000000000000000000000000000000000000000000000000000000000000000100000000000000000200000000000000000000000000010000000000000000000000000000000000000000000100000000000000000000000000000000000000000000000000000004000080000000000000000000000000000000000000000000000000000000000000000000000000000000000000000020000000000000000000000000000000000000000000000000000000000040000000000000000",
      "type": "0x0",
      "transactionHash": "0x071318ec11fb2588ca9f965bb5291531c03cd3bc5d56e6072b996ac457b3dc0d",
      "transactionIndex": "0x2",
      "blockHash": "0xf507f7fb789a1c2844fa28d4bbce079fc4715c38eab267bb07b360a3bbde7461",
      "blockNumber": "0x5d563c",
      "gasUsed": "0xf487",
      "effectiveGasPrice": "0x3b9aca12",
      "blobGasPrice": "0x1",
      "from": "0xf39fd6e51aad88f6f4ce6ab8827279cfffb92266",
      "to": "0x70ef722657864f950edc4f3dd885caa2d35db872",
      "contractAddress": null,
      "root": "0x0000000000000000000000000000000000000000000000000000000000000000"
    },
    {
      "status": "0x1",
      "cumulativeGasUsed": "0xf6e9",
      "logs": [
        {
          "address": "0x70ef722657864f950edc4f3dd885caa2d35db872",
          "topics": [
            "0xbe533f538959a17d76f1b09e966e741ee3b1183099682f96216c93d21feaecba"
          ],
          "data": "0x9f46786e00000000000000000000000000000000000000000000000000000000",
          "blockHash": "0xc84c98441a8fd07d7293de9a534e6c5049835a401ef3b0b6aecc0438b226e9ca",
          "blockNumber": "0x5d563d",
          "blockTimestamp": "0x666e4d04",
          "transactionHash": "0xf98cb545c3bd5247fd99fc86e68df4c9cee96ba27de00575c480e6f1ddf1ee75",
          "transactionIndex": "0x0",
          "logIndex": "0x0",
          "removed": false
        },
        {
          "address": "0x70ef722657864f950edc4f3dd885caa2d35db872",
          "topics": [
            "0xda3c8142b3c1d27633026f55bfcb4eeb0b5b8db0daa0a3e10c2213a441722ad1"
          ],
          "data": "0x9f46786e0000000000000000000000000000000000000000000000000000000000000000000000000000000089a18e5e226fc1ea2079265a068c6701c6550b84",
          "blockHash": "0xc84c98441a8fd07d7293de9a534e6c5049835a401ef3b0b6aecc0438b226e9ca",
          "blockNumber": "0x5d563d",
          "blockTimestamp": "0x666e4d04",
          "transactionHash": "0xf98cb545c3bd5247fd99fc86e68df4c9cee96ba27de00575c480e6f1ddf1ee75",
          "transactionIndex": "0x0",
          "logIndex": "0x1",
          "removed": false
        }
      ],
      "logsBloom": "0x00000000000000000000000000000000000000000000000000000000000000080000000000000000000000000000000000000000000000000000000000000000000000000000000000000000000000000000000000000000000000000000000000100000000000000000200000000000000000000000000010000000000000000000000000000000000000000000100000000000000000000000000000000000000000000000000000004000080000000000000000000000000000000000000000000000000000000000000000000000000000000000000000020000000000000000000000000000000000000000000000000000000000040000000000000000",
      "type": "0x0",
      "transactionHash": "0xf98cb545c3bd5247fd99fc86e68df4c9cee96ba27de00575c480e6f1ddf1ee75",
      "transactionIndex": "0x0",
      "blockHash": "0xc84c98441a8fd07d7293de9a534e6c5049835a401ef3b0b6aecc0438b226e9ca",
      "blockNumber": "0x5d563d",
      "gasUsed": "0xf6e9",
      "effectiveGasPrice": "0x3b9aca12",
      "blobGasPrice": "0x1",
      "from": "0xf39fd6e51aad88f6f4ce6ab8827279cfffb92266",
      "to": "0x70ef722657864f950edc4f3dd885caa2d35db872",
      "contractAddress": null,
      "root": "0x0000000000000000000000000000000000000000000000000000000000000000"
    },
    {
      "status": "0x1",
      "cumulativeGasUsed": "0x1f034",
      "logs": [
        {
          "address": "0x70ef722657864f950edc4f3dd885caa2d35db872",
          "topics": [
            "0xbe533f538959a17d76f1b09e966e741ee3b1183099682f96216c93d21feaecba"
          ],
          "data": "0x603d9eb700000000000000000000000000000000000000000000000000000000",
          "blockHash": "0xc84c98441a8fd07d7293de9a534e6c5049835a401ef3b0b6aecc0438b226e9ca",
          "blockNumber": "0x5d563d",
          "blockTimestamp": "0x666e4d04",
          "transactionHash": "0xc994c9c88d7d82874648d83654a313052f99972d349ac1b7079f63b75e6bca7b",
          "transactionIndex": "0x1",
          "logIndex": "0x2",
          "removed": false
        },
        {
          "address": "0x70ef722657864f950edc4f3dd885caa2d35db872",
          "topics": [
            "0xda3c8142b3c1d27633026f55bfcb4eeb0b5b8db0daa0a3e10c2213a441722ad1"
          ],
          "data": "0x603d9eb7000000000000000000000000000000000000000000000000000000000000000000000000000000008631f5abd740e75b5c7bb426354ab04482e359d5",
          "blockHash": "0xc84c98441a8fd07d7293de9a534e6c5049835a401ef3b0b6aecc0438b226e9ca",
          "blockNumber": "0x5d563d",
          "blockTimestamp": "0x666e4d04",
          "transactionHash": "0xc994c9c88d7d82874648d83654a313052f99972d349ac1b7079f63b75e6bca7b",
          "transactionIndex": "0x1",
          "logIndex": "0x3",
          "removed": false
        }
      ],
      "logsBloom": "0x00000000000000000000000000000000000000000000000000000000000000080000000000000000000000000000000000000000000000000000000000000000000000000000000000000000000000000000000000000000000000000000000000100000000000000000200000000000000000000000000010000000000000000000000000000000000000000000100000000000000000000000000000000000000000000000000000004000080000000000000000000000000000000000000000000000000000000000000000000000000000000000000000020000000000000000000000000000000000000000000000000000000000040000000000000000",
      "type": "0x0",
      "transactionHash": "0xc994c9c88d7d82874648d83654a313052f99972d349ac1b7079f63b75e6bca7b",
      "transactionIndex": "0x1",
      "blockHash": "0xc84c98441a8fd07d7293de9a534e6c5049835a401ef3b0b6aecc0438b226e9ca",
      "blockNumber": "0x5d563d",
      "gasUsed": "0xf94b",
      "effectiveGasPrice": "0x3b9aca12",
      "blobGasPrice": "0x1",
      "from": "0xf39fd6e51aad88f6f4ce6ab8827279cfffb92266",
      "to": "0x70ef722657864f950edc4f3dd885caa2d35db872",
      "contractAddress": null,
      "root": "0x0000000000000000000000000000000000000000000000000000000000000000"
    },
    {
      "status": "0x1",
      "cumulativeGasUsed": "0xfbad",
      "logs": [
        {
          "address": "0x70ef722657864f950edc4f3dd885caa2d35db872",
          "topics": [
            "0xbe533f538959a17d76f1b09e966e741ee3b1183099682f96216c93d21feaecba"
          ],
          "data": "0xc5b3644100000000000000000000000000000000000000000000000000000000",
          "blockHash": "0x5eb9e13339496878281a01a6fae2de57feb7065392f7280adb51e48ad6dcb835",
          "blockNumber": "0x5d563e",
          "blockTimestamp": "0x666e4d05",
          "transactionHash": "0x352e32386eac74acdb7eb1ef7c4dc613d61db52ce206c2ff1de7c9d5c9fbb925",
          "transactionIndex": "0x0",
          "logIndex": "0x0",
          "removed": false
        },
        {
          "address": "0x70ef722657864f950edc4f3dd885caa2d35db872",
          "topics": [
            "0xda3c8142b3c1d27633026f55bfcb4eeb0b5b8db0daa0a3e10c2213a441722ad1"
          ],
          "data": "0xc5b3644100000000000000000000000000000000000000000000000000000000000000000000000000000000ffa6c34fba0c3b6cf8ec958ed291c87589ad9528",
          "blockHash": "0x5eb9e13339496878281a01a6fae2de57feb7065392f7280adb51e48ad6dcb835",
          "blockNumber": "0x5d563e",
          "blockTimestamp": "0x666e4d05",
          "transactionHash": "0x352e32386eac74acdb7eb1ef7c4dc613d61db52ce206c2ff1de7c9d5c9fbb925",
          "transactionIndex": "0x0",
          "logIndex": "0x1",
          "removed": false
        }
      ],
      "logsBloom": "0x00000000000000000000000000000000000000000000000000000000000000080000000000000000000000000000000000000000000000000000000000000000000000000000000000000000000000000000000000000000000000000000000000100000000000000000200000000000000000000000000010000000000000000000000000000000000000000000100000000000000000000000000000000000000000000000000000004000080000000000000000000000000000000000000000000000000000000000000000000000000000000000000000020000000000000000000000000000000000000000000000000000000000040000000000000000",
      "type": "0x0",
      "transactionHash": "0x352e32386eac74acdb7eb1ef7c4dc613d61db52ce206c2ff1de7c9d5c9fbb925",
      "transactionIndex": "0x0",
      "blockHash": "0x5eb9e13339496878281a01a6fae2de57feb7065392f7280adb51e48ad6dcb835",
      "blockNumber": "0x5d563e",
      "gasUsed": "0xfbad",
      "effectiveGasPrice": "0x3b9aca12",
      "blobGasPrice": "0x1",
      "from": "0xf39fd6e51aad88f6f4ce6ab8827279cfffb92266",
      "to": "0x70ef722657864f950edc4f3dd885caa2d35db872",
      "contractAddress": null,
      "root": "0x0000000000000000000000000000000000000000000000000000000000000000"
    },
    {
      "status": "0x1",
      "cumulativeGasUsed": "0x1f9bc",
      "logs": [
        {
          "address": "0x70ef722657864f950edc4f3dd885caa2d35db872",
          "topics": [
            "0xbe533f538959a17d76f1b09e966e741ee3b1183099682f96216c93d21feaecba"
          ],
          "data": "0xe69b9edc00000000000000000000000000000000000000000000000000000000",
          "blockHash": "0x5eb9e13339496878281a01a6fae2de57feb7065392f7280adb51e48ad6dcb835",
          "blockNumber": "0x5d563e",
          "blockTimestamp": "0x666e4d05",
          "transactionHash": "0xe08d0e133bdc39254fff99efe31ea2a9c767c4f4a8187ff1c24b6e6e4b8ccc76",
          "transactionIndex": "0x1",
          "logIndex": "0x2",
          "removed": false
        },
        {
          "address": "0x70ef722657864f950edc4f3dd885caa2d35db872",
          "topics": [
            "0xda3c8142b3c1d27633026f55bfcb4eeb0b5b8db0daa0a3e10c2213a441722ad1"
          ],
          "data": "0xe69b9edc00000000000000000000000000000000000000000000000000000000000000000000000000000000ffa6c34fba0c3b6cf8ec958ed291c87589ad9528",
          "blockHash": "0x5eb9e13339496878281a01a6fae2de57feb7065392f7280adb51e48ad6dcb835",
          "blockNumber": "0x5d563e",
          "blockTimestamp": "0x666e4d05",
          "transactionHash": "0xe08d0e133bdc39254fff99efe31ea2a9c767c4f4a8187ff1c24b6e6e4b8ccc76",
          "transactionIndex": "0x1",
          "logIndex": "0x3",
          "removed": false
        }
      ],
      "logsBloom": "0x00000000000000000000000000000000000000000000000000000000000000080000000000000000000000000000000000000000000000000000000000000000000000000000000000000000000000000000000000000000000000000000000000100000000000000000200000000000000000000000000010000000000000000000000000000000000000000000100000000000000000000000000000000000000000000000000000004000080000000000000000000000000000000000000000000000000000000000000000000000000000000000000000020000000000000000000000000000000000000000000000000000000000040000000000000000",
      "type": "0x0",
      "transactionHash": "0xe08d0e133bdc39254fff99efe31ea2a9c767c4f4a8187ff1c24b6e6e4b8ccc76",
      "transactionIndex": "0x1",
      "blockHash": "0x5eb9e13339496878281a01a6fae2de57feb7065392f7280adb51e48ad6dcb835",
      "blockNumber": "0x5d563e",
      "gasUsed": "0xfe0f",
      "effectiveGasPrice": "0x3b9aca12",
      "blobGasPrice": "0x1",
      "from": "0xf39fd6e51aad88f6f4ce6ab8827279cfffb92266",
      "to": "0x70ef722657864f950edc4f3dd885caa2d35db872",
      "contractAddress": null,
      "root": "0x0000000000000000000000000000000000000000000000000000000000000000"
    },
    {
      "status": "0x1",
      "cumulativeGasUsed": "0x10071",
      "logs": [
        {
          "address": "0x70ef722657864f950edc4f3dd885caa2d35db872",
          "topics": [
            "0xbe533f538959a17d76f1b09e966e741ee3b1183099682f96216c93d21feaecba"
          ],
          "data": "0xed8b6b3100000000000000000000000000000000000000000000000000000000",
          "blockHash": "0x5c8d8bb30c5e6bac8bc7ff44e9a711863d83c2993152eecb925c0129e0f7b4f6",
          "blockNumber": "0x5d563f",
          "blockTimestamp": "0x666e4d06",
          "transactionHash": "0xb428a553e6ad973424669ef44ce2629857cdbba2feded883a2f720f864e7708a",
          "transactionIndex": "0x0",
          "logIndex": "0x0",
          "removed": false
        },
        {
          "address": "0x70ef722657864f950edc4f3dd885caa2d35db872",
          "topics": [
            "0xda3c8142b3c1d27633026f55bfcb4eeb0b5b8db0daa0a3e10c2213a441722ad1"
          ],
          "data": "0xed8b6b31000000000000000000000000000000000000000000000000000000000000000000000000000000003ff7d9476ccdd841ee54ced9c32d0f37eca348a4",
          "blockHash": "0x5c8d8bb30c5e6bac8bc7ff44e9a711863d83c2993152eecb925c0129e0f7b4f6",
          "blockNumber": "0x5d563f",
          "blockTimestamp": "0x666e4d06",
          "transactionHash": "0xb428a553e6ad973424669ef44ce2629857cdbba2feded883a2f720f864e7708a",
          "transactionIndex": "0x0",
          "logIndex": "0x1",
          "removed": false
        }
      ],
      "logsBloom": "0x00000000000000000000000000000000000000000000000000000000000000080000000000000000000000000000000000000000000000000000000000000000000000000000000000000000000000000000000000000000000000000000000000100000000000000000200000000000000000000000000010000000000000000000000000000000000000000000100000000000000000000000000000000000000000000000000000004000080000000000000000000000000000000000000000000000000000000000000000000000000000000000000000020000000000000000000000000000000000000000000000000000000000040000000000000000",
      "type": "0x0",
      "transactionHash": "0xb428a553e6ad973424669ef44ce2629857cdbba2feded883a2f720f864e7708a",
      "transactionIndex": "0x0",
      "blockHash": "0x5c8d8bb30c5e6bac8bc7ff44e9a711863d83c2993152eecb925c0129e0f7b4f6",
      "blockNumber": "0x5d563f",
      "gasUsed": "0x10071",
      "effectiveGasPrice": "0x3b9aca12",
      "blobGasPrice": "0x1",
      "from": "0xf39fd6e51aad88f6f4ce6ab8827279cfffb92266",
      "to": "0x70ef722657864f950edc4f3dd885caa2d35db872",
      "contractAddress": null,
      "root": "0x0000000000000000000000000000000000000000000000000000000000000000"
    },
    {
      "status": "0x1",
      "cumulativeGasUsed": "0x102d3",
      "logs": [
        {
          "address": "0x70ef722657864f950edc4f3dd885caa2d35db872",
          "topics": [
            "0xbe533f538959a17d76f1b09e966e741ee3b1183099682f96216c93d21feaecba"
          ],
          "data": "0xfe0d94c100000000000000000000000000000000000000000000000000000000",
          "blockHash": "0xaf866efc8ce86bde46d5cd1d9c8660ba370fdbc939694793280f3fbdaaa6142c",
          "blockNumber": "0x5d5640",
          "blockTimestamp": "0x666e4d07",
          "transactionHash": "0x16b737210a025a063ab565e00ad1ce366b98d1e68bb1994aa91b7161950b53c9",
          "transactionIndex": "0x0",
          "logIndex": "0x0",
          "removed": false
        },
        {
          "address": "0x70ef722657864f950edc4f3dd885caa2d35db872",
          "topics": [
            "0xda3c8142b3c1d27633026f55bfcb4eeb0b5b8db0daa0a3e10c2213a441722ad1"
          ],
          "data": "0xfe0d94c10000000000000000000000000000000000000000000000000000000000000000000000000000000073edfc8c0625629a0f3df35f75e52b271e59c6a0",
          "blockHash": "0xaf866efc8ce86bde46d5cd1d9c8660ba370fdbc939694793280f3fbdaaa6142c",
          "blockNumber": "0x5d5640",
          "blockTimestamp": "0x666e4d07",
          "transactionHash": "0x16b737210a025a063ab565e00ad1ce366b98d1e68bb1994aa91b7161950b53c9",
          "transactionIndex": "0x0",
          "logIndex": "0x1",
          "removed": false
        }
      ],
      "logsBloom": "0x00000000000000000000000000000000000000000000000000000000000000080000000000000000000000000000000000000000000000000000000000000000000000000000000000000000000000000000000000000000000000000000000000100000000000000000200000000000000000000000000010000000000000000000000000000000000000000000100000000000000000000000000000000000000000000000000000004000080000000000000000000000000000000000000000000000000000000000000000000000000000000000000000020000000000000000000000000000000000000000000000000000000000040000000000000000",
      "type": "0x0",
      "transactionHash": "0x16b737210a025a063ab565e00ad1ce366b98d1e68bb1994aa91b7161950b53c9",
      "transactionIndex": "0x0",
      "blockHash": "0xaf866efc8ce86bde46d5cd1d9c8660ba370fdbc939694793280f3fbdaaa6142c",
      "blockNumber": "0x5d5640",
      "gasUsed": "0x102d3",
      "effectiveGasPrice": "0x3b9aca12",
      "blobGasPrice": "0x1",
      "from": "0xf39fd6e51aad88f6f4ce6ab8827279cfffb92266",
      "to": "0x70ef722657864f950edc4f3dd885caa2d35db872",
      "contractAddress": null,
      "root": "0x0000000000000000000000000000000000000000000000000000000000000000"
    },
    {
      "status": "0x1",
      "cumulativeGasUsed": "0x14f9f",
      "logs": [
        {
          "address": "0x70ef722657864f950edc4f3dd885caa2d35db872",
          "topics": [
            "0xbe533f538959a17d76f1b09e966e741ee3b1183099682f96216c93d21feaecba"
          ],
          "data": "0x06f7e36d00000000000000000000000000000000000000000000000000000000",
          "blockHash": "0x201949852242b0abe526ae228bd70103b5b7d4c31df4ba52c3809d619c9de8ac",
          "blockNumber": "0x5d5641",
          "blockTimestamp": "0x666e4d08",
          "transactionHash": "0x4eea0aadfd4556cde57a333c917f07d5987f84c7e7c8ad2bad8f964c89483498",
          "transactionIndex": "0x0",
          "logIndex": "0x0",
          "removed": false
        },
        {
          "address": "0x70ef722657864f950edc4f3dd885caa2d35db872",
          "topics": [
            "0xda3c8142b3c1d27633026f55bfcb4eeb0b5b8db0daa0a3e10c2213a441722ad1"
          ],
          "data": "0x06f7e36d0000000000000000000000000000000000000000000000000000000000000000000000000000000045d1989afcc3d7724b64bc72a0bfb5cd0d4d6c4e",
          "blockHash": "0x201949852242b0abe526ae228bd70103b5b7d4c31df4ba52c3809d619c9de8ac",
          "blockNumber": "0x5d5641",
          "blockTimestamp": "0x666e4d08",
          "transactionHash": "0x4eea0aadfd4556cde57a333c917f07d5987f84c7e7c8ad2bad8f964c89483498",
          "transactionIndex": "0x0",
          "logIndex": "0x1",
          "removed": false
        }
      ],
      "logsBloom": "0x00000000000000000000000000000000000000000000000000000000000000080000000000000000000000000000000000000000000000000000000000000000000000000000000000000000000000000000000000000000000000000000000000100000000000000000200000000000000000000000000010000000000000000000000000000000000000000000100000000000000000000000000000000000000000000000000000004000080000000000000000000000000000000000000000000000000000000000000000000000000000000000000000020000000000000000000000000000000000000000000000000000000000040000000000000000",
      "type": "0x0",
      "transactionHash": "0x4eea0aadfd4556cde57a333c917f07d5987f84c7e7c8ad2bad8f964c89483498",
      "transactionIndex": "0x0",
      "blockHash": "0x201949852242b0abe526ae228bd70103b5b7d4c31df4ba52c3809d619c9de8ac",
      "blockNumber": "0x5d5641",
      "gasUsed": "0x14f9f",
      "effectiveGasPrice": "0x3b9aca12",
      "blobGasPrice": "0x1",
      "from": "0xf39fd6e51aad88f6f4ce6ab8827279cfffb92266",
      "to": "0x70ef722657864f950edc4f3dd885caa2d35db872",
      "contractAddress": null,
      "root": "0x0000000000000000000000000000000000000000000000000000000000000000"
    },
    {
      "status": "0x1",
      "cumulativeGasUsed": "0x10f35",
      "logs": [
        {
          "address": "0x70ef722657864f950edc4f3dd885caa2d35db872",
          "topics": [
            "0xbe533f538959a17d76f1b09e966e741ee3b1183099682f96216c93d21feaecba"
          ],
          "data": "0x5cefc4ad00000000000000000000000000000000000000000000000000000000",
          "blockHash": "0x8fe97f7216418742d2e21c74d931e36225eddc1dd5c1ed533edffe3ab2641d3d",
          "blockNumber": "0x5d5642",
          "blockTimestamp": "0x666e4d09",
          "transactionHash": "0x2bc7f168f58226caf66630f3a2d804f0fa02b8cceec03c7967b818c9aba5ec11",
          "transactionIndex": "0x0",
          "logIndex": "0x0",
          "removed": false
        },
        {
          "address": "0x70ef722657864f950edc4f3dd885caa2d35db872",
          "topics": [
            "0xda3c8142b3c1d27633026f55bfcb4eeb0b5b8db0daa0a3e10c2213a441722ad1"
          ],
          "data": "0x5cefc4ad000000000000000000000000000000000000000000000000000000000000000000000000000000005fc875e96b7f3cab4aae3d83bfc321125ca3f258",
          "blockHash": "0x8fe97f7216418742d2e21c74d931e36225eddc1dd5c1ed533edffe3ab2641d3d",
          "blockNumber": "0x5d5642",
          "blockTimestamp": "0x666e4d09",
          "transactionHash": "0x2bc7f168f58226caf66630f3a2d804f0fa02b8cceec03c7967b818c9aba5ec11",
          "transactionIndex": "0x0",
          "logIndex": "0x1",
          "removed": false
        }
      ],
      "logsBloom": "0x00000000000000000000000000000000000000000000000000000000000000080000000000000000000000000000000000000000000000000000000000000000000000000000000000000000000000000000000000000000000000000000000000100000000000000000200000000000000000000000000010000000000000000000000000000000000000000000100000000000000000000000000000000000000000000000000000004000080000000000000000000000000000000000000000000000000000000000000000000000000000000000000000020000000000000000000000000000000000000000000000000000000000040000000000000000",
      "type": "0x0",
      "transactionHash": "0x2bc7f168f58226caf66630f3a2d804f0fa02b8cceec03c7967b818c9aba5ec11",
      "transactionIndex": "0x0",
      "blockHash": "0x8fe97f7216418742d2e21c74d931e36225eddc1dd5c1ed533edffe3ab2641d3d",
      "blockNumber": "0x5d5642",
      "gasUsed": "0x10f35",
      "effectiveGasPrice": "0x3b9aca12",
      "blobGasPrice": "0x1",
      "from": "0xf39fd6e51aad88f6f4ce6ab8827279cfffb92266",
      "to": "0x70ef722657864f950edc4f3dd885caa2d35db872",
      "contractAddress": null,
      "root": "0x0000000000000000000000000000000000000000000000000000000000000000"
    },
    {
      "status": "0x1",
      "cumulativeGasUsed": "0x220cc",
      "logs": [
        {
          "address": "0x70ef722657864f950edc4f3dd885caa2d35db872",
          "topics": [
            "0xbe533f538959a17d76f1b09e966e741ee3b1183099682f96216c93d21feaecba"
          ],
          "data": "0x9f31e87b00000000000000000000000000000000000000000000000000000000",
          "blockHash": "0x8fe97f7216418742d2e21c74d931e36225eddc1dd5c1ed533edffe3ab2641d3d",
          "blockNumber": "0x5d5642",
          "blockTimestamp": "0x666e4d09",
          "transactionHash": "0xfff932e70418956e3c1cb2f915fa3f143b324ec65d07edb197dbd577b3cb28cf",
          "transactionIndex": "0x1",
          "logIndex": "0x2",
          "removed": false
        },
        {
          "address": "0x70ef722657864f950edc4f3dd885caa2d35db872",
          "topics": [
            "0xda3c8142b3c1d27633026f55bfcb4eeb0b5b8db0daa0a3e10c2213a441722ad1"
          ],
          "data": "0x9f31e87b00000000000000000000000000000000000000000000000000000000000000000000000000000000887aabee3f11ff3fac73462cb7f199e7c8661831",
          "blockHash": "0x8fe97f7216418742d2e21c74d931e36225eddc1dd5c1ed533edffe3ab2641d3d",
          "blockNumber": "0x5d5642",
          "blockTimestamp": "0x666e4d09",
          "transactionHash": "0xfff932e70418956e3c1cb2f915fa3f143b324ec65d07edb197dbd577b3cb28cf",
          "transactionIndex": "0x1",
          "logIndex": "0x3",
          "removed": false
        }
      ],
      "logsBloom": "0x00000000000000000000000000000000000000000000000000000000000000080000000000000000000000000000000000000000000000000000000000000000000000000000000000000000000000000000000000000000000000000000000000100000000000000000200000000000000000000000000010000000000000000000000000000000000000000000100000000000000000000000000000000000000000000000000000004000080000000000000000000000000000000000000000000000000000000000000000000000000000000000000000020000000000000000000000000000000000000000000000000000000000040000000000000000",
      "type": "0x0",
      "transactionHash": "0xfff932e70418956e3c1cb2f915fa3f143b324ec65d07edb197dbd577b3cb28cf",
      "transactionIndex": "0x1",
      "blockHash": "0x8fe97f7216418742d2e21c74d931e36225eddc1dd5c1ed533edffe3ab2641d3d",
      "blockNumber": "0x5d5642",
      "gasUsed": "0x11197",
      "effectiveGasPrice": "0x3b9aca12",
      "blobGasPrice": "0x1",
      "from": "0xf39fd6e51aad88f6f4ce6ab8827279cfffb92266",
      "to": "0x70ef722657864f950edc4f3dd885caa2d35db872",
      "contractAddress": null,
      "root": "0x0000000000000000000000000000000000000000000000000000000000000000"
    },
    {
      "status": "0x1",
      "cumulativeGasUsed": "0x334c5",
      "logs": [
        {
          "address": "0x70ef722657864f950edc4f3dd885caa2d35db872",
          "topics": [
            "0xbe533f538959a17d76f1b09e966e741ee3b1183099682f96216c93d21feaecba"
          ],
          "data": "0x9877696700000000000000000000000000000000000000000000000000000000",
          "blockHash": "0x8fe97f7216418742d2e21c74d931e36225eddc1dd5c1ed533edffe3ab2641d3d",
          "blockNumber": "0x5d5642",
          "blockTimestamp": "0x666e4d09",
          "transactionHash": "0x139524484d7a5f35361ee0f508a45a15d911ccc7fe92a3641e3a50ee2a3b023e",
          "transactionIndex": "0x2",
          "logIndex": "0x4",
          "removed": false
        },
        {
          "address": "0x70ef722657864f950edc4f3dd885caa2d35db872",
          "topics": [
            "0xda3c8142b3c1d27633026f55bfcb4eeb0b5b8db0daa0a3e10c2213a441722ad1"
          ],
          "data": "0x987769670000000000000000000000000000000000000000000000000000000000000000000000000000000071e1fbdda6fe101e2e63bdafd427c1e4e62cb042",
          "blockHash": "0x8fe97f7216418742d2e21c74d931e36225eddc1dd5c1ed533edffe3ab2641d3d",
          "blockNumber": "0x5d5642",
          "blockTimestamp": "0x666e4d09",
          "transactionHash": "0x139524484d7a5f35361ee0f508a45a15d911ccc7fe92a3641e3a50ee2a3b023e",
          "transactionIndex": "0x2",
          "logIndex": "0x5",
          "removed": false
        }
      ],
      "logsBloom": "0x00000000000000000000000000000000000000000000000000000000000000080000000000000000000000000000000000000000000000000000000000000000000000000000000000000000000000000000000000000000000000000000000000100000000000000000200000000000000000000000000010000000000000000000000000000000000000000000100000000000000000000000000000000000000000000000000000004000080000000000000000000000000000000000000000000000000000000000000000000000000000000000000000020000000000000000000000000000000000000000000000000000000000040000000000000000",
      "type": "0x0",
      "transactionHash": "0x139524484d7a5f35361ee0f508a45a15d911ccc7fe92a3641e3a50ee2a3b023e",
      "transactionIndex": "0x2",
      "blockHash": "0x8fe97f7216418742d2e21c74d931e36225eddc1dd5c1ed533edffe3ab2641d3d",
      "blockNumber": "0x5d5642",
      "gasUsed": "0x113f9",
      "effectiveGasPrice": "0x3b9aca12",
      "blobGasPrice": "0x1",
      "from": "0xf39fd6e51aad88f6f4ce6ab8827279cfffb92266",
      "to": "0x70ef722657864f950edc4f3dd885caa2d35db872",
      "contractAddress": null,
      "root": "0x0000000000000000000000000000000000000000000000000000000000000000"
    },
    {
      "status": "0x1",
      "cumulativeGasUsed": "0x44b20",
      "logs": [
        {
          "address": "0x70ef722657864f950edc4f3dd885caa2d35db872",
          "topics": [
            "0xbe533f538959a17d76f1b09e966e741ee3b1183099682f96216c93d21feaecba"
          ],
          "data": "0xc7f758a800000000000000000000000000000000000000000000000000000000",
          "blockHash": "0x8fe97f7216418742d2e21c74d931e36225eddc1dd5c1ed533edffe3ab2641d3d",
          "blockNumber": "0x5d5642",
          "blockTimestamp": "0x666e4d09",
          "transactionHash": "0x2ed38ce9266b06e7f9dc5e0d3bdcb60a9e46e5196f314392aa454cec34aefa94",
          "transactionIndex": "0x3",
          "logIndex": "0x6",
          "removed": false
        },
        {
          "address": "0x70ef722657864f950edc4f3dd885caa2d35db872",
          "topics": [
            "0xda3c8142b3c1d27633026f55bfcb4eeb0b5b8db0daa0a3e10c2213a441722ad1"
          ],
          "data": "0xc7f758a800000000000000000000000000000000000000000000000000000000000000000000000000000000a6197989532384585379282a8c4b0141f54d0609",
          "blockHash": "0x8fe97f7216418742d2e21c74d931e36225eddc1dd5c1ed533edffe3ab2641d3d",
          "blockNumber": "0x5d5642",
          "blockTimestamp": "0x666e4d09",
          "transactionHash": "0x2ed38ce9266b06e7f9dc5e0d3bdcb60a9e46e5196f314392aa454cec34aefa94",
          "transactionIndex": "0x3",
          "logIndex": "0x7",
          "removed": false
        }
      ],
      "logsBloom": "0x00000000000000000000000000000000000000000000000000000000000000080000000000000000000000000000000000000000000000000000000000000000000000000000000000000000000000000000000000000000000000000000000000100000000000000000200000000000000000000000000010000000000000000000000000000000000000000000100000000000000000000000000000000000000000000000000000004000080000000000000000000000000000000000000000000000000000000000000000000000000000000000000000020000000000000000000000000000000000000000000000000000000000040000000000000000",
      "type": "0x0",
      "transactionHash": "0x2ed38ce9266b06e7f9dc5e0d3bdcb60a9e46e5196f314392aa454cec34aefa94",
      "transactionIndex": "0x3",
      "blockHash": "0x8fe97f7216418742d2e21c74d931e36225eddc1dd5c1ed533edffe3ab2641d3d",
      "blockNumber": "0x5d5642",
      "gasUsed": "0x1165b",
      "effectiveGasPrice": "0x3b9aca12",
      "blobGasPrice": "0x1",
      "from": "0xf39fd6e51aad88f6f4ce6ab8827279cfffb92266",
      "to": "0x70ef722657864f950edc4f3dd885caa2d35db872",
      "contractAddress": null,
      "root": "0x0000000000000000000000000000000000000000000000000000000000000000"
    },
    {
      "status": "0x1",
      "cumulativeGasUsed": "0x563dd",
      "logs": [
        {
          "address": "0x70ef722657864f950edc4f3dd885caa2d35db872",
          "topics": [
            "0xbe533f538959a17d76f1b09e966e741ee3b1183099682f96216c93d21feaecba"
          ],
          "data": "0x6c996f8800000000000000000000000000000000000000000000000000000000",
          "blockHash": "0x8fe97f7216418742d2e21c74d931e36225eddc1dd5c1ed533edffe3ab2641d3d",
          "blockNumber": "0x5d5642",
          "blockTimestamp": "0x666e4d09",
          "transactionHash": "0x54be3d36b0b6f9450097d661e39d8eefdd538a043d53da00c0637d5161a49cd2",
          "transactionIndex": "0x4",
          "logIndex": "0x8",
          "removed": false
        },
        {
          "address": "0x70ef722657864f950edc4f3dd885caa2d35db872",
          "topics": [
            "0xda3c8142b3c1d27633026f55bfcb4eeb0b5b8db0daa0a3e10c2213a441722ad1"
          ],
          "data": "0x6c996f8800000000000000000000000000000000000000000000000000000000000000000000000000000000a6197989532384585379282a8c4b0141f54d0609",
          "blockHash": "0x8fe97f7216418742d2e21c74d931e36225eddc1dd5c1ed533edffe3ab2641d3d",
          "blockNumber": "0x5d5642",
          "blockTimestamp": "0x666e4d09",
          "transactionHash": "0x54be3d36b0b6f9450097d661e39d8eefdd538a043d53da00c0637d5161a49cd2",
          "transactionIndex": "0x4",
          "logIndex": "0x9",
          "removed": false
        }
      ],
      "logsBloom": "0x00000000000000000000000000000000000000000000000000000000000000080000000000000000000000000000000000000000000000000000000000000000000000000000000000000000000000000000000000000000000000000000000000100000000000000000200000000000000000000000000010000000000000000000000000000000000000000000100000000000000000000000000000000000000000000000000000004000080000000000000000000000000000000000000000000000000000000000000000000000000000000000000000020000000000000000000000000000000000000000000000000000000000040000000000000000",
      "type": "0x0",
      "transactionHash": "0x54be3d36b0b6f9450097d661e39d8eefdd538a043d53da00c0637d5161a49cd2",
      "transactionIndex": "0x4",
      "blockHash": "0x8fe97f7216418742d2e21c74d931e36225eddc1dd5c1ed533edffe3ab2641d3d",
      "blockNumber": "0x5d5642",
      "gasUsed": "0x118bd",
      "effectiveGasPrice": "0x3b9aca12",
      "blobGasPrice": "0x1",
      "from": "0xf39fd6e51aad88f6f4ce6ab8827279cfffb92266",
      "to": "0x70ef722657864f950edc4f3dd885caa2d35db872",
      "contractAddress": null,
      "root": "0x0000000000000000000000000000000000000000000000000000000000000000"
    },
    {
      "status": "0x1",
      "cumulativeGasUsed": "0x11b1f",
      "logs": [
        {
          "address": "0x70ef722657864f950edc4f3dd885caa2d35db872",
          "topics": [
            "0xbe533f538959a17d76f1b09e966e741ee3b1183099682f96216c93d21feaecba"
          ],
          "data": "0xe810995300000000000000000000000000000000000000000000000000000000",
          "blockHash": "0x1ccf7c891b13ef0242b2c4c59fc88b642d4d58b96c2b220f7ff2a5a66a762aa4",
          "blockNumber": "0x5d5643",
          "blockTimestamp": "0x666e4d0a",
          "transactionHash": "0x42a74df394762e5c8ba7a394fd56eb05aedabdbc3921b5a974015e401399366d",
          "transactionIndex": "0x0",
          "logIndex": "0x0",
          "removed": false
        },
        {
          "address": "0x70ef722657864f950edc4f3dd885caa2d35db872",
          "topics": [
            "0xda3c8142b3c1d27633026f55bfcb4eeb0b5b8db0daa0a3e10c2213a441722ad1"
          ],
          "data": "0xe810995300000000000000000000000000000000000000000000000000000000000000000000000000000000a6197989532384585379282a8c4b0141f54d0609",
          "blockHash": "0x1ccf7c891b13ef0242b2c4c59fc88b642d4d58b96c2b220f7ff2a5a66a762aa4",
          "blockNumber": "0x5d5643",
          "blockTimestamp": "0x666e4d0a",
          "transactionHash": "0x42a74df394762e5c8ba7a394fd56eb05aedabdbc3921b5a974015e401399366d",
          "transactionIndex": "0x0",
          "logIndex": "0x1",
          "removed": false
        }
      ],
      "logsBloom": "0x00000000000000000000000000000000000000000000000000000000000000080000000000000000000000000000000000000000000000000000000000000000000000000000000000000000000000000000000000000000000000000000000000100000000000000000200000000000000000000000000010000000000000000000000000000000000000000000100000000000000000000000000000000000000000000000000000004000080000000000000000000000000000000000000000000000000000000000000000000000000000000000000000020000000000000000000000000000000000000000000000000000000000040000000000000000",
      "type": "0x0",
      "transactionHash": "0x42a74df394762e5c8ba7a394fd56eb05aedabdbc3921b5a974015e401399366d",
      "transactionIndex": "0x0",
      "blockHash": "0x1ccf7c891b13ef0242b2c4c59fc88b642d4d58b96c2b220f7ff2a5a66a762aa4",
      "blockNumber": "0x5d5643",
      "gasUsed": "0x11b1f",
      "effectiveGasPrice": "0x3b9aca12",
      "blobGasPrice": "0x1",
      "from": "0xf39fd6e51aad88f6f4ce6ab8827279cfffb92266",
      "to": "0x70ef722657864f950edc4f3dd885caa2d35db872",
      "contractAddress": null,
      "root": "0x0000000000000000000000000000000000000000000000000000000000000000"
    },
    {
      "status": "0x1",
      "cumulativeGasUsed": "0x11d81",
      "logs": [
        {
          "address": "0x70ef722657864f950edc4f3dd885caa2d35db872",
          "topics": [
            "0xbe533f538959a17d76f1b09e966e741ee3b1183099682f96216c93d21feaecba"
          ],
          "data": "0x787e0fe000000000000000000000000000000000000000000000000000000000",
          "blockHash": "0x26546355e60bda1ab397a550a62a21a64bbfff7dc95ce6718364fd6b950e10ab",
          "blockNumber": "0x5d5644",
          "blockTimestamp": "0x666e4d0b",
          "transactionHash": "0x42b5cba401477ab013233fec2c5a9cfe701ee2ea292571deef3cc68413186307",
          "transactionIndex": "0x0",
          "logIndex": "0x0",
          "removed": false
        },
        {
          "address": "0x70ef722657864f950edc4f3dd885caa2d35db872",
          "topics": [
            "0xda3c8142b3c1d27633026f55bfcb4eeb0b5b8db0daa0a3e10c2213a441722ad1"
          ],
          "data": "0x787e0fe000000000000000000000000000000000000000000000000000000000000000000000000000000000a6197989532384585379282a8c4b0141f54d0609",
          "blockHash": "0x26546355e60bda1ab397a550a62a21a64bbfff7dc95ce6718364fd6b950e10ab",
          "blockNumber": "0x5d5644",
          "blockTimestamp": "0x666e4d0b",
          "transactionHash": "0x42b5cba401477ab013233fec2c5a9cfe701ee2ea292571deef3cc68413186307",
          "transactionIndex": "0x0",
          "logIndex": "0x1",
          "removed": false
        }
      ],
      "logsBloom": "0x00000000000000000000000000000000000000000000000000000000000000080000000000000000000000000000000000000000000000000000000000000000000000000000000000000000000000000000000000000000000000000000000000100000000000000000200000000000000000000000000010000000000000000000000000000000000000000000100000000000000000000000000000000000000000000000000000004000080000000000000000000000000000000000000000000000000000000000000000000000000000000000000000020000000000000000000000000000000000000000000000000000000000040000000000000000",
      "type": "0x0",
      "transactionHash": "0x42b5cba401477ab013233fec2c5a9cfe701ee2ea292571deef3cc68413186307",
      "transactionIndex": "0x0",
      "blockHash": "0x26546355e60bda1ab397a550a62a21a64bbfff7dc95ce6718364fd6b950e10ab",
      "blockNumber": "0x5d5644",
      "gasUsed": "0x11d81",
      "effectiveGasPrice": "0x3b9aca12",
      "blobGasPrice": "0x1",
      "from": "0xf39fd6e51aad88f6f4ce6ab8827279cfffb92266",
      "to": "0x70ef722657864f950edc4f3dd885caa2d35db872",
      "contractAddress": null,
      "root": "0x0000000000000000000000000000000000000000000000000000000000000000"
    },
    {
      "status": "0x1",
      "cumulativeGasUsed": "0x287ce",
      "logs": [
        {
          "address": "0x70ef722657864f950edc4f3dd885caa2d35db872",
          "topics": [
            "0xbe533f538959a17d76f1b09e966e741ee3b1183099682f96216c93d21feaecba"
          ],
          "data": "0xa4c5e9cb00000000000000000000000000000000000000000000000000000000",
          "blockHash": "0x26546355e60bda1ab397a550a62a21a64bbfff7dc95ce6718364fd6b950e10ab",
          "blockNumber": "0x5d5644",
          "blockTimestamp": "0x666e4d0b",
          "transactionHash": "0xa08d1059afd191f37c6633d3940dceedd1b8a946822d0087ce5af17740c3cf1e",
          "transactionIndex": "0x1",
          "logIndex": "0x2",
          "removed": false
        },
        {
          "address": "0x70ef722657864f950edc4f3dd885caa2d35db872",
          "topics": [
            "0xda3c8142b3c1d27633026f55bfcb4eeb0b5b8db0daa0a3e10c2213a441722ad1"
          ],
          "data": "0xa4c5e9cb00000000000000000000000000000000000000000000000000000000000000000000000000000000a6197989532384585379282a8c4b0141f54d0609",
          "blockHash": "0x26546355e60bda1ab397a550a62a21a64bbfff7dc95ce6718364fd6b950e10ab",
          "blockNumber": "0x5d5644",
          "blockTimestamp": "0x666e4d0b",
          "transactionHash": "0xa08d1059afd191f37c6633d3940dceedd1b8a946822d0087ce5af17740c3cf1e",
          "transactionIndex": "0x1",
          "logIndex": "0x3",
          "removed": false
        }
      ],
      "logsBloom": "0x00000000000000000000000000000000000000000000000000000000000000080000000000000000000000000000000000000000000000000000000000000000000000000000000000000000000000000000000000000000000000000000000000100000000000000000200000000000000000000000000010000000000000000000000000000000000000000000100000000000000000000000000000000000000000000000000000004000080000000000000000000000000000000000000000000000000000000000000000000000000000000000000000020000000000000000000000000000000000000000000000000000000000040000000000000000",
      "type": "0x0",
      "transactionHash": "0xa08d1059afd191f37c6633d3940dceedd1b8a946822d0087ce5af17740c3cf1e",
      "transactionIndex": "0x1",
      "blockHash": "0x26546355e60bda1ab397a550a62a21a64bbfff7dc95ce6718364fd6b950e10ab",
      "blockNumber": "0x5d5644",
      "gasUsed": "0x16a4d",
      "effectiveGasPrice": "0x3b9aca12",
      "blobGasPrice": "0x1",
      "from": "0xf39fd6e51aad88f6f4ce6ab8827279cfffb92266",
      "to": "0x70ef722657864f950edc4f3dd885caa2d35db872",
      "contractAddress": null,
      "root": "0x0000000000000000000000000000000000000000000000000000000000000000"
    },
    {
      "status": "0x1",
      "cumulativeGasUsed": "0x3b1b1",
      "logs": [
        {
          "address": "0x70ef722657864f950edc4f3dd885caa2d35db872",
          "topics": [
            "0xbe533f538959a17d76f1b09e966e741ee3b1183099682f96216c93d21feaecba"
          ],
          "data": "0x7f4ef9d400000000000000000000000000000000000000000000000000000000",
          "blockHash": "0x26546355e60bda1ab397a550a62a21a64bbfff7dc95ce6718364fd6b950e10ab",
          "blockNumber": "0x5d5644",
          "blockTimestamp": "0x666e4d0b",
          "transactionHash": "0x44fad1f5600c290e703e9c7df2381857d21556c21d12929627b680ab4799e852",
          "transactionIndex": "0x2",
          "logIndex": "0x4",
          "removed": false
        },
        {
          "address": "0x70ef722657864f950edc4f3dd885caa2d35db872",
          "topics": [
            "0xda3c8142b3c1d27633026f55bfcb4eeb0b5b8db0daa0a3e10c2213a441722ad1"
          ],
          "data": "0x7f4ef9d400000000000000000000000000000000000000000000000000000000000000000000000000000000a6197989532384585379282a8c4b0141f54d0609",
          "blockHash": "0x26546355e60bda1ab397a550a62a21a64bbfff7dc95ce6718364fd6b950e10ab",
          "blockNumber": "0x5d5644",
          "blockTimestamp": "0x666e4d0b",
          "transactionHash": "0x44fad1f5600c290e703e9c7df2381857d21556c21d12929627b680ab4799e852",
          "transactionIndex": "0x2",
          "logIndex": "0x5",
          "removed": false
        }
      ],
      "logsBloom": "0x00000000000000000000000000000000000000000000000000000000000000080000000000000000000000000000000000000000000000000000000000000000000000000000000000000000000000000000000000000000000000000000000000100000000000000000200000000000000000000000000010000000000000000000000000000000000000000000100000000000000000000000000000000000000000000000000000004000080000000000000000000000000000000000000000000000000000000000000000000000000000000000000000020000000000000000000000000000000000000000000000000000000000040000000000000000",
      "type": "0x0",
      "transactionHash": "0x44fad1f5600c290e703e9c7df2381857d21556c21d12929627b680ab4799e852",
      "transactionIndex": "0x2",
      "blockHash": "0x26546355e60bda1ab397a550a62a21a64bbfff7dc95ce6718364fd6b950e10ab",
      "blockNumber": "0x5d5644",
      "gasUsed": "0x129e3",
      "effectiveGasPrice": "0x3b9aca12",
      "blobGasPrice": "0x1",
      "from": "0xf39fd6e51aad88f6f4ce6ab8827279cfffb92266",
      "to": "0x70ef722657864f950edc4f3dd885caa2d35db872",
      "contractAddress": null,
      "root": "0x0000000000000000000000000000000000000000000000000000000000000000"
    },
    {
      "status": "0x1",
      "cumulativeGasUsed": "0x4ddf6",
      "logs": [
        {
          "address": "0x70ef722657864f950edc4f3dd885caa2d35db872",
          "topics": [
            "0xbe533f538959a17d76f1b09e966e741ee3b1183099682f96216c93d21feaecba"
          ],
          "data": "0x2b7efac100000000000000000000000000000000000000000000000000000000",
          "blockHash": "0x26546355e60bda1ab397a550a62a21a64bbfff7dc95ce6718364fd6b950e10ab",
          "blockNumber": "0x5d5644",
          "blockTimestamp": "0x666e4d0b",
          "transactionHash": "0xfb326ff7902da247b15492b40c4ac48b61c8876591c385291a20a5512003ccba",
          "transactionIndex": "0x3",
          "logIndex": "0x6",
          "removed": false
        },
        {
          "address": "0x70ef722657864f950edc4f3dd885caa2d35db872",
          "topics": [
            "0xda3c8142b3c1d27633026f55bfcb4eeb0b5b8db0daa0a3e10c2213a441722ad1"
          ],
          "data": "0x2b7efac100000000000000000000000000000000000000000000000000000000000000000000000000000000a6197989532384585379282a8c4b0141f54d0609",
          "blockHash": "0x26546355e60bda1ab397a550a62a21a64bbfff7dc95ce6718364fd6b950e10ab",
          "blockNumber": "0x5d5644",
          "blockTimestamp": "0x666e4d0b",
          "transactionHash": "0xfb326ff7902da247b15492b40c4ac48b61c8876591c385291a20a5512003ccba",
          "transactionIndex": "0x3",
          "logIndex": "0x7",
          "removed": false
        }
      ],
      "logsBloom": "0x00000000000000000000000000000000000000000000000000000000000000080000000000000000000000000000000000000000000000000000000000000000000000000000000000000000000000000000000000000000000000000000000000100000000000000000200000000000000000000000000010000000000000000000000000000000000000000000100000000000000000000000000000000000000000000000000000004000080000000000000000000000000000000000000000000000000000000000000000000000000000000000000000020000000000000000000000000000000000000000000000000000000000040000000000000000",
      "type": "0x0",
      "transactionHash": "0xfb326ff7902da247b15492b40c4ac48b61c8876591c385291a20a5512003ccba",
      "transactionIndex": "0x3",
      "blockHash": "0x26546355e60bda1ab397a550a62a21a64bbfff7dc95ce6718364fd6b950e10ab",
      "blockNumber": "0x5d5644",
      "gasUsed": "0x12c45",
      "effectiveGasPrice": "0x3b9aca12",
      "blobGasPrice": "0x1",
      "from": "0xf39fd6e51aad88f6f4ce6ab8827279cfffb92266",
      "to": "0x70ef722657864f950edc4f3dd885caa2d35db872",
      "contractAddress": null,
      "root": "0x0000000000000000000000000000000000000000000000000000000000000000"
    },
    {
      "status": "0x1",
      "cumulativeGasUsed": "0x60c9d",
      "logs": [
        {
          "address": "0x70ef722657864f950edc4f3dd885caa2d35db872",
          "topics": [
            "0xbe533f538959a17d76f1b09e966e741ee3b1183099682f96216c93d21feaecba"
          ],
          "data": "0xab3545e500000000000000000000000000000000000000000000000000000000",
          "blockHash": "0x26546355e60bda1ab397a550a62a21a64bbfff7dc95ce6718364fd6b950e10ab",
          "blockNumber": "0x5d5644",
          "blockTimestamp": "0x666e4d0b",
          "transactionHash": "0xb175b93fc02433e67ec95d3f7656f57f7b01ac158ca50205ddd1990fe6a1aca2",
          "transactionIndex": "0x4",
          "logIndex": "0x8",
          "removed": false
        },
        {
          "address": "0x70ef722657864f950edc4f3dd885caa2d35db872",
          "topics": [
            "0xda3c8142b3c1d27633026f55bfcb4eeb0b5b8db0daa0a3e10c2213a441722ad1"
          ],
          "data": "0xab3545e500000000000000000000000000000000000000000000000000000000000000000000000000000000a6197989532384585379282a8c4b0141f54d0609",
          "blockHash": "0x26546355e60bda1ab397a550a62a21a64bbfff7dc95ce6718364fd6b950e10ab",
          "blockNumber": "0x5d5644",
          "blockTimestamp": "0x666e4d0b",
          "transactionHash": "0xb175b93fc02433e67ec95d3f7656f57f7b01ac158ca50205ddd1990fe6a1aca2",
          "transactionIndex": "0x4",
          "logIndex": "0x9",
          "removed": false
        }
      ],
      "logsBloom": "0x00000000000000000000000000000000000000000000000000000000000000080000000000000000000000000000000000000000000000000000000000000000000000000000000000000000000000000000000000000000000000000000000000100000000000000000200000000000000000000000000010000000000000000000000000000000000000000000100000000000000000000000000000000000000000000000000000004000080000000000000000000000000000000000000000000000000000000000000000000000000000000000000000020000000000000000000000000000000000000000000000000000000000040000000000000000",
      "type": "0x0",
      "transactionHash": "0xb175b93fc02433e67ec95d3f7656f57f7b01ac158ca50205ddd1990fe6a1aca2",
      "transactionIndex": "0x4",
      "blockHash": "0x26546355e60bda1ab397a550a62a21a64bbfff7dc95ce6718364fd6b950e10ab",
      "blockNumber": "0x5d5644",
      "gasUsed": "0x12ea7",
      "effectiveGasPrice": "0x3b9aca12",
      "blobGasPrice": "0x1",
      "from": "0xf39fd6e51aad88f6f4ce6ab8827279cfffb92266",
      "to": "0x70ef722657864f950edc4f3dd885caa2d35db872",
      "contractAddress": null,
      "root": "0x0000000000000000000000000000000000000000000000000000000000000000"
    },
    {
      "status": "0x1",
      "cumulativeGasUsed": "0x73da6",
      "logs": [
        {
          "address": "0x70ef722657864f950edc4f3dd885caa2d35db872",
          "topics": [
            "0xbe533f538959a17d76f1b09e966e741ee3b1183099682f96216c93d21feaecba"
          ],
          "data": "0xcb37be9e00000000000000000000000000000000000000000000000000000000",
          "blockHash": "0x26546355e60bda1ab397a550a62a21a64bbfff7dc95ce6718364fd6b950e10ab",
          "blockNumber": "0x5d5644",
          "blockTimestamp": "0x666e4d0b",
          "transactionHash": "0x78dc4bba8ed8410164d6bb8878be1068843e89fd7bfc04a869b8ce9b5db564c1",
          "transactionIndex": "0x5",
          "logIndex": "0xa",
          "removed": false
        },
        {
          "address": "0x70ef722657864f950edc4f3dd885caa2d35db872",
          "topics": [
            "0xda3c8142b3c1d27633026f55bfcb4eeb0b5b8db0daa0a3e10c2213a441722ad1"
          ],
          "data": "0xcb37be9e00000000000000000000000000000000000000000000000000000000000000000000000000000000a6197989532384585379282a8c4b0141f54d0609",
          "blockHash": "0x26546355e60bda1ab397a550a62a21a64bbfff7dc95ce6718364fd6b950e10ab",
          "blockNumber": "0x5d5644",
          "blockTimestamp": "0x666e4d0b",
          "transactionHash": "0x78dc4bba8ed8410164d6bb8878be1068843e89fd7bfc04a869b8ce9b5db564c1",
          "transactionIndex": "0x5",
          "logIndex": "0xb",
          "removed": false
        }
      ],
      "logsBloom": "0x00000000000000000000000000000000000000000000000000000000000000080000000000000000000000000000000000000000000000000000000000000000000000000000000000000000000000000000000000000000000000000000000000100000000000000000200000000000000000000000000010000000000000000000000000000000000000000000100000000000000000000000000000000000000000000000000000004000080000000000000000000000000000000000000000000000000000000000000000000000000000000000000000020000000000000000000000000000000000000000000000000000000000040000000000000000",
      "type": "0x0",
      "transactionHash": "0x78dc4bba8ed8410164d6bb8878be1068843e89fd7bfc04a869b8ce9b5db564c1",
      "transactionIndex": "0x5",
      "blockHash": "0x26546355e60bda1ab397a550a62a21a64bbfff7dc95ce6718364fd6b950e10ab",
      "blockNumber": "0x5d5644",
      "gasUsed": "0x13109",
      "effectiveGasPrice": "0x3b9aca12",
      "blobGasPrice": "0x1",
      "from": "0xf39fd6e51aad88f6f4ce6ab8827279cfffb92266",
      "to": "0x70ef722657864f950edc4f3dd885caa2d35db872",
      "contractAddress": null,
      "root": "0x0000000000000000000000000000000000000000000000000000000000000000"
    },
    {
      "status": "0x1",
      "cumulativeGasUsed": "0x1336b",
      "logs": [
        {
          "address": "0x70ef722657864f950edc4f3dd885caa2d35db872",
          "topics": [
            "0xbe533f538959a17d76f1b09e966e741ee3b1183099682f96216c93d21feaecba"
          ],
          "data": "0xc1e582ba00000000000000000000000000000000000000000000000000000000",
          "blockHash": "0x56924a75defc41c26c221e63e918ca5578dc0b3845913e1395ac32299c291a8a",
          "blockNumber": "0x5d5645",
          "blockTimestamp": "0x666e4d0c",
          "transactionHash": "0x84d1a9942cb3c2c5046d20991fe1673338723ee99e8f80e74eee92bb84d71e5e",
          "transactionIndex": "0x0",
          "logIndex": "0x0",
          "removed": false
        },
        {
          "address": "0x70ef722657864f950edc4f3dd885caa2d35db872",
          "topics": [
            "0xda3c8142b3c1d27633026f55bfcb4eeb0b5b8db0daa0a3e10c2213a441722ad1"
          ],
          "data": "0xc1e582ba00000000000000000000000000000000000000000000000000000000000000000000000000000000a6197989532384585379282a8c4b0141f54d0609",
          "blockHash": "0x56924a75defc41c26c221e63e918ca5578dc0b3845913e1395ac32299c291a8a",
          "blockNumber": "0x5d5645",
          "blockTimestamp": "0x666e4d0c",
          "transactionHash": "0x84d1a9942cb3c2c5046d20991fe1673338723ee99e8f80e74eee92bb84d71e5e",
          "transactionIndex": "0x0",
          "logIndex": "0x1",
          "removed": false
        }
      ],
      "logsBloom": "0x00000000000000000000000000000000000000000000000000000000000000080000000000000000000000000000000000000000000000000000000000000000000000000000000000000000000000000000000000000000000000000000000000100000000000000000200000000000000000000000000010000000000000000000000000000000000000000000100000000000000000000000000000000000000000000000000000004000080000000000000000000000000000000000000000000000000000000000000000000000000000000000000000020000000000000000000000000000000000000000000000000000000000040000000000000000",
      "type": "0x0",
      "transactionHash": "0x84d1a9942cb3c2c5046d20991fe1673338723ee99e8f80e74eee92bb84d71e5e",
      "transactionIndex": "0x0",
      "blockHash": "0x56924a75defc41c26c221e63e918ca5578dc0b3845913e1395ac32299c291a8a",
      "blockNumber": "0x5d5645",
      "gasUsed": "0x1336b",
      "effectiveGasPrice": "0x3b9aca12",
      "blobGasPrice": "0x1",
      "from": "0xf39fd6e51aad88f6f4ce6ab8827279cfffb92266",
      "to": "0x70ef722657864f950edc4f3dd885caa2d35db872",
      "contractAddress": null,
      "root": "0x0000000000000000000000000000000000000000000000000000000000000000"
    },
    {
      "status": "0x1",
      "cumulativeGasUsed": "0x135cd",
      "logs": [
        {
          "address": "0x70ef722657864f950edc4f3dd885caa2d35db872",
          "topics": [
            "0xbe533f538959a17d76f1b09e966e741ee3b1183099682f96216c93d21feaecba"
          ],
          "data": "0x2a2c16a000000000000000000000000000000000000000000000000000000000",
          "blockHash": "0x52403e7c7a3b59ce32845a2cb021bcd8e518f7e21a58aa075d59b8d205ac3618",
          "blockNumber": "0x5d5646",
          "blockTimestamp": "0x666e4d0d",
          "transactionHash": "0x7dd2fba43e7d19b8132dd645d2a9c8d2cea231059912a4fd55f9a03ff10c9fc9",
          "transactionIndex": "0x0",
          "logIndex": "0x0",
          "removed": false
        },
        {
          "address": "0x70ef722657864f950edc4f3dd885caa2d35db872",
          "topics": [
            "0xda3c8142b3c1d27633026f55bfcb4eeb0b5b8db0daa0a3e10c2213a441722ad1"
          ],
          "data": "0x2a2c16a000000000000000000000000000000000000000000000000000000000000000000000000000000000a6197989532384585379282a8c4b0141f54d0609",
          "blockHash": "0x52403e7c7a3b59ce32845a2cb021bcd8e518f7e21a58aa075d59b8d205ac3618",
          "blockNumber": "0x5d5646",
          "blockTimestamp": "0x666e4d0d",
          "transactionHash": "0x7dd2fba43e7d19b8132dd645d2a9c8d2cea231059912a4fd55f9a03ff10c9fc9",
          "transactionIndex": "0x0",
          "logIndex": "0x1",
          "removed": false
        }
      ],
      "logsBloom": "0x00000000000000000000000000000000000000000000000000000000000000080000000000000000000000000000000000000000000000000000000000000000000000000000000000000000000000000000000000000000000000000000000000100000000000000000200000000000000000000000000010000000000000000000000000000000000000000000100000000000000000000000000000000000000000000000000000004000080000000000000000000000000000000000000000000000000000000000000000000000000000000000000000020000000000000000000000000000000000000000000000000000000000040000000000000000",
      "type": "0x0",
      "transactionHash": "0x7dd2fba43e7d19b8132dd645d2a9c8d2cea231059912a4fd55f9a03ff10c9fc9",
      "transactionIndex": "0x0",
      "blockHash": "0x52403e7c7a3b59ce32845a2cb021bcd8e518f7e21a58aa075d59b8d205ac3618",
      "blockNumber": "0x5d5646",
      "gasUsed": "0x135cd",
      "effectiveGasPrice": "0x3b9aca12",
      "blobGasPrice": "0x1",
      "from": "0xf39fd6e51aad88f6f4ce6ab8827279cfffb92266",
      "to": "0x70ef722657864f950edc4f3dd885caa2d35db872",
      "contractAddress": null,
      "root": "0x0000000000000000000000000000000000000000000000000000000000000000"
    },
    {
      "status": "0x1",
      "cumulativeGasUsed": "0x1382f",
      "logs": [
        {
          "address": "0x70ef722657864f950edc4f3dd885caa2d35db872",
          "topics": [
            "0xbe533f538959a17d76f1b09e966e741ee3b1183099682f96216c93d21feaecba"
          ],
          "data": "0xde3d9fb700000000000000000000000000000000000000000000000000000000",
          "blockHash": "0xb8b3e2a87f38910d10189cef93f51bdd69b00e97cd0439bcb3fa03ce680db9d6",
          "blockNumber": "0x5d5647",
          "blockTimestamp": "0x666e4d0e",
          "transactionHash": "0x89ab422090d3ae085aacc91a3b0de50a886837351cb22e3f84239bd5f5241ec5",
          "transactionIndex": "0x0",
          "logIndex": "0x0",
          "removed": false
        },
        {
          "address": "0x70ef722657864f950edc4f3dd885caa2d35db872",
          "topics": [
            "0xda3c8142b3c1d27633026f55bfcb4eeb0b5b8db0daa0a3e10c2213a441722ad1"
          ],
          "data": "0xde3d9fb700000000000000000000000000000000000000000000000000000000000000000000000000000000a6197989532384585379282a8c4b0141f54d0609",
          "blockHash": "0xb8b3e2a87f38910d10189cef93f51bdd69b00e97cd0439bcb3fa03ce680db9d6",
          "blockNumber": "0x5d5647",
          "blockTimestamp": "0x666e4d0e",
          "transactionHash": "0x89ab422090d3ae085aacc91a3b0de50a886837351cb22e3f84239bd5f5241ec5",
          "transactionIndex": "0x0",
          "logIndex": "0x1",
          "removed": false
        }
      ],
      "logsBloom": "0x00000000000000000000000000000000000000000000000000000000000000080000000000000000000000000000000000000000000000000000000000000000000000000000000000000000000000000000000000000000000000000000000000100000000000000000200000000000000000000000000010000000000000000000000000000000000000000000100000000000000000000000000000000000000000000000000000004000080000000000000000000000000000000000000000000000000000000000000000000000000000000000000000020000000000000000000000000000000000000000000000000000000000040000000000000000",
      "type": "0x0",
      "transactionHash": "0x89ab422090d3ae085aacc91a3b0de50a886837351cb22e3f84239bd5f5241ec5",
      "transactionIndex": "0x0",
      "blockHash": "0xb8b3e2a87f38910d10189cef93f51bdd69b00e97cd0439bcb3fa03ce680db9d6",
      "blockNumber": "0x5d5647",
      "gasUsed": "0x1382f",
      "effectiveGasPrice": "0x3b9aca12",
      "blobGasPrice": "0x1",
      "from": "0xf39fd6e51aad88f6f4ce6ab8827279cfffb92266",
      "to": "0x70ef722657864f950edc4f3dd885caa2d35db872",
      "contractAddress": null,
      "root": "0x0000000000000000000000000000000000000000000000000000000000000000"
    },
    {
      "status": "0x1",
      "cumulativeGasUsed": "0x2bd2a",
      "logs": [
        {
          "address": "0x70ef722657864f950edc4f3dd885caa2d35db872",
          "topics": [
            "0xbe533f538959a17d76f1b09e966e741ee3b1183099682f96216c93d21feaecba"
          ],
          "data": "0x9a5ea6a000000000000000000000000000000000000000000000000000000000",
          "blockHash": "0xb8b3e2a87f38910d10189cef93f51bdd69b00e97cd0439bcb3fa03ce680db9d6",
          "blockNumber": "0x5d5647",
          "blockTimestamp": "0x666e4d0e",
          "transactionHash": "0xacaf7050931ba0ea89e6b4a6d00a64a8d760453b4048e3503209d9dd2c67b292",
          "transactionIndex": "0x1",
          "logIndex": "0x2",
          "removed": false
        },
        {
          "address": "0x70ef722657864f950edc4f3dd885caa2d35db872",
          "topics": [
            "0xda3c8142b3c1d27633026f55bfcb4eeb0b5b8db0daa0a3e10c2213a441722ad1"
          ],
          "data": "0x9a5ea6a000000000000000000000000000000000000000000000000000000000000000000000000000000000a6197989532384585379282a8c4b0141f54d0609",
          "blockHash": "0xb8b3e2a87f38910d10189cef93f51bdd69b00e97cd0439bcb3fa03ce680db9d6",
          "blockNumber": "0x5d5647",
          "blockTimestamp": "0x666e4d0e",
          "transactionHash": "0xacaf7050931ba0ea89e6b4a6d00a64a8d760453b4048e3503209d9dd2c67b292",
          "transactionIndex": "0x1",
          "logIndex": "0x3",
          "removed": false
        }
      ],
      "logsBloom": "0x00000000000000000000000000000000000000000000000000000000000000080000000000000000000000000000000000000000000000000000000000000000000000000000000000000000000000000000000000000000000000000000000000100000000000000000200000000000000000000000000010000000000000000000000000000000000000000000100000000000000000000000000000000000000000000000000000004000080000000000000000000000000000000000000000000000000000000000000000000000000000000000000000020000000000000000000000000000000000000000000000000000000000040000000000000000",
      "type": "0x0",
      "transactionHash": "0xacaf7050931ba0ea89e6b4a6d00a64a8d760453b4048e3503209d9dd2c67b292",
      "transactionIndex": "0x1",
      "blockHash": "0xb8b3e2a87f38910d10189cef93f51bdd69b00e97cd0439bcb3fa03ce680db9d6",
      "blockNumber": "0x5d5647",
      "gasUsed": "0x184fb",
      "effectiveGasPrice": "0x3b9aca12",
      "blobGasPrice": "0x1",
      "from": "0xf39fd6e51aad88f6f4ce6ab8827279cfffb92266",
      "to": "0x70ef722657864f950edc4f3dd885caa2d35db872",
      "contractAddress": null,
      "root": "0x0000000000000000000000000000000000000000000000000000000000000000"
    },
    {
      "status": "0x1",
      "cumulativeGasUsed": "0x401bb",
      "logs": [
        {
          "address": "0x70ef722657864f950edc4f3dd885caa2d35db872",
          "topics": [
            "0xbe533f538959a17d76f1b09e966e741ee3b1183099682f96216c93d21feaecba"
          ],
          "data": "0x25be10bd00000000000000000000000000000000000000000000000000000000",
          "blockHash": "0xb8b3e2a87f38910d10189cef93f51bdd69b00e97cd0439bcb3fa03ce680db9d6",
          "blockNumber": "0x5d5647",
          "blockTimestamp": "0x666e4d0e",
          "transactionHash": "0xff415d16fb511a2bf481b70160c25c2ac5ffb3983b86262fa94517762483d913",
          "transactionIndex": "0x2",
          "logIndex": "0x4",
          "removed": false
        },
        {
          "address": "0x70ef722657864f950edc4f3dd885caa2d35db872",
          "topics": [
            "0xda3c8142b3c1d27633026f55bfcb4eeb0b5b8db0daa0a3e10c2213a441722ad1"
          ],
          "data": "0x25be10bd00000000000000000000000000000000000000000000000000000000000000000000000000000000a6197989532384585379282a8c4b0141f54d0609",
          "blockHash": "0xb8b3e2a87f38910d10189cef93f51bdd69b00e97cd0439bcb3fa03ce680db9d6",
          "blockNumber": "0x5d5647",
          "blockTimestamp": "0x666e4d0e",
          "transactionHash": "0xff415d16fb511a2bf481b70160c25c2ac5ffb3983b86262fa94517762483d913",
          "transactionIndex": "0x2",
          "logIndex": "0x5",
          "removed": false
        }
      ],
      "logsBloom": "0x00000000000000000000000000000000000000000000000000000000000000080000000000000000000000000000000000000000000000000000000000000000000000000000000000000000000000000000000000000000000000000000000000100000000000000000200000000000000000000000000010000000000000000000000000000000000000000000100000000000000000000000000000000000000000000000000000004000080000000000000000000000000000000000000000000000000000000000000000000000000000000000000000020000000000000000000000000000000000000000000000000000000000040000000000000000",
      "type": "0x0",
      "transactionHash": "0xff415d16fb511a2bf481b70160c25c2ac5ffb3983b86262fa94517762483d913",
      "transactionIndex": "0x2",
      "blockHash": "0xb8b3e2a87f38910d10189cef93f51bdd69b00e97cd0439bcb3fa03ce680db9d6",
      "blockNumber": "0x5d5647",
      "gasUsed": "0x14491",
      "effectiveGasPrice": "0x3b9aca12",
      "blobGasPrice": "0x1",
      "from": "0xf39fd6e51aad88f6f4ce6ab8827279cfffb92266",
      "to": "0x70ef722657864f950edc4f3dd885caa2d35db872",
      "contractAddress": null,
      "root": "0x0000000000000000000000000000000000000000000000000000000000000000"
    },
    {
      "status": "0x1",
      "cumulativeGasUsed": "0xb871",
      "logs": [
        {
          "address": "0x70ef722657864f950edc4f3dd885caa2d35db872",
          "topics": [
            "0x159f10d3da077d18f228d52be447d552e7d1892d10f7af8f615658160e374729"
          ],
          "data": "0x0000000000000000000000005aeaaab8171cbfc4f966c6467d161c5e81e17e60",
          "blockHash": "0x7c379d0d0a793fc4294e1dbf0d9f938688afbb442594ca46047567db032c5add",
          "blockNumber": "0x5d5648",
          "blockTimestamp": "0x666e4d0f",
          "transactionHash": "0x57bd3c6297027d01b31af1aca7decf42b49ed99aa05f198017cdb8f6f65a1cee",
          "transactionIndex": "0x0",
          "logIndex": "0x0",
          "removed": false
        }
      ],
      "logsBloom": "0x00000000000000080000000000000000000000000000000000000000000000000000000000000000000000000200000000000000000000000000000000000000000000000000000000000000000000000000000000000000000000000000000000100000000000000000000000000000000000000000000000000000000000000000000000000000000000000000000000000000000000000000000000000000000000000000000000000000000000000000000000000000000000000000000000000000000000000000000000000000000000000000000000020000000000000000000000000000000000000010000000000000000000040000000000000000",
      "type": "0x0",
      "transactionHash": "0x57bd3c6297027d01b31af1aca7decf42b49ed99aa05f198017cdb8f6f65a1cee",
      "transactionIndex": "0x0",
      "blockHash": "0x7c379d0d0a793fc4294e1dbf0d9f938688afbb442594ca46047567db032c5add",
      "blockNumber": "0x5d5648",
      "gasUsed": "0xb871",
      "effectiveGasPrice": "0x3b9aca12",
      "blobGasPrice": "0x1",
      "from": "0xf39fd6e51aad88f6f4ce6ab8827279cfffb92266",
      "to": "0x70ef722657864f950edc4f3dd885caa2d35db872",
      "contractAddress": null,
      "root": "0x0000000000000000000000000000000000000000000000000000000000000000"
    },
    {
      "status": "0x1",
      "cumulativeGasUsed": "0x3b274",
      "logs": [
        {
          "address": "0x31d0acb215ae30c92ed0a59745de4f3356439caf",
          "topics": [
            "0xa657f2ad315cf3bb35cf1964158da75c3f334481df05a4a1644b2376b17a59b2"
          ],
          "data": "0x00000000000000000000000070ef722657864f950edc4f3dd885caa2d35db872",
          "blockHash": "0x7c379d0d0a793fc4294e1dbf0d9f938688afbb442594ca46047567db032c5add",
          "blockNumber": "0x5d5648",
          "blockTimestamp": "0x666e4d0f",
          "transactionHash": "0x7619fc31196a93ef25b08d95aa1593101baef5096efcf49bdcf7b030bc7c2b18",
          "transactionIndex": "0x1",
          "logIndex": "0x1",
          "removed": false
        }
      ],
      "logsBloom": "0x00000800000000000000000000000000000000000000000000000000000000000000000000000000000000000000000000000000000000000000000000000000000000000000000000000000000000000000000000000000000004000001000000000000000000000000000000000000000040000000000000000000000000000000000000000000000000000000000000000000000000000000000000000000000000000000000000000000000000000000000000000000000000000000000000000000000000000000000000000000100000000000000000000000000000000000000000000000000000000000000000000000000008000000000000000000",
      "type": "0x0",
      "transactionHash": "0x7619fc31196a93ef25b08d95aa1593101baef5096efcf49bdcf7b030bc7c2b18",
      "transactionIndex": "0x1",
      "blockHash": "0x7c379d0d0a793fc4294e1dbf0d9f938688afbb442594ca46047567db032c5add",
      "blockNumber": "0x5d5648",
      "gasUsed": "0x2fa03",
      "effectiveGasPrice": "0x3b9aca12",
      "blobGasPrice": "0x1",
      "from": "0xf39fd6e51aad88f6f4ce6ab8827279cfffb92266",
      "to": null,
      "contractAddress": "0x31d0acb215ae30c92ed0a59745de4f3356439caf",
      "root": "0x0000000000000000000000000000000000000000000000000000000000000000"
    }
  ],
  "libraries": [],
  "pending": [],
  "returns": {},
  "timestamp": 1718504707,
  "chain": 11155111,
  "commit": "d4036d4"
}