{
  "transactions": [
    {
      "hash": "0xcb04237a94856be3004a5f797cd9e3832e7aacae45cb7fc330fcf74992580122",
      "transactionType": "CREATE",
      "contractName": "Vote",
      "contractAddress": "0x334f807241354c2fde9d782adfa336f99818c973",
      "function": null,
      "arguments": null,
      "transaction": {
        "from": "0xf39fd6e51aad88f6f4ce6ab8827279cfffb92266",
        "gas": "0x95cff",
        "value": "0x0",
        "input": "0x6080604052348015600f57600080fd5b506107948061001f6000396000f3fe608060405234801561001057600080fd5b50600436106100365760003560e01c8063c5b364411461003b578063e69b9edc14610062575b600080fd5b61004e610049366004610638565b610075565b604051901515815260200160405180910390f35b61004e610070366004610638565b610305565b6000807f2909c0a05d58f8b7f14a4ef9b6dfbc139611bb545981c04988c895be90f3500090506100cc6040518060400160405280600f81526020016e6d73672e73656e646572203d20257360881b81525033610548565b6000805b8260010154811015610162576040805180820182526014815273246d656d6265722e6d656d62657273203d20257360601b602080830191909152600084815290869052919091206001015461012e91906001600160a01b0316610548565b600081815260208490526040902060010154336001600160a01b039091160361015a5760019150610162565b6001016100d0565b50806101ad5760405162461bcd60e51b81526020600482015260156024820152742cb7ba9030b932903737ba10309036b2b6b132b91760591b60448201526064015b60405180910390fd5b6101dc6040518060400160405280600d81526020016c69734d656d626572203d20257360981b81525082610591565b60008581527f9a70c69f78b954ec2ace8c62308c5ea2ed35f782ee583f10b56d88886fa9930060209081526040918290208251808401909352600e83526d686561646572496473203d20257360901b918301919091529061023e9060036105d6565b60408051808201909152600f81526e24702e68656164657273203d20257360881b6020820152815461027091906105d6565b80546102be5760405162461bcd60e51b815260206004820152601d60248201527f4e6f206865616465727320666f7220746869732070726f706f73616c2e00000060448201526064016101a4565b8054600190829087359081106102d6576102d661066b565b906000526020600020906004020160010160008282546102f69190610681565b90915550939695505050505050565b60008281527f9a70c69f78b954ec2ace8c62308c5ea2ed35f782ee583f10b56d88886fa993006020526040812060018101546103835760405162461bcd60e51b815260206004820152601a60248201527f4e6f20636d647320666f7220746869732070726f706f73616c2e00000000000060448201526064016101a4565b6001810180548435919060009061039c5761039c61066b565b906000526020600020906003020160000154036103fd576003600182018460005b6020020135815481106103d2576103d261066b565b906000526020600020906003020160020160008282546103f29190610681565b909155506105419050565b600180820180548535929081106104165761041661066b565b9060005260206000209060030201600001540361047d576001810180546003919085359081106104485761044861066b565b906000526020600020906003020160020160008282546104689190610681565b909155506002905060018083019085906103bd565b6001810180546003919085359081106104985761049861066b565b906000526020600020906003020160020160008282546104b89190610681565b90915550506001810180546002919060208601359081106104db576104db61066b565b906000526020600020906003020160020160008282546104fb9190610681565b909155505060018181018054604086013590811061051b5761051b61066b565b9060005260206000209060030201600201600082825461053b9190610681565b90915550505b5092915050565b61058d828260405160240161055e9291906106ee565b60408051601f198184030181529190526020810180516001600160e01b031663319af33360e01b179052610617565b5050565b61058d82826040516024016105a7929190610718565b60408051601f198184030181529190526020810180516001600160e01b031663c3b5563560e01b179052610617565b61058d82826040516024016105ec92919061073c565b60408051601f198184030181529190526020810180516001600160e01b03166309710a9d60e41b1790525b80516a636f6e736f6c652e6c6f67602083016000808483855afa5050505050565b6000806080838503121561064b57600080fd5b823591508360808401111561065f57600080fd5b50926020919091019150565b634e487b7160e01b600052603260045260246000fd5b808201808211156106a257634e487b7160e01b600052601160045260246000fd5b92915050565b6000815180845260005b818110156106ce576020818501810151868301820152016106b2565b506000602082860101526020601f19601f83011685010191505092915050565b60408152600061070160408301856106a8565b905060018060a01b03831660208301529392505050565b60408152600061072b60408301856106a8565b905082151560208301529392505050565b60408152600061074f60408301856106a8565b9050826020830152939250505056fea2646970667358221220023096c91c76c236174a5598b433e2e3ced811ab3736dd2f0e98fda6a14d557264736f6c634300081a0033",
        "nonce": "0x22c3",
        "chainId": "0xaa36a7"
      },
      "additionalContracts": [],
      "isFixedGasLimit": false
    },
    {
      "hash": "0x781728a92356f6102319ff2b38f008be8268114d8b4fd9802ca98a6b63b522c6",
      "transactionType": "CREATE",
      "contractName": "Clone",
      "contractAddress": "0x27344181f731a5b1868a55696e20785564c5ebb0",
      "function": null,
      "arguments": null,
      "transaction": {
        "from": "0xf39fd6e51aad88f6f4ce6ab8827279cfffb92266",
        "gas": "0xa38cd",
        "value": "0x0",
        "input": "0x6080604052348015600f57600080fd5b5061085d8061001f6000396000f3fe608060405234801561001057600080fd5b506004361061002b5760003560e01c80638ca89f7714610030575b600080fd5b61004361003e366004610169565b61005f565b6040516001600160a01b03909116815260200160405180910390f35b60006100d16100957f267691be3525af8a813d30db0c9e2bad08f63baecf6dceb85e2cf3676cff56f4546001600160a01b031690565b84848080601f0160208091040260200160405190810160405280939291908181526020018383808284376000920191909152506100d892505050565b9392505050565b600082826040516100e89061015c565b6100f39291906101dd565b604051809103906000f08015801561010f573d6000803e3d6000fd5b50604080516001600160a01b038087168252831660208201529192507f9678a1e87ca9f1a37dc659a97b39d812d98cd236947e1b53b3d0d6fd346acb6e910160405180910390a192915050565b6105ed8061023b83390190565b6000806020838503121561017c57600080fd5b823567ffffffffffffffff81111561019357600080fd5b8301601f810185136101a457600080fd5b803567ffffffffffffffff8111156101bb57600080fd5b8560208284010111156101cd57600080fd5b6020919091019590945092505050565b60018060a01b0383168152604060208201526000825180604084015260005b8181101561021957602081860181015160608684010152016101fc565b506000606082850101526060601f19601f830116840101915050939250505056fe60806040526040516105ed3803806105ed8339810160408190526100229161034b565b61002c828261003c565b6100358261011c565b5050610486565b61004582610160565b6040516001600160a01b03831681527fa657f2ad315cf3bb35cf1964158da75c3f334481df05a4a1644b2376b17a59b29060200160405180910390a18051156101105761010b6001600160a01b03831663dc9cc6456100a384610411565b6040516001600160e01b031960e084901b81168252919091166004820152602401602060405180830381865afa1580156100e1573d6000803e3d6000fd5b505050506040513d601f19601f82011682018060405250810190610105919061044f565b826101d5565b505050565b61011861024c565b5050565b807fa3f0ad74e5423aebfd80d3ef4346578335a9a72aeaee59ff6cb3582b35133d505b80546001600160a01b0319166001600160a01b039290921691909117905550565b806001600160a01b03163b6000036101ae5760405162461bcd60e51b815260206004820152600c60248201526b1393d397d0d3d395149050d560a21b60448201526064015b60405180910390fd5b807f267691be3525af8a813d30db0c9e2bad08f63baecf6dceb85e2cf3676cff56f461013f565b6060600080846001600160a01b0316846040516101f2919061046a565b600060405180830381855af49150503d806000811461022d576040519150601f19603f3d011682016040523d82523d6000602084013e610232565b606091505b50909250905061024385838361026d565b95945050505050565b341561026b5760405163b398979f60e01b815260040160405180910390fd5b565b6060826102825761027d826102cc565b6102c5565b815115801561029957506001600160a01b0384163b155b156102c257604051639996b31560e01b81526001600160a01b03851660048201526024016101a5565b50805b9392505050565b8051156102dc5780518082602001fd5b604051630a12f52160e11b815260040160405180910390fd5b80516001600160a01b038116811461030c57600080fd5b919050565b634e487b7160e01b600052604160045260246000fd5b60005b8381101561034257818101518382015260200161032a565b50506000910152565b6000806040838503121561035e57600080fd5b610367836102f5565b60208401519092506001600160401b0381111561038357600080fd5b8301601f8101851361039457600080fd5b80516001600160401b038111156103ad576103ad610311565b604051601f8201601f19908116603f011681016001600160401b03811182821017156103db576103db610311565b6040528181528282016020018710156103f357600080fd5b610404826020830160208601610327565b8093505050509250929050565b805160208201516001600160e01b0319811691906004821015610448576001600160e01b0319600483900360031b81901b82161692505b5050919050565b60006020828403121561046157600080fd5b6102c5826102f5565b6000825161047c818460208701610327565b9190910192915050565b610158806104956000396000f3fe608060405261000c61000e565b005b61001e610019610020565b6100ce565b565b60006100537f267691be3525af8a813d30db0c9e2bad08f63baecf6dceb85e2cf3676cff56f4546001600160a01b031690565b60405163dc9cc64560e01b81526001600160e01b03196000351660048201526001600160a01b03919091169063dc9cc64590602401602060405180830381865afa1580156100a5573d6000803e3d6000fd5b505050506040513d601f19601f820116820180604052508101906100c991906100f2565b905090565b3660008037600080366000845af43d6000803e8080156100ed573d6000f35b3d6000fd5b60006020828403121561010457600080fd5b81516001600160a01b038116811461011b57600080fd5b939250505056fea2646970667358221220edeb9a03e51fb4befaa08189d6da8fca48148c9e6789ddf587ece46a3ab49f3b64736f6c634300081a0033a2646970667358221220469c656541d2eead9f5dc2821929cf53100c7d005813e6ff26caf71acfba728d64736f6c634300081a0033",
        "nonce": "0x22c4",
        "chainId": "0xaa36a7"
      },
      "additionalContracts": [],
      "isFixedGasLimit": false
    },
    {
      "hash": "0x7bab5bc0203e45691469c797c5ee787552e996dec63fe2025fcc02d738b71f9a",
      "transactionType": "CREATE",
      "contractName": "Initialize",
      "contractAddress": "0x1132c42430c0261b9f11368be4497f0c09bac105",
      "function": null,
      "arguments": null,
      "transaction": {
        "from": "0xf39fd6e51aad88f6f4ce6ab8827279cfffb92266",
        "gas": "0x50ef1",
        "value": "0x0",
        "input": "0x6080604052348015600f57600080fd5b506103a68061001f6000396000f3fe608060405234801561001057600080fd5b506004361061002b5760003560e01c8063dc1ec0e514610030575b600080fd5b61004361003e36600461026f565b610057565b604051901515815260200160405180910390f35b7f2909c0a05d58f8b7f14a4ef9b6dfbc139611bb545981c04988c895be90f35001546000907f2909c0a05d58f8b7f14a4ef9b6dfbc139611bb545981c04988c895be90f3500090156100ef5760405162461bcd60e51b815260206004820152601f60248201527f496e697469616c697a653a20616c726561647920696e697469616c697a656400604482015260640160405180910390fd5b82357f9a70c69f78b954ec2ace8c62308c5ea2ed35f782ee583f10b56d88886fa9930290815560208401357f9a70c69f78b954ec2ace8c62308c5ea2ed35f782ee583f10b56d88886fa993035560408401357f9a70c69f78b954ec2ace8c62308c5ea2ed35f782ee583f10b56d88886fa993045560608401357f9a70c69f78b954ec2ace8c62308c5ea2ed35f782ee583f10b56d88886fa99305557f2909c0a05d58f8b7f14a4ef9b6dfbc139611bb545981c04988c895be90f35001547f2909c0a05d58f8b7f14a4ef9b6dfbc139611bb545981c04988c895be90f35000919060005b8781101561025e5760008281526020859052604090208290558888828181106101fd576101fd610303565b90506020020160208101906102129190610319565b60008381526020869052604081206001810180546001600160a01b0319166001600160a01b0394909416939093179092556002909101558161025381610349565b9250506001016101d2565b506001928301555095945050505050565b600080600083850360a081121561028557600080fd5b843567ffffffffffffffff81111561029c57600080fd5b8501601f810187136102ad57600080fd5b803567ffffffffffffffff8111156102c457600080fd5b8760208260051b84010111156102d957600080fd5b602091909101945092506080601f19820112156102f557600080fd5b506020840190509250925092565b634e487b7160e01b600052603260045260246000fd5b60006020828403121561032b57600080fd5b81356001600160a01b038116811461034257600080fd5b9392505050565b60006001820161036957634e487b7160e01b600052601160045260246000fd5b506001019056fea264697066735822122019695d333acabb86cedcfa0a9010b75acf4f4143b004e5a2203f4d5dc1c3204e64736f6c634300081a0033",
        "nonce": "0x22c5",
        "chainId": "0xaa36a7"
      },
      "additionalContracts": [],
      "isFixedGasLimit": false
    },
    {
      "hash": "0xc6c1b3a173d58f4cfe669809c68a90e5b1b5340babc80b0f35f52ed7b1e69f35",
      "transactionType": "CREATE",
      "contractName": "Propose",
      "contractAddress": "0x9f27ca2527bf6b4d0d1908f1bb3aaccfa5094b36",
      "function": null,
      "arguments": null,
      "transaction": {
        "from": "0xf39fd6e51aad88f6f4ce6ab8827279cfffb92266",
        "gas": "0xa1129",
        "value": "0x0",
        "input": "0x6080604052348015600f57600080fd5b506108388061001f6000396000f3fe608060405234801561001057600080fd5b506004361061002b5760003560e01c80639f46786e14610030575b600080fd5b61004361003e36600461020e565b610055565b60405190815260200160405180910390f35b7f9a70c69f78b954ec2ace8c62308c5ea2ed35f782ee583f10b56d88886fa993015460008181527f9a70c69f78b954ec2ace8c62308c5ea2ed35f782ee583f10b56d88886fa993006020819052604082207f2909c0a05d58f8b7f14a4ef9b6dfbc139611bb545981c04988c895be90f35000927fe4fa6871814422bfe1d10a118a3483c970f3cc6a461f81c9d5701005cfdaf4009084905b816001015481101561014657600081815260208381526040822060019081015460088801805480840182559085529290932090910180546001600160a01b0319166001600160a01b0390931692909217909155016100ed565b5060006101538880610250565b506020111561018c57826101678880610250565b8154600181018355600092835260209092209091600402016101898282610306565b50505b600061019b60208901896103b1565b6101a9906020810190610270565b905011156101e757600183016101c260208901896103b1565b8154600181018355600092835260209092209091600302016101e482826106a1565b50505b42600a8401556001840180549060006101ff836107e9565b91905055505050505050919050565b60006020828403121561022057600080fd5b813567ffffffffffffffff81111561023757600080fd5b82016060818503121561024957600080fd5b9392505050565b60008235607e1983360301811261026657600080fd5b9190910192915050565b6000808335601e1984360301811261028757600080fd5b83018035915067ffffffffffffffff8211156102a257600080fd5b6020019150600581901b36038213156102ba57600080fd5b9250929050565b634e487b7160e01b600052604160045260246000fd5b634e487b7160e01b600052601160045260246000fd5b5b8181101561030257600081556001016102ee565b5050565b8135815560208201356001820155604082013560028201556003810161032f6060840184610270565b67ffffffffffffffff811115610347576103476102c1565b600160401b81111561035b5761035b6102c1565b8254818455808210156103815783600052602060002061037f8282018483016102ed565b505b50600092835260208320925b818110156103a95782358482015560209092019160010161038d565b505050505050565b60008235605e1983360301811261026657600080fd5b60008235603e1983360301811261026657600080fd5b600181811c908216806103f157607f821691505b60208210810361041157634e487b7160e01b600052602260045260246000fd5b50919050565b61042181546103dd565b801561030257601f81116001811461043b57505060009055565b600083815260209020610459601f840160051c8201600183016102ed565b5060008381526020812081855555505050565b505050565b6000808335601e1984360301811261048857600080fd5b83018035915067ffffffffffffffff8211156104a357600080fd5b6020019150368190038213156102ba57600080fd5b601f82111561046c57806000526020600020601f840160051c810160208510156104df5750805b6104f1601f850160051c8301826102ed565b5050505050565b67ffffffffffffffff831115610510576105106102c1565b6105248361051e83546103dd565b836104b8565b6000601f84116001811461055857600085156105405750838201355b600019600387901b1c1916600186901b1783556104f1565b600083815260209020601f19861690835b828110156105895786850135825560209485019460019092019101610569565b50868210156105a65760001960f88860031b161c19848701351681555b505060018560011b0183555050505050565b6105c28283610471565b67ffffffffffffffff8111156105da576105da6102c1565b6105ee816105e885546103dd565b856104b8565b6000601f821160018114610622576000831561060a5750838201355b600019600385901b1c1916600184901b17855561067c565b600085815260209020601f19841690835b828110156106535786850135825560209485019460019092019101610633565b50848210156106705760001960f88660031b161c19848701351681555b505060018360011b0185555b5050505061068d6020830183610471565b61069b8183600186016104f8565b50505050565b81358155600181016106b66020840184610270565b600160401b8111156106ca576106ca6102c1565b825481845580821015610796576001600160ff1b03811681146106ef576106ef6102d7565b6001600160ff1b0382168214610707576107076102d7565b8360005260206000208160011b81018360011b820191505b808210156107935761073182546103dd565b801561077b57601f81116001811461074c5760008455610779565b60008481526020902061076a601f840160051c8201600183016102ed565b50600084815260208120818655555b505b5061078860018301610417565b60028201915061071f565b50505b506000928352602083209282905b828110156107d5576107bf6107b983866103c7565b866105b8565b60029490940193602091909101906001016107a4565b505050505060409190910135600290910155565b6000600182016107fb576107fb6102d7565b506001019056fea264697066735822122036066ec06b1284f4bdeade32efaa66de51f07ca8f2cb6a8eaa6fba3a8f5b1d2164736f6c634300081a0033",
        "nonce": "0x22c6",
        "chainId": "0xaa36a7"
      },
      "additionalContracts": [],
      "isFixedGasLimit": false
    },
    {
      "hash": "0xf62a4f1b709a23116c4f9abb399a08fbbe93bf68367a2de5a354126c6bf1508e",
      "transactionType": "CREATE",
      "contractName": "Fork",
      "contractAddress": "0x06cc4850b309dc6ddf541a1896cd0209a769a6fa",
      "function": null,
      "arguments": null,
      "transaction": {
        "from": "0xf39fd6e51aad88f6f4ce6ab8827279cfffb92266",
        "gas": "0x9f47e",
        "value": "0x0",
        "input": "0x6080604052348015600f57600080fd5b5061081e8061001f6000396000f3fe608060405234801561001057600080fd5b506004361061002b5760003560e01c8063603d9eb714610030575b600080fd5b61004361003e3660046101fb565b610055565b60405190815260200160405180910390f35b60008281527f9a70c69f78b954ec2ace8c62308c5ea2ed35f782ee583f10b56d88886fa9930060208190526040822084919083805b60088301548110156100d757600883018054339190839081106100af576100af610249565b6000918252602090912001546001600160a01b031614806100cd5750815b915060010161008a565b50806101205760405162461bcd60e51b81526020600482015260146024820152732cb7ba9030b932903737ba103a3432903932b81760611b604482015260640160405180910390fd5b60008781527f9a70c69f78b954ec2ace8c62308c5ea2ed35f782ee583f10b56d88886fa99300602081905260408220909161015b898061025f565b5060201115610194578061016f898061025f565b815460018101835560009283526020909220909160040201610191828261032f565b50505b60006101a360208a018a6103da565b6101b190602081019061027f565b905011156101ef57600181016101ca60208a018a6103da565b8154600181018355600092835260209092209091600302016101ec82826106ca565b50505b50505050505092915050565b6000806040838503121561020e57600080fd5b82359150602083013567ffffffffffffffff81111561022c57600080fd5b83016060818603121561023e57600080fd5b809150509250929050565b634e487b7160e01b600052603260045260246000fd5b60008235607e1983360301811261027557600080fd5b9190910192915050565b6000808335601e1984360301811261029657600080fd5b83018035915067ffffffffffffffff8211156102b157600080fd5b6020019150600581901b36038213156102c957600080fd5b9250929050565b634e487b7160e01b600052604160045260246000fd5b600181901b6001600160ff1b038216821461031157634e487b7160e01b600052601160045260246000fd5b919050565b5b8181101561032b5760008155600101610317565b5050565b81358155602082013560018201556040820135600282015560038101610358606084018461027f565b67ffffffffffffffff811115610370576103706102d0565b600160401b811115610384576103846102d0565b8254818455808210156103aa578360005260206000206103a8828201848301610316565b505b50600092835260208320925b818110156103d2578235848201556020909201916001016103b6565b505050505050565b60008235605e1983360301811261027557600080fd5b60008235603e1983360301811261027557600080fd5b600181811c9082168061041a57607f821691505b60208210810361043a57634e487b7160e01b600052602260045260246000fd5b50919050565b61044a8154610406565b801561032b57601f81116001811461046457505060009055565b600083815260209020610482601f840160051c820160018301610316565b5060008381526020812081855555505050565b505050565b6000808335601e198436030181126104b157600080fd5b83018035915067ffffffffffffffff8211156104cc57600080fd5b6020019150368190038213156102c957600080fd5b601f82111561049557806000526020600020601f840160051c810160208510156105085750805b61051a601f850160051c830182610316565b5050505050565b67ffffffffffffffff831115610539576105396102d0565b61054d836105478354610406565b836104e1565b6000601f84116001811461058157600085156105695750838201355b600019600387901b1c1916600186901b17835561051a565b600083815260209020601f19861690835b828110156105b25786850135825560209485019460019092019101610592565b50868210156105cf5760001960f88860031b161c19848701351681555b505060018560011b0183555050505050565b6105eb828361049a565b67ffffffffffffffff811115610603576106036102d0565b610617816106118554610406565b856104e1565b6000601f82116001811461064b57600083156106335750838201355b600019600385901b1c1916600184901b1785556106a5565b600085815260209020601f19841690835b8281101561067c578685013582556020948501946001909201910161065c565b50848210156106995760001960f88660031b161c19848701351681555b505060018360011b0185555b505050506106b6602083018361049a565b6106c4818360018601610521565b50505050565b81358155600181016106df602084018461027f565b600160401b8111156106f3576106f36102d0565b82548184558082101561079557610709816102e6565b610712836102e6565b60008681526020902091820191015b81811015610792576107338154610406565b801561077d57601f81116001811461074e576000835561077b565b60008381526020902061076c601f840160051c820160018301610316565b50600083815260208120818555555b505b5061078a60018201610440565b600201610721565b50505b506000928352602083209282905b828110156107d4576107be6107b883866103f0565b866105e1565b60029490940193602091909101906001016107a3565b50505050506040919091013560029091015556fea26469706673582212201aa5be0ad5625432d8767127890feb49c19280a0a5aff60ea2d196593c4e737e64736f6c634300081a0033",
        "nonce": "0x22c7",
        "chainId": "0xaa36a7"
      },
      "additionalContracts": [],
      "isFixedGasLimit": false
    },
    {
      "hash": "0x7f91825b5d4d83ee3cd2172cf333e7c8b5886c77443acd615c297d59430a137f",
      "transactionType": "CREATE",
      "contractName": "Tally",
      "contractAddress": "0x5ea9d2424595865c7a7c77e0bca33cb22eeced6b",
      "function": null,
      "arguments": null,
      "transaction": {
        "from": "0xf39fd6e51aad88f6f4ce6ab8827279cfffb92266",
        "gas": "0xe6da6",
        "value": "0x0",
        "input": "0x6080604052348015600f57600080fd5b50610c328061001f6000396000f3fe608060405234801561001057600080fd5b506004361061002b5760003560e01c8063ed8b6b3114610030575b600080fd5b61004361003e366004610b59565b610057565b604051901515815260200160405180910390f35b60008181527f9a70c69f78b954ec2ace8c62308c5ea2ed35f782ee583f10b56d88886fa993006020819052604082207f9a70c69f78b954ec2ace8c62308c5ea2ed35f782ee583f10b56d88886fa9930354849291906100fd5760405162461bcd60e51b815260206004820152601d60248201527f5365742074616c6c7920696e74657276616c20617420636f6e6669672e00000060448201526064015b60405180910390fd5b600382015460028201906000906101149042610b88565b815260208101919091526040016000205460ff161561017f5760405162461bcd60e51b815260206004820152602160248201527f5468697320696e74657276616c20697320616c72656164792074616c6c6965646044820152601760f91b60648201526084016100f4565b60008581527f9a70c69f78b954ec2ace8c62308c5ea2ed35f782ee583f10b56d88886fa9930060208190526040909120806101b8610a18565b6002840154600a84015442916101cd91610baa565b116102525760405162461bcd60e51b815260206004820152604960248201527f546869732070726f706f73616c20686173206265656e20657870697265642e2060448201527f596f752063616e6e6f742072756e206e65772074616c6c7920746f20757064616064820152683a32903930b735b99760b91b608482015260a4016100f4565b815467ffffffffffffffff81111561026c5761026c610bbd565b604051908082528060200260200182016040528015610295578160200160208202803683370190505b50815281546040805160208084028201810190925282815261037292909185919060009084015b8282101561036457838290600052602060002090600402016040518060800160405290816000820154815260200160018201548152602001600282015481526020016003820180548060200260200160405190810160405280929190818152602001828054801561034c57602002820191906000526020600020905b815481526020019060010190808311610338575b505050505081525050815260200190600101906102bc565b50505050600685015461081b565b80825280516000918491839061038a5761038a610bd3565b6020026020010151815481106103a2576103a2610bd3565b600091825260208220600491820201600101546005880154918701549093509083101591036103ff57604080516003808252608082019092529060208201606080368337505081516103fd9260048901925060200190610a6b565b505b80156104d1578251805160009061041857610418610bd3565b60200260200101518560030160010160008154811061043957610439610bd3565b60009182526020909120015582518051600190811061045a5761045a610bd3565b60200260200101518560030160010160018154811061047b5761047b610bd3565b60009182526020909120015582518051600290811061049c5761049c610bd3565b6020026020010151856003016001016002815481106104bd576104bd610bd3565b600091825260209091200155835460068601555b60005b60038110156105da57600486018054829081106104f3576104f3610bd3565b60009182526020909120015460c08501819052865411156105d257856000018460c001518154811061052757610527610bd3565b9060005260206000209060040201604051806080016040529081600082015481526020016001820154815260200160028201548152602001600382018054806020026020016040519081016040528092919081815260200182805480156105ad57602002820191906000526020600020905b815481526020019060010190808311610599575b505050505081525050846080015182600381106105cc576105cc610bd3565b60200201525b6001016104d4565b5060005b600381101561078057836080015181600381106105fd576105fd610bd3565b60200201515160c08501518754889190811061061b5761061b610bd3565b60009182526020909120600490910201556080840151816003811061064257610642610bd3565b602002015160200151866000018560c001518154811061066457610664610bd3565b9060005260206000209060040201600101819055508360800151816003811061068f5761068f610bd3565b602002015160400151866000018560c00151815481106106b1576106b1610bd3565b90600052602060002090600402016002018190555060005b846080015182600381106106df576106df610bd3565b60200201516060015151811015610777578460800151826003811061070657610706610bd3565b602002015160600151818151811061072057610720610bd3565b6020026020010151876000018660c001518154811061074157610741610bd3565b9060005260206000209060040201600301828154811061076357610763610bd3565b6000918252602090912001556001016106c9565b506001016105de565b5060038601546107d25760405162461bcd60e51b815260206004820152601d60248201527f5365742074616c6c7920696e74657276616c20617420636f6e6669672e00000060448201526064016100f4565b60018560020160008860020160010154426107ed9190610b88565b81526020810191909152604001600020805460ff191691151591909117905550979998505050505050505050565b815160609080831061083d575050604080516000815260208101909152610a12565b60006108498483610be9565b905060008167ffffffffffffffff81111561086657610866610bbd565b60405190808252806020026020018201604052801561088f578160200160208202803683370190505b50905060005b828110156108cc576108a78682610baa565b8282815181106108b9576108b9610bd3565b6020908102919091010152600101610895565b5060005b82811015610a0c5760005b60016108e78386610be9565b6108f19190610be9565b811015610a03578783610905836001610baa565b8151811061091557610915610bd3565b60200260200101518151811061092d5761092d610bd3565b6020026020010151602001518884838151811061094c5761094c610bd3565b60200260200101518151811061096457610964610bd3565b60200260200101516020015110156109fb5782610982826001610baa565b8151811061099257610992610bd3565b60200260200101518382815181106109ac576109ac610bd3565b60200260200101518483815181106109c6576109c6610bd3565b60200260200101858460016109db9190610baa565b815181106109eb576109eb610bd3565b6020908102919091010191909152525b6001016108db565b506001016108d0565b50925050505b92915050565b604051806101000160405280606081526020016060815260200160608152602001600015158152602001610a4a610ab6565b8152602001610a57610afb565b815260200160008152602001600081525090565b828054828255906000526020600020908101928215610aa6579160200282015b82811115610aa6578251825591602001919060010190610a8b565b50610ab2929150610b44565b5090565b60405180606001604052806003905b6040805160808101825260008082526020808301829052928201526060808201528252600019909201910181610ac55790505090565b60405180606001604052806003905b610b2e60405180606001604052806000815260200160608152602001600081525090565b815260200190600190039081610b0a5790505090565b5b80821115610ab25760008155600101610b45565b600060208284031215610b6b57600080fd5b5035919050565b634e487b7160e01b600052601160045260246000fd5b600082610ba557634e487b7160e01b600052601260045260246000fd5b500490565b80820180821115610a1257610a12610b72565b634e487b7160e01b600052604160045260246000fd5b634e487b7160e01b600052603260045260246000fd5b81810381811115610a1257610a12610b7256fea264697066735822122022eb32bc95c7ddb7c7db5042d1800e1712257770fab48f6670b62c9b100f7ed264736f6c634300081a0033",
        "nonce": "0x22c8",
        "chainId": "0xaa36a7"
      },
      "additionalContracts": [],
      "isFixedGasLimit": false
    },
    {
      "hash": "0x1852ea7f43a42d18e58314e12aea9351a1e76b9d7726024644ffa32c1e12f3c4",
      "transactionType": "CREATE",
      "contractName": "Execute",
      "contractAddress": "0x17874e0534f9586f71478be4faaac4297b9bba70",
      "function": null,
      "arguments": null,
      "transaction": {
        "from": "0xf39fd6e51aad88f6f4ce6ab8827279cfffb92266",
        "gas": "0xc94c9",
        "value": "0x0",
        "input": "0x6080604052348015600f57600080fd5b50610a838061001f6000396000f3fe608060405234801561001057600080fd5b506004361061002b5760003560e01c8063fe0d94c114610030575b600080fd5b61004361003e36600461080a565b610057565b604051901515815260200160405180910390f35b60008181527f9a70c69f78b954ec2ace8c62308c5ea2ed35f782ee583f10b56d88886fa993006020819052604082207f9a70c69f78b954ec2ace8c62308c5ea2ed35f782ee583f10b56d88886fa9930254600a82015442916100b891610823565b111561010b5760405162461bcd60e51b815260206004820152601a60248201527f50726f706f73616c206d7573742062652066696e69736865642e00000000000060448201526064015b60405180910390fd5b600181015461015c5760405162461bcd60e51b815260206004820152601960248201527f4e6f20626f647920666f726b7320746f20657865637574652e000000000000006044820152606401610102565b60058101546101b75760405162461bcd60e51b815260206004820152602160248201527f54616c6c79206d75737420626520646f6e65206174206c65617374206f6e63656044820152601760f91b6064820152608401610102565b600081600101826003016002016000815481106101d6576101d6610844565b9060005260206000200154815481106101f1576101f1610844565b9060005260206000209060030201600101905060005b815481101561042357600082828154811061022457610224610844565b906000526020600020906002020160405180604001604052908160008201805461024d9061085a565b80601f01602080910402602001604051908101604052809291908181526020018280546102799061085a565b80156102c65780601f1061029b576101008083540402835291602001916102c6565b820191906000526020600020905b8154815290600101906020018083116102a957829003601f168201915b505050505081526020016001820180546102df9061085a565b80601f016020809104026020016040519081016040528092919081815260200182805461030b9061085a565b80156103585780601f1061032d57610100808354040283529160200191610358565b820191906000526020600020905b81548152906001019060200180831161033b57829003601f168201915b5050505050815250509050600080306001600160a01b031683600001518051906020012084602001516040516020016103929291906108b8565b60408051601f19818403018152908290526103ac916108e9565b600060405180830381855af49150503d80600081146103e7576040519150601f19603f3d011682016040523d82523d6000602084013e6103ec565b606091505b509150915081610418576103ff8161042c565b60405162461bcd60e51b81526004016101029190610905565b505050600101610207565b50505050919050565b6060815160240361045457600061044283610463565b905061044d81610510565b9392505050565b61045d826106ad565b92915050565b600081516000036104b65760405162461bcd60e51b815260206004820152601f60248201527f72657665727465642077697468206e6f206572726f72206d6573736167652e006044820152606401610102565b6004825110156105085760405162461bcd60e51b815260206004820152601d60248201527f4461746120746f6f2073686f727420666f722070616e696320636f64650000006044820152606401610102565b506024015190565b60608160010361055357505060408051808201909152601881527f70616e69633a204469766973696f6e206279207a65726f2e0000000000000000602082015290565b8160110361057a5760405180606001604052806026815260200161094f6026913992915050565b816012036105a1576040518060600160405280602581526020016109d86025913992915050565b816021036105e257505060408051808201909152601f81527f70616e69633a20506f702066726f6d20616e20656d7074792061727261792e00602082015290565b81602203610609576040518060600160405280602c8152602001610a22602c913992915050565b81603103610630576040518060600160405280602581526020016109fd6025913992915050565b81603203610657576040518060600160405280602881526020016109b06028913992915050565b8160410361067e576040518060600160405280603b8152602001610975603b913992915050565b50506040805180820190915260138152722ab735b737bbb7103830b734b19031b7b2329760691b602082015290565b606081516000036107005760405162461bcd60e51b815260206004820152601f60248201527f72657665727465642077697468206e6f206572726f72206d6573736167652e006044820152606401610102565b6044825110156107525760405162461bcd60e51b815260206004820181905260248201527f4461746120746f6f2073686f727420666f722072657665727420726561736f6e6044820152606401610102565b604482015160008167ffffffffffffffff81111561077257610772610938565b6040519080825280601f01601f19166020018201604052801561079c576020820181803683370190505b50905060005b8281101561080257846107b6826044610823565b815181106107c6576107c6610844565b602001015160f81c60f81b8282815181106107e3576107e3610844565b60200101906001600160f81b031916908160001a9053506001016107a2565b509392505050565b60006020828403121561081c57600080fd5b5035919050565b8082018082111561045d57634e487b7160e01b600052601160045260246000fd5b634e487b7160e01b600052603260045260246000fd5b600181811c9082168061086e57607f821691505b60208210810361088e57634e487b7160e01b600052602260045260246000fd5b50919050565b60005b838110156108af578181015183820152602001610897565b50506000910152565b6001600160e01b03198316815281516000906108db816004850160208701610894565b919091016004019392505050565b600082516108fb818460208701610894565b9190910192915050565b6020815260008251806020840152610924816040850160208701610894565b601f01601f19169190910160400192915050565b634e487b7160e01b600052604160045260246000fdfe70616e69633a2041726974686d65746963206f7065726174696f6e20756e646572666c6f772e70616e69633a205a65726f2d696e697469616c697a6564207661726961626c65206f6620696e7465726e616c2066756e6374696f6e20747970652e70616e69633a206172726179206f75742d6f662d626f756e6473206163636573732028307833322970616e69633a2041726974686d65746963206f7065726174696f6e206f766572666c6f772e70616e69633a20416c6c6f636174696f6e206f6620746f6f206d756368206d656d6f72792e70616e69633a204172726179206f72206d656d6f727920616363657373206f7574206f6620626f756e64732ea26469706673582212200cdd9a4fd41c52394b55de786e91843ab6dbce7e6f34230648ecef169837e87864736f6c634300081a0033",
        "nonce": "0x22c9",
        "chainId": "0xaa36a7"
      },
      "additionalContracts": [],
      "isFixedGasLimit": false
    },
    {
      "hash": "0x6619c40465b899ba7b1aebe14594614f22f6b8c36834f15dc8d68ad558655482",
      "transactionType": "CREATE",
      "contractName": "MemberJoinProtected",
      "contractAddress": "0x828c0824b87dbffb3849019334f9164498c99ba3",
      "function": null,
      "arguments": null,
      "transaction": {
        "from": "0xf39fd6e51aad88f6f4ce6ab8827279cfffb92266",
        "gas": "0x5d035",
        "value": "0x0",
        "input": "0x6080604052348015600f57600080fd5b506104578061001f6000396000f3fe608060405234801561001057600080fd5b506004361061002b5760003560e01c806306f7e36d14610030575b600080fd5b61004361003e3660046102de565b610057565b604051901515815260200160405180910390f35b60008281527f9a70c69f78b954ec2ace8c62308c5ea2ed35f782ee583f10b56d88886fa993006020819052604082208491907f2909c0a05d58f8b7f14a4ef9b6dfbc139611bb545981c04988c895be90f35000845b865181101561024c5760005b826001015481101561014b578782815181106100d6576100d66103e4565b60209081029190910181015151600083815291859052604090912054036101435760405162461bcd60e51b815260206004820152601960248201527f4d656d62657220494420616c7265616479206578697374732e00000000000000604482015260640160405180910390fd5b6001016100b8565b5086818151811061015e5761015e6103e4565b60200260200101516000015182600001600083856001015461018091906103fa565b815260208101919091526040016000205586518790829081106101a5576101a56103e4565b6020026020010151602001518260000160008385600101546101c791906103fa565b815260200190815260200160002060010160006101000a8154816001600160a01b0302191690836001600160a01b0316021790555086818151811061020e5761020e6103e4565b60200260200101516040015182600001600083856001015461023091906103fa565b81526020810191909152604001600020600201556001016100ac565b508551816001015461025e91906103fa565b6001909101555091949350505050565b634e487b7160e01b600052604160045260246000fd5b6040516060810167ffffffffffffffff811182821017156102a7576102a761026e565b60405290565b604051601f8201601f1916810167ffffffffffffffff811182821017156102d6576102d661026e565b604052919050565b600080604083850312156102f157600080fd5b82359150602083013567ffffffffffffffff81111561030f57600080fd5b8301601f8101851361032057600080fd5b803567ffffffffffffffff81111561033a5761033a61026e565b61034960208260051b016102ad565b8082825260208201915060206060840285010192508783111561036b57600080fd5b6020840193505b828410156103d6576060848903121561038a57600080fd5b610392610284565b8435815260208501356001600160a01b03811681146103b057600080fd5b806020830152506040850135604082015280835250602082019150606084019350610372565b809450505050509250929050565b634e487b7160e01b600052603260045260246000fd5b8082018082111561041b57634e487b7160e01b600052601160045260246000fd5b9291505056fea2646970667358221220288ff343b868e790c36e3b1deb8b959e95f5d09982e3de3c67d4148902fbeedf64736f6c634300081a0033",
        "nonce": "0x22ca",
        "chainId": "0xaa36a7"
      },
      "additionalContracts": [],
      "isFixedGasLimit": false
    },
    {
      "hash": "0x6e00bbc551c06b14cb5b36d9f07655a32ea924ad459bcd042c15b37c452b4768",
      "transactionType": "CREATE",
      "contractName": "SetConfigsProtected",
      "contractAddress": "0x8b2be592c8e9b98d8a385f71c98c7ca80cb82f8b",
      "function": null,
      "arguments": null,
      "transaction": {
        "from": "0xf39fd6e51aad88f6f4ce6ab8827279cfffb92266",
        "gas": "0x89e3a",
        "value": "0x0",
        "input": "0x6080604052348015600f57600080fd5b506106e78061001f6000396000f3fe608060405234801561001057600080fd5b50600436106100415760003560e01c80635cefc4ad146100465780635ebf4de31461010557806369c30f0e14610255575b600080fd5b6100f1610054366004610446565b60009182527f9a70c69f78b954ec2ace8c62308c5ea2ed35f782ee583f10b56d88886fa9930060205280517f9a70c69f78b954ec2ace8c62308c5ea2ed35f782ee583f10b56d88886fa993025560408101517f9a70c69f78b954ec2ace8c62308c5ea2ed35f782ee583f10b56d88886fa9930455606001517f9a70c69f78b954ec2ace8c62308c5ea2ed35f782ee583f10b56d88886fa993055590565b604051901515815260200160405180910390f35b6100f1610113366004610508565b60009182527f9a70c69f78b954ec2ace8c62308c5ea2ed35f782ee583f10b56d88886fa99300602090815281517fe4fa6871814422bfe1d10a118a3483c970f3cc6a461f81c9d5701005cfdaf40380546001600160a01b039283166001600160a01b0319909116179055908201517fe4fa6871814422bfe1d10a118a3483c970f3cc6a461f81c9d5701005cfdaf4045560408201517fe4fa6871814422bfe1d10a118a3483c970f3cc6a461f81c9d5701005cfdaf40580546060850151608086015160a090960151909416600160501b027fffff0000000000000000000000000000000000000000ffffffffffffffffffff63ffffffff968716660100000000000002166601000000000000600160f01b031961ffff9096166401000000000265ffffffffffff19909316969094169590951717929092161791909117905590565b6100f16102633660046105ab565b60008281527f9a70c69f78b954ec2ace8c62308c5ea2ed35f782ee583f10b56d88886fa99300602081815260408084207fe4fa6871814422bfe1d10a118a3483c970f3cc6a461f81c9d5701005cfdaf40354825163288688f960e21b8152925188959492937fe4fa6871814422bfe1d10a118a3483c970f3cc6a461f81c9d5701005cfdaf400936001600160a01b039093169263a21a23e49260048084019382900301818b875af115801561031c573d6000803e3d6000fd5b505050506040513d601f19601f8201168201806040525081019061034091906105ec565b60028201805467ffffffffffffffff9290921667ffffffffffffffff199092168217905560058201546003830154604080516020808201959095528151808203909501855280820191829052630200057560e51b9091526001600160a01b03600160501b909304831693634000aea0936103c19316918b919060440161061d565b6020604051808303816000875af11580156103e0573d6000803e3d6000fd5b505050506040513d601f19601f82011682018060405250810190610404919061068f565b505050505092915050565b60405160c0810167ffffffffffffffff8111828210171561044057634e487b7160e01b600052604160045260246000fd5b60405290565b60008082840360a081121561045a57600080fd5b833592506080601f198201121561047057600080fd5b506040516080810167ffffffffffffffff811182821017156104a257634e487b7160e01b600052604160045260246000fd5b60409081526020858101358352858201359083015260608086013591830191909152608090940135938101939093525092909150565b80356001600160a01b03811681146104ef57600080fd5b919050565b803563ffffffff811681146104ef57600080fd5b60008082840360e081121561051c57600080fd5b8335925060c0601f198201121561053257600080fd5b5061053b61040f565b610547602085016104d8565b81526040840135602082015261055f606085016104f4565b6040820152608084013561ffff8116811461057957600080fd5b606082015261058a60a085016104f4565b608082015261059b60c085016104d8565b60a0820152809150509250929050565b600080604083850312156105be57600080fd5b8235915060208301356bffffffffffffffffffffffff811681146105e157600080fd5b809150509250929050565b6000602082840312156105fe57600080fd5b815167ffffffffffffffff8116811461061657600080fd5b9392505050565b60018060a01b03841681526bffffffffffffffffffffffff83166020820152606060408201526000825180606084015260005b8181101561066d5760208186018101516080868401015201610650565b506000608082850101526080601f19601f830116840101915050949350505050565b6000602082840312156106a157600080fd5b8151801515811461061657600080fdfea2646970667358221220b886ebc50e8eebe1b5466900be9f742827f7a099f201f04cddf78defebea11a364736f6c634300081a0033",
        "nonce": "0x22cb",
        "chainId": "0xaa36a7"
      },
      "additionalContracts": [],
      "isFixedGasLimit": false
    },
    {
      "hash": "0x9b35fa63293fbed09df62935b003222f737596700d6effbdc086c3a8227f26b9",
      "transactionType": "CREATE",
      "contractName": "ConfigOverrideProtected",
      "contractAddress": "0xad4dfb29d6a4b966032fb0f4a322049b827a9f81",
      "function": null,
      "arguments": null,
      "transaction": {
        "from": "0xf39fd6e51aad88f6f4ce6ab8827279cfffb92266",
        "gas": "0x2aa07",
        "value": "0x0",
        "input": "0x6080604052348015600f57600080fd5b506101778061001f6000396000f3fe608060405234801561001057600080fd5b506004361061002b5760003560e01c80639f31e87b14610030575b600080fd5b6100be61003e3660046100d2565b60009182527f9a70c69f78b954ec2ace8c62308c5ea2ed35f782ee583f10b56d88886fa993006020908152905163ed8b6b3160e01b83527f147a311fe1db87247fe76cc1e6db3134e5d52a59e0824f018dad572e05b140009091527f5383e7c9ddd7d9b1763c1c2f58463c31530bb7fd97b38b4d6c0ce4a8002064665590565b604051901515815260200160405180910390f35b60008082840360408112156100e657600080fd5b833592506020601f19820112156100fc57600080fd5b506040516020810181811067ffffffffffffffff8211171561012e57634e487b7160e01b600052604160045260246000fd5b604052602093909301358352509290915056fea2646970667358221220a9f8415f4091816158e15e2743b79ecffedc2537bc8bd21d59883933114a2f4764736f6c634300081a0033",
        "nonce": "0x22cc",
        "chainId": "0xaa36a7"
      },
      "additionalContracts": [],
      "isFixedGasLimit": false
    },
    {
      "hash": "0x127e8d4c961a7d88f05bb38db0586b97b4566b11f6807a971ad10258b5145b1c",
      "transactionType": "CREATE",
      "contractName": "SaveTextProtected",
      "contractAddress": "0xab99a3d5722e824fcdfe33225c04ae8d8fd85853",
      "function": null,
      "arguments": null,
      "transaction": {
        "from": "0xf39fd6e51aad88f6f4ce6ab8827279cfffb92266",
        "gas": "0x4182d",
        "value": "0x0",
        "input": "0x6080604052348015600f57600080fd5b506102c58061001f6000396000f3fe608060405234801561001057600080fd5b506004361061002b5760003560e01c80639877696714610030575b600080fd5b61004361003e366004610186565b610057565b604051901515815260200160405180910390f35b60008381527f9a70c69f78b954ec2ace8c62308c5ea2ed35f782ee583f10b56d88886fa99300602081815260408084208685527ec2b62a56d6a36d26f9b1ee520f3f92694a04313c94e467f10a03b080d779008084529185207ec2b62a56d6a36d26f9b1ee520f3f92694a04313c94e467f10a03b080d7790154815586518995949293926100ec9160018401918a0190610110565b506001820180549060006100ff83610268565b919050555050505050509392505050565b82805482825590600052602060002090810192821561014b579160200282015b8281111561014b578251825591602001919060010190610130565b5061015792915061015b565b5090565b5b80821115610157576000815560010161015c565b634e487b7160e01b600052604160045260246000fd5b60008060006060848603121561019b57600080fd5b8335925060208401359150604084013567ffffffffffffffff8111156101c057600080fd5b8401601f810186136101d157600080fd5b803567ffffffffffffffff8111156101eb576101eb610170565b8060051b604051601f19603f830116810181811067ffffffffffffffff8211171561021857610218610170565b60405291825260208184018101929081018984111561023657600080fd5b6020850194505b838510156102595784358082526020958601959093500161023d565b50809450505050509250925092565b60006001820161028857634e487b7160e01b600052601160045260246000fd5b506001019056fea264697066735822122066a855a438a466fba3fa13d4b3ef48e4d6c60979e355d921cae32dc89d08bea564736f6c634300081a0033",
        "nonce": "0x22cd",
        "chainId": "0xaa36a7"
      },
      "additionalContracts": [],
      "isFixedGasLimit": false
    },
    {
      "hash": "0xcdfbb23b037ae408d7ab14153ebf0ac98971d451978eea56e0ff48f2928bdcdd",
      "transactionType": "CREATE",
      "contractName": "Getter",
      "contractAddress": "0xc153794f8db0e8e76cb5fe31fb01a5869a73d6a7",
      "function": null,
      "arguments": null,
      "transaction": {
        "from": "0xf39fd6e51aad88f6f4ce6ab8827279cfffb92266",
        "gas": "0x136bb7",
        "value": "0x0",
        "input": "0x6080604052348015600f57600080fd5b506110c08061001f6000396000f3fe608060405234801561001057600080fd5b50600436106100ea5760003560e01c8063a4c5e9cb1161008c578063c7f758a811610066578063c7f758a8146103ff578063cb37be9e1461041f578063de3d9fb714610427578063e81099531461046257600080fd5b8063a4c5e9cb14610300578063ab3545e51461033b578063c1e582ba1461037957600080fd5b80636c996f88116100c85780636c996f8814610183578063787e0fe0146101a35780637f4ef9d4146101ab5780639a5ea6a0146101cb57600080fd5b806325be10bd146100ef5780632a2c16a0146101655780632b7efac11461017b575b600080fd5b6101516100fd366004610c9f565b60408051602080820183526000918290526001600160e01b03199390931681527f147a311fe1db87247fe76cc1e6db3134e5d52a59e0824f018dad572e05b140008352819020815192830190915254815290565b604051905181526020015b60405180910390f35b61016d610482565b60405190815260200161015c565b61016d6104af565b610196610191366004610cd0565b6104d6565b60405161015c9190610d25565b61016d6105c2565b6101be6101b9366004610cd0565b6105d8565b60405161015c9190610db5565b6102946040805160c081018252600080825260208201819052918101829052606081018290526080810182905260a08101919091527fe4fa6871814422bfe1d10a118a3483c970f3cc6a461f81c9d5701005cfdaf4006040805160c08101825260038301546001600160a01b0390811682526004840154602083015260059093015463ffffffff8082169383019390935261ffff6401000000008204166060830152660100000000000081049092166080820152600160501b90910490911660a0820152919050565b60405161015c9190600060c08201905060018060a01b0383511682526020830151602083015263ffffffff604084015116604083015261ffff606084015116606083015263ffffffff608084015116608083015260018060a01b0360a08401511660a083015292915050565b610308610687565b60405161015c91908151815260208083015190820152604080830151908201526060918201519181019190915260800190565b61034e610349366004610cd0565b61075b565b60408051825181526020808401516001600160a01b031690820152918101519082015260600161015c565b6103e4610387366004610cd0565b60408051808201909152600080825260208201527fe4fa6871814422bfe1d10a118a3483c970f3cc6a461f81c9d5701005cfdaf4006000928352602090815260409283902083518085019094528054845260010154908301525090565b6040805182518152602092830151928101929092520161015c565b61041261040d366004610cd0565b610868565b60405161015c9190610e4b565b61016d610a04565b7fe4fa6871814422bfe1d10a118a3483c970f3cc6a461f81c9d5701005cfdaf4025460405167ffffffffffffffff909116815260200161015c565b610475610470366004610f05565b610a2c565b60405161015c9190610f6d565b60007fe4fa6871814422bfe1d10a118a3483c970f3cc6a461f81c9d5701005cfdaf4005b60010154905090565b60007ec2b62a56d6a36d26f9b1ee520f3f92694a04313c94e467f10a03b080d779006104a6565b606060008051602061106b8339815191526000838152602091825260408082208054825181860281018601909352808352919390929084015b828210156105b757838290600052602060002090600402016040518060800160405290816000820154815260200160018201548152602001600282015481526020016003820180548060200260200160405190810160405280929190818152602001828054801561059f57602002820191906000526020600020905b81548152602001906001019080831161058b575b5050505050815250508152602001906001019061050f565b505050509050919050565b600060008051602061106b8339815191526104a6565b6040805180820190915260008152606060208201527ec2b62a56d6a36d26f9b1ee520f3f92694a04313c94e467f10a03b080d77900600083815260209182526040908190208151808301835281548152600182018054845181870281018701909552808552919492938584019390929083018282801561067757602002820191906000526020600020905b815481526020019060010190808311610663575b5050505050815250509050919050565b6106b26040518060800160405280600081526020016000815260200160008152602001600081525090565b50604080516080810182527f9a70c69f78b954ec2ace8c62308c5ea2ed35f782ee583f10b56d88886fa993025481527f9a70c69f78b954ec2ace8c62308c5ea2ed35f782ee583f10b56d88886fa993035460208201527f9a70c69f78b954ec2ace8c62308c5ea2ed35f782ee583f10b56d88886fa9930454918101919091527f9a70c69f78b954ec2ace8c62308c5ea2ed35f782ee583f10b56d88886fa9930554606082015290565b60408051606081018252600080825260208201819052918101829052905b7f2909c0a05d58f8b7f14a4ef9b6dfbc139611bb545981c04988c895be90f35001548110156108425760008181527f2909c0a05d58f8b7f14a4ef9b6dfbc139611bb545981c04988c895be90f35000602052604090205483900361083a577f2909c0a05d58f8b7f14a4ef9b6dfbc139611bb545981c04988c895be90f350006000918252602090815260409182902082516060810184528154815260018201546001600160a01b031692810192909252600201549181019190915292915050565b600101610779565b505060408051606081018252600019815260006020820181905291810191909152919050565b610870610c38565b600082815260008051602061106b833981519152602090815260409182902082516101608101845260038201805460608301908152600484018054875181880281018801909852808852949693958695929460808701939092918301828280156108f957602002820191906000526020600020905b8154815260200190600101908083116108e5575b505050505081526020016002820180548060200260200160405190810160405280929190818152602001828054801561095157602002820191906000526020600020905b81548152602001906001019080831161093d575b505050505081526020016003820154815260200160048201548152602001600582018054806020026020016040519081016040528092919081815260200182805480156109c757602002820191906000526020600020905b81546001600160a01b031681526001909101906020018083116109a9575b5050509183525050600682015460208083019190915260079092015460409182015291835284549083015260019093015492019190915292915050565b60007f2909c0a05d58f8b7f14a4ef9b6dfbc139611bb545981c04988c895be90f350006104a6565b610a5060405180606001604052806000815260200160608152602001600081525090565b600083815260008051602061106b83398151915260205260409020600101805483908110610a8057610a8061101a565b90600052602060002090600302016040518060600160405290816000820154815260200160018201805480602002602001604051908101604052809291908181526020016000905b82821015610c1e5783829060005260206000209060020201604051806040016040529081600082018054610afb90611030565b80601f0160208091040260200160405190810160405280929190818152602001828054610b2790611030565b8015610b745780601f10610b4957610100808354040283529160200191610b74565b820191906000526020600020905b815481529060010190602001808311610b5757829003601f168201915b50505050508152602001600182018054610b8d90611030565b80601f0160208091040260200160405190810160405280929190818152602001828054610bb990611030565b8015610c065780601f10610bdb57610100808354040283529160200191610c06565b820191906000526020600020905b815481529060010190602001808311610be957829003601f168201915b50505050508152505081526020019060010190610ac8565b505050508152602001600282015481525050905092915050565b6040518060600160405280610c8b60405180610100016040528060008152602001606081526020016060815260200160008152602001600081526020016060815260200160008152602001600081525090565b815260200160008152602001600081525090565b600060208284031215610cb157600080fd5b81356001600160e01b031981168114610cc957600080fd5b9392505050565b600060208284031215610ce257600080fd5b5035919050565b600081518084526020840193506020830160005b82811015610d1b578151865260209586019590910190600101610cfd565b5093949350505050565b6000602082016020835280845180835260408501915060408160051b86010192506020860160005b82811015610da957603f1987860301845281518051865260208101516020870152604081015160408701526060810151905060806060870152610d936080870182610ce9565b9550506020938401939190910190600101610d4d565b50929695505050505050565b6020808252825182820152828101516040808401528051606084018190526000929190910190829060808501905b80831015610e065783518252602082019150602084019350600183019250610de3565b5095945050505050565b600081518084526020840193506020830160005b82811015610d1b5781516001600160a01b0316865260209586019590910190600101610e24565b60208152600082516060602084015280516080840152602081015161010060a0850152610e7c610180850182610ce9565b90506040820151607f198583030160c0860152610e998282610ce9565b915050606082015160e0850152608082015161010085015260a0820151607f1985830301610120860152610ecd8282610e10565b91505060c082015161014085015260e08201516101608501526020850151604085015260408501516060850152809250505092915050565b60008060408385031215610f1857600080fd5b50508035926020909101359150565b6000815180845260005b81811015610f4d57602081850181015186830182015201610f31565b506000602082860101526020601f19601f83011685010191505092915050565b602081526000608082018351602084015260208401516060604085015281815180845260a08601915060a08160051b870101935060208301925060005b8181101561100257609f198786030183528351805160408752610fd06040880182610f27565b9050602082015191508681036020880152610feb8183610f27565b965050506020938401939290920191600101610faa565b50505050604084015160608401528091505092915050565b634e487b7160e01b600052603260045260246000fd5b600181811c9082168061104457607f821691505b60208210810361106457634e487b7160e01b600052602260045260246000fd5b5091905056fe9a70c69f78b954ec2ace8c62308c5ea2ed35f782ee583f10b56d88886fa99300a26469706673582212202ebcc987c0d6f8dc313481f5aba254f2ffc23ae2c8b3b94c577ac209c30ad2cd64736f6c634300081a0033",
        "nonce": "0x22ce",
        "chainId": "0xaa36a7"
      },
      "additionalContracts": [],
      "isFixedGasLimit": false
    },
    {
      "hash": "0x649a2b494ce1444cf0db63b8bfc8c39a6bd20bfb6ce2397b2a9f4a48e520ae36",
      "transactionType": "CREATE",
      "contractName": "TextDAOFacade",
      "contractAddress": "0x5490fe6fa588de32fc1a015a3ac2bc5521cfb367",
      "function": null,
      "arguments": null,
      "transaction": {
        "from": "0xf39fd6e51aad88f6f4ce6ab8827279cfffb92266",
        "gas": "0xde708",
        "value": "0x0",
        "input": "0x6080604052348015600f57600080fd5b50610bb88061001f6000396000f3fe608060405234801561001057600080fd5b506004361061018e5760003560e01c8063a4c5e9cb116100de578063cb37be9e11610097578063e69b9edc11610071578063e69b9edc146103f9578063e810995314610444578063ed8b6b3114610464578063fe0d94c11461046457600080fd5b8063cb37be9e146101dd578063dc1ec0e514610427578063de3d9fb71461043557600080fd5b8063a4c5e9cb14610315578063ab3545e514610350578063bca2007b146103aa578063c1e582ba146103b8578063c5b36441146103f9578063c7f758a81461040757600080fd5b8063603d9eb71161014b5780637f4ef9d4116101255780637f4ef9d41461023d5780638124b78e146102715780639a5ea6a0146102825780639f46786e1461030157600080fd5b8063603d9eb71461020e5780636c996f881461021c578063787e0fe0146101dd57600080fd5b806306f7e36d1461019357806325be10bd146101a85780632a2c16a0146101dd5780632b7efac1146101dd5780633fc765ad146101ee5780634f4a953614610200575b600080fd5b6101a66101a136600461053e565b505050565b005b6101c96101b63660046105bf565b5060408051602081019091526000815290565b604051905181526020015b60405180910390f35b60005b6040519081526020016101d4565b6101a66101fc366004610608565b5050565b6101a66101a1366004610635565b6101a66101fc3660046106b4565b61023061022a3660046106fb565b50606090565b6040516101d49190610750565b61026461024b3660046106fb565b5060408051808201909152600081526060602082015290565b6040516101d491906107e0565b6101a661027f36600461083b565b50565b6040805160c08082018352600080835260208084018281528486018381526060808701858152608080890187815260a0998a018881528b51988952955196880196909652925163ffffffff908116998701999099525161ffff169085015291519095169082015292516001600160a01b031691830191909152016101d4565b6101e061030f366004610864565b50600090565b61031d61047a565b6040516101d491908151815260208083015190820152604080830151908201526060918201519181019190915260800190565b61037f61035e3660046106fb565b50604080516060810182526000808252602082018190529181019190915290565b60408051825181526020808401516001600160a01b03169082015291810151908201526060016101d4565b6101a661027f3660046108a1565b6103de6103c63660046106fb565b50604080518082019091526000808252602082015290565b604080518251815260209283015192810192909252016101d4565b6101a66101fc3660046108bd565b61041a6104153660046106fb565b6104a5565b6040516101d4919061092b565b6101a66101a13660046109e5565b604051600081526020016101d4565b610457610452366004610a6d565b6104ad565b6040516101d49190610ad5565b6101a661027f3660046106fb565b919050565b90565b6104776040518060800160405280600081526020016000815260200160008152602001600081525090565b6104726104d7565b6104d160405180606001604052806000815260200160608152602001600081525090565b92915050565b604051806060016040528061052a60405180610100016040528060008152602001606081526020016060815260200160008152602001600081526020016060815260200160008152602001600081525090565b815260200160008152602001600081525090565b60008060006040848603121561055357600080fd5b83359250602084013567ffffffffffffffff81111561057157600080fd5b8401601f8101861361058257600080fd5b803567ffffffffffffffff81111561059957600080fd5b8660206060830284010111156105ae57600080fd5b939660209190910195509293505050565b6000602082840312156105d157600080fd5b81356001600160e01b0319811681146105e957600080fd5b9392505050565b60006080828403121561060257600080fd5b50919050565b60008060a0838503121561061b57600080fd5b8235915061062c84602085016105f0565b90509250929050565b60008060006040848603121561064a57600080fd5b83359250602084013567ffffffffffffffff81111561066857600080fd5b8401601f8101861361067957600080fd5b803567ffffffffffffffff81111561069057600080fd5b8660208284010111156105ae57600080fd5b60006060828403121561060257600080fd5b600080604083850312156106c757600080fd5b82359150602083013567ffffffffffffffff8111156106e557600080fd5b6106f1858286016106a2565b9150509250929050565b60006020828403121561070d57600080fd5b5035919050565b600081518084526020840193506020830160005b82811015610746578151865260209586019590910190600101610728565b5093949350505050565b6000602082016020835280845180835260408501915060408160051b86010192506020860160005b828110156107d457603f19878603018452815180518652602081015160208701526040810151604087015260608101519050608060608701526107be6080870182610714565b9550506020938401939190910190600101610778565b50929695505050505050565b6020808252825182820152828101516040808401528051606084018190526000929190910190829060808501905b80831015610831578351825260208201915060208401935060018301925061080e565b5095945050505050565b60006020828403121561084d57600080fd5b81356001600160a01b03811681146105e957600080fd5b60006020828403121561087657600080fd5b813567ffffffffffffffff81111561088d57600080fd5b610899848285016106a2565b949350505050565b6000608082840312156108b357600080fd5b6105e983836105f0565b600080608083850312156108d057600080fd5b82359150608083018410156108e457600080fd5b50926020919091019150565b600081518084526020840193506020830160005b828110156107465781516001600160a01b0316865260209586019590910190600101610904565b60208152600082516060602084015280516080840152602081015161010060a085015261095c610180850182610714565b90506040820151607f198583030160c08601526109798282610714565b915050606082015160e0850152608082015161010085015260a0820151607f19858303016101208601526109ad82826108f0565b91505060c082015161014085015260e08201516101608501526020850151604085015260408501516060850152809250505092915050565b600080600060a084860312156109fa57600080fd5b833567ffffffffffffffff811115610a1157600080fd5b8401601f81018613610a2257600080fd5b803567ffffffffffffffff811115610a3957600080fd5b8660208260051b8401011115610a4e57600080fd5b602091820194509250610a6490869086016105f0565b90509250925092565b60008060408385031215610a8057600080fd5b50508035926020909101359150565b6000815180845260005b81811015610ab557602081850181015186830182015201610a99565b506000602082860101526020601f19601f83011685010191505092915050565b602081526000608082018351602084015260208401516060604085015281815180845260a08601915060a08160051b870101935060208301925060005b81811015610b6a57609f198786030183528351805160408752610b386040880182610a8f565b9050602082015191508681036020880152610b538183610a8f565b965050506020938401939290920191600101610b12565b5050505060408401516060840152809150509291505056fea2646970667358221220563a18ec03914886db0f06d2b2a85939f56a058bd0361f80ffc95fb20ed3389064736f6c634300081a0033",
        "nonce": "0x22cf",
        "chainId": "0xaa36a7"
      },
      "additionalContracts": [],
      "isFixedGasLimit": false
    },
    {
      "hash": "0xdaf77e1f30369d611bbd4d3a9fb0fe7c374643c1caac6a17167c636428c0051f",
      "transactionType": "CREATE",
      "contractName": "Dictionary",
      "contractAddress": "0xdb11917272722d88d801b86536375fd86e1ae28a",
      "function": null,
      "arguments": [
        "0xf39Fd6e51aad88F6F4ce6aB8827279cffFb92266"
      ],
      "transaction": {
        "from": "0xf39fd6e51aad88f6f4ce6ab8827279cfffb92266",
        "gas": "0xa7856",
        "value": "0x0",
        "input": "0x608060405234801561001057600080fd5b5060405161091438038061091483398101604081905261002f916100c0565b806001600160a01b03811661005e57604051631e4fbdf760e01b81526000600482015260240160405180910390fd5b6100678161006e565b50506100f0565b600380546001600160a01b038381166001600160a01b0319831681179093556040519116919082907f8be0079c531659141344cd1fd0a4f28419497f9722a3daafe3b4186f6b6457e090600090a35050565b6000602082840312156100d257600080fd5b81516001600160a01b03811681146100e957600080fd5b9392505050565b610815806100ff6000396000f3fe608060405234801561001057600080fd5b50600436106100935760003560e01c8063715018a611610066578063715018a61461012f5780638da5cb5b14610137578063a5954dd714610148578063dc9cc6451461015d578063f2fde38b1461017057600080fd5b806301ffc9a7146100985780630815f6fd146100e25780635c60da1b146100f7578063651dc03d1461011c575b600080fd5b6100cd6100a63660046106f5565b6001600160e01b0319166000908152602081905260409020546001600160a01b0316151590565b60405190151581526020015b60405180910390f35b6100f56100f036600461072e565b610183565b005b6002546001600160a01b03165b6040516001600160a01b0390911681526020016100d9565b6100f561012a366004610761565b610199565b6100f56101ad565b6003546001600160a01b0316610104565b6101506101c1565b6040516100d9919061077c565b61010461016b3660046106f5565b610246565b6100f561017e366004610761565b6102df565b61018b61031a565b6101958282610347565b5050565b6101a161031a565b6101aa81610371565b50565b6101b561031a565b6101bf60006103c6565b565b6060600180548060200260200160405190810160405280929190818152602001828054801561023c57602002820191906000526020600020906000905b82829054906101000a900460e01b6001600160e01b031916815260200190600401906020826003010492830192600103820291508084116101fe5790505b5050505050905090565b6001600160e01b031981166000908152602081905260408120546001600160a01b031680156102755792915050565b5060008080526020527fad3228b676f7d3cd4284a5443f17f1962b36e491b30a40b2405849e597ba5fb5546001600160a01b031680156102b55792915050565b60405163404ceef760e11b81526001600160e01b0319841660048201526024015b60405180910390fd5b6102e761031a565b6001600160a01b03811661031157604051631e4fbdf760e01b8152600060048201526024016102d6565b6101aa816103c6565b6003546001600160a01b031633146101bf5760405163118cdaa760e01b81523360048201526024016102d6565b6001600160a01b03811661035e5761019582610418565b61036782610514565b61019582826105bb565b600280546001600160a01b0319166001600160a01b0383169081179091556040519081527f159f10d3da077d18f228d52be447d552e7d1892d10f7af8f615658160e374729906020015b60405180910390a150565b600380546001600160a01b038381166001600160a01b0319831681179093556040519116919082907f8be0079c531659141344cd1fd0a4f28419497f9722a3daafe3b4186f6b6457e090600090a35050565b60005b6001548110156104bd57816001600160e01b03191660018281548110610443576104436107c9565b90600052602060002090600891828204019190066004029054906101000a900460e01b6001600160e01b031916036104b55760018181548110610488576104886107c9565b90600052602060002090600891828204019190066004026101000a81549063ffffffff02191690556104bd565b60010161041b565b506001600160e01b031981166000818152602081815260409182902080546001600160a01b031916905590519182527fb0f2f3a9229724df0b95683e95488b72aed817bc1a5bd6fe1d2e7504e92871cb91016103bb565b61051d81610660565b156105255750565b6001805480820182556000919091527fb10e2d527612073b26eecdfd717e6a320cf44b4afac2b0732d9fcbe2b7fa0cf66008820401805463ffffffff60079093166004026101000a928302191660e084901c929092029190911790556040516001600160e01b0319821681527fbe533f538959a17d76f1b09e966e741ee3b1183099682f96216c93d21feaecba906020016103bb565b806001600160a01b03163b6000036105f157604051630c76093760e01b81526001600160a01b03821660048201526024016102d6565b6001600160e01b031982166000818152602081815260409182902080546001600160a01b0319166001600160a01b0386169081179091558251938452908301527fda3c8142b3c1d27633026f55bfcb4eeb0b5b8db0daa0a3e10c2213a441722ad1910160405180910390a15050565b6000805b6001548110156106cf57826001600160e01b0319166001828154811061068c5761068c6107c9565b90600052602060002090600891828204019190066004029054906101000a900460e01b6001600160e01b031916036106c75750600192915050565b600101610664565b50600092915050565b80356001600160e01b0319811681146106f057600080fd5b919050565b60006020828403121561070757600080fd5b610710826106d8565b9392505050565b80356001600160a01b03811681146106f057600080fd5b6000806040838503121561074157600080fd5b61074a836106d8565b915061075860208401610717565b90509250929050565b60006020828403121561077357600080fd5b61071082610717565b602080825282518282018190526000918401906040840190835b818110156107be5783516001600160e01b031916835260209384019390920191600101610796565b509095945050505050565b634e487b7160e01b600052603260045260246000fdfea2646970667358221220412e573aa59fd977a3266ad81937acabd215642956df49437ac017320511d9db64736f6c634300081a0033000000000000000000000000f39fd6e51aad88f6f4ce6ab8827279cfffb92266",
        "nonce": "0x22d0",
        "chainId": "0xaa36a7"
      },
      "additionalContracts": [],
      "isFixedGasLimit": false
    },
    {
      "hash": "0x46e839c3c14e9fc2410221fd416c677542e03c2d18f4c249444f5aacae33ffc6",
      "transactionType": "CALL",
      "contractName": "Dictionary",
      "contractAddress": "0xdb11917272722d88d801b86536375fd86e1ae28a",
      "function": "setImplementation(bytes4,address)",
      "arguments": [
        "0x8ca89f7700000000000000000000000000000000000000000000000000000000",
        "0x27344181F731A5B1868a55696e20785564C5ebB0"
      ],
      "transaction": {
        "from": "0xf39fd6e51aad88f6f4ce6ab8827279cfffb92266",
        "to": "0xdb11917272722d88d801b86536375fd86e1ae28a",
        "gas": "0x206fc",
        "value": "0x0",
        "input": "0x0815f6fd8ca89f770000000000000000000000000000000000000000000000000000000000000000000000000000000027344181f731a5b1868a55696e20785564c5ebb0",
        "nonce": "0x22d1",
        "chainId": "0xaa36a7"
      },
      "additionalContracts": [],
      "isFixedGasLimit": false
    },
    {
      "hash": "0xa0f9ebcfe3bf14644f4a94e13069caae7912cbb780a7158747278b3265d64dd2",
      "transactionType": "CALL",
      "contractName": "Dictionary",
      "contractAddress": "0xdb11917272722d88d801b86536375fd86e1ae28a",
      "function": "setImplementation(bytes4,address)",
      "arguments": [
        "0xdc1ec0e500000000000000000000000000000000000000000000000000000000",
        "0x1132C42430c0261B9F11368be4497f0c09BaC105"
      ],
      "transaction": {
        "from": "0xf39fd6e51aad88f6f4ce6ab8827279cfffb92266",
        "to": "0xdb11917272722d88d801b86536375fd86e1ae28a",
        "gas": "0x151c0",
        "value": "0x0",
        "input": "0x0815f6fddc1ec0e5000000000000000000000000000000000000000000000000000000000000000000000000000000001132c42430c0261b9f11368be4497f0c09bac105",
        "nonce": "0x22d2",
        "chainId": "0xaa36a7"
      },
      "additionalContracts": [],
      "isFixedGasLimit": false
    },
    {
      "hash": "0x0f425745c74432f3a06c0a7a150d8f93e98f36e0efb1652d004207e90f1b6086",
      "transactionType": "CALL",
      "contractName": "Dictionary",
      "contractAddress": "0xdb11917272722d88d801b86536375fd86e1ae28a",
      "function": "setImplementation(bytes4,address)",
      "arguments": [
        "0x9f46786e00000000000000000000000000000000000000000000000000000000",
        "0x9f27Ca2527BF6b4D0D1908F1bB3aAccfA5094b36"
      ],
      "transaction": {
        "from": "0xf39fd6e51aad88f6f4ce6ab8827279cfffb92266",
        "to": "0xdb11917272722d88d801b86536375fd86e1ae28a",
        "gas": "0x1691b",
        "value": "0x0",
        "input": "0x0815f6fd9f46786e000000000000000000000000000000000000000000000000000000000000000000000000000000009f27ca2527bf6b4d0d1908f1bb3aaccfa5094b36",
        "nonce": "0x22d3",
        "chainId": "0xaa36a7"
      },
      "additionalContracts": [],
      "isFixedGasLimit": false
    },
    {
      "hash": "0x1f85e7f3de040063ec84b83f2a5bab753303277c516c50bbbdb01e7b76fa9ee3",
      "transactionType": "CALL",
      "contractName": "Dictionary",
      "contractAddress": "0xdb11917272722d88d801b86536375fd86e1ae28a",
      "function": "setImplementation(bytes4,address)",
      "arguments": [
        "0x603d9eb700000000000000000000000000000000000000000000000000000000",
        "0x06CC4850B309dc6DDf541A1896cd0209a769a6Fa"
      ],
      "transaction": {
        "from": "0xf39fd6e51aad88f6f4ce6ab8827279cfffb92266",
        "to": "0xdb11917272722d88d801b86536375fd86e1ae28a",
        "gas": "0x16c96",
        "value": "0x0",
        "input": "0x0815f6fd603d9eb70000000000000000000000000000000000000000000000000000000000000000000000000000000006cc4850b309dc6ddf541a1896cd0209a769a6fa",
        "nonce": "0x22d4",
        "chainId": "0xaa36a7"
      },
      "additionalContracts": [],
      "isFixedGasLimit": false
    },
    {
      "hash": "0xf7ce997cbaf579261338d3fc5c729eb47f473cfe5febe8209c6c69966e76c853",
      "transactionType": "CALL",
      "contractName": "Dictionary",
      "contractAddress": "0xdb11917272722d88d801b86536375fd86e1ae28a",
      "function": "setImplementation(bytes4,address)",
      "arguments": [
        "0xc5b3644100000000000000000000000000000000000000000000000000000000",
        "0x334f807241354C2fdE9D782adfA336F99818C973"
      ],
      "transaction": {
        "from": "0xf39fd6e51aad88f6f4ce6ab8827279cfffb92266",
        "to": "0xdb11917272722d88d801b86536375fd86e1ae28a",
        "gas": "0x15b9f",
        "value": "0x0",
        "input": "0x0815f6fdc5b3644100000000000000000000000000000000000000000000000000000000000000000000000000000000334f807241354c2fde9d782adfa336f99818c973",
        "nonce": "0x22d5",
        "chainId": "0xaa36a7"
      },
      "additionalContracts": [],
      "isFixedGasLimit": false
    },
    {
      "hash": "0x32ad119feed8a38f16903e231969070fe4287580d9d4282b957c9b5d54c83794",
      "transactionType": "CALL",
      "contractName": "Dictionary",
      "contractAddress": "0xdb11917272722d88d801b86536375fd86e1ae28a",
      "function": "setImplementation(bytes4,address)",
      "arguments": [
        "0xe69b9edc00000000000000000000000000000000000000000000000000000000",
        "0x334f807241354C2fdE9D782adfA336F99818C973"
      ],
      "transaction": {
        "from": "0xf39fd6e51aad88f6f4ce6ab8827279cfffb92266",
        "to": "0xdb11917272722d88d801b86536375fd86e1ae28a",
        "gas": "0x15ee9",
        "value": "0x0",
        "input": "0x0815f6fde69b9edc00000000000000000000000000000000000000000000000000000000000000000000000000000000334f807241354c2fde9d782adfa336f99818c973",
        "nonce": "0x22d6",
        "chainId": "0xaa36a7"
      },
      "additionalContracts": [],
      "isFixedGasLimit": false
    },
    {
      "hash": "0x84cfeccd07a50718b1a771323be0a3da509bb8346ca3a06f73000ea32eea2e40",
      "transactionType": "CALL",
      "contractName": "Dictionary",
      "contractAddress": "0xdb11917272722d88d801b86536375fd86e1ae28a",
      "function": "setImplementation(bytes4,address)",
      "arguments": [
        "0xed8b6b3100000000000000000000000000000000000000000000000000000000",
        "0x5EA9D2424595865C7a7c77E0Bca33Cb22eECed6B"
      ],
      "transaction": {
        "from": "0xf39fd6e51aad88f6f4ce6ab8827279cfffb92266",
        "to": "0xdb11917272722d88d801b86536375fd86e1ae28a",
        "gas": "0x1770b",
        "value": "0x0",
        "input": "0x0815f6fded8b6b31000000000000000000000000000000000000000000000000000000000000000000000000000000005ea9d2424595865c7a7c77e0bca33cb22eeced6b",
        "nonce": "0x22d7",
        "chainId": "0xaa36a7"
      },
      "additionalContracts": [],
      "isFixedGasLimit": false
    },
    {
      "hash": "0xf60395c077df2513dd16bba5dc8c2e2314e6e6e84694a5f4d463aea92dd641e9",
      "transactionType": "CALL",
      "contractName": "Dictionary",
      "contractAddress": "0xdb11917272722d88d801b86536375fd86e1ae28a",
      "function": "setImplementation(bytes4,address)",
      "arguments": [
        "0xfe0d94c100000000000000000000000000000000000000000000000000000000",
        "0x17874E0534F9586f71478Be4FAAac4297B9bba70"
      ],
      "transaction": {
        "from": "0xf39fd6e51aad88f6f4ce6ab8827279cfffb92266",
        "to": "0xdb11917272722d88d801b86536375fd86e1ae28a",
        "gas": "0x17a87",
        "value": "0x0",
        "input": "0x0815f6fdfe0d94c10000000000000000000000000000000000000000000000000000000000000000000000000000000017874e0534f9586f71478be4faaac4297b9bba70",
        "nonce": "0x22d8",
        "chainId": "0xaa36a7"
      },
      "additionalContracts": [],
      "isFixedGasLimit": false
    },
    {
      "hash": "0xfaf3a1f8d160f8562ffd76664b2c5522570d6d380f0f0a04405a6e4ee234ecb3",
      "transactionType": "CALL",
      "contractName": "Dictionary",
      "contractAddress": "0xdb11917272722d88d801b86536375fd86e1ae28a",
      "function": "setImplementation(bytes4,address)",
      "arguments": [
        "0x06f7e36d00000000000000000000000000000000000000000000000000000000",
        "0x828c0824b87DBffb3849019334F9164498C99bA3"
      ],
      "transaction": {
        "from": "0xf39fd6e51aad88f6f4ce6ab8827279cfffb92266",
        "to": "0xdb11917272722d88d801b86536375fd86e1ae28a",
        "gas": "0x1cf92",
        "value": "0x0",
        "input": "0x0815f6fd06f7e36d00000000000000000000000000000000000000000000000000000000000000000000000000000000828c0824b87dbffb3849019334f9164498c99ba3",
        "nonce": "0x22d9",
        "chainId": "0xaa36a7"
      },
      "additionalContracts": [],
      "isFixedGasLimit": false
    },
    {
      "hash": "0xc3eb6a71ab3c62fbbbcad7323b654ae18c42b9f1a87cd5df0f5697d79a438058",
      "transactionType": "CALL",
      "contractName": "Dictionary",
      "contractAddress": "0xdb11917272722d88d801b86536375fd86e1ae28a",
      "function": "setImplementation(bytes4,address)",
      "arguments": [
        "0x5cefc4ad00000000000000000000000000000000000000000000000000000000",
        "0x8b2bE592c8e9B98d8a385f71C98c7ca80Cb82f8B"
      ],
      "transaction": {
        "from": "0xf39fd6e51aad88f6f4ce6ab8827279cfffb92266",
        "to": "0xdb11917272722d88d801b86536375fd86e1ae28a",
        "gas": "0x1769a",
        "value": "0x0",
        "input": "0x0815f6fd5cefc4ad000000000000000000000000000000000000000000000000000000000000000000000000000000008b2be592c8e9b98d8a385f71c98c7ca80cb82f8b",
        "nonce": "0x22da",
        "chainId": "0xaa36a7"
      },
      "additionalContracts": [],
      "isFixedGasLimit": false
    },
    {
      "hash": "0x9403050e6b0e3cf50861d8cb084e4863f28bc72fda652f4ae42a19551e88bc97",
      "transactionType": "CALL",
      "contractName": "Dictionary",
      "contractAddress": "0xdb11917272722d88d801b86536375fd86e1ae28a",
      "function": "setImplementation(bytes4,address)",
      "arguments": [
        "0x9f31e87b00000000000000000000000000000000000000000000000000000000",
        "0xaD4dfB29D6A4b966032fB0f4A322049b827A9f81"
      ],
      "transaction": {
        "from": "0xf39fd6e51aad88f6f4ce6ab8827279cfffb92266",
        "to": "0xdb11917272722d88d801b86536375fd86e1ae28a",
        "gas": "0x179e4",
        "value": "0x0",
        "input": "0x0815f6fd9f31e87b00000000000000000000000000000000000000000000000000000000000000000000000000000000ad4dfb29d6a4b966032fb0f4a322049b827a9f81",
        "nonce": "0x22db",
        "chainId": "0xaa36a7"
      },
      "additionalContracts": [],
      "isFixedGasLimit": false
    },
    {
      "hash": "0x114d976e345115f3b4bbd0f7e7a70eb261b03f18b1e210e128224e92382dd23c",
      "transactionType": "CALL",
      "contractName": "Dictionary",
      "contractAddress": "0xdb11917272722d88d801b86536375fd86e1ae28a",
      "function": "setImplementation(bytes4,address)",
      "arguments": [
        "0x9877696700000000000000000000000000000000000000000000000000000000",
        "0xab99a3d5722e824fCdfe33225C04Ae8d8fD85853"
      ],
      "transaction": {
        "from": "0xf39fd6e51aad88f6f4ce6ab8827279cfffb92266",
        "to": "0xdb11917272722d88d801b86536375fd86e1ae28a",
        "gas": "0x1939c",
        "value": "0x0",
        "input": "0x0815f6fd9877696700000000000000000000000000000000000000000000000000000000000000000000000000000000ab99a3d5722e824fcdfe33225c04ae8d8fd85853",
        "nonce": "0x22dc",
        "chainId": "0xaa36a7"
      },
      "additionalContracts": [],
      "isFixedGasLimit": false
    },
    {
      "hash": "0x261f0c3b01e4f64cfcf479dc1963cba75ef054e0a1abb36a38b89819a2af2b93",
      "transactionType": "CALL",
      "contractName": "Dictionary",
      "contractAddress": "0xdb11917272722d88d801b86536375fd86e1ae28a",
      "function": "setImplementation(bytes4,address)",
      "arguments": [
        "0xc7f758a800000000000000000000000000000000000000000000000000000000",
        "0xC153794F8dB0e8E76cB5fE31Fb01A5869a73d6A7"
      ],
      "transaction": {
        "from": "0xf39fd6e51aad88f6f4ce6ab8827279cfffb92266",
        "to": "0xdb11917272722d88d801b86536375fd86e1ae28a",
        "gas": "0x19717",
        "value": "0x0",
        "input": "0x0815f6fdc7f758a800000000000000000000000000000000000000000000000000000000000000000000000000000000c153794f8db0e8e76cb5fe31fb01a5869a73d6a7",
        "nonce": "0x22dd",
        "chainId": "0xaa36a7"
      },
      "additionalContracts": [],
      "isFixedGasLimit": false
    },
    {
      "hash": "0xecbce08ac3268a538ae57b7b93d8632f48d528279793d1edb09103e43f71afb8",
      "transactionType": "CALL",
      "contractName": "Dictionary",
      "contractAddress": "0xdb11917272722d88d801b86536375fd86e1ae28a",
      "function": "setImplementation(bytes4,address)",
      "arguments": [
        "0x6c996f8800000000000000000000000000000000000000000000000000000000",
        "0xC153794F8dB0e8E76cB5fE31Fb01A5869a73d6A7"
      ],
      "transaction": {
        "from": "0xf39fd6e51aad88f6f4ce6ab8827279cfffb92266",
        "to": "0xdb11917272722d88d801b86536375fd86e1ae28a",
        "gas": "0x183c4",
        "value": "0x0",
        "input": "0x0815f6fd6c996f8800000000000000000000000000000000000000000000000000000000000000000000000000000000c153794f8db0e8e76cb5fe31fb01a5869a73d6a7",
        "nonce": "0x22de",
        "chainId": "0xaa36a7"
      },
      "additionalContracts": [],
      "isFixedGasLimit": false
    },
    {
      "hash": "0xac7ac28f807289e9d56b191bea01864c4ec3c19e3ca600fd2a6690e8a46475dc",
      "transactionType": "CALL",
      "contractName": "Dictionary",
      "contractAddress": "0xdb11917272722d88d801b86536375fd86e1ae28a",
      "function": "setImplementation(bytes4,address)",
      "arguments": [
        "0xe810995300000000000000000000000000000000000000000000000000000000",
        "0xC153794F8dB0e8E76cB5fE31Fb01A5869a73d6A7"
      ],
      "transaction": {
        "from": "0xf39fd6e51aad88f6f4ce6ab8827279cfffb92266",
        "to": "0xdb11917272722d88d801b86536375fd86e1ae28a",
        "gas": "0x1870e",
        "value": "0x0",
        "input": "0x0815f6fde810995300000000000000000000000000000000000000000000000000000000000000000000000000000000c153794f8db0e8e76cb5fe31fb01a5869a73d6a7",
        "nonce": "0x22df",
        "chainId": "0xaa36a7"
      },
      "additionalContracts": [],
      "isFixedGasLimit": false
    },
    {
      "hash": "0xcef611aba2b17837ce90d9f244c9c024e449f402c7510a18a5d54b44ad601acf",
      "transactionType": "CALL",
      "contractName": "Dictionary",
      "contractAddress": "0xdb11917272722d88d801b86536375fd86e1ae28a",
      "function": "setImplementation(bytes4,address)",
      "arguments": [
        "0x787e0fe000000000000000000000000000000000000000000000000000000000",
        "0xC153794F8dB0e8E76cB5fE31Fb01A5869a73d6A7"
      ],
      "transaction": {
        "from": "0xf39fd6e51aad88f6f4ce6ab8827279cfffb92266",
        "to": "0xdb11917272722d88d801b86536375fd86e1ae28a",
        "gas": "0x1a18c",
        "value": "0x0",
        "input": "0x0815f6fd787e0fe000000000000000000000000000000000000000000000000000000000000000000000000000000000c153794f8db0e8e76cb5fe31fb01a5869a73d6a7",
        "nonce": "0x22e0",
        "chainId": "0xaa36a7"
      },
      "additionalContracts": [],
      "isFixedGasLimit": false
    },
    {
      "hash": "0xd899190b36370e68edfcd837ee398fd766d2b5d03f18c5c4dc14d45c9b8f7574",
      "transactionType": "CALL",
      "contractName": "Dictionary",
      "contractAddress": "0xdb11917272722d88d801b86536375fd86e1ae28a",
      "function": "setImplementation(bytes4,address)",
      "arguments": [
        "0xa4c5e9cb00000000000000000000000000000000000000000000000000000000",
        "0xC153794F8dB0e8E76cB5fE31Fb01A5869a73d6A7"
      ],
      "transaction": {
        "from": "0xf39fd6e51aad88f6f4ce6ab8827279cfffb92266",
        "to": "0xdb11917272722d88d801b86536375fd86e1ae28a",
        "gas": "0x1f46c",
        "value": "0x0",
        "input": "0x0815f6fda4c5e9cb00000000000000000000000000000000000000000000000000000000000000000000000000000000c153794f8db0e8e76cb5fe31fb01a5869a73d6a7",
        "nonce": "0x22e1",
        "chainId": "0xaa36a7"
      },
      "additionalContracts": [],
      "isFixedGasLimit": false
    },
    {
      "hash": "0xf803ac239689979f7f6a8d78cae981d6186f30936cf25d1670686d897cfc31c1",
      "transactionType": "CALL",
      "contractName": "Dictionary",
      "contractAddress": "0xdb11917272722d88d801b86536375fd86e1ae28a",
      "function": "setImplementation(bytes4,address)",
      "arguments": [
        "0x7f4ef9d400000000000000000000000000000000000000000000000000000000",
        "0xC153794F8dB0e8E76cB5fE31Fb01A5869a73d6A7"
      ],
      "transaction": {
        "from": "0xf39fd6e51aad88f6f4ce6ab8827279cfffb92266",
        "to": "0xdb11917272722d88d801b86536375fd86e1ae28a",
        "gas": "0x1b3a8",
        "value": "0x0",
        "input": "0x0815f6fd7f4ef9d400000000000000000000000000000000000000000000000000000000000000000000000000000000c153794f8db0e8e76cb5fe31fb01a5869a73d6a7",
        "nonce": "0x22e2",
        "chainId": "0xaa36a7"
      },
      "additionalContracts": [],
      "isFixedGasLimit": false
    },
    {
      "hash": "0x6ce8f3e2fcef1619c1e8788eac6f016556ea52e07f86202ef838d6da8006e573",
      "transactionType": "CALL",
      "contractName": "Dictionary",
      "contractAddress": "0xdb11917272722d88d801b86536375fd86e1ae28a",
      "function": "setImplementation(bytes4,address)",
      "arguments": [
        "0x2b7efac100000000000000000000000000000000000000000000000000000000",
        "0xC153794F8dB0e8E76cB5fE31Fb01A5869a73d6A7"
      ],
      "transaction": {
        "from": "0xf39fd6e51aad88f6f4ce6ab8827279cfffb92266",
        "to": "0xdb11917272722d88d801b86536375fd86e1ae28a",
        "gas": "0x19ebe",
        "value": "0x0",
        "input": "0x0815f6fd2b7efac100000000000000000000000000000000000000000000000000000000000000000000000000000000c153794f8db0e8e76cb5fe31fb01a5869a73d6a7",
        "nonce": "0x22e3",
        "chainId": "0xaa36a7"
      },
      "additionalContracts": [],
      "isFixedGasLimit": false
    },
    {
      "hash": "0x9389d9dc90b7d09c9b8b9f8e1d1040472ef4dbb207c4ef1453bf936ed98790f5",
      "transactionType": "CALL",
      "contractName": "Dictionary",
      "contractAddress": "0xdb11917272722d88d801b86536375fd86e1ae28a",
      "function": "setImplementation(bytes4,address)",
      "arguments": [
        "0xab3545e500000000000000000000000000000000000000000000000000000000",
        "0xC153794F8dB0e8E76cB5fE31Fb01A5869a73d6A7"
      ],
      "transaction": {
        "from": "0xf39fd6e51aad88f6f4ce6ab8827279cfffb92266",
        "to": "0xdb11917272722d88d801b86536375fd86e1ae28a",
        "gas": "0x1a209",
        "value": "0x0",
        "input": "0x0815f6fdab3545e500000000000000000000000000000000000000000000000000000000000000000000000000000000c153794f8db0e8e76cb5fe31fb01a5869a73d6a7",
        "nonce": "0x22e4",
        "chainId": "0xaa36a7"
      },
      "additionalContracts": [],
      "isFixedGasLimit": false
    },
    {
      "hash": "0x20c8c8eff3e499ee982d4a86e986f32caca343f0ba986827cec583700c9ff7fe",
      "transactionType": "CALL",
      "contractName": "Dictionary",
      "contractAddress": "0xdb11917272722d88d801b86536375fd86e1ae28a",
      "function": "setImplementation(bytes4,address)",
      "arguments": [
        "0xcb37be9e00000000000000000000000000000000000000000000000000000000",
        "0xC153794F8dB0e8E76cB5fE31Fb01A5869a73d6A7"
      ],
      "transaction": {
        "from": "0xf39fd6e51aad88f6f4ce6ab8827279cfffb92266",
        "to": "0xdb11917272722d88d801b86536375fd86e1ae28a",
        "gas": "0x1be1d",
        "value": "0x0",
        "input": "0x0815f6fdcb37be9e00000000000000000000000000000000000000000000000000000000000000000000000000000000c153794f8db0e8e76cb5fe31fb01a5869a73d6a7",
        "nonce": "0x22e5",
        "chainId": "0xaa36a7"
      },
      "additionalContracts": [],
      "isFixedGasLimit": false
    },
    {
      "hash": "0x085ce29812ea85090f53d5843fd6d5d688cede91afacdf7ebd69322e0b5b24ab",
      "transactionType": "CALL",
      "contractName": "Dictionary",
      "contractAddress": "0xdb11917272722d88d801b86536375fd86e1ae28a",
      "function": "setImplementation(bytes4,address)",
      "arguments": [
        "0xc1e582ba00000000000000000000000000000000000000000000000000000000",
        "0xC153794F8dB0e8E76cB5fE31Fb01A5869a73d6A7"
      ],
      "transaction": {
        "from": "0xf39fd6e51aad88f6f4ce6ab8827279cfffb92266",
        "to": "0xdb11917272722d88d801b86536375fd86e1ae28a",
        "gas": "0x1c198",
        "value": "0x0",
        "input": "0x0815f6fdc1e582ba00000000000000000000000000000000000000000000000000000000000000000000000000000000c153794f8db0e8e76cb5fe31fb01a5869a73d6a7",
        "nonce": "0x22e6",
        "chainId": "0xaa36a7"
      },
      "additionalContracts": [],
      "isFixedGasLimit": false
    },
    {
      "hash": "0x227d16a696e5859a846bb29670d2fd2b1b6b3d21e5484ba8a2c17d86c6e8fb6e",
      "transactionType": "CALL",
      "contractName": "Dictionary",
      "contractAddress": "0xdb11917272722d88d801b86536375fd86e1ae28a",
      "function": "setImplementation(bytes4,address)",
      "arguments": [
        "0x2a2c16a000000000000000000000000000000000000000000000000000000000",
        "0xC153794F8dB0e8E76cB5fE31Fb01A5869a73d6A7"
      ],
      "transaction": {
        "from": "0xf39fd6e51aad88f6f4ce6ab8827279cfffb92266",
        "to": "0xdb11917272722d88d801b86536375fd86e1ae28a",
        "gas": "0x1abe8",
        "value": "0x0",
        "input": "0x0815f6fd2a2c16a000000000000000000000000000000000000000000000000000000000000000000000000000000000c153794f8db0e8e76cb5fe31fb01a5869a73d6a7",
        "nonce": "0x22e7",
        "chainId": "0xaa36a7"
      },
      "additionalContracts": [],
      "isFixedGasLimit": false
    },
    {
      "hash": "0x85bd6efa745d6d09277f682744f6011544d74828448d268746262cf4801ec983",
      "transactionType": "CALL",
      "contractName": "Dictionary",
      "contractAddress": "0xdb11917272722d88d801b86536375fd86e1ae28a",
      "function": "setImplementation(bytes4,address)",
      "arguments": [
        "0xde3d9fb700000000000000000000000000000000000000000000000000000000",
        "0xC153794F8dB0e8E76cB5fE31Fb01A5869a73d6A7"
      ],
      "transaction": {
        "from": "0xf39fd6e51aad88f6f4ce6ab8827279cfffb92266",
        "to": "0xdb11917272722d88d801b86536375fd86e1ae28a",
        "gas": "0x1af32",
        "value": "0x0",
        "input": "0x0815f6fdde3d9fb700000000000000000000000000000000000000000000000000000000000000000000000000000000c153794f8db0e8e76cb5fe31fb01a5869a73d6a7",
        "nonce": "0x22e8",
        "chainId": "0xaa36a7"
      },
      "additionalContracts": [],
      "isFixedGasLimit": false
    },
    {
      "hash": "0x562b6b1129794b12e8a2c420b81663f6c8abab4888cb4e78945b5f7c93dbbd4e",
      "transactionType": "CALL",
      "contractName": "Dictionary",
      "contractAddress": "0xdb11917272722d88d801b86536375fd86e1ae28a",
      "function": "setImplementation(bytes4,address)",
      "arguments": [
        "0x9a5ea6a000000000000000000000000000000000000000000000000000000000",
        "0xC153794F8dB0e8E76cB5fE31Fb01A5869a73d6A7"
      ],
      "transaction": {
        "from": "0xf39fd6e51aad88f6f4ce6ab8827279cfffb92266",
        "to": "0xdb11917272722d88d801b86536375fd86e1ae28a",
        "gas": "0x238e1",
        "value": "0x0",
        "input": "0x0815f6fd9a5ea6a000000000000000000000000000000000000000000000000000000000000000000000000000000000c153794f8db0e8e76cb5fe31fb01a5869a73d6a7",
        "nonce": "0x22e9",
        "chainId": "0xaa36a7"
      },
      "additionalContracts": [],
      "isFixedGasLimit": false
    },
    {
      "hash": "0x3ecf7775b69f087f5bad56b77eaca555a7977c03a9553704481ff609e212e559",
      "transactionType": "CALL",
      "contractName": "Dictionary",
      "contractAddress": "0xdb11917272722d88d801b86536375fd86e1ae28a",
      "function": "setImplementation(bytes4,address)",
      "arguments": [
        "0x25be10bd00000000000000000000000000000000000000000000000000000000",
        "0xC153794F8dB0e8E76cB5fE31Fb01A5869a73d6A7"
      ],
      "transaction": {
        "from": "0xf39fd6e51aad88f6f4ce6ab8827279cfffb92266",
        "to": "0xdb11917272722d88d801b86536375fd86e1ae28a",
        "gas": "0x1daad",
        "value": "0x0",
        "input": "0x0815f6fd25be10bd00000000000000000000000000000000000000000000000000000000000000000000000000000000c153794f8db0e8e76cb5fe31fb01a5869a73d6a7",
        "nonce": "0x22ea",
        "chainId": "0xaa36a7"
      },
      "additionalContracts": [],
      "isFixedGasLimit": false
    },
    {
      "hash": "0xb48a60ebdced4ed23fb018954dff4aaced3d019012a39460503741f5c21c836b",
      "transactionType": "CALL",
      "contractName": "Dictionary",
      "contractAddress": "0xdb11917272722d88d801b86536375fd86e1ae28a",
      "function": "upgradeFacade(address)",
      "arguments": [
        "0x5490FE6Fa588DE32fc1a015A3Ac2bc5521CFB367"
      ],
      "transaction": {
        "from": "0xf39fd6e51aad88f6f4ce6ab8827279cfffb92266",
        "to": "0xdb11917272722d88d801b86536375fd86e1ae28a",
        "gas": "0x10dbe",
        "value": "0x0",
        "input": "0x651dc03d0000000000000000000000005490fe6fa588de32fc1a015a3ac2bc5521cfb367",
        "nonce": "0x22eb",
        "chainId": "0xaa36a7"
      },
      "additionalContracts": [],
      "isFixedGasLimit": false
    },
    {
      "hash": "0x134be4ebb4661e7e4d9bbdb7490550d8db3220dfaab3aab67401133c853630df",
      "transactionType": "CREATE",
      "contractName": null,
      "contractAddress": "0x5e1cec2e7c9d48db8082384b7f39288fe0735005",
      "function": null,
      "arguments": null,
      "transaction": {
        "from": "0xf39fd6e51aad88f6f4ce6ab8827279cfffb92266",
        "gas": "0x3de18",
        "value": "0x0",
        "input": "0x60806040526040516105ed3803806105ed8339810160408190526100229161034b565b61002c828261003c565b6100358261011c565b5050610486565b61004582610160565b6040516001600160a01b03831681527fa657f2ad315cf3bb35cf1964158da75c3f334481df05a4a1644b2376b17a59b29060200160405180910390a18051156101105761010b6001600160a01b03831663dc9cc6456100a384610411565b6040516001600160e01b031960e084901b81168252919091166004820152602401602060405180830381865afa1580156100e1573d6000803e3d6000fd5b505050506040513d601f19601f82011682018060405250810190610105919061044f565b826101d5565b505050565b61011861024c565b5050565b807fa3f0ad74e5423aebfd80d3ef4346578335a9a72aeaee59ff6cb3582b35133d505b80546001600160a01b0319166001600160a01b039290921691909117905550565b806001600160a01b03163b6000036101ae5760405162461bcd60e51b815260206004820152600c60248201526b1393d397d0d3d395149050d560a21b60448201526064015b60405180910390fd5b807f267691be3525af8a813d30db0c9e2bad08f63baecf6dceb85e2cf3676cff56f461013f565b6060600080846001600160a01b0316846040516101f2919061046a565b600060405180830381855af49150503d806000811461022d576040519150601f19603f3d011682016040523d82523d6000602084013e610232565b606091505b50909250905061024385838361026d565b95945050505050565b341561026b5760405163b398979f60e01b815260040160405180910390fd5b565b6060826102825761027d826102cc565b6102c5565b815115801561029957506001600160a01b0384163b155b156102c257604051639996b31560e01b81526001600160a01b03851660048201526024016101a5565b50805b9392505050565b8051156102dc5780518082602001fd5b604051630a12f52160e11b815260040160405180910390fd5b80516001600160a01b038116811461030c57600080fd5b919050565b634e487b7160e01b600052604160045260246000fd5b60005b8381101561034257818101518382015260200161032a565b50506000910152565b6000806040838503121561035e57600080fd5b610367836102f5565b60208401519092506001600160401b0381111561038357600080fd5b8301601f8101851361039457600080fd5b80516001600160401b038111156103ad576103ad610311565b604051601f8201601f19908116603f011681016001600160401b03811182821017156103db576103db610311565b6040528181528282016020018710156103f357600080fd5b610404826020830160208601610327565b8093505050509250929050565b805160208201516001600160e01b0319811691906004821015610448576001600160e01b0319600483900360031b81901b82161692505b5050919050565b60006020828403121561046157600080fd5b6102c5826102f5565b6000825161047c818460208701610327565b9190910192915050565b610158806104956000396000f3fe608060405261000c61000e565b005b61001e610019610020565b6100ce565b565b60006100537f267691be3525af8a813d30db0c9e2bad08f63baecf6dceb85e2cf3676cff56f4546001600160a01b031690565b60405163dc9cc64560e01b81526001600160e01b03196000351660048201526001600160a01b03919091169063dc9cc64590602401602060405180830381865afa1580156100a5573d6000803e3d6000fd5b505050506040513d601f19601f820116820180604052508101906100c991906100f2565b905090565b3660008037600080366000845af43d6000803e8080156100ed573d6000f35b3d6000fd5b60006020828403121561010457600080fd5b81516001600160a01b038116811461011b57600080fd5b939250505056fea2646970667358221220edeb9a03e51fb4befaa08189d6da8fca48148c9e6789ddf587ece46a3ab49f3b64736f6c634300081a0033000000000000000000000000db11917272722d88d801b86536375fd86e1ae28a00000000000000000000000000000000000000000000000000000000000000400000000000000000000000000000000000000000000000000000000000000000",
        "nonce": "0x22ec",
        "chainId": "0xaa36a7"
      },
      "additionalContracts": [],
      "isFixedGasLimit": false
    }
  ],
  "receipts": [
    {
      "status": "0x1",
      "cumulativeGasUsed": "0x73454",
      "logs": [],
      "logsBloom": "0x00000000000000000000000000000000000000000000000000000000000000000000000000000000000000000000000000000000000000000000000000000000000000000000000000000000000000000000000000000000000000000000000000000000000000000000000000000000000000000000000000000000000000000000000000000000000000000000000000000000000000000000000000000000000000000000000000000000000000000000000000000000000000000000000000000000000000000000000000000000000000000000000000000000000000000000000000000000000000000000000000000000000000000000000000000000",
      "type": "0x2",
      "transactionHash": "0xcb04237a94856be3004a5f797cd9e3832e7aacae45cb7fc330fcf74992580122",
      "transactionIndex": "0x0",
      "blockHash": "0x170fc8461eef27df9f5fc76878ad9452aab3d6d0049d5afb0561d4e7be3f47b7",
      "blockNumber": "0x5d57f2",
      "gasUsed": "0x73454",
      "effectiveGasPrice": "0x4a817c8e",
      "blobGasPrice": "0x1",
      "from": "0xf39fd6e51aad88f6f4ce6ab8827279cfffb92266",
      "to": null,
      "contractAddress": "0x334f807241354c2fde9d782adfa336f99818c973",
      "root": "0x0000000000000000000000000000000000000000000000000000000000000000"
    },
    {
      "status": "0x1",
      "cumulativeGasUsed": "0x7dd75",
      "logs": [],
      "logsBloom": "0x00000000000000000000000000000000000000000000000000000000000000000000000000000000000000000000000000000000000000000000000000000000000000000000000000000000000000000000000000000000000000000000000000000000000000000000000000000000000000000000000000000000000000000000000000000000000000000000000000000000000000000000000000000000000000000000000000000000000000000000000000000000000000000000000000000000000000000000000000000000000000000000000000000000000000000000000000000000000000000000000000000000000000000000000000000000",
      "type": "0x2",
      "transactionHash": "0x781728a92356f6102319ff2b38f008be8268114d8b4fd9802ca98a6b63b522c6",
      "transactionIndex": "0x0",
      "blockHash": "0xe5e6b4a1e37ed66066237d83ed238e664d55760d4614bbdb355c8425bfeedf2d",
      "blockNumber": "0x5d57f3",
      "gasUsed": "0x7dd75",
      "effectiveGasPrice": "0x4a817c8e",
      "blobGasPrice": "0x1",
      "from": "0xf39fd6e51aad88f6f4ce6ab8827279cfffb92266",
      "to": null,
      "contractAddress": "0x27344181f731a5b1868a55696e20785564c5ebb0",
      "root": "0x0000000000000000000000000000000000000000000000000000000000000000"
    },
    {
      "status": "0x1",
      "cumulativeGasUsed": "0x3e45a",
      "logs": [],
      "logsBloom": "0x00000000000000000000000000000000000000000000000000000000000000000000000000000000000000000000000000000000000000000000000000000000000000000000000000000000000000000000000000000000000000000000000000000000000000000000000000000000000000000000000000000000000000000000000000000000000000000000000000000000000000000000000000000000000000000000000000000000000000000000000000000000000000000000000000000000000000000000000000000000000000000000000000000000000000000000000000000000000000000000000000000000000000000000000000000000",
      "type": "0x2",
      "transactionHash": "0x7bab5bc0203e45691469c797c5ee787552e996dec63fe2025fcc02d738b71f9a",
      "transactionIndex": "0x0",
      "blockHash": "0x288e01623d8d9d36f4906850cb915d93efe851b33dfa5f624cf81e86e1ede917",
      "blockNumber": "0x5d57f4",
      "gasUsed": "0x3e45a",
      "effectiveGasPrice": "0x4a817c8e",
      "blobGasPrice": "0x1",
      "from": "0xf39fd6e51aad88f6f4ce6ab8827279cfffb92266",
      "to": null,
      "contractAddress": "0x1132c42430c0261b9f11368be4497f0c09bac105",
      "root": "0x0000000000000000000000000000000000000000000000000000000000000000"
    },
    {
      "status": "0x1",
      "cumulativeGasUsed": "0xba34f",
      "logs": [],
      "logsBloom": "0x00000000000000000000000000000000000000000000000000000000000000000000000000000000000000000000000000000000000000000000000000000000000000000000000000000000000000000000000000000000000000000000000000000000000000000000000000000000000000000000000000000000000000000000000000000000000000000000000000000000000000000000000000000000000000000000000000000000000000000000000000000000000000000000000000000000000000000000000000000000000000000000000000000000000000000000000000000000000000000000000000000000000000000000000000000000",
      "type": "0x2",
      "transactionHash": "0xc6c1b3a173d58f4cfe669809c68a90e5b1b5340babc80b0f35f52ed7b1e69f35",
      "transactionIndex": "0x1",
      "blockHash": "0x288e01623d8d9d36f4906850cb915d93efe851b33dfa5f624cf81e86e1ede917",
      "blockNumber": "0x5d57f4",
      "gasUsed": "0x7bef5",
      "effectiveGasPrice": "0x4a817c8e",
      "blobGasPrice": "0x1",
      "from": "0xf39fd6e51aad88f6f4ce6ab8827279cfffb92266",
      "to": null,
      "contractAddress": "0x9f27ca2527bf6b4d0d1908f1bb3aaccfa5094b36",
      "root": "0x0000000000000000000000000000000000000000000000000000000000000000"
    },
    {
      "status": "0x1",
      "cumulativeGasUsed": "0x134c34",
      "logs": [],
      "logsBloom": "0x00000000000000000000000000000000000000000000000000000000000000000000000000000000000000000000000000000000000000000000000000000000000000000000000000000000000000000000000000000000000000000000000000000000000000000000000000000000000000000000000000000000000000000000000000000000000000000000000000000000000000000000000000000000000000000000000000000000000000000000000000000000000000000000000000000000000000000000000000000000000000000000000000000000000000000000000000000000000000000000000000000000000000000000000000000000",
      "type": "0x2",
      "transactionHash": "0xf62a4f1b709a23116c4f9abb399a08fbbe93bf68367a2de5a354126c6bf1508e",
      "transactionIndex": "0x2",
      "blockHash": "0x288e01623d8d9d36f4906850cb915d93efe851b33dfa5f624cf81e86e1ede917",
      "blockNumber": "0x5d57f4",
      "gasUsed": "0x7a8e5",
      "effectiveGasPrice": "0x4a817c8e",
      "blobGasPrice": "0x1",
      "from": "0xf39fd6e51aad88f6f4ce6ab8827279cfffb92266",
      "to": null,
      "contractAddress": "0x06cc4850b309dc6ddf541a1896cd0209a769a6fa",
      "root": "0x0000000000000000000000000000000000000000000000000000000000000000"
    },
    {
      "status": "0x1",
      "cumulativeGasUsed": "0xb1a0b",
      "logs": [],
      "logsBloom": "0x00000000000000000000000000000000000000000000000000000000000000000000000000000000000000000000000000000000000000000000000000000000000000000000000000000000000000000000000000000000000000000000000000000000000000000000000000000000000000000000000000000000000000000000000000000000000000000000000000000000000000000000000000000000000000000000000000000000000000000000000000000000000000000000000000000000000000000000000000000000000000000000000000000000000000000000000000000000000000000000000000000000000000000000000000000000",
      "type": "0x2",
      "transactionHash": "0x7f91825b5d4d83ee3cd2172cf333e7c8b5886c77443acd615c297d59430a137f",
      "transactionIndex": "0x0",
      "blockHash": "0x7b9ee7e4069ab99bbb3f34befe658ea13dbed2cf16e00c93a29ec6db3bf99769",
      "blockNumber": "0x5d57f5",
      "gasUsed": "0xb1a0b",
      "effectiveGasPrice": "0x4a817c8e",
      "blobGasPrice": "0x1",
      "from": "0xf39fd6e51aad88f6f4ce6ab8827279cfffb92266",
      "to": null,
      "contractAddress": "0x5ea9d2424595865c7a7c77e0bca33cb22eeced6b",
      "root": "0x0000000000000000000000000000000000000000000000000000000000000000"
    },
    {
      "status": "0x1",
      "cumulativeGasUsed": "0x14c83e",
      "logs": [],
      "logsBloom": "0x00000000000000000000000000000000000000000000000000000000000000000000000000000000000000000000000000000000000000000000000000000000000000000000000000000000000000000000000000000000000000000000000000000000000000000000000000000000000000000000000000000000000000000000000000000000000000000000000000000000000000000000000000000000000000000000000000000000000000000000000000000000000000000000000000000000000000000000000000000000000000000000000000000000000000000000000000000000000000000000000000000000000000000000000000000000",
      "type": "0x2",
      "transactionHash": "0x1852ea7f43a42d18e58314e12aea9351a1e76b9d7726024644ffa32c1e12f3c4",
      "transactionIndex": "0x1",
      "blockHash": "0x7b9ee7e4069ab99bbb3f34befe658ea13dbed2cf16e00c93a29ec6db3bf99769",
      "blockNumber": "0x5d57f5",
      "gasUsed": "0x9ae33",
      "effectiveGasPrice": "0x4a817c8e",
      "blobGasPrice": "0x1",
      "from": "0xf39fd6e51aad88f6f4ce6ab8827279cfffb92266",
      "to": null,
      "contractAddress": "0x17874e0534f9586f71478be4faaac4297b9bba70",
      "root": "0x0000000000000000000000000000000000000000000000000000000000000000"
    },
    {
      "status": "0x1",
      "cumulativeGasUsed": "0x19414d",
      "logs": [],
      "logsBloom": "0x00000000000000000000000000000000000000000000000000000000000000000000000000000000000000000000000000000000000000000000000000000000000000000000000000000000000000000000000000000000000000000000000000000000000000000000000000000000000000000000000000000000000000000000000000000000000000000000000000000000000000000000000000000000000000000000000000000000000000000000000000000000000000000000000000000000000000000000000000000000000000000000000000000000000000000000000000000000000000000000000000000000000000000000000000000000",
      "type": "0x2",
      "transactionHash": "0x6619c40465b899ba7b1aebe14594614f22f6b8c36834f15dc8d68ad558655482",
      "transactionIndex": "0x2",
      "blockHash": "0x7b9ee7e4069ab99bbb3f34befe658ea13dbed2cf16e00c93a29ec6db3bf99769",
      "blockNumber": "0x5d57f5",
      "gasUsed": "0x4790f",
      "effectiveGasPrice": "0x4a817c8e",
      "blobGasPrice": "0x1",
      "from": "0xf39fd6e51aad88f6f4ce6ab8827279cfffb92266",
      "to": null,
      "contractAddress": "0x828c0824b87dbffb3849019334f9164498c99ba3",
      "root": "0x0000000000000000000000000000000000000000000000000000000000000000"
    },
    {
      "status": "0x1",
      "cumulativeGasUsed": "0x6a18b",
      "logs": [],
      "logsBloom": "0x00000000000000000000000000000000000000000000000000000000000000000000000000000000000000000000000000000000000000000000000000000000000000000000000000000000000000000000000000000000000000000000000000000000000000000000000000000000000000000000000000000000000000000000000000000000000000000000000000000000000000000000000000000000000000000000000000000000000000000000000000000000000000000000000000000000000000000000000000000000000000000000000000000000000000000000000000000000000000000000000000000000000000000000000000000000",
      "type": "0x2",
      "transactionHash": "0x6e00bbc551c06b14cb5b36d9f07655a32ea924ad459bcd042c15b37c452b4768",
      "transactionIndex": "0x0",
      "blockHash": "0x1cd448d3529ed9e29a3569a7cd83481fc14433dd274d116745da1af378d80ff9",
      "blockNumber": "0x5d57f6",
      "gasUsed": "0x6a18b",
      "effectiveGasPrice": "0x4a817c8e",
      "blobGasPrice": "0x1",
      "from": "0xf39fd6e51aad88f6f4ce6ab8827279cfffb92266",
      "to": null,
      "contractAddress": "0x8b2be592c8e9b98d8a385f71c98c7ca80cb82f8b",
      "root": "0x0000000000000000000000000000000000000000000000000000000000000000"
    },
    {
      "status": "0x1",
      "cumulativeGasUsed": "0x20cbd",
      "logs": [],
      "logsBloom": "0x00000000000000000000000000000000000000000000000000000000000000000000000000000000000000000000000000000000000000000000000000000000000000000000000000000000000000000000000000000000000000000000000000000000000000000000000000000000000000000000000000000000000000000000000000000000000000000000000000000000000000000000000000000000000000000000000000000000000000000000000000000000000000000000000000000000000000000000000000000000000000000000000000000000000000000000000000000000000000000000000000000000000000000000000000000000",
      "type": "0x2",
      "transactionHash": "0x9b35fa63293fbed09df62935b003222f737596700d6effbdc086c3a8227f26b9",
      "transactionIndex": "0x0",
      "blockHash": "0xad2ec501bd620d1302240b5d437cb7f24a12fdff0c087489db3b2b4c9d7186b4",
      "blockNumber": "0x5d57f7",
      "gasUsed": "0x20cbd",
      "effectiveGasPrice": "0x4a817c8e",
      "blobGasPrice": "0x1",
      "from": "0xf39fd6e51aad88f6f4ce6ab8827279cfffb92266",
      "to": null,
      "contractAddress": "0xad4dfb29d6a4b966032fb0f4a322049b827a9f81",
      "root": "0x0000000000000000000000000000000000000000000000000000000000000000"
    },
    {
      "status": "0x1",
      "cumulativeGasUsed": "0x3267a",
      "logs": [],
      "logsBloom": "0x00000000000000000000000000000000000000000000000000000000000000000000000000000000000000000000000000000000000000000000000000000000000000000000000000000000000000000000000000000000000000000000000000000000000000000000000000000000000000000000000000000000000000000000000000000000000000000000000000000000000000000000000000000000000000000000000000000000000000000000000000000000000000000000000000000000000000000000000000000000000000000000000000000000000000000000000000000000000000000000000000000000000000000000000000000000",
      "type": "0x2",
      "transactionHash": "0x127e8d4c961a7d88f05bb38db0586b97b4566b11f6807a971ad10258b5145b1c",
      "transactionIndex": "0x0",
      "blockHash": "0x6d794a78508a3b9fb6602c30f66b4282617a0d26c447501d73f1f8362032ec41",
      "blockNumber": "0x5d57f8",
      "gasUsed": "0x3267a",
      "effectiveGasPrice": "0x4a817c8e",
      "blobGasPrice": "0x1",
      "from": "0xf39fd6e51aad88f6f4ce6ab8827279cfffb92266",
      "to": null,
      "contractAddress": "0xab99a3d5722e824fcdfe33225c04ae8d8fd85853",
      "root": "0x0000000000000000000000000000000000000000000000000000000000000000"
    },
    {
      "status": "0x1",
      "cumulativeGasUsed": "0x1217ee",
      "logs": [],
      "logsBloom": "0x00000000000000000000000000000000000000000000000000000000000000000000000000000000000000000000000000000000000000000000000000000000000000000000000000000000000000000000000000000000000000000000000000000000000000000000000000000000000000000000000000000000000000000000000000000000000000000000000000000000000000000000000000000000000000000000000000000000000000000000000000000000000000000000000000000000000000000000000000000000000000000000000000000000000000000000000000000000000000000000000000000000000000000000000000000000",
      "type": "0x2",
      "transactionHash": "0xcdfbb23b037ae408d7ab14153ebf0ac98971d451978eea56e0ff48f2928bdcdd",
      "transactionIndex": "0x1",
      "blockHash": "0x6d794a78508a3b9fb6602c30f66b4282617a0d26c447501d73f1f8362032ec41",
      "blockNumber": "0x5d57f8",
      "gasUsed": "0xef174",
      "effectiveGasPrice": "0x4a817c8e",
      "blobGasPrice": "0x1",
      "from": "0xf39fd6e51aad88f6f4ce6ab8827279cfffb92266",
      "to": null,
      "contractAddress": "0xc153794f8db0e8e76cb5fe31fb01a5869a73d6a7",
      "root": "0x0000000000000000000000000000000000000000000000000000000000000000"
    },
    {
      "status": "0x1",
      "cumulativeGasUsed": "0xab276",
      "logs": [],
      "logsBloom": "0x00000000000000000000000000000000000000000000000000000000000000000000000000000000000000000000000000000000000000000000000000000000000000000000000000000000000000000000000000000000000000000000000000000000000000000000000000000000000000000000000000000000000000000000000000000000000000000000000000000000000000000000000000000000000000000000000000000000000000000000000000000000000000000000000000000000000000000000000000000000000000000000000000000000000000000000000000000000000000000000000000000000000000000000000000000000",
      "type": "0x2",
      "transactionHash": "0x649a2b494ce1444cf0db63b8bfc8c39a6bd20bfb6ce2397b2a9f4a48e520ae36",
      "transactionIndex": "0x0",
      "blockHash": "0x02d780227287d1fd69976e74d580509a06e376c2a2e2ac6d8652129d97590fa4",
      "blockNumber": "0x5d57f9",
      "gasUsed": "0xab276",
      "effectiveGasPrice": "0x4a817c8e",
      "blobGasPrice": "0x1",
      "from": "0xf39fd6e51aad88f6f4ce6ab8827279cfffb92266",
      "to": null,
      "contractAddress": "0x5490fe6fa588de32fc1a015a3ac2bc5521cfb367",
      "root": "0x0000000000000000000000000000000000000000000000000000000000000000"
    },
    {
      "status": "0x1",
      "cumulativeGasUsed": "0x12c0d6",
      "logs": [
        {
          "address": "0xdb11917272722d88d801b86536375fd86e1ae28a",
          "topics": [
            "0x8be0079c531659141344cd1fd0a4f28419497f9722a3daafe3b4186f6b6457e0",
            "0x0000000000000000000000000000000000000000000000000000000000000000",
            "0x000000000000000000000000f39fd6e51aad88f6f4ce6ab8827279cfffb92266"
          ],
          "data": "0x",
          "blockHash": "0x02d780227287d1fd69976e74d580509a06e376c2a2e2ac6d8652129d97590fa4",
          "blockNumber": "0x5d57f9",
          "blockTimestamp": "0x666e92fe",
          "transactionHash": "0xdaf77e1f30369d611bbd4d3a9fb0fe7c374643c1caac6a17167c636428c0051f",
          "transactionIndex": "0x1",
          "logIndex": "0x0",
          "removed": false
        }
      ],
      "logsBloom": "0x00000000000000000000000000000000000000000008000000800000000000000000000000000000000000000000000000000000000000000000000000000000000000000000000002000000000000000001000000000000000000000000000000000000020000000000000100000800000000000000000000000000000000400000000000000000000000000008000000000000000000000000000000000000000000000000000000000000000000000000000000000000000000000000000000000000000000200000000000000000000000002000000000000000000020000000000000000000000000000000000000000000000000000000000000000000",
      "type": "0x2",
      "transactionHash": "0xdaf77e1f30369d611bbd4d3a9fb0fe7c374643c1caac6a17167c636428c0051f",
      "transactionIndex": "0x1",
      "blockHash": "0x02d780227287d1fd69976e74d580509a06e376c2a2e2ac6d8652129d97590fa4",
      "blockNumber": "0x5d57f9",
      "gasUsed": "0x80e60",
      "effectiveGasPrice": "0x4a817c8e",
      "blobGasPrice": "0x1",
      "from": "0xf39fd6e51aad88f6f4ce6ab8827279cfffb92266",
      "to": null,
      "contractAddress": "0xdb11917272722d88d801b86536375fd86e1ae28a",
      "root": "0x0000000000000000000000000000000000000000000000000000000000000000"
    },
    {
      "status": "0x1",
      "cumulativeGasUsed": "0x143893",
      "logs": [
        {
          "address": "0xdb11917272722d88d801b86536375fd86e1ae28a",
          "topics": [
            "0xbe533f538959a17d76f1b09e966e741ee3b1183099682f96216c93d21feaecba"
          ],
          "data": "0x8ca89f7700000000000000000000000000000000000000000000000000000000",
          "blockHash": "0x02d780227287d1fd69976e74d580509a06e376c2a2e2ac6d8652129d97590fa4",
          "blockNumber": "0x5d57f9",
          "blockTimestamp": "0x666e92fe",
          "transactionHash": "0x46e839c3c14e9fc2410221fd416c677542e03c2d18f4c249444f5aacae33ffc6",
          "transactionIndex": "0x2",
          "logIndex": "0x1",
          "removed": false
        },
        {
          "address": "0xdb11917272722d88d801b86536375fd86e1ae28a",
          "topics": [
            "0xda3c8142b3c1d27633026f55bfcb4eeb0b5b8db0daa0a3e10c2213a441722ad1"
          ],
          "data": "0x8ca89f770000000000000000000000000000000000000000000000000000000000000000000000000000000027344181f731a5b1868a55696e20785564c5ebb0",
          "blockHash": "0x02d780227287d1fd69976e74d580509a06e376c2a2e2ac6d8652129d97590fa4",
          "blockNumber": "0x5d57f9",
          "blockTimestamp": "0x666e92fe",
          "transactionHash": "0x46e839c3c14e9fc2410221fd416c677542e03c2d18f4c249444f5aacae33ffc6",
          "transactionIndex": "0x2",
          "logIndex": "0x2",
          "removed": false
        }
      ],
      "logsBloom": "0x00000000000000000000000000000000000000000008000000000000000000080000000000000000000000000000000000000000000000000000000000000000000000000000000002000000000000000000000000000000000000000000000000000000000000000000200000000000000000000000000010000000000000000000000000000000000000000008100000000000000000000000000000000000000000000000000000004000080000000000000000000000000000000000000000000000000000000000000000000000000000000000000000000000000000000000000000000000000000000000000000000000000000000000000000000000",
      "type": "0x2",
      "transactionHash": "0x46e839c3c14e9fc2410221fd416c677542e03c2d18f4c249444f5aacae33ffc6",
      "transactionIndex": "0x2",
      "blockHash": "0x02d780227287d1fd69976e74d580509a06e376c2a2e2ac6d8652129d97590fa4",
      "blockNumber": "0x5d57f9",
      "gasUsed": "0x177bd",
      "effectiveGasPrice": "0x4a817c8e",
      "blobGasPrice": "0x1",
      "from": "0xf39fd6e51aad88f6f4ce6ab8827279cfffb92266",
      "to": "0xdb11917272722d88d801b86536375fd86e1ae28a",
      "contractAddress": null,
      "root": "0x0000000000000000000000000000000000000000000000000000000000000000"
    },
    {
      "status": "0x1",
      "cumulativeGasUsed": "0x152d1a",
      "logs": [
        {
          "address": "0xdb11917272722d88d801b86536375fd86e1ae28a",
          "topics": [
            "0xbe533f538959a17d76f1b09e966e741ee3b1183099682f96216c93d21feaecba"
          ],
          "data": "0xdc1ec0e500000000000000000000000000000000000000000000000000000000",
          "blockHash": "0x02d780227287d1fd69976e74d580509a06e376c2a2e2ac6d8652129d97590fa4",
          "blockNumber": "0x5d57f9",
          "blockTimestamp": "0x666e92fe",
          "transactionHash": "0xa0f9ebcfe3bf14644f4a94e13069caae7912cbb780a7158747278b3265d64dd2",
          "transactionIndex": "0x3",
          "logIndex": "0x3",
          "removed": false
        },
        {
          "address": "0xdb11917272722d88d801b86536375fd86e1ae28a",
          "topics": [
            "0xda3c8142b3c1d27633026f55bfcb4eeb0b5b8db0daa0a3e10c2213a441722ad1"
          ],
          "data": "0xdc1ec0e5000000000000000000000000000000000000000000000000000000000000000000000000000000001132c42430c0261b9f11368be4497f0c09bac105",
          "blockHash": "0x02d780227287d1fd69976e74d580509a06e376c2a2e2ac6d8652129d97590fa4",
          "blockNumber": "0x5d57f9",
          "blockTimestamp": "0x666e92fe",
          "transactionHash": "0xa0f9ebcfe3bf14644f4a94e13069caae7912cbb780a7158747278b3265d64dd2",
          "transactionIndex": "0x3",
          "logIndex": "0x4",
          "removed": false
        }
      ],
      "logsBloom": "0x00000000000000000000000000000000000000000008000000000000000000080000000000000000000000000000000000000000000000000000000000000000000000000000000002000000000000000000000000000000000000000000000000000000000000000000200000000000000000000000000010000000000000000000000000000000000000000008100000000000000000000000000000000000000000000000000000004000080000000000000000000000000000000000000000000000000000000000000000000000000000000000000000000000000000000000000000000000000000000000000000000000000000000000000000000000",
      "type": "0x2",
      "transactionHash": "0xa0f9ebcfe3bf14644f4a94e13069caae7912cbb780a7158747278b3265d64dd2",
      "transactionIndex": "0x3",
      "blockHash": "0x02d780227287d1fd69976e74d580509a06e376c2a2e2ac6d8652129d97590fa4",
      "blockNumber": "0x5d57f9",
      "gasUsed": "0xf487",
      "effectiveGasPrice": "0x4a817c8e",
      "blobGasPrice": "0x1",
      "from": "0xf39fd6e51aad88f6f4ce6ab8827279cfffb92266",
      "to": "0xdb11917272722d88d801b86536375fd86e1ae28a",
      "contractAddress": null,
      "root": "0x0000000000000000000000000000000000000000000000000000000000000000"
    },
    {
      "status": "0x1",
      "cumulativeGasUsed": "0xf6e9",
      "logs": [
        {
          "address": "0xdb11917272722d88d801b86536375fd86e1ae28a",
          "topics": [
            "0xbe533f538959a17d76f1b09e966e741ee3b1183099682f96216c93d21feaecba"
          ],
          "data": "0x9f46786e00000000000000000000000000000000000000000000000000000000",
          "blockHash": "0xf419ad21ddf85b63c7a26d69a670ad7054cf8c7f1f07e837da4fd0ec5581c537",
          "blockNumber": "0x5d57fa",
          "blockTimestamp": "0x666e92ff",
          "transactionHash": "0x0f425745c74432f3a06c0a7a150d8f93e98f36e0efb1652d004207e90f1b6086",
          "transactionIndex": "0x0",
          "logIndex": "0x0",
          "removed": false
        },
        {
          "address": "0xdb11917272722d88d801b86536375fd86e1ae28a",
          "topics": [
            "0xda3c8142b3c1d27633026f55bfcb4eeb0b5b8db0daa0a3e10c2213a441722ad1"
          ],
          "data": "0x9f46786e000000000000000000000000000000000000000000000000000000000000000000000000000000009f27ca2527bf6b4d0d1908f1bb3aaccfa5094b36",
          "blockHash": "0xf419ad21ddf85b63c7a26d69a670ad7054cf8c7f1f07e837da4fd0ec5581c537",
          "blockNumber": "0x5d57fa",
          "blockTimestamp": "0x666e92ff",
          "transactionHash": "0x0f425745c74432f3a06c0a7a150d8f93e98f36e0efb1652d004207e90f1b6086",
          "transactionIndex": "0x0",
          "logIndex": "0x1",
          "removed": false
        }
      ],
      "logsBloom": "0x00000000000000000000000000000000000000000008000000000000000000080000000000000000000000000000000000000000000000000000000000000000000000000000000002000000000000000000000000000000000000000000000000000000000000000000200000000000000000000000000010000000000000000000000000000000000000000008100000000000000000000000000000000000000000000000000000004000080000000000000000000000000000000000000000000000000000000000000000000000000000000000000000000000000000000000000000000000000000000000000000000000000000000000000000000000",
      "type": "0x2",
      "transactionHash": "0x0f425745c74432f3a06c0a7a150d8f93e98f36e0efb1652d004207e90f1b6086",
      "transactionIndex": "0x0",
      "blockHash": "0xf419ad21ddf85b63c7a26d69a670ad7054cf8c7f1f07e837da4fd0ec5581c537",
      "blockNumber": "0x5d57fa",
      "gasUsed": "0xf6e9",
      "effectiveGasPrice": "0x4a817c8e",
      "blobGasPrice": "0x1",
      "from": "0xf39fd6e51aad88f6f4ce6ab8827279cfffb92266",
      "to": "0xdb11917272722d88d801b86536375fd86e1ae28a",
      "contractAddress": null,
      "root": "0x0000000000000000000000000000000000000000000000000000000000000000"
    },
    {
      "status": "0x1",
      "cumulativeGasUsed": "0xf94b",
      "logs": [
        {
          "address": "0xdb11917272722d88d801b86536375fd86e1ae28a",
          "topics": [
            "0xbe533f538959a17d76f1b09e966e741ee3b1183099682f96216c93d21feaecba"
          ],
          "data": "0x603d9eb700000000000000000000000000000000000000000000000000000000",
          "blockHash": "0x408102fddfb0acc37c0578ca823cab954d6bc355deaa555bf66f32adf586d697",
          "blockNumber": "0x5d57fb",
          "blockTimestamp": "0x666e9300",
          "transactionHash": "0x1f85e7f3de040063ec84b83f2a5bab753303277c516c50bbbdb01e7b76fa9ee3",
          "transactionIndex": "0x0",
          "logIndex": "0x0",
          "removed": false
        },
        {
          "address": "0xdb11917272722d88d801b86536375fd86e1ae28a",
          "topics": [
            "0xda3c8142b3c1d27633026f55bfcb4eeb0b5b8db0daa0a3e10c2213a441722ad1"
          ],
          "data": "0x603d9eb70000000000000000000000000000000000000000000000000000000000000000000000000000000006cc4850b309dc6ddf541a1896cd0209a769a6fa",
          "blockHash": "0x408102fddfb0acc37c0578ca823cab954d6bc355deaa555bf66f32adf586d697",
          "blockNumber": "0x5d57fb",
          "blockTimestamp": "0x666e9300",
          "transactionHash": "0x1f85e7f3de040063ec84b83f2a5bab753303277c516c50bbbdb01e7b76fa9ee3",
          "transactionIndex": "0x0",
          "logIndex": "0x1",
          "removed": false
        }
      ],
      "logsBloom": "0x00000000000000000000000000000000000000000008000000000000000000080000000000000000000000000000000000000000000000000000000000000000000000000000000002000000000000000000000000000000000000000000000000000000000000000000200000000000000000000000000010000000000000000000000000000000000000000008100000000000000000000000000000000000000000000000000000004000080000000000000000000000000000000000000000000000000000000000000000000000000000000000000000000000000000000000000000000000000000000000000000000000000000000000000000000000",
      "type": "0x2",
      "transactionHash": "0x1f85e7f3de040063ec84b83f2a5bab753303277c516c50bbbdb01e7b76fa9ee3",
      "transactionIndex": "0x0",
      "blockHash": "0x408102fddfb0acc37c0578ca823cab954d6bc355deaa555bf66f32adf586d697",
      "blockNumber": "0x5d57fb",
      "gasUsed": "0xf94b",
      "effectiveGasPrice": "0x4a817c8e",
      "blobGasPrice": "0x1",
      "from": "0xf39fd6e51aad88f6f4ce6ab8827279cfffb92266",
      "to": "0xdb11917272722d88d801b86536375fd86e1ae28a",
      "contractAddress": null,
      "root": "0x0000000000000000000000000000000000000000000000000000000000000000"
    },
    {
      "status": "0x1",
      "cumulativeGasUsed": "0xfbad",
      "logs": [
        {
          "address": "0xdb11917272722d88d801b86536375fd86e1ae28a",
          "topics": [
            "0xbe533f538959a17d76f1b09e966e741ee3b1183099682f96216c93d21feaecba"
          ],
          "data": "0xc5b3644100000000000000000000000000000000000000000000000000000000",
          "blockHash": "0x26e572170e953b1b50afb5875b7df2487f0d1ee38c845234f683200f8a4538e1",
          "blockNumber": "0x5d57fc",
          "blockTimestamp": "0x666e9301",
          "transactionHash": "0xf7ce997cbaf579261338d3fc5c729eb47f473cfe5febe8209c6c69966e76c853",
          "transactionIndex": "0x0",
          "logIndex": "0x0",
          "removed": false
        },
        {
          "address": "0xdb11917272722d88d801b86536375fd86e1ae28a",
          "topics": [
            "0xda3c8142b3c1d27633026f55bfcb4eeb0b5b8db0daa0a3e10c2213a441722ad1"
          ],
          "data": "0xc5b3644100000000000000000000000000000000000000000000000000000000000000000000000000000000334f807241354c2fde9d782adfa336f99818c973",
          "blockHash": "0x26e572170e953b1b50afb5875b7df2487f0d1ee38c845234f683200f8a4538e1",
          "blockNumber": "0x5d57fc",
          "blockTimestamp": "0x666e9301",
          "transactionHash": "0xf7ce997cbaf579261338d3fc5c729eb47f473cfe5febe8209c6c69966e76c853",
          "transactionIndex": "0x0",
          "logIndex": "0x1",
          "removed": false
        }
      ],
      "logsBloom": "0x00000000000000000000000000000000000000000008000000000000000000080000000000000000000000000000000000000000000000000000000000000000000000000000000002000000000000000000000000000000000000000000000000000000000000000000200000000000000000000000000010000000000000000000000000000000000000000008100000000000000000000000000000000000000000000000000000004000080000000000000000000000000000000000000000000000000000000000000000000000000000000000000000000000000000000000000000000000000000000000000000000000000000000000000000000000",
      "type": "0x2",
      "transactionHash": "0xf7ce997cbaf579261338d3fc5c729eb47f473cfe5febe8209c6c69966e76c853",
      "transactionIndex": "0x0",
      "blockHash": "0x26e572170e953b1b50afb5875b7df2487f0d1ee38c845234f683200f8a4538e1",
      "blockNumber": "0x5d57fc",
      "gasUsed": "0xfbad",
      "effectiveGasPrice": "0x4a817c8e",
      "blobGasPrice": "0x1",
      "from": "0xf39fd6e51aad88f6f4ce6ab8827279cfffb92266",
      "to": "0xdb11917272722d88d801b86536375fd86e1ae28a",
      "contractAddress": null,
      "root": "0x0000000000000000000000000000000000000000000000000000000000000000"
    },
    {
      "status": "0x1",
      "cumulativeGasUsed": "0xfe0f",
      "logs": [
        {
          "address": "0xdb11917272722d88d801b86536375fd86e1ae28a",
          "topics": [
            "0xbe533f538959a17d76f1b09e966e741ee3b1183099682f96216c93d21feaecba"
          ],
          "data": "0xe69b9edc00000000000000000000000000000000000000000000000000000000",
          "blockHash": "0xbc4fe17213eebce76fbb99bc92504ea140a6571d039aff724fd93a73118e2dcd",
          "blockNumber": "0x5d57fd",
          "blockTimestamp": "0x666e9302",
          "transactionHash": "0x32ad119feed8a38f16903e231969070fe4287580d9d4282b957c9b5d54c83794",
          "transactionIndex": "0x0",
          "logIndex": "0x0",
          "removed": false
        },
        {
          "address": "0xdb11917272722d88d801b86536375fd86e1ae28a",
          "topics": [
            "0xda3c8142b3c1d27633026f55bfcb4eeb0b5b8db0daa0a3e10c2213a441722ad1"
          ],
          "data": "0xe69b9edc00000000000000000000000000000000000000000000000000000000000000000000000000000000334f807241354c2fde9d782adfa336f99818c973",
          "blockHash": "0xbc4fe17213eebce76fbb99bc92504ea140a6571d039aff724fd93a73118e2dcd",
          "blockNumber": "0x5d57fd",
          "blockTimestamp": "0x666e9302",
          "transactionHash": "0x32ad119feed8a38f16903e231969070fe4287580d9d4282b957c9b5d54c83794",
          "transactionIndex": "0x0",
          "logIndex": "0x1",
          "removed": false
        }
      ],
      "logsBloom": "0x00000000000000000000000000000000000000000008000000000000000000080000000000000000000000000000000000000000000000000000000000000000000000000000000002000000000000000000000000000000000000000000000000000000000000000000200000000000000000000000000010000000000000000000000000000000000000000008100000000000000000000000000000000000000000000000000000004000080000000000000000000000000000000000000000000000000000000000000000000000000000000000000000000000000000000000000000000000000000000000000000000000000000000000000000000000",
      "type": "0x2",
      "transactionHash": "0x32ad119feed8a38f16903e231969070fe4287580d9d4282b957c9b5d54c83794",
      "transactionIndex": "0x0",
      "blockHash": "0xbc4fe17213eebce76fbb99bc92504ea140a6571d039aff724fd93a73118e2dcd",
      "blockNumber": "0x5d57fd",
      "gasUsed": "0xfe0f",
      "effectiveGasPrice": "0x4a817c8e",
      "blobGasPrice": "0x1",
      "from": "0xf39fd6e51aad88f6f4ce6ab8827279cfffb92266",
      "to": "0xdb11917272722d88d801b86536375fd86e1ae28a",
      "contractAddress": null,
      "root": "0x0000000000000000000000000000000000000000000000000000000000000000"
    },
    {
      "status": "0x1",
      "cumulativeGasUsed": "0x1fe80",
      "logs": [
        {
          "address": "0xdb11917272722d88d801b86536375fd86e1ae28a",
          "topics": [
            "0xbe533f538959a17d76f1b09e966e741ee3b1183099682f96216c93d21feaecba"
          ],
          "data": "0xed8b6b3100000000000000000000000000000000000000000000000000000000",
          "blockHash": "0xbc4fe17213eebce76fbb99bc92504ea140a6571d039aff724fd93a73118e2dcd",
          "blockNumber": "0x5d57fd",
          "blockTimestamp": "0x666e9302",
          "transactionHash": "0x84cfeccd07a50718b1a771323be0a3da509bb8346ca3a06f73000ea32eea2e40",
          "transactionIndex": "0x1",
          "logIndex": "0x2",
          "removed": false
        },
        {
          "address": "0xdb11917272722d88d801b86536375fd86e1ae28a",
          "topics": [
            "0xda3c8142b3c1d27633026f55bfcb4eeb0b5b8db0daa0a3e10c2213a441722ad1"
          ],
          "data": "0xed8b6b31000000000000000000000000000000000000000000000000000000000000000000000000000000005ea9d2424595865c7a7c77e0bca33cb22eeced6b",
          "blockHash": "0xbc4fe17213eebce76fbb99bc92504ea140a6571d039aff724fd93a73118e2dcd",
          "blockNumber": "0x5d57fd",
          "blockTimestamp": "0x666e9302",
          "transactionHash": "0x84cfeccd07a50718b1a771323be0a3da509bb8346ca3a06f73000ea32eea2e40",
          "transactionIndex": "0x1",
          "logIndex": "0x3",
          "removed": false
        }
      ],
      "logsBloom": "0x00000000000000000000000000000000000000000008000000000000000000080000000000000000000000000000000000000000000000000000000000000000000000000000000002000000000000000000000000000000000000000000000000000000000000000000200000000000000000000000000010000000000000000000000000000000000000000008100000000000000000000000000000000000000000000000000000004000080000000000000000000000000000000000000000000000000000000000000000000000000000000000000000000000000000000000000000000000000000000000000000000000000000000000000000000000",
      "type": "0x2",
      "transactionHash": "0x84cfeccd07a50718b1a771323be0a3da509bb8346ca3a06f73000ea32eea2e40",
      "transactionIndex": "0x1",
      "blockHash": "0xbc4fe17213eebce76fbb99bc92504ea140a6571d039aff724fd93a73118e2dcd",
      "blockNumber": "0x5d57fd",
      "gasUsed": "0x10071",
      "effectiveGasPrice": "0x4a817c8e",
      "blobGasPrice": "0x1",
      "from": "0xf39fd6e51aad88f6f4ce6ab8827279cfffb92266",
      "to": "0xdb11917272722d88d801b86536375fd86e1ae28a",
      "contractAddress": null,
      "root": "0x0000000000000000000000000000000000000000000000000000000000000000"
    },
    {
      "status": "0x1",
      "cumulativeGasUsed": "0x102d3",
      "logs": [
        {
          "address": "0xdb11917272722d88d801b86536375fd86e1ae28a",
          "topics": [
            "0xbe533f538959a17d76f1b09e966e741ee3b1183099682f96216c93d21feaecba"
          ],
          "data": "0xfe0d94c100000000000000000000000000000000000000000000000000000000",
          "blockHash": "0x6d3eeff3f6229ed45f59128260fba918d10b1d7a845764f974fd0a0b7fa5dc75",
          "blockNumber": "0x5d57fe",
          "blockTimestamp": "0x666e9303",
          "transactionHash": "0xf60395c077df2513dd16bba5dc8c2e2314e6e6e84694a5f4d463aea92dd641e9",
          "transactionIndex": "0x0",
          "logIndex": "0x0",
          "removed": false
        },
        {
          "address": "0xdb11917272722d88d801b86536375fd86e1ae28a",
          "topics": [
            "0xda3c8142b3c1d27633026f55bfcb4eeb0b5b8db0daa0a3e10c2213a441722ad1"
          ],
          "data": "0xfe0d94c10000000000000000000000000000000000000000000000000000000000000000000000000000000017874e0534f9586f71478be4faaac4297b9bba70",
          "blockHash": "0x6d3eeff3f6229ed45f59128260fba918d10b1d7a845764f974fd0a0b7fa5dc75",
          "blockNumber": "0x5d57fe",
          "blockTimestamp": "0x666e9303",
          "transactionHash": "0xf60395c077df2513dd16bba5dc8c2e2314e6e6e84694a5f4d463aea92dd641e9",
          "transactionIndex": "0x0",
          "logIndex": "0x1",
          "removed": false
        }
      ],
      "logsBloom": "0x00000000000000000000000000000000000000000008000000000000000000080000000000000000000000000000000000000000000000000000000000000000000000000000000002000000000000000000000000000000000000000000000000000000000000000000200000000000000000000000000010000000000000000000000000000000000000000008100000000000000000000000000000000000000000000000000000004000080000000000000000000000000000000000000000000000000000000000000000000000000000000000000000000000000000000000000000000000000000000000000000000000000000000000000000000000",
      "type": "0x2",
      "transactionHash": "0xf60395c077df2513dd16bba5dc8c2e2314e6e6e84694a5f4d463aea92dd641e9",
      "transactionIndex": "0x0",
      "blockHash": "0x6d3eeff3f6229ed45f59128260fba918d10b1d7a845764f974fd0a0b7fa5dc75",
      "blockNumber": "0x5d57fe",
      "gasUsed": "0x102d3",
      "effectiveGasPrice": "0x4a817c8e",
      "blobGasPrice": "0x1",
      "from": "0xf39fd6e51aad88f6f4ce6ab8827279cfffb92266",
      "to": "0xdb11917272722d88d801b86536375fd86e1ae28a",
      "contractAddress": null,
      "root": "0x0000000000000000000000000000000000000000000000000000000000000000"
    },
    {
      "status": "0x1",
      "cumulativeGasUsed": "0x25272",
      "logs": [
        {
          "address": "0xdb11917272722d88d801b86536375fd86e1ae28a",
          "topics": [
            "0xbe533f538959a17d76f1b09e966e741ee3b1183099682f96216c93d21feaecba"
          ],
          "data": "0x06f7e36d00000000000000000000000000000000000000000000000000000000",
          "blockHash": "0x6d3eeff3f6229ed45f59128260fba918d10b1d7a845764f974fd0a0b7fa5dc75",
          "blockNumber": "0x5d57fe",
          "blockTimestamp": "0x666e9303",
          "transactionHash": "0xfaf3a1f8d160f8562ffd76664b2c5522570d6d380f0f0a04405a6e4ee234ecb3",
          "transactionIndex": "0x1",
          "logIndex": "0x2",
          "removed": false
        },
        {
          "address": "0xdb11917272722d88d801b86536375fd86e1ae28a",
          "topics": [
            "0xda3c8142b3c1d27633026f55bfcb4eeb0b5b8db0daa0a3e10c2213a441722ad1"
          ],
          "data": "0x06f7e36d00000000000000000000000000000000000000000000000000000000000000000000000000000000828c0824b87dbffb3849019334f9164498c99ba3",
          "blockHash": "0x6d3eeff3f6229ed45f59128260fba918d10b1d7a845764f974fd0a0b7fa5dc75",
          "blockNumber": "0x5d57fe",
          "blockTimestamp": "0x666e9303",
          "transactionHash": "0xfaf3a1f8d160f8562ffd76664b2c5522570d6d380f0f0a04405a6e4ee234ecb3",
          "transactionIndex": "0x1",
          "logIndex": "0x3",
          "removed": false
        }
      ],
      "logsBloom": "0x00000000000000000000000000000000000000000008000000000000000000080000000000000000000000000000000000000000000000000000000000000000000000000000000002000000000000000000000000000000000000000000000000000000000000000000200000000000000000000000000010000000000000000000000000000000000000000008100000000000000000000000000000000000000000000000000000004000080000000000000000000000000000000000000000000000000000000000000000000000000000000000000000000000000000000000000000000000000000000000000000000000000000000000000000000000",
      "type": "0x2",
      "transactionHash": "0xfaf3a1f8d160f8562ffd76664b2c5522570d6d380f0f0a04405a6e4ee234ecb3",
      "transactionIndex": "0x1",
      "blockHash": "0x6d3eeff3f6229ed45f59128260fba918d10b1d7a845764f974fd0a0b7fa5dc75",
      "blockNumber": "0x5d57fe",
      "gasUsed": "0x14f9f",
      "effectiveGasPrice": "0x4a817c8e",
      "blobGasPrice": "0x1",
      "from": "0xf39fd6e51aad88f6f4ce6ab8827279cfffb92266",
      "to": "0xdb11917272722d88d801b86536375fd86e1ae28a",
      "contractAddress": null,
      "root": "0x0000000000000000000000000000000000000000000000000000000000000000"
    },
    {
      "status": "0x1",
      "cumulativeGasUsed": "0x10f35",
      "logs": [
        {
          "address": "0xdb11917272722d88d801b86536375fd86e1ae28a",
          "topics": [
            "0xbe533f538959a17d76f1b09e966e741ee3b1183099682f96216c93d21feaecba"
          ],
          "data": "0x5cefc4ad00000000000000000000000000000000000000000000000000000000",
          "blockHash": "0x07aeead8a16f9af75efedeaf783d18d86751ff3246e956e0056609e65a9e8c18",
          "blockNumber": "0x5d57ff",
          "blockTimestamp": "0x666e9304",
          "transactionHash": "0xc3eb6a71ab3c62fbbbcad7323b654ae18c42b9f1a87cd5df0f5697d79a438058",
          "transactionIndex": "0x0",
          "logIndex": "0x0",
          "removed": false
        },
        {
          "address": "0xdb11917272722d88d801b86536375fd86e1ae28a",
          "topics": [
            "0xda3c8142b3c1d27633026f55bfcb4eeb0b5b8db0daa0a3e10c2213a441722ad1"
          ],
          "data": "0x5cefc4ad000000000000000000000000000000000000000000000000000000000000000000000000000000008b2be592c8e9b98d8a385f71c98c7ca80cb82f8b",
          "blockHash": "0x07aeead8a16f9af75efedeaf783d18d86751ff3246e956e0056609e65a9e8c18",
          "blockNumber": "0x5d57ff",
          "blockTimestamp": "0x666e9304",
          "transactionHash": "0xc3eb6a71ab3c62fbbbcad7323b654ae18c42b9f1a87cd5df0f5697d79a438058",
          "transactionIndex": "0x0",
          "logIndex": "0x1",
          "removed": false
        }
      ],
      "logsBloom": "0x00000000000000000000000000000000000000000008000000000000000000080000000000000000000000000000000000000000000000000000000000000000000000000000000002000000000000000000000000000000000000000000000000000000000000000000200000000000000000000000000010000000000000000000000000000000000000000008100000000000000000000000000000000000000000000000000000004000080000000000000000000000000000000000000000000000000000000000000000000000000000000000000000000000000000000000000000000000000000000000000000000000000000000000000000000000",
      "type": "0x2",
      "transactionHash": "0xc3eb6a71ab3c62fbbbcad7323b654ae18c42b9f1a87cd5df0f5697d79a438058",
      "transactionIndex": "0x0",
      "blockHash": "0x07aeead8a16f9af75efedeaf783d18d86751ff3246e956e0056609e65a9e8c18",
      "blockNumber": "0x5d57ff",
      "gasUsed": "0x10f35",
      "effectiveGasPrice": "0x4a817c8e",
      "blobGasPrice": "0x1",
      "from": "0xf39fd6e51aad88f6f4ce6ab8827279cfffb92266",
      "to": "0xdb11917272722d88d801b86536375fd86e1ae28a",
      "contractAddress": null,
      "root": "0x0000000000000000000000000000000000000000000000000000000000000000"
    },
    {
      "status": "0x1",
      "cumulativeGasUsed": "0x11197",
      "logs": [
        {
          "address": "0xdb11917272722d88d801b86536375fd86e1ae28a",
          "topics": [
            "0xbe533f538959a17d76f1b09e966e741ee3b1183099682f96216c93d21feaecba"
          ],
          "data": "0x9f31e87b00000000000000000000000000000000000000000000000000000000",
          "blockHash": "0x5837c6771015915f2a8b496e555bf5012f418cf4eb0602cf29606f96f80c3d73",
          "blockNumber": "0x5d5800",
          "blockTimestamp": "0x666e9305",
          "transactionHash": "0x9403050e6b0e3cf50861d8cb084e4863f28bc72fda652f4ae42a19551e88bc97",
          "transactionIndex": "0x0",
          "logIndex": "0x0",
          "removed": false
        },
        {
          "address": "0xdb11917272722d88d801b86536375fd86e1ae28a",
          "topics": [
            "0xda3c8142b3c1d27633026f55bfcb4eeb0b5b8db0daa0a3e10c2213a441722ad1"
          ],
          "data": "0x9f31e87b00000000000000000000000000000000000000000000000000000000000000000000000000000000ad4dfb29d6a4b966032fb0f4a322049b827a9f81",
          "blockHash": "0x5837c6771015915f2a8b496e555bf5012f418cf4eb0602cf29606f96f80c3d73",
          "blockNumber": "0x5d5800",
          "blockTimestamp": "0x666e9305",
          "transactionHash": "0x9403050e6b0e3cf50861d8cb084e4863f28bc72fda652f4ae42a19551e88bc97",
          "transactionIndex": "0x0",
          "logIndex": "0x1",
          "removed": false
        }
      ],
      "logsBloom": "0x00000000000000000000000000000000000000000008000000000000000000080000000000000000000000000000000000000000000000000000000000000000000000000000000002000000000000000000000000000000000000000000000000000000000000000000200000000000000000000000000010000000000000000000000000000000000000000008100000000000000000000000000000000000000000000000000000004000080000000000000000000000000000000000000000000000000000000000000000000000000000000000000000000000000000000000000000000000000000000000000000000000000000000000000000000000",
      "type": "0x2",
      "transactionHash": "0x9403050e6b0e3cf50861d8cb084e4863f28bc72fda652f4ae42a19551e88bc97",
      "transactionIndex": "0x0",
      "blockHash": "0x5837c6771015915f2a8b496e555bf5012f418cf4eb0602cf29606f96f80c3d73",
      "blockNumber": "0x5d5800",
      "gasUsed": "0x11197",
      "effectiveGasPrice": "0x4a817c8e",
      "blobGasPrice": "0x1",
      "from": "0xf39fd6e51aad88f6f4ce6ab8827279cfffb92266",
      "to": "0xdb11917272722d88d801b86536375fd86e1ae28a",
      "contractAddress": null,
      "root": "0x0000000000000000000000000000000000000000000000000000000000000000"
    },
    {
      "status": "0x1",
      "cumulativeGasUsed": "0x113f9",
      "logs": [
        {
          "address": "0xdb11917272722d88d801b86536375fd86e1ae28a",
          "topics": [
            "0xbe533f538959a17d76f1b09e966e741ee3b1183099682f96216c93d21feaecba"
          ],
          "data": "0x9877696700000000000000000000000000000000000000000000000000000000",
          "blockHash": "0x046728dd58f0f76bf538a796966f777077462fc3b1543267c0340b2a5afcd33a",
          "blockNumber": "0x5d5801",
          "blockTimestamp": "0x666e9306",
          "transactionHash": "0x114d976e345115f3b4bbd0f7e7a70eb261b03f18b1e210e128224e92382dd23c",
          "transactionIndex": "0x0",
          "logIndex": "0x0",
          "removed": false
        },
        {
          "address": "0xdb11917272722d88d801b86536375fd86e1ae28a",
          "topics": [
            "0xda3c8142b3c1d27633026f55bfcb4eeb0b5b8db0daa0a3e10c2213a441722ad1"
          ],
          "data": "0x9877696700000000000000000000000000000000000000000000000000000000000000000000000000000000ab99a3d5722e824fcdfe33225c04ae8d8fd85853",
          "blockHash": "0x046728dd58f0f76bf538a796966f777077462fc3b1543267c0340b2a5afcd33a",
          "blockNumber": "0x5d5801",
          "blockTimestamp": "0x666e9306",
          "transactionHash": "0x114d976e345115f3b4bbd0f7e7a70eb261b03f18b1e210e128224e92382dd23c",
          "transactionIndex": "0x0",
          "logIndex": "0x1",
          "removed": false
        }
      ],
      "logsBloom": "0x00000000000000000000000000000000000000000008000000000000000000080000000000000000000000000000000000000000000000000000000000000000000000000000000002000000000000000000000000000000000000000000000000000000000000000000200000000000000000000000000010000000000000000000000000000000000000000008100000000000000000000000000000000000000000000000000000004000080000000000000000000000000000000000000000000000000000000000000000000000000000000000000000000000000000000000000000000000000000000000000000000000000000000000000000000000",
      "type": "0x2",
      "transactionHash": "0x114d976e345115f3b4bbd0f7e7a70eb261b03f18b1e210e128224e92382dd23c",
      "transactionIndex": "0x0",
      "blockHash": "0x046728dd58f0f76bf538a796966f777077462fc3b1543267c0340b2a5afcd33a",
      "blockNumber": "0x5d5801",
      "gasUsed": "0x113f9",
      "effectiveGasPrice": "0x4a817c8e",
      "blobGasPrice": "0x1",
      "from": "0xf39fd6e51aad88f6f4ce6ab8827279cfffb92266",
      "to": "0xdb11917272722d88d801b86536375fd86e1ae28a",
      "contractAddress": null,
      "root": "0x0000000000000000000000000000000000000000000000000000000000000000"
    },
    {
      "status": "0x1",
      "cumulativeGasUsed": "0x1165b",
      "logs": [
        {
          "address": "0xdb11917272722d88d801b86536375fd86e1ae28a",
          "topics": [
            "0xbe533f538959a17d76f1b09e966e741ee3b1183099682f96216c93d21feaecba"
          ],
          "data": "0xc7f758a800000000000000000000000000000000000000000000000000000000",
          "blockHash": "0x40e1376a7b86d2f116b8f4416e595ba6081c9bb018667f18174cebdaae6cdedb",
          "blockNumber": "0x5d5802",
          "blockTimestamp": "0x666e9307",
          "transactionHash": "0x261f0c3b01e4f64cfcf479dc1963cba75ef054e0a1abb36a38b89819a2af2b93",
          "transactionIndex": "0x0",
          "logIndex": "0x0",
          "removed": false
        },
        {
          "address": "0xdb11917272722d88d801b86536375fd86e1ae28a",
          "topics": [
            "0xda3c8142b3c1d27633026f55bfcb4eeb0b5b8db0daa0a3e10c2213a441722ad1"
          ],
          "data": "0xc7f758a800000000000000000000000000000000000000000000000000000000000000000000000000000000c153794f8db0e8e76cb5fe31fb01a5869a73d6a7",
          "blockHash": "0x40e1376a7b86d2f116b8f4416e595ba6081c9bb018667f18174cebdaae6cdedb",
          "blockNumber": "0x5d5802",
          "blockTimestamp": "0x666e9307",
          "transactionHash": "0x261f0c3b01e4f64cfcf479dc1963cba75ef054e0a1abb36a38b89819a2af2b93",
          "transactionIndex": "0x0",
          "logIndex": "0x1",
          "removed": false
        }
      ],
      "logsBloom": "0x00000000000000000000000000000000000000000008000000000000000000080000000000000000000000000000000000000000000000000000000000000000000000000000000002000000000000000000000000000000000000000000000000000000000000000000200000000000000000000000000010000000000000000000000000000000000000000008100000000000000000000000000000000000000000000000000000004000080000000000000000000000000000000000000000000000000000000000000000000000000000000000000000000000000000000000000000000000000000000000000000000000000000000000000000000000",
      "type": "0x2",
      "transactionHash": "0x261f0c3b01e4f64cfcf479dc1963cba75ef054e0a1abb36a38b89819a2af2b93",
      "transactionIndex": "0x0",
      "blockHash": "0x40e1376a7b86d2f116b8f4416e595ba6081c9bb018667f18174cebdaae6cdedb",
      "blockNumber": "0x5d5802",
      "gasUsed": "0x1165b",
      "effectiveGasPrice": "0x4a817c8e",
      "blobGasPrice": "0x1",
      "from": "0xf39fd6e51aad88f6f4ce6ab8827279cfffb92266",
      "to": "0xdb11917272722d88d801b86536375fd86e1ae28a",
      "contractAddress": null,
      "root": "0x0000000000000000000000000000000000000000000000000000000000000000"
    },
    {
      "status": "0x1",
      "cumulativeGasUsed": "0x118bd",
      "logs": [
        {
          "address": "0xdb11917272722d88d801b86536375fd86e1ae28a",
          "topics": [
            "0xbe533f538959a17d76f1b09e966e741ee3b1183099682f96216c93d21feaecba"
          ],
          "data": "0x6c996f8800000000000000000000000000000000000000000000000000000000",
          "blockHash": "0xce40023c184d5f0de554cc7779a28646570b0b8c0ded7ea359c4d0bec3969b17",
          "blockNumber": "0x5d5803",
          "blockTimestamp": "0x666e9308",
          "transactionHash": "0xecbce08ac3268a538ae57b7b93d8632f48d528279793d1edb09103e43f71afb8",
          "transactionIndex": "0x0",
          "logIndex": "0x0",
          "removed": false
        },
        {
          "address": "0xdb11917272722d88d801b86536375fd86e1ae28a",
          "topics": [
            "0xda3c8142b3c1d27633026f55bfcb4eeb0b5b8db0daa0a3e10c2213a441722ad1"
          ],
          "data": "0x6c996f8800000000000000000000000000000000000000000000000000000000000000000000000000000000c153794f8db0e8e76cb5fe31fb01a5869a73d6a7",
          "blockHash": "0xce40023c184d5f0de554cc7779a28646570b0b8c0ded7ea359c4d0bec3969b17",
          "blockNumber": "0x5d5803",
          "blockTimestamp": "0x666e9308",
          "transactionHash": "0xecbce08ac3268a538ae57b7b93d8632f48d528279793d1edb09103e43f71afb8",
          "transactionIndex": "0x0",
          "logIndex": "0x1",
          "removed": false
        }
      ],
      "logsBloom": "0x00000000000000000000000000000000000000000008000000000000000000080000000000000000000000000000000000000000000000000000000000000000000000000000000002000000000000000000000000000000000000000000000000000000000000000000200000000000000000000000000010000000000000000000000000000000000000000008100000000000000000000000000000000000000000000000000000004000080000000000000000000000000000000000000000000000000000000000000000000000000000000000000000000000000000000000000000000000000000000000000000000000000000000000000000000000",
      "type": "0x2",
      "transactionHash": "0xecbce08ac3268a538ae57b7b93d8632f48d528279793d1edb09103e43f71afb8",
      "transactionIndex": "0x0",
      "blockHash": "0xce40023c184d5f0de554cc7779a28646570b0b8c0ded7ea359c4d0bec3969b17",
      "blockNumber": "0x5d5803",
      "gasUsed": "0x118bd",
      "effectiveGasPrice": "0x4a817c8e",
      "blobGasPrice": "0x1",
      "from": "0xf39fd6e51aad88f6f4ce6ab8827279cfffb92266",
      "to": "0xdb11917272722d88d801b86536375fd86e1ae28a",
      "contractAddress": null,
      "root": "0x0000000000000000000000000000000000000000000000000000000000000000"
    },
    {
      "status": "0x1",
      "cumulativeGasUsed": "0x233dc",
      "logs": [
        {
          "address": "0xdb11917272722d88d801b86536375fd86e1ae28a",
          "topics": [
            "0xbe533f538959a17d76f1b09e966e741ee3b1183099682f96216c93d21feaecba"
          ],
          "data": "0xe810995300000000000000000000000000000000000000000000000000000000",
          "blockHash": "0xce40023c184d5f0de554cc7779a28646570b0b8c0ded7ea359c4d0bec3969b17",
          "blockNumber": "0x5d5803",
          "blockTimestamp": "0x666e9308",
          "transactionHash": "0xac7ac28f807289e9d56b191bea01864c4ec3c19e3ca600fd2a6690e8a46475dc",
          "transactionIndex": "0x1",
          "logIndex": "0x2",
          "removed": false
        },
        {
          "address": "0xdb11917272722d88d801b86536375fd86e1ae28a",
          "topics": [
            "0xda3c8142b3c1d27633026f55bfcb4eeb0b5b8db0daa0a3e10c2213a441722ad1"
          ],
          "data": "0xe810995300000000000000000000000000000000000000000000000000000000000000000000000000000000c153794f8db0e8e76cb5fe31fb01a5869a73d6a7",
          "blockHash": "0xce40023c184d5f0de554cc7779a28646570b0b8c0ded7ea359c4d0bec3969b17",
          "blockNumber": "0x5d5803",
          "blockTimestamp": "0x666e9308",
          "transactionHash": "0xac7ac28f807289e9d56b191bea01864c4ec3c19e3ca600fd2a6690e8a46475dc",
          "transactionIndex": "0x1",
          "logIndex": "0x3",
          "removed": false
        }
      ],
      "logsBloom": "0x00000000000000000000000000000000000000000008000000000000000000080000000000000000000000000000000000000000000000000000000000000000000000000000000002000000000000000000000000000000000000000000000000000000000000000000200000000000000000000000000010000000000000000000000000000000000000000008100000000000000000000000000000000000000000000000000000004000080000000000000000000000000000000000000000000000000000000000000000000000000000000000000000000000000000000000000000000000000000000000000000000000000000000000000000000000",
      "type": "0x2",
      "transactionHash": "0xac7ac28f807289e9d56b191bea01864c4ec3c19e3ca600fd2a6690e8a46475dc",
      "transactionIndex": "0x1",
      "blockHash": "0xce40023c184d5f0de554cc7779a28646570b0b8c0ded7ea359c4d0bec3969b17",
      "blockNumber": "0x5d5803",
      "gasUsed": "0x11b1f",
      "effectiveGasPrice": "0x4a817c8e",
      "blobGasPrice": "0x1",
      "from": "0xf39fd6e51aad88f6f4ce6ab8827279cfffb92266",
      "to": "0xdb11917272722d88d801b86536375fd86e1ae28a",
      "contractAddress": null,
      "root": "0x0000000000000000000000000000000000000000000000000000000000000000"
    },
    {
      "status": "0x1",
      "cumulativeGasUsed": "0x11d81",
      "logs": [
        {
          "address": "0xdb11917272722d88d801b86536375fd86e1ae28a",
          "topics": [
            "0xbe533f538959a17d76f1b09e966e741ee3b1183099682f96216c93d21feaecba"
          ],
          "data": "0x787e0fe000000000000000000000000000000000000000000000000000000000",
          "blockHash": "0x64161ce88403f3befe323efad0802b9ac5e4bfb68579a34e3b6e67f5620d76ed",
          "blockNumber": "0x5d5804",
          "blockTimestamp": "0x666e9309",
          "transactionHash": "0xcef611aba2b17837ce90d9f244c9c024e449f402c7510a18a5d54b44ad601acf",
          "transactionIndex": "0x0",
          "logIndex": "0x0",
          "removed": false
        },
        {
          "address": "0xdb11917272722d88d801b86536375fd86e1ae28a",
          "topics": [
            "0xda3c8142b3c1d27633026f55bfcb4eeb0b5b8db0daa0a3e10c2213a441722ad1"
          ],
          "data": "0x787e0fe000000000000000000000000000000000000000000000000000000000000000000000000000000000c153794f8db0e8e76cb5fe31fb01a5869a73d6a7",
          "blockHash": "0x64161ce88403f3befe323efad0802b9ac5e4bfb68579a34e3b6e67f5620d76ed",
          "blockNumber": "0x5d5804",
          "blockTimestamp": "0x666e9309",
          "transactionHash": "0xcef611aba2b17837ce90d9f244c9c024e449f402c7510a18a5d54b44ad601acf",
          "transactionIndex": "0x0",
          "logIndex": "0x1",
          "removed": false
        }
      ],
      "logsBloom": "0x00000000000000000000000000000000000000000008000000000000000000080000000000000000000000000000000000000000000000000000000000000000000000000000000002000000000000000000000000000000000000000000000000000000000000000000200000000000000000000000000010000000000000000000000000000000000000000008100000000000000000000000000000000000000000000000000000004000080000000000000000000000000000000000000000000000000000000000000000000000000000000000000000000000000000000000000000000000000000000000000000000000000000000000000000000000",
      "type": "0x2",
      "transactionHash": "0xcef611aba2b17837ce90d9f244c9c024e449f402c7510a18a5d54b44ad601acf",
      "transactionIndex": "0x0",
      "blockHash": "0x64161ce88403f3befe323efad0802b9ac5e4bfb68579a34e3b6e67f5620d76ed",
      "blockNumber": "0x5d5804",
      "gasUsed": "0x11d81",
      "effectiveGasPrice": "0x4a817c8e",
      "blobGasPrice": "0x1",
      "from": "0xf39fd6e51aad88f6f4ce6ab8827279cfffb92266",
      "to": "0xdb11917272722d88d801b86536375fd86e1ae28a",
      "contractAddress": null,
      "root": "0x0000000000000000000000000000000000000000000000000000000000000000"
    },
    {
      "status": "0x1",
      "cumulativeGasUsed": "0x287ce",
      "logs": [
        {
          "address": "0xdb11917272722d88d801b86536375fd86e1ae28a",
          "topics": [
            "0xbe533f538959a17d76f1b09e966e741ee3b1183099682f96216c93d21feaecba"
          ],
          "data": "0xa4c5e9cb00000000000000000000000000000000000000000000000000000000",
          "blockHash": "0x64161ce88403f3befe323efad0802b9ac5e4bfb68579a34e3b6e67f5620d76ed",
          "blockNumber": "0x5d5804",
          "blockTimestamp": "0x666e9309",
          "transactionHash": "0xd899190b36370e68edfcd837ee398fd766d2b5d03f18c5c4dc14d45c9b8f7574",
          "transactionIndex": "0x1",
          "logIndex": "0x2",
          "removed": false
        },
        {
          "address": "0xdb11917272722d88d801b86536375fd86e1ae28a",
          "topics": [
            "0xda3c8142b3c1d27633026f55bfcb4eeb0b5b8db0daa0a3e10c2213a441722ad1"
          ],
          "data": "0xa4c5e9cb00000000000000000000000000000000000000000000000000000000000000000000000000000000c153794f8db0e8e76cb5fe31fb01a5869a73d6a7",
          "blockHash": "0x64161ce88403f3befe323efad0802b9ac5e4bfb68579a34e3b6e67f5620d76ed",
          "blockNumber": "0x5d5804",
          "blockTimestamp": "0x666e9309",
          "transactionHash": "0xd899190b36370e68edfcd837ee398fd766d2b5d03f18c5c4dc14d45c9b8f7574",
          "transactionIndex": "0x1",
          "logIndex": "0x3",
          "removed": false
        }
      ],
      "logsBloom": "0x00000000000000000000000000000000000000000008000000000000000000080000000000000000000000000000000000000000000000000000000000000000000000000000000002000000000000000000000000000000000000000000000000000000000000000000200000000000000000000000000010000000000000000000000000000000000000000008100000000000000000000000000000000000000000000000000000004000080000000000000000000000000000000000000000000000000000000000000000000000000000000000000000000000000000000000000000000000000000000000000000000000000000000000000000000000",
      "type": "0x2",
      "transactionHash": "0xd899190b36370e68edfcd837ee398fd766d2b5d03f18c5c4dc14d45c9b8f7574",
      "transactionIndex": "0x1",
      "blockHash": "0x64161ce88403f3befe323efad0802b9ac5e4bfb68579a34e3b6e67f5620d76ed",
      "blockNumber": "0x5d5804",
      "gasUsed": "0x16a4d",
      "effectiveGasPrice": "0x4a817c8e",
      "blobGasPrice": "0x1",
      "from": "0xf39fd6e51aad88f6f4ce6ab8827279cfffb92266",
      "to": "0xdb11917272722d88d801b86536375fd86e1ae28a",
      "contractAddress": null,
      "root": "0x0000000000000000000000000000000000000000000000000000000000000000"
    },
    {
      "status": "0x1",
      "cumulativeGasUsed": "0x129e3",
      "logs": [
        {
          "address": "0xdb11917272722d88d801b86536375fd86e1ae28a",
          "topics": [
            "0xbe533f538959a17d76f1b09e966e741ee3b1183099682f96216c93d21feaecba"
          ],
          "data": "0x7f4ef9d400000000000000000000000000000000000000000000000000000000",
          "blockHash": "0xed8d02221b0c6b7c739c4b3cacf42806cbc0a78c47fb01a35ddd6ec538202f00",
          "blockNumber": "0x5d5805",
          "blockTimestamp": "0x666e930a",
          "transactionHash": "0xf803ac239689979f7f6a8d78cae981d6186f30936cf25d1670686d897cfc31c1",
          "transactionIndex": "0x0",
          "logIndex": "0x0",
          "removed": false
        },
        {
          "address": "0xdb11917272722d88d801b86536375fd86e1ae28a",
          "topics": [
            "0xda3c8142b3c1d27633026f55bfcb4eeb0b5b8db0daa0a3e10c2213a441722ad1"
          ],
          "data": "0x7f4ef9d400000000000000000000000000000000000000000000000000000000000000000000000000000000c153794f8db0e8e76cb5fe31fb01a5869a73d6a7",
          "blockHash": "0xed8d02221b0c6b7c739c4b3cacf42806cbc0a78c47fb01a35ddd6ec538202f00",
          "blockNumber": "0x5d5805",
          "blockTimestamp": "0x666e930a",
          "transactionHash": "0xf803ac239689979f7f6a8d78cae981d6186f30936cf25d1670686d897cfc31c1",
          "transactionIndex": "0x0",
          "logIndex": "0x1",
          "removed": false
        }
      ],
      "logsBloom": "0x00000000000000000000000000000000000000000008000000000000000000080000000000000000000000000000000000000000000000000000000000000000000000000000000002000000000000000000000000000000000000000000000000000000000000000000200000000000000000000000000010000000000000000000000000000000000000000008100000000000000000000000000000000000000000000000000000004000080000000000000000000000000000000000000000000000000000000000000000000000000000000000000000000000000000000000000000000000000000000000000000000000000000000000000000000000",
      "type": "0x2",
      "transactionHash": "0xf803ac239689979f7f6a8d78cae981d6186f30936cf25d1670686d897cfc31c1",
      "transactionIndex": "0x0",
      "blockHash": "0xed8d02221b0c6b7c739c4b3cacf42806cbc0a78c47fb01a35ddd6ec538202f00",
      "blockNumber": "0x5d5805",
      "gasUsed": "0x129e3",
      "effectiveGasPrice": "0x4a817c8e",
      "blobGasPrice": "0x1",
      "from": "0xf39fd6e51aad88f6f4ce6ab8827279cfffb92266",
      "to": "0xdb11917272722d88d801b86536375fd86e1ae28a",
      "contractAddress": null,
      "root": "0x0000000000000000000000000000000000000000000000000000000000000000"
    },
    {
      "status": "0x1",
      "cumulativeGasUsed": "0x12c45",
      "logs": [
        {
          "address": "0xdb11917272722d88d801b86536375fd86e1ae28a",
          "topics": [
            "0xbe533f538959a17d76f1b09e966e741ee3b1183099682f96216c93d21feaecba"
          ],
          "data": "0x2b7efac100000000000000000000000000000000000000000000000000000000",
          "blockHash": "0xc6a89b005dde25b1991da819f85e51aa13f8f30fa59750916d873620225992f1",
          "blockNumber": "0x5d5806",
          "blockTimestamp": "0x666e930b",
          "transactionHash": "0x6ce8f3e2fcef1619c1e8788eac6f016556ea52e07f86202ef838d6da8006e573",
          "transactionIndex": "0x0",
          "logIndex": "0x0",
          "removed": false
        },
        {
          "address": "0xdb11917272722d88d801b86536375fd86e1ae28a",
          "topics": [
            "0xda3c8142b3c1d27633026f55bfcb4eeb0b5b8db0daa0a3e10c2213a441722ad1"
          ],
          "data": "0x2b7efac100000000000000000000000000000000000000000000000000000000000000000000000000000000c153794f8db0e8e76cb5fe31fb01a5869a73d6a7",
          "blockHash": "0xc6a89b005dde25b1991da819f85e51aa13f8f30fa59750916d873620225992f1",
          "blockNumber": "0x5d5806",
          "blockTimestamp": "0x666e930b",
          "transactionHash": "0x6ce8f3e2fcef1619c1e8788eac6f016556ea52e07f86202ef838d6da8006e573",
          "transactionIndex": "0x0",
          "logIndex": "0x1",
          "removed": false
        }
      ],
      "logsBloom": "0x00000000000000000000000000000000000000000008000000000000000000080000000000000000000000000000000000000000000000000000000000000000000000000000000002000000000000000000000000000000000000000000000000000000000000000000200000000000000000000000000010000000000000000000000000000000000000000008100000000000000000000000000000000000000000000000000000004000080000000000000000000000000000000000000000000000000000000000000000000000000000000000000000000000000000000000000000000000000000000000000000000000000000000000000000000000",
      "type": "0x2",
      "transactionHash": "0x6ce8f3e2fcef1619c1e8788eac6f016556ea52e07f86202ef838d6da8006e573",
      "transactionIndex": "0x0",
      "blockHash": "0xc6a89b005dde25b1991da819f85e51aa13f8f30fa59750916d873620225992f1",
      "blockNumber": "0x5d5806",
      "gasUsed": "0x12c45",
      "effectiveGasPrice": "0x4a817c8e",
      "blobGasPrice": "0x1",
      "from": "0xf39fd6e51aad88f6f4ce6ab8827279cfffb92266",
      "to": "0xdb11917272722d88d801b86536375fd86e1ae28a",
      "contractAddress": null,
      "root": "0x0000000000000000000000000000000000000000000000000000000000000000"
    },
    {
      "status": "0x1",
      "cumulativeGasUsed": "0x12ea7",
      "logs": [
        {
          "address": "0xdb11917272722d88d801b86536375fd86e1ae28a",
          "topics": [
            "0xbe533f538959a17d76f1b09e966e741ee3b1183099682f96216c93d21feaecba"
          ],
          "data": "0xab3545e500000000000000000000000000000000000000000000000000000000",
          "blockHash": "0xe01f33f4c0245b167ee9bbe5ab304df279921218876641a0c6219eb9e2d46383",
          "blockNumber": "0x5d5807",
          "blockTimestamp": "0x666e930c",
          "transactionHash": "0x9389d9dc90b7d09c9b8b9f8e1d1040472ef4dbb207c4ef1453bf936ed98790f5",
          "transactionIndex": "0x0",
          "logIndex": "0x0",
          "removed": false
        },
        {
          "address": "0xdb11917272722d88d801b86536375fd86e1ae28a",
          "topics": [
            "0xda3c8142b3c1d27633026f55bfcb4eeb0b5b8db0daa0a3e10c2213a441722ad1"
          ],
          "data": "0xab3545e500000000000000000000000000000000000000000000000000000000000000000000000000000000c153794f8db0e8e76cb5fe31fb01a5869a73d6a7",
          "blockHash": "0xe01f33f4c0245b167ee9bbe5ab304df279921218876641a0c6219eb9e2d46383",
          "blockNumber": "0x5d5807",
          "blockTimestamp": "0x666e930c",
          "transactionHash": "0x9389d9dc90b7d09c9b8b9f8e1d1040472ef4dbb207c4ef1453bf936ed98790f5",
          "transactionIndex": "0x0",
          "logIndex": "0x1",
          "removed": false
        }
      ],
      "logsBloom": "0x00000000000000000000000000000000000000000008000000000000000000080000000000000000000000000000000000000000000000000000000000000000000000000000000002000000000000000000000000000000000000000000000000000000000000000000200000000000000000000000000010000000000000000000000000000000000000000008100000000000000000000000000000000000000000000000000000004000080000000000000000000000000000000000000000000000000000000000000000000000000000000000000000000000000000000000000000000000000000000000000000000000000000000000000000000000",
      "type": "0x2",
      "transactionHash": "0x9389d9dc90b7d09c9b8b9f8e1d1040472ef4dbb207c4ef1453bf936ed98790f5",
      "transactionIndex": "0x0",
      "blockHash": "0xe01f33f4c0245b167ee9bbe5ab304df279921218876641a0c6219eb9e2d46383",
      "blockNumber": "0x5d5807",
      "gasUsed": "0x12ea7",
      "effectiveGasPrice": "0x4a817c8e",
      "blobGasPrice": "0x1",
      "from": "0xf39fd6e51aad88f6f4ce6ab8827279cfffb92266",
      "to": "0xdb11917272722d88d801b86536375fd86e1ae28a",
      "contractAddress": null,
      "root": "0x0000000000000000000000000000000000000000000000000000000000000000"
    },
    {
      "status": "0x1",
      "cumulativeGasUsed": "0x13109",
      "logs": [
        {
          "address": "0xdb11917272722d88d801b86536375fd86e1ae28a",
          "topics": [
            "0xbe533f538959a17d76f1b09e966e741ee3b1183099682f96216c93d21feaecba"
          ],
          "data": "0xcb37be9e00000000000000000000000000000000000000000000000000000000",
          "blockHash": "0xe2b522b6bcde1c7f6b0d8a17dd3c7cf34ce5223c8125cf013d718476f25d2e92",
          "blockNumber": "0x5d5808",
          "blockTimestamp": "0x666e930d",
          "transactionHash": "0x20c8c8eff3e499ee982d4a86e986f32caca343f0ba986827cec583700c9ff7fe",
          "transactionIndex": "0x0",
          "logIndex": "0x0",
          "removed": false
        },
        {
          "address": "0xdb11917272722d88d801b86536375fd86e1ae28a",
          "topics": [
            "0xda3c8142b3c1d27633026f55bfcb4eeb0b5b8db0daa0a3e10c2213a441722ad1"
          ],
          "data": "0xcb37be9e00000000000000000000000000000000000000000000000000000000000000000000000000000000c153794f8db0e8e76cb5fe31fb01a5869a73d6a7",
          "blockHash": "0xe2b522b6bcde1c7f6b0d8a17dd3c7cf34ce5223c8125cf013d718476f25d2e92",
          "blockNumber": "0x5d5808",
          "blockTimestamp": "0x666e930d",
          "transactionHash": "0x20c8c8eff3e499ee982d4a86e986f32caca343f0ba986827cec583700c9ff7fe",
          "transactionIndex": "0x0",
          "logIndex": "0x1",
          "removed": false
        }
      ],
      "logsBloom": "0x00000000000000000000000000000000000000000008000000000000000000080000000000000000000000000000000000000000000000000000000000000000000000000000000002000000000000000000000000000000000000000000000000000000000000000000200000000000000000000000000010000000000000000000000000000000000000000008100000000000000000000000000000000000000000000000000000004000080000000000000000000000000000000000000000000000000000000000000000000000000000000000000000000000000000000000000000000000000000000000000000000000000000000000000000000000",
      "type": "0x2",
      "transactionHash": "0x20c8c8eff3e499ee982d4a86e986f32caca343f0ba986827cec583700c9ff7fe",
      "transactionIndex": "0x0",
      "blockHash": "0xe2b522b6bcde1c7f6b0d8a17dd3c7cf34ce5223c8125cf013d718476f25d2e92",
      "blockNumber": "0x5d5808",
      "gasUsed": "0x13109",
      "effectiveGasPrice": "0x4a817c8e",
      "blobGasPrice": "0x1",
      "from": "0xf39fd6e51aad88f6f4ce6ab8827279cfffb92266",
      "to": "0xdb11917272722d88d801b86536375fd86e1ae28a",
      "contractAddress": null,
      "root": "0x0000000000000000000000000000000000000000000000000000000000000000"
    },
    {
      "status": "0x1",
      "cumulativeGasUsed": "0x1336b",
      "logs": [
        {
          "address": "0xdb11917272722d88d801b86536375fd86e1ae28a",
          "topics": [
            "0xbe533f538959a17d76f1b09e966e741ee3b1183099682f96216c93d21feaecba"
          ],
          "data": "0xc1e582ba00000000000000000000000000000000000000000000000000000000",
          "blockHash": "0x7c4486fc78637eb792ad2d424c1d289d54838fce5cb52aa4815d9da8272ca7e2",
          "blockNumber": "0x5d5809",
          "blockTimestamp": "0x666e930e",
          "transactionHash": "0x085ce29812ea85090f53d5843fd6d5d688cede91afacdf7ebd69322e0b5b24ab",
          "transactionIndex": "0x0",
          "logIndex": "0x0",
          "removed": false
        },
        {
          "address": "0xdb11917272722d88d801b86536375fd86e1ae28a",
          "topics": [
            "0xda3c8142b3c1d27633026f55bfcb4eeb0b5b8db0daa0a3e10c2213a441722ad1"
          ],
          "data": "0xc1e582ba00000000000000000000000000000000000000000000000000000000000000000000000000000000c153794f8db0e8e76cb5fe31fb01a5869a73d6a7",
          "blockHash": "0x7c4486fc78637eb792ad2d424c1d289d54838fce5cb52aa4815d9da8272ca7e2",
          "blockNumber": "0x5d5809",
          "blockTimestamp": "0x666e930e",
          "transactionHash": "0x085ce29812ea85090f53d5843fd6d5d688cede91afacdf7ebd69322e0b5b24ab",
          "transactionIndex": "0x0",
          "logIndex": "0x1",
          "removed": false
        }
      ],
      "logsBloom": "0x00000000000000000000000000000000000000000008000000000000000000080000000000000000000000000000000000000000000000000000000000000000000000000000000002000000000000000000000000000000000000000000000000000000000000000000200000000000000000000000000010000000000000000000000000000000000000000008100000000000000000000000000000000000000000000000000000004000080000000000000000000000000000000000000000000000000000000000000000000000000000000000000000000000000000000000000000000000000000000000000000000000000000000000000000000000",
      "type": "0x2",
      "transactionHash": "0x085ce29812ea85090f53d5843fd6d5d688cede91afacdf7ebd69322e0b5b24ab",
      "transactionIndex": "0x0",
      "blockHash": "0x7c4486fc78637eb792ad2d424c1d289d54838fce5cb52aa4815d9da8272ca7e2",
      "blockNumber": "0x5d5809",
      "gasUsed": "0x1336b",
      "effectiveGasPrice": "0x4a817c8e",
      "blobGasPrice": "0x1",
      "from": "0xf39fd6e51aad88f6f4ce6ab8827279cfffb92266",
      "to": "0xdb11917272722d88d801b86536375fd86e1ae28a",
      "contractAddress": null,
      "root": "0x0000000000000000000000000000000000000000000000000000000000000000"
    },
    {
      "status": "0x1",
      "cumulativeGasUsed": "0x135cd",
      "logs": [
        {
          "address": "0xdb11917272722d88d801b86536375fd86e1ae28a",
          "topics": [
            "0xbe533f538959a17d76f1b09e966e741ee3b1183099682f96216c93d21feaecba"
          ],
          "data": "0x2a2c16a000000000000000000000000000000000000000000000000000000000",
          "blockHash": "0x7a67e3fd6566bb411c06c8e19410c90c8712f537545100e76e96970cf43108f4",
          "blockNumber": "0x5d580a",
          "blockTimestamp": "0x666e930f",
          "transactionHash": "0x227d16a696e5859a846bb29670d2fd2b1b6b3d21e5484ba8a2c17d86c6e8fb6e",
          "transactionIndex": "0x0",
          "logIndex": "0x0",
          "removed": false
        },
        {
          "address": "0xdb11917272722d88d801b86536375fd86e1ae28a",
          "topics": [
            "0xda3c8142b3c1d27633026f55bfcb4eeb0b5b8db0daa0a3e10c2213a441722ad1"
          ],
          "data": "0x2a2c16a000000000000000000000000000000000000000000000000000000000000000000000000000000000c153794f8db0e8e76cb5fe31fb01a5869a73d6a7",
          "blockHash": "0x7a67e3fd6566bb411c06c8e19410c90c8712f537545100e76e96970cf43108f4",
          "blockNumber": "0x5d580a",
          "blockTimestamp": "0x666e930f",
          "transactionHash": "0x227d16a696e5859a846bb29670d2fd2b1b6b3d21e5484ba8a2c17d86c6e8fb6e",
          "transactionIndex": "0x0",
          "logIndex": "0x1",
          "removed": false
        }
      ],
      "logsBloom": "0x00000000000000000000000000000000000000000008000000000000000000080000000000000000000000000000000000000000000000000000000000000000000000000000000002000000000000000000000000000000000000000000000000000000000000000000200000000000000000000000000010000000000000000000000000000000000000000008100000000000000000000000000000000000000000000000000000004000080000000000000000000000000000000000000000000000000000000000000000000000000000000000000000000000000000000000000000000000000000000000000000000000000000000000000000000000",
      "type": "0x2",
      "transactionHash": "0x227d16a696e5859a846bb29670d2fd2b1b6b3d21e5484ba8a2c17d86c6e8fb6e",
      "transactionIndex": "0x0",
      "blockHash": "0x7a67e3fd6566bb411c06c8e19410c90c8712f537545100e76e96970cf43108f4",
      "blockNumber": "0x5d580a",
      "gasUsed": "0x135cd",
      "effectiveGasPrice": "0x4a817c8e",
      "blobGasPrice": "0x1",
      "from": "0xf39fd6e51aad88f6f4ce6ab8827279cfffb92266",
      "to": "0xdb11917272722d88d801b86536375fd86e1ae28a",
      "contractAddress": null,
      "root": "0x0000000000000000000000000000000000000000000000000000000000000000"
    },
    {
      "status": "0x1",
      "cumulativeGasUsed": "0x26dfc",
      "logs": [
        {
          "address": "0xdb11917272722d88d801b86536375fd86e1ae28a",
          "topics": [
            "0xbe533f538959a17d76f1b09e966e741ee3b1183099682f96216c93d21feaecba"
          ],
          "data": "0xde3d9fb700000000000000000000000000000000000000000000000000000000",
          "blockHash": "0x7a67e3fd6566bb411c06c8e19410c90c8712f537545100e76e96970cf43108f4",
          "blockNumber": "0x5d580a",
          "blockTimestamp": "0x666e930f",
          "transactionHash": "0x85bd6efa745d6d09277f682744f6011544d74828448d268746262cf4801ec983",
          "transactionIndex": "0x1",
          "logIndex": "0x2",
          "removed": false
        },
        {
          "address": "0xdb11917272722d88d801b86536375fd86e1ae28a",
          "topics": [
            "0xda3c8142b3c1d27633026f55bfcb4eeb0b5b8db0daa0a3e10c2213a441722ad1"
          ],
          "data": "0xde3d9fb700000000000000000000000000000000000000000000000000000000000000000000000000000000c153794f8db0e8e76cb5fe31fb01a5869a73d6a7",
          "blockHash": "0x7a67e3fd6566bb411c06c8e19410c90c8712f537545100e76e96970cf43108f4",
          "blockNumber": "0x5d580a",
          "blockTimestamp": "0x666e930f",
          "transactionHash": "0x85bd6efa745d6d09277f682744f6011544d74828448d268746262cf4801ec983",
          "transactionIndex": "0x1",
          "logIndex": "0x3",
          "removed": false
        }
      ],
      "logsBloom": "0x00000000000000000000000000000000000000000008000000000000000000080000000000000000000000000000000000000000000000000000000000000000000000000000000002000000000000000000000000000000000000000000000000000000000000000000200000000000000000000000000010000000000000000000000000000000000000000008100000000000000000000000000000000000000000000000000000004000080000000000000000000000000000000000000000000000000000000000000000000000000000000000000000000000000000000000000000000000000000000000000000000000000000000000000000000000",
      "type": "0x2",
      "transactionHash": "0x85bd6efa745d6d09277f682744f6011544d74828448d268746262cf4801ec983",
      "transactionIndex": "0x1",
      "blockHash": "0x7a67e3fd6566bb411c06c8e19410c90c8712f537545100e76e96970cf43108f4",
      "blockNumber": "0x5d580a",
      "gasUsed": "0x1382f",
      "effectiveGasPrice": "0x4a817c8e",
      "blobGasPrice": "0x1",
      "from": "0xf39fd6e51aad88f6f4ce6ab8827279cfffb92266",
      "to": "0xdb11917272722d88d801b86536375fd86e1ae28a",
      "contractAddress": null,
      "root": "0x0000000000000000000000000000000000000000000000000000000000000000"
    },
    {
      "status": "0x1",
      "cumulativeGasUsed": "0x184fb",
      "logs": [
        {
          "address": "0xdb11917272722d88d801b86536375fd86e1ae28a",
          "topics": [
            "0xbe533f538959a17d76f1b09e966e741ee3b1183099682f96216c93d21feaecba"
          ],
          "data": "0x9a5ea6a000000000000000000000000000000000000000000000000000000000",
          "blockHash": "0x973db1009cf379946791d629193fe1059f2a790a76250b4eda8fbce9492a43f8",
          "blockNumber": "0x5d580b",
          "blockTimestamp": "0x666e9310",
          "transactionHash": "0x562b6b1129794b12e8a2c420b81663f6c8abab4888cb4e78945b5f7c93dbbd4e",
          "transactionIndex": "0x0",
          "logIndex": "0x0",
          "removed": false
        },
        {
          "address": "0xdb11917272722d88d801b86536375fd86e1ae28a",
          "topics": [
            "0xda3c8142b3c1d27633026f55bfcb4eeb0b5b8db0daa0a3e10c2213a441722ad1"
          ],
          "data": "0x9a5ea6a000000000000000000000000000000000000000000000000000000000000000000000000000000000c153794f8db0e8e76cb5fe31fb01a5869a73d6a7",
          "blockHash": "0x973db1009cf379946791d629193fe1059f2a790a76250b4eda8fbce9492a43f8",
          "blockNumber": "0x5d580b",
          "blockTimestamp": "0x666e9310",
          "transactionHash": "0x562b6b1129794b12e8a2c420b81663f6c8abab4888cb4e78945b5f7c93dbbd4e",
          "transactionIndex": "0x0",
          "logIndex": "0x1",
          "removed": false
        }
      ],
      "logsBloom": "0x00000000000000000000000000000000000000000008000000000000000000080000000000000000000000000000000000000000000000000000000000000000000000000000000002000000000000000000000000000000000000000000000000000000000000000000200000000000000000000000000010000000000000000000000000000000000000000008100000000000000000000000000000000000000000000000000000004000080000000000000000000000000000000000000000000000000000000000000000000000000000000000000000000000000000000000000000000000000000000000000000000000000000000000000000000000",
      "type": "0x2",
      "transactionHash": "0x562b6b1129794b12e8a2c420b81663f6c8abab4888cb4e78945b5f7c93dbbd4e",
      "transactionIndex": "0x0",
      "blockHash": "0x973db1009cf379946791d629193fe1059f2a790a76250b4eda8fbce9492a43f8",
      "blockNumber": "0x5d580b",
      "gasUsed": "0x184fb",
      "effectiveGasPrice": "0x4a817c8e",
      "blobGasPrice": "0x1",
      "from": "0xf39fd6e51aad88f6f4ce6ab8827279cfffb92266",
      "to": "0xdb11917272722d88d801b86536375fd86e1ae28a",
      "contractAddress": null,
      "root": "0x0000000000000000000000000000000000000000000000000000000000000000"
    },
    {
      "status": "0x1",
      "cumulativeGasUsed": "0x2c98c",
      "logs": [
        {
          "address": "0xdb11917272722d88d801b86536375fd86e1ae28a",
          "topics": [
            "0xbe533f538959a17d76f1b09e966e741ee3b1183099682f96216c93d21feaecba"
          ],
          "data": "0x25be10bd00000000000000000000000000000000000000000000000000000000",
          "blockHash": "0x973db1009cf379946791d629193fe1059f2a790a76250b4eda8fbce9492a43f8",
          "blockNumber": "0x5d580b",
          "blockTimestamp": "0x666e9310",
          "transactionHash": "0x3ecf7775b69f087f5bad56b77eaca555a7977c03a9553704481ff609e212e559",
          "transactionIndex": "0x1",
          "logIndex": "0x2",
          "removed": false
        },
        {
          "address": "0xdb11917272722d88d801b86536375fd86e1ae28a",
          "topics": [
            "0xda3c8142b3c1d27633026f55bfcb4eeb0b5b8db0daa0a3e10c2213a441722ad1"
          ],
          "data": "0x25be10bd00000000000000000000000000000000000000000000000000000000000000000000000000000000c153794f8db0e8e76cb5fe31fb01a5869a73d6a7",
          "blockHash": "0x973db1009cf379946791d629193fe1059f2a790a76250b4eda8fbce9492a43f8",
          "blockNumber": "0x5d580b",
          "blockTimestamp": "0x666e9310",
          "transactionHash": "0x3ecf7775b69f087f5bad56b77eaca555a7977c03a9553704481ff609e212e559",
          "transactionIndex": "0x1",
          "logIndex": "0x3",
          "removed": false
        }
      ],
      "logsBloom": "0x00000000000000000000000000000000000000000008000000000000000000080000000000000000000000000000000000000000000000000000000000000000000000000000000002000000000000000000000000000000000000000000000000000000000000000000200000000000000000000000000010000000000000000000000000000000000000000008100000000000000000000000000000000000000000000000000000004000080000000000000000000000000000000000000000000000000000000000000000000000000000000000000000000000000000000000000000000000000000000000000000000000000000000000000000000000",
      "type": "0x2",
      "transactionHash": "0x3ecf7775b69f087f5bad56b77eaca555a7977c03a9553704481ff609e212e559",
      "transactionIndex": "0x1",
      "blockHash": "0x973db1009cf379946791d629193fe1059f2a790a76250b4eda8fbce9492a43f8",
      "blockNumber": "0x5d580b",
      "gasUsed": "0x14491",
      "effectiveGasPrice": "0x4a817c8e",
      "blobGasPrice": "0x1",
      "from": "0xf39fd6e51aad88f6f4ce6ab8827279cfffb92266",
      "to": "0xdb11917272722d88d801b86536375fd86e1ae28a",
      "contractAddress": null,
      "root": "0x0000000000000000000000000000000000000000000000000000000000000000"
    },
    {
      "status": "0x1",
      "cumulativeGasUsed": "0xb871",
      "logs": [
        {
          "address": "0xdb11917272722d88d801b86536375fd86e1ae28a",
          "topics": [
            "0x159f10d3da077d18f228d52be447d552e7d1892d10f7af8f615658160e374729"
          ],
          "data": "0x0000000000000000000000005490fe6fa588de32fc1a015a3ac2bc5521cfb367",
          "blockHash": "0xf51e367c00f2f2db677c0331894c84cbcc0c8305a5d2f3dce373fe52922275e3",
          "blockNumber": "0x5d580c",
          "blockTimestamp": "0x666e9311",
          "transactionHash": "0xb48a60ebdced4ed23fb018954dff4aaced3d019012a39460503741f5c21c836b",
          "transactionIndex": "0x0",
          "logIndex": "0x0",
          "removed": false
        }
      ],
      "logsBloom": "0x00000000000000080000000000000000000000000008000000000000000000000000000000000000000000000200000000000000000000000000000000000000000000000000000002000000000000000000000000000000000000000000000000000000000000000000000000000000000000000000000000000000000000000000000000000000000000000008000000000000000000000000000000000000000000000000000000000000000000000000000000000000000000000000000000000000000000000000000000000000000000000000000000000000000000000000000000000000000000000010000000000000000000000000000000000000",
      "type": "0x2",
      "transactionHash": "0xb48a60ebdced4ed23fb018954dff4aaced3d019012a39460503741f5c21c836b",
      "transactionIndex": "0x0",
      "blockHash": "0xf51e367c00f2f2db677c0331894c84cbcc0c8305a5d2f3dce373fe52922275e3",
      "blockNumber": "0x5d580c",
      "gasUsed": "0xb871",
      "effectiveGasPrice": "0x4a817c8e",
      "blobGasPrice": "0x1",
      "from": "0xf39fd6e51aad88f6f4ce6ab8827279cfffb92266",
      "to": "0xdb11917272722d88d801b86536375fd86e1ae28a",
      "contractAddress": null,
      "root": "0x0000000000000000000000000000000000000000000000000000000000000000"
    },
    {
      "status": "0x1",
      "cumulativeGasUsed": "0x2fa03",
      "logs": [
        {
          "address": "0x5e1cec2e7c9d48db8082384b7f39288fe0735005",
          "topics": [
            "0xa657f2ad315cf3bb35cf1964158da75c3f334481df05a4a1644b2376b17a59b2"
          ],
          "data": "0x000000000000000000000000db11917272722d88d801b86536375fd86e1ae28a",
          "blockHash": "0xe5247628dc65b8e7ad41febf24909822cd3639bc398860df1455f17fe1cf75e2",
          "blockNumber": "0x5d580d",
          "blockTimestamp": "0x666e9312",
          "transactionHash": "0x134be4ebb4661e7e4d9bbdb7490550d8db3220dfaab3aab67401133c853630df",
          "transactionIndex": "0x0",
          "logIndex": "0x0",
          "removed": false
        }
      ],
      "logsBloom": "0x00000800000000000000000000000000000000000000000000000000000000000000000000000000000000000000000000000000000000000000000000000000000000000000000000000000000000000000000000000000000000000000000000000000000004000000000000000000000040000000000000000000000000000000000000000000000000000000000000000000000000000000000000000080000000000000000001000000000000000000000000000000000000000000000000000000000000000000000000000000000000000000000000000000000000000000000000000000000000000000000000000000000008000000000000000000",
      "type": "0x2",
      "transactionHash": "0x134be4ebb4661e7e4d9bbdb7490550d8db3220dfaab3aab67401133c853630df",
      "transactionIndex": "0x0",
      "blockHash": "0xe5247628dc65b8e7ad41febf24909822cd3639bc398860df1455f17fe1cf75e2",
      "blockNumber": "0x5d580d",
      "gasUsed": "0x2fa03",
      "effectiveGasPrice": "0x4a817c8e",
      "blobGasPrice": "0x1",
      "from": "0xf39fd6e51aad88f6f4ce6ab8827279cfffb92266",
      "to": null,
      "contractAddress": "0x5e1cec2e7c9d48db8082384b7f39288fe0735005",
      "root": "0x0000000000000000000000000000000000000000000000000000000000000000"
    }
  ],
  "libraries": [],
  "pending": [],
  "returns": {},
  "timestamp": 1718522629,
  "chain": 11155111,
  "commit": "a9d9536"
}