{
  "transactions": [
    {
      "hash": "0x3c4cfed7b3b57e71dc1c07835df525548af049cfe280766b2a0c889a8ac3c09a",
      "transactionType": "CREATE",
      "contractName": "Vote",
      "contractAddress": "0xe4f49e42badb4a6e87e277a0140e9ce0f3e3b2e0",
      "function": null,
      "arguments": null,
      "transaction": {
        "from": "0xf39fd6e51aad88f6f4ce6ab8827279cfffb92266",
        "gas": "0x70cb1",
        "value": "0x0",
        "input": "0x6080604052348015600f57600080fd5b506105798061001f6000396000f3fe608060405234801561001057600080fd5b50600436106100365760003560e01c8063c5b364411461003b578063e69b9edc14610062575b600080fd5b61004e6100493660046104d3565b610075565b604051901515815260200160405180910390f35b61004e6100703660046104d3565b6102a8565b60008281527f9a70c69f78b954ec2ace8c62308c5ea2ed35f782ee583f10b56d88886fa993006020526040812080546100f55760405162461bcd60e51b815260206004820152601d60248201527f4e6f206865616465727320666f7220746869732070726f706f73616c2e00000060448201526064015b60405180910390fd5b8054833590829060009061010b5761010b610506565b90600052602060002090600402016000015403610169576003818460005b60200201358154811061013e5761013e610506565b9060005260206000209060040201600101600082825461015e919061051c565b909155506102a19050565b80548335908290600190811061018157610181610506565b906000526020600020906004020160000154036101e1578054600390829085359081106101b0576101b0610506565b906000526020600020906004020160010160008282546101d0919061051c565b909155506002905081846001610129565b8054600390829085359081106101f9576101f9610506565b90600052602060002090600402016001016000828254610219919061051c565b90915550600290508184600160200201358154811061023a5761023a610506565b9060005260206000209060040201600101600082825461025a919061051c565b90915550600190508184600260200201358154811061027b5761027b610506565b9060005260206000209060040201600101600082825461029b919061051c565b90915550505b5092915050565b60008281527f9a70c69f78b954ec2ace8c62308c5ea2ed35f782ee583f10b56d88886fa993006020526040812060018101546103265760405162461bcd60e51b815260206004820152601a60248201527f4e6f20636d647320666f7220746869732070726f706f73616c2e00000000000060448201526064016100ec565b6001810180548435919060009061033f5761033f610506565b90600052602060002090600302016000015403610395576003600182018460005b60200201358154811061037557610375610506565b9060005260206000209060030201600201600082825461015e919061051c565b600180820180548535929081106103ae576103ae610506565b90600052602060002090600302016000015403610415576001810180546003919085359081106103e0576103e0610506565b90600052602060002090600302016002016000828254610400919061051c565b90915550600290506001808301908590610360565b60018101805460039190853590811061043057610430610506565b90600052602060002090600302016002016000828254610450919061051c565b909155505060018101805460029190602086013590811061047357610473610506565b90600052602060002090600302016002016000828254610493919061051c565b90915550506001818101805460408601359081106104b3576104b3610506565b9060005260206000209060030201600201600082825461029b919061051c565b600080608083850312156104e657600080fd5b82359150836080840111156104fa57600080fd5b50926020919091019150565b634e487b7160e01b600052603260045260246000fd5b8082018082111561053d57634e487b7160e01b600052601160045260246000fd5b9291505056fea26469706673582212206aebd1d81223f8997aec0df75699faa3b7946524a5cf0365b392c49827d8c34064736f6c634300081a0033",
        "nonce": "0x2116",
        "chainId": "0xaa36a7"
      },
      "additionalContracts": [],
      "isFixedGasLimit": false
    },
    {
      "hash": "0x76d60bdb930b8aefc436d3e7e996927bbb25e2fb4509af310dab4013a922e962",
      "transactionType": "CREATE",
      "contractName": "Clone",
      "contractAddress": "0x0c521eca10d7f98ac98f14bbf6261e0716e2989c",
      "function": null,
      "arguments": null,
      "transaction": {
        "from": "0xf39fd6e51aad88f6f4ce6ab8827279cfffb92266",
        "gas": "0xa38cd",
        "value": "0x0",
        "input": "0x6080604052348015600f57600080fd5b5061085d8061001f6000396000f3fe608060405234801561001057600080fd5b506004361061002b5760003560e01c80638ca89f7714610030575b600080fd5b61004361003e366004610169565b61005f565b6040516001600160a01b03909116815260200160405180910390f35b60006100d16100957f267691be3525af8a813d30db0c9e2bad08f63baecf6dceb85e2cf3676cff56f4546001600160a01b031690565b84848080601f0160208091040260200160405190810160405280939291908181526020018383808284376000920191909152506100d892505050565b9392505050565b600082826040516100e89061015c565b6100f39291906101dd565b604051809103906000f08015801561010f573d6000803e3d6000fd5b50604080516001600160a01b038087168252831660208201529192507f9678a1e87ca9f1a37dc659a97b39d812d98cd236947e1b53b3d0d6fd346acb6e910160405180910390a192915050565b6105ed8061023b83390190565b6000806020838503121561017c57600080fd5b823567ffffffffffffffff81111561019357600080fd5b8301601f810185136101a457600080fd5b803567ffffffffffffffff8111156101bb57600080fd5b8560208284010111156101cd57600080fd5b6020919091019590945092505050565b60018060a01b0383168152604060208201526000825180604084015260005b8181101561021957602081860181015160608684010152016101fc565b506000606082850101526060601f19601f830116840101915050939250505056fe60806040526040516105ed3803806105ed8339810160408190526100229161034b565b61002c828261003c565b6100358261011c565b5050610486565b61004582610160565b6040516001600160a01b03831681527fa657f2ad315cf3bb35cf1964158da75c3f334481df05a4a1644b2376b17a59b29060200160405180910390a18051156101105761010b6001600160a01b03831663dc9cc6456100a384610411565b6040516001600160e01b031960e084901b81168252919091166004820152602401602060405180830381865afa1580156100e1573d6000803e3d6000fd5b505050506040513d601f19601f82011682018060405250810190610105919061044f565b826101d5565b505050565b61011861024c565b5050565b807fa3f0ad74e5423aebfd80d3ef4346578335a9a72aeaee59ff6cb3582b35133d505b80546001600160a01b0319166001600160a01b039290921691909117905550565b806001600160a01b03163b6000036101ae5760405162461bcd60e51b815260206004820152600c60248201526b1393d397d0d3d395149050d560a21b60448201526064015b60405180910390fd5b807f267691be3525af8a813d30db0c9e2bad08f63baecf6dceb85e2cf3676cff56f461013f565b6060600080846001600160a01b0316846040516101f2919061046a565b600060405180830381855af49150503d806000811461022d576040519150601f19603f3d011682016040523d82523d6000602084013e610232565b606091505b50909250905061024385838361026d565b95945050505050565b341561026b5760405163b398979f60e01b815260040160405180910390fd5b565b6060826102825761027d826102cc565b6102c5565b815115801561029957506001600160a01b0384163b155b156102c257604051639996b31560e01b81526001600160a01b03851660048201526024016101a5565b50805b9392505050565b8051156102dc5780518082602001fd5b604051630a12f52160e11b815260040160405180910390fd5b80516001600160a01b038116811461030c57600080fd5b919050565b634e487b7160e01b600052604160045260246000fd5b60005b8381101561034257818101518382015260200161032a565b50506000910152565b6000806040838503121561035e57600080fd5b610367836102f5565b60208401519092506001600160401b0381111561038357600080fd5b8301601f8101851361039457600080fd5b80516001600160401b038111156103ad576103ad610311565b604051601f8201601f19908116603f011681016001600160401b03811182821017156103db576103db610311565b6040528181528282016020018710156103f357600080fd5b610404826020830160208601610327565b8093505050509250929050565b805160208201516001600160e01b0319811691906004821015610448576001600160e01b0319600483900360031b81901b82161692505b5050919050565b60006020828403121561046157600080fd5b6102c5826102f5565b6000825161047c818460208701610327565b9190910192915050565b610158806104956000396000f3fe608060405261000c61000e565b005b61001e610019610020565b6100ce565b565b60006100537f267691be3525af8a813d30db0c9e2bad08f63baecf6dceb85e2cf3676cff56f4546001600160a01b031690565b60405163dc9cc64560e01b81526001600160e01b03196000351660048201526001600160a01b03919091169063dc9cc64590602401602060405180830381865afa1580156100a5573d6000803e3d6000fd5b505050506040513d601f19601f820116820180604052508101906100c991906100f2565b905090565b3660008037600080366000845af43d6000803e8080156100ed573d6000f35b3d6000fd5b60006020828403121561010457600080fd5b81516001600160a01b038116811461011b57600080fd5b939250505056fea2646970667358221220edeb9a03e51fb4befaa08189d6da8fca48148c9e6789ddf587ece46a3ab49f3b64736f6c634300081a0033a2646970667358221220469c656541d2eead9f5dc2821929cf53100c7d005813e6ff26caf71acfba728d64736f6c634300081a0033",
        "nonce": "0x2117",
        "chainId": "0xaa36a7"
      },
      "additionalContracts": [],
      "isFixedGasLimit": false
    },
    {
      "hash": "0xda0bc40eb94155eea2f906761992ee6583a4341f5b0cd795b1ac66fa248a82f4",
      "transactionType": "CREATE",
      "contractName": "Initialize",
      "contractAddress": "0xa7759921f1a8345791cba9960485b47a0d7b0838",
      "function": null,
      "arguments": null,
      "transaction": {
        "from": "0xf39fd6e51aad88f6f4ce6ab8827279cfffb92266",
        "gas": "0x50ef1",
        "value": "0x0",
        "input": "0x6080604052348015600f57600080fd5b506103a68061001f6000396000f3fe608060405234801561001057600080fd5b506004361061002b5760003560e01c8063dc1ec0e514610030575b600080fd5b61004361003e36600461026f565b610057565b604051901515815260200160405180910390f35b7f2909c0a05d58f8b7f14a4ef9b6dfbc139611bb545981c04988c895be90f35001546000907f2909c0a05d58f8b7f14a4ef9b6dfbc139611bb545981c04988c895be90f3500090156100ef5760405162461bcd60e51b815260206004820152601f60248201527f496e697469616c697a653a20616c726561647920696e697469616c697a656400604482015260640160405180910390fd5b82357f9a70c69f78b954ec2ace8c62308c5ea2ed35f782ee583f10b56d88886fa9930290815560208401357f9a70c69f78b954ec2ace8c62308c5ea2ed35f782ee583f10b56d88886fa993035560408401357f9a70c69f78b954ec2ace8c62308c5ea2ed35f782ee583f10b56d88886fa993045560608401357f9a70c69f78b954ec2ace8c62308c5ea2ed35f782ee583f10b56d88886fa99305557f2909c0a05d58f8b7f14a4ef9b6dfbc139611bb545981c04988c895be90f35001547f2909c0a05d58f8b7f14a4ef9b6dfbc139611bb545981c04988c895be90f35000919060005b8781101561025e5760008281526020859052604090208290558888828181106101fd576101fd610303565b90506020020160208101906102129190610319565b60008381526020869052604081206001810180546001600160a01b0319166001600160a01b0394909416939093179092556002909101558161025381610349565b9250506001016101d2565b506001928301555095945050505050565b600080600083850360a081121561028557600080fd5b843567ffffffffffffffff81111561029c57600080fd5b8501601f810187136102ad57600080fd5b803567ffffffffffffffff8111156102c457600080fd5b8760208260051b84010111156102d957600080fd5b602091909101945092506080601f19820112156102f557600080fd5b506020840190509250925092565b634e487b7160e01b600052603260045260246000fd5b60006020828403121561032b57600080fd5b81356001600160a01b038116811461034257600080fd5b9392505050565b60006001820161036957634e487b7160e01b600052601160045260246000fd5b506001019056fea264697066735822122019695d333acabb86cedcfa0a9010b75acf4f4143b004e5a2203f4d5dc1c3204e64736f6c634300081a0033",
        "nonce": "0x2118",
        "chainId": "0xaa36a7"
      },
      "additionalContracts": [],
      "isFixedGasLimit": false
    },
    {
      "hash": "0xc9a2d87d8a3861952f769ccf247b51320f003fe55d59807d750d125e244923c4",
      "transactionType": "CREATE",
      "contractName": "Propose",
      "contractAddress": "0x145d50e8daeaab284cac5d888759657229fb723d",
      "function": null,
      "arguments": null,
      "transaction": {
        "from": "0xf39fd6e51aad88f6f4ce6ab8827279cfffb92266",
        "gas": "0x10237c",
        "value": "0x0",
        "input": "0x6080604052348015600f57600080fd5b50610dc28061001f6000396000f3fe608060405234801561001057600080fd5b506004361061002b5760003560e01c80639f46786e14610030575b600080fd5b61004361003e36600461077f565b610055565b60405190815260200160405180910390f35b7f9a70c69f78b954ec2ace8c62308c5ea2ed35f782ee583f10b56d88886fa993015460008181527f9a70c69f78b954ec2ace8c62308c5ea2ed35f782ee583f10b56d88886fa99300602081905260409091207f2909c0a05d58f8b7f14a4ef9b6dfbc139611bb545981c04988c895be90f35001547f9a70c69f78b954ec2ace8c62308c5ea2ed35f782ee583f10b56d88886fa99304547f2909c0a05d58f8b7f14a4ef9b6dfbc139611bb545981c04988c895be90f350009392917fe4fa6871814422bfe1d10a118a3483c970f3cc6a461f81c9d5701005cfdaf400918591111561065a57600282015467ffffffffffffffff166101e55760405162461bcd60e51b815260206004820152605860248201527f4e6f20436861696e6c696e6b2056524620737562736372697074696f6e2e205460448201527f727920536574436f6e6669677350726f7465637465643a3a637265617465416e60648201527f6446756e64537562736372697074696f6e2066697273742e0000000000000000608482015260a4015b60405180910390fd5b60038201546001600160a01b03166102775760405162461bcd60e51b815260206004820152604960248201527f4e6f20436861696e6c696e6b2056524620767266436f6f7264696e61746f722e60448201527f205472792053657456524650726f7465637465643a3a736574565246436f6e6660648201526834b3903334b939ba1760b91b608482015260a4016101dc565b60048201546000036103005760405162461bcd60e51b815260206004820152604660248201527f4e6f20436861696e6c696e6b20565246206b6579486173682e2054727920536560448201527f74436f6e6669677350726f7465637465643a3a736574565246436f6e666967206064820152653334b939ba1760d11b608482015260a4016101dc565b600582015463ffffffff166000036103985760405162461bcd60e51b815260206004820152604f60248201527f4e6f20436861696e6c696e6b205652462063616c6c6261636b4761734c696d6960448201527f742e2054727920536574436f6e6669677350726f7465637465643a3a7365745660648201526e292321b7b73334b3903334b939ba1760891b608482015260a4016101dc565b6005820154640100000000900461ffff1660000361043a5760405162461bcd60e51b815260206004820152605360248201527f4e6f20436861696e6c696e6b205652462072657175657374436f6e6669726d6160448201527f74696f6e732e2054727920536574436f6e6669677350726f7465637465643a3a60648201527239b2ba2b292321b7b73334b3903334b939ba1760691b608482015260a4016101dc565b60058201546601000000000000900463ffffffff166000036104d45760405162461bcd60e51b815260206004820152604760248201527f4e6f20436861696e6c696e6b20565246206e756d576f7264732e20547279205360448201527f6574436f6e6669677350726f7465637465643a3a736574565246436f6e666967606482015266103334b939ba1760c91b608482015260a4016101dc565b6005820154600160501b90046001600160a01b031661055b5760405162461bcd60e51b815260206004820152603f60248201527f4e6f20436861696e6c696e6b20565246204c494e4b544f4b454e2e205472792060448201527f536574436f6e666967733a3a736574565246436f6e6669672066697273742e0060648201526084016101dc565b6003820154600480840154600285015460058601546040516305d3b1d360e41b81529384019290925267ffffffffffffffff166024830152640100000000810461ffff16604483015263ffffffff808216606484015266010000000000009091041660848201526000916001600160a01b031690635d3b1d309060a4016020604051808303816000875af11580156105f7573d6000803e3d6000fd5b505050506040513d601f19601f8201168201806040525081019061061b91906107c1565b600180850180546000908152602087905260408082208590558254825281209092018a905580549293509061064f836107f0565b9190505550506106b8565b60005b81600101548110156106b657600081815260208381526040822060019081015460088801805480840182559085529290932090910180546001600160a01b0319166001600160a01b03909316929092179091550161065d565b505b60006106c48880610809565b50602011156106fd57826106d88880610809565b8154600181018355600092835260209092209091600402016106fa82826108a9565b50505b600061070c6020890189610954565b61071a906020810190610829565b9050111561075857600183016107336020890189610954565b8154600181018355600092835260209092209091600302016107558282610c44565b50505b42600a840155600184018054906000610770836107f0565b91905055505050505050919050565b60006020828403121561079157600080fd5b813567ffffffffffffffff8111156107a857600080fd5b8201606081850312156107ba57600080fd5b9392505050565b6000602082840312156107d357600080fd5b5051919050565b634e487b7160e01b600052601160045260246000fd5b600060018201610802576108026107da565b5060010190565b60008235607e1983360301811261081f57600080fd5b9190910192915050565b6000808335601e1984360301811261084057600080fd5b83018035915067ffffffffffffffff82111561085b57600080fd5b6020019150600581901b360382131561087357600080fd5b9250929050565b634e487b7160e01b600052604160045260246000fd5b5b818110156108a55760008155600101610891565b5050565b813581556020820135600182015560408201356002820155600381016108d26060840184610829565b67ffffffffffffffff8111156108ea576108ea61087a565b600160401b8111156108fe576108fe61087a565b82548184558082101561092457836000526020600020610922828201848301610890565b505b50600092835260208320925b8181101561094c57823584820155602090920191600101610930565b505050505050565b60008235605e1983360301811261081f57600080fd5b60008235603e1983360301811261081f57600080fd5b600181811c9082168061099457607f821691505b6020821081036109b457634e487b7160e01b600052602260045260246000fd5b50919050565b6109c48154610980565b80156108a557601f8111600181146109de57505060009055565b6000838152602090206109fc601f840160051c820160018301610890565b5060008381526020812081855555505050565b505050565b6000808335601e19843603018112610a2b57600080fd5b83018035915067ffffffffffffffff821115610a4657600080fd5b60200191503681900382131561087357600080fd5b601f821115610a0f57806000526020600020601f840160051c81016020851015610a825750805b610a94601f850160051c830182610890565b5050505050565b67ffffffffffffffff831115610ab357610ab361087a565b610ac783610ac18354610980565b83610a5b565b6000601f841160018114610afb5760008515610ae35750838201355b600019600387901b1c1916600186901b178355610a94565b600083815260209020601f19861690835b82811015610b2c5786850135825560209485019460019092019101610b0c565b5086821015610b495760001960f88860031b161c19848701351681555b505060018560011b0183555050505050565b610b658283610a14565b67ffffffffffffffff811115610b7d57610b7d61087a565b610b9181610b8b8554610980565b85610a5b565b6000601f821160018114610bc55760008315610bad5750838201355b600019600385901b1c1916600184901b178555610c1f565b600085815260209020601f19841690835b82811015610bf65786850135825560209485019460019092019101610bd6565b5084821015610c135760001960f88660031b161c19848701351681555b505060018360011b0185555b50505050610c306020830183610a14565b610c3e818360018601610a9b565b50505050565b8135815560018101610c596020840184610829565b600160401b811115610c6d57610c6d61087a565b825481845580821015610d39576001600160ff1b0381168114610c9257610c926107da565b6001600160ff1b0382168214610caa57610caa6107da565b8360005260206000208160011b81018360011b820191505b80821015610d3657610cd48254610980565b8015610d1e57601f811160018114610cef5760008455610d1c565b600084815260209020610d0d601f840160051c820160018301610890565b50600084815260208120818655555b505b50610d2b600183016109ba565b600282019150610cc2565b50505b506000928352602083209282905b82811015610d7857610d62610d5c838661096a565b86610b5b565b6002949094019360209190910190600101610d47565b50505050506040919091013560029091015556fea264697066735822122035454466dde092c0bd59a6d6a7f5aa577f32c42f6af94e0b6fcb6ce91924da4964736f6c634300081a0033",
        "nonce": "0x2119",
        "chainId": "0xaa36a7"
      },
      "additionalContracts": [],
      "isFixedGasLimit": false
    },
    {
      "hash": "0xf528b23266b6aaf18741ab744b5e8aadf683f40009848b46b0b023137f55b467",
      "transactionType": "CREATE",
      "contractName": "Fork",
      "contractAddress": "0xeabcb578f9ef0b4583b523fc57c05188a098621e",
      "function": null,
      "arguments": null,
      "transaction": {
        "from": "0xf39fd6e51aad88f6f4ce6ab8827279cfffb92266",
        "gas": "0x9f47e",
        "value": "0x0",
        "input": "0x6080604052348015600f57600080fd5b5061081e8061001f6000396000f3fe608060405234801561001057600080fd5b506004361061002b5760003560e01c8063603d9eb714610030575b600080fd5b61004361003e3660046101fb565b610055565b60405190815260200160405180910390f35b60008281527f9a70c69f78b954ec2ace8c62308c5ea2ed35f782ee583f10b56d88886fa9930060208190526040822084919083805b60088301548110156100d757600883018054339190839081106100af576100af610249565b6000918252602090912001546001600160a01b031614806100cd5750815b915060010161008a565b50806101205760405162461bcd60e51b81526020600482015260146024820152732cb7ba9030b932903737ba103a3432903932b81760611b604482015260640160405180910390fd5b60008781527f9a70c69f78b954ec2ace8c62308c5ea2ed35f782ee583f10b56d88886fa99300602081905260408220909161015b898061025f565b5060201115610194578061016f898061025f565b815460018101835560009283526020909220909160040201610191828261032f565b50505b60006101a360208a018a6103da565b6101b190602081019061027f565b905011156101ef57600181016101ca60208a018a6103da565b8154600181018355600092835260209092209091600302016101ec82826106ca565b50505b50505050505092915050565b6000806040838503121561020e57600080fd5b82359150602083013567ffffffffffffffff81111561022c57600080fd5b83016060818603121561023e57600080fd5b809150509250929050565b634e487b7160e01b600052603260045260246000fd5b60008235607e1983360301811261027557600080fd5b9190910192915050565b6000808335601e1984360301811261029657600080fd5b83018035915067ffffffffffffffff8211156102b157600080fd5b6020019150600581901b36038213156102c957600080fd5b9250929050565b634e487b7160e01b600052604160045260246000fd5b600181901b6001600160ff1b038216821461031157634e487b7160e01b600052601160045260246000fd5b919050565b5b8181101561032b5760008155600101610317565b5050565b81358155602082013560018201556040820135600282015560038101610358606084018461027f565b67ffffffffffffffff811115610370576103706102d0565b600160401b811115610384576103846102d0565b8254818455808210156103aa578360005260206000206103a8828201848301610316565b505b50600092835260208320925b818110156103d2578235848201556020909201916001016103b6565b505050505050565b60008235605e1983360301811261027557600080fd5b60008235603e1983360301811261027557600080fd5b600181811c9082168061041a57607f821691505b60208210810361043a57634e487b7160e01b600052602260045260246000fd5b50919050565b61044a8154610406565b801561032b57601f81116001811461046457505060009055565b600083815260209020610482601f840160051c820160018301610316565b5060008381526020812081855555505050565b505050565b6000808335601e198436030181126104b157600080fd5b83018035915067ffffffffffffffff8211156104cc57600080fd5b6020019150368190038213156102c957600080fd5b601f82111561049557806000526020600020601f840160051c810160208510156105085750805b61051a601f850160051c830182610316565b5050505050565b67ffffffffffffffff831115610539576105396102d0565b61054d836105478354610406565b836104e1565b6000601f84116001811461058157600085156105695750838201355b600019600387901b1c1916600186901b17835561051a565b600083815260209020601f19861690835b828110156105b25786850135825560209485019460019092019101610592565b50868210156105cf5760001960f88860031b161c19848701351681555b505060018560011b0183555050505050565b6105eb828361049a565b67ffffffffffffffff811115610603576106036102d0565b610617816106118554610406565b856104e1565b6000601f82116001811461064b57600083156106335750838201355b600019600385901b1c1916600184901b1785556106a5565b600085815260209020601f19841690835b8281101561067c578685013582556020948501946001909201910161065c565b50848210156106995760001960f88660031b161c19848701351681555b505060018360011b0185555b505050506106b6602083018361049a565b6106c4818360018601610521565b50505050565b81358155600181016106df602084018461027f565b600160401b8111156106f3576106f36102d0565b82548184558082101561079557610709816102e6565b610712836102e6565b60008681526020902091820191015b81811015610792576107338154610406565b801561077d57601f81116001811461074e576000835561077b565b60008381526020902061076c601f840160051c820160018301610316565b50600083815260208120818555555b505b5061078a60018201610440565b600201610721565b50505b506000928352602083209282905b828110156107d4576107be6107b883866103f0565b866105e1565b60029490940193602091909101906001016107a3565b50505050506040919091013560029091015556fea26469706673582212201aa5be0ad5625432d8767127890feb49c19280a0a5aff60ea2d196593c4e737e64736f6c634300081a0033",
        "nonce": "0x211a",
        "chainId": "0xaa36a7"
      },
      "additionalContracts": [],
      "isFixedGasLimit": false
    },
    {
      "hash": "0xf64b90d5008915b25ba330736524c7c72929dac543c57aad77657d63048ef107",
      "transactionType": "CREATE",
      "contractName": "Tally",
      "contractAddress": "0x9b552406037758e7f9b3623e6f0e678ef6ceec3e",
      "function": null,
      "arguments": null,
      "transaction": {
        "from": "0xf39fd6e51aad88f6f4ce6ab8827279cfffb92266",
        "gas": "0xe6da6",
        "value": "0x0",
        "input": "0x6080604052348015600f57600080fd5b50610c328061001f6000396000f3fe608060405234801561001057600080fd5b506004361061002b5760003560e01c8063ed8b6b3114610030575b600080fd5b61004361003e366004610b59565b610057565b604051901515815260200160405180910390f35b60008181527f9a70c69f78b954ec2ace8c62308c5ea2ed35f782ee583f10b56d88886fa993006020819052604082207f9a70c69f78b954ec2ace8c62308c5ea2ed35f782ee583f10b56d88886fa9930354849291906100fd5760405162461bcd60e51b815260206004820152601d60248201527f5365742074616c6c7920696e74657276616c20617420636f6e6669672e00000060448201526064015b60405180910390fd5b600382015460028201906000906101149042610b88565b815260208101919091526040016000205460ff161561017f5760405162461bcd60e51b815260206004820152602160248201527f5468697320696e74657276616c20697320616c72656164792074616c6c6965646044820152601760f91b60648201526084016100f4565b60008581527f9a70c69f78b954ec2ace8c62308c5ea2ed35f782ee583f10b56d88886fa9930060208190526040909120806101b8610a18565b6002840154600a84015442916101cd91610baa565b116102525760405162461bcd60e51b815260206004820152604960248201527f546869732070726f706f73616c20686173206265656e20657870697265642e2060448201527f596f752063616e6e6f742072756e206e65772074616c6c7920746f20757064616064820152683a32903930b735b99760b91b608482015260a4016100f4565b815467ffffffffffffffff81111561026c5761026c610bbd565b604051908082528060200260200182016040528015610295578160200160208202803683370190505b50815281546040805160208084028201810190925282815261037292909185919060009084015b8282101561036457838290600052602060002090600402016040518060800160405290816000820154815260200160018201548152602001600282015481526020016003820180548060200260200160405190810160405280929190818152602001828054801561034c57602002820191906000526020600020905b815481526020019060010190808311610338575b505050505081525050815260200190600101906102bc565b50505050600685015461081b565b80825280516000918491839061038a5761038a610bd3565b6020026020010151815481106103a2576103a2610bd3565b600091825260208220600491820201600101546005880154918701549093509083101591036103ff57604080516003808252608082019092529060208201606080368337505081516103fd9260048901925060200190610a6b565b505b80156104d1578251805160009061041857610418610bd3565b60200260200101518560030160010160008154811061043957610439610bd3565b60009182526020909120015582518051600190811061045a5761045a610bd3565b60200260200101518560030160010160018154811061047b5761047b610bd3565b60009182526020909120015582518051600290811061049c5761049c610bd3565b6020026020010151856003016001016002815481106104bd576104bd610bd3565b600091825260209091200155835460068601555b60005b60038110156105da57600486018054829081106104f3576104f3610bd3565b60009182526020909120015460c08501819052865411156105d257856000018460c001518154811061052757610527610bd3565b9060005260206000209060040201604051806080016040529081600082015481526020016001820154815260200160028201548152602001600382018054806020026020016040519081016040528092919081815260200182805480156105ad57602002820191906000526020600020905b815481526020019060010190808311610599575b505050505081525050846080015182600381106105cc576105cc610bd3565b60200201525b6001016104d4565b5060005b600381101561078057836080015181600381106105fd576105fd610bd3565b60200201515160c08501518754889190811061061b5761061b610bd3565b60009182526020909120600490910201556080840151816003811061064257610642610bd3565b602002015160200151866000018560c001518154811061066457610664610bd3565b9060005260206000209060040201600101819055508360800151816003811061068f5761068f610bd3565b602002015160400151866000018560c00151815481106106b1576106b1610bd3565b90600052602060002090600402016002018190555060005b846080015182600381106106df576106df610bd3565b60200201516060015151811015610777578460800151826003811061070657610706610bd3565b602002015160600151818151811061072057610720610bd3565b6020026020010151876000018660c001518154811061074157610741610bd3565b9060005260206000209060040201600301828154811061076357610763610bd3565b6000918252602090912001556001016106c9565b506001016105de565b5060038601546107d25760405162461bcd60e51b815260206004820152601d60248201527f5365742074616c6c7920696e74657276616c20617420636f6e6669672e00000060448201526064016100f4565b60018560020160008860020160010154426107ed9190610b88565b81526020810191909152604001600020805460ff191691151591909117905550979998505050505050505050565b815160609080831061083d575050604080516000815260208101909152610a12565b60006108498483610be9565b905060008167ffffffffffffffff81111561086657610866610bbd565b60405190808252806020026020018201604052801561088f578160200160208202803683370190505b50905060005b828110156108cc576108a78682610baa565b8282815181106108b9576108b9610bd3565b6020908102919091010152600101610895565b5060005b82811015610a0c5760005b60016108e78386610be9565b6108f19190610be9565b811015610a03578783610905836001610baa565b8151811061091557610915610bd3565b60200260200101518151811061092d5761092d610bd3565b6020026020010151602001518884838151811061094c5761094c610bd3565b60200260200101518151811061096457610964610bd3565b60200260200101516020015110156109fb5782610982826001610baa565b8151811061099257610992610bd3565b60200260200101518382815181106109ac576109ac610bd3565b60200260200101518483815181106109c6576109c6610bd3565b60200260200101858460016109db9190610baa565b815181106109eb576109eb610bd3565b6020908102919091010191909152525b6001016108db565b506001016108d0565b50925050505b92915050565b604051806101000160405280606081526020016060815260200160608152602001600015158152602001610a4a610ab6565b8152602001610a57610afb565b815260200160008152602001600081525090565b828054828255906000526020600020908101928215610aa6579160200282015b82811115610aa6578251825591602001919060010190610a8b565b50610ab2929150610b44565b5090565b60405180606001604052806003905b6040805160808101825260008082526020808301829052928201526060808201528252600019909201910181610ac55790505090565b60405180606001604052806003905b610b2e60405180606001604052806000815260200160608152602001600081525090565b815260200190600190039081610b0a5790505090565b5b80821115610ab25760008155600101610b45565b600060208284031215610b6b57600080fd5b5035919050565b634e487b7160e01b600052601160045260246000fd5b600082610ba557634e487b7160e01b600052601260045260246000fd5b500490565b80820180821115610a1257610a12610b72565b634e487b7160e01b600052604160045260246000fd5b634e487b7160e01b600052603260045260246000fd5b81810381811115610a1257610a12610b7256fea264697066735822122022eb32bc95c7ddb7c7db5042d1800e1712257770fab48f6670b62c9b100f7ed264736f6c634300081a0033",
        "nonce": "0x211b",
        "chainId": "0xaa36a7"
      },
      "additionalContracts": [],
      "isFixedGasLimit": false
    },
    {
      "hash": "0xa3ec3a86109698eac6863dc765954804952bc8514bdd37b059d3ed9ee8e0b83d",
      "transactionType": "CREATE",
      "contractName": "Execute",
      "contractAddress": "0x7682b6ddc20ce79b1cc4c30647f0384e7f2ab918",
      "function": null,
      "arguments": null,
      "transaction": {
        "from": "0xf39fd6e51aad88f6f4ce6ab8827279cfffb92266",
        "gas": "0xc94c9",
        "value": "0x0",
        "input": "0x6080604052348015600f57600080fd5b50610a838061001f6000396000f3fe608060405234801561001057600080fd5b506004361061002b5760003560e01c8063fe0d94c114610030575b600080fd5b61004361003e36600461080a565b610057565b604051901515815260200160405180910390f35b60008181527f9a70c69f78b954ec2ace8c62308c5ea2ed35f782ee583f10b56d88886fa993006020819052604082207f9a70c69f78b954ec2ace8c62308c5ea2ed35f782ee583f10b56d88886fa9930254600a82015442916100b891610823565b111561010b5760405162461bcd60e51b815260206004820152601a60248201527f50726f706f73616c206d7573742062652066696e69736865642e00000000000060448201526064015b60405180910390fd5b600181015461015c5760405162461bcd60e51b815260206004820152601960248201527f4e6f20626f647920666f726b7320746f20657865637574652e000000000000006044820152606401610102565b60058101546101b75760405162461bcd60e51b815260206004820152602160248201527f54616c6c79206d75737420626520646f6e65206174206c65617374206f6e63656044820152601760f91b6064820152608401610102565b600081600101826003016002016000815481106101d6576101d6610844565b9060005260206000200154815481106101f1576101f1610844565b9060005260206000209060030201600101905060005b815481101561042357600082828154811061022457610224610844565b906000526020600020906002020160405180604001604052908160008201805461024d9061085a565b80601f01602080910402602001604051908101604052809291908181526020018280546102799061085a565b80156102c65780601f1061029b576101008083540402835291602001916102c6565b820191906000526020600020905b8154815290600101906020018083116102a957829003601f168201915b505050505081526020016001820180546102df9061085a565b80601f016020809104026020016040519081016040528092919081815260200182805461030b9061085a565b80156103585780601f1061032d57610100808354040283529160200191610358565b820191906000526020600020905b81548152906001019060200180831161033b57829003601f168201915b5050505050815250509050600080306001600160a01b031683600001518051906020012084602001516040516020016103929291906108b8565b60408051601f19818403018152908290526103ac916108e9565b600060405180830381855af49150503d80600081146103e7576040519150601f19603f3d011682016040523d82523d6000602084013e6103ec565b606091505b509150915081610418576103ff8161042c565b60405162461bcd60e51b81526004016101029190610905565b505050600101610207565b50505050919050565b6060815160240361045457600061044283610463565b905061044d81610510565b9392505050565b61045d826106ad565b92915050565b600081516000036104b65760405162461bcd60e51b815260206004820152601f60248201527f72657665727465642077697468206e6f206572726f72206d6573736167652e006044820152606401610102565b6004825110156105085760405162461bcd60e51b815260206004820152601d60248201527f4461746120746f6f2073686f727420666f722070616e696320636f64650000006044820152606401610102565b506024015190565b60608160010361055357505060408051808201909152601881527f70616e69633a204469766973696f6e206279207a65726f2e0000000000000000602082015290565b8160110361057a5760405180606001604052806026815260200161094f6026913992915050565b816012036105a1576040518060600160405280602581526020016109d86025913992915050565b816021036105e257505060408051808201909152601f81527f70616e69633a20506f702066726f6d20616e20656d7074792061727261792e00602082015290565b81602203610609576040518060600160405280602c8152602001610a22602c913992915050565b81603103610630576040518060600160405280602581526020016109fd6025913992915050565b81603203610657576040518060600160405280602881526020016109b06028913992915050565b8160410361067e576040518060600160405280603b8152602001610975603b913992915050565b50506040805180820190915260138152722ab735b737bbb7103830b734b19031b7b2329760691b602082015290565b606081516000036107005760405162461bcd60e51b815260206004820152601f60248201527f72657665727465642077697468206e6f206572726f72206d6573736167652e006044820152606401610102565b6044825110156107525760405162461bcd60e51b815260206004820181905260248201527f4461746120746f6f2073686f727420666f722072657665727420726561736f6e6044820152606401610102565b604482015160008167ffffffffffffffff81111561077257610772610938565b6040519080825280601f01601f19166020018201604052801561079c576020820181803683370190505b50905060005b8281101561080257846107b6826044610823565b815181106107c6576107c6610844565b602001015160f81c60f81b8282815181106107e3576107e3610844565b60200101906001600160f81b031916908160001a9053506001016107a2565b509392505050565b60006020828403121561081c57600080fd5b5035919050565b8082018082111561045d57634e487b7160e01b600052601160045260246000fd5b634e487b7160e01b600052603260045260246000fd5b600181811c9082168061086e57607f821691505b60208210810361088e57634e487b7160e01b600052602260045260246000fd5b50919050565b60005b838110156108af578181015183820152602001610897565b50506000910152565b6001600160e01b03198316815281516000906108db816004850160208701610894565b919091016004019392505050565b600082516108fb818460208701610894565b9190910192915050565b6020815260008251806020840152610924816040850160208701610894565b601f01601f19169190910160400192915050565b634e487b7160e01b600052604160045260246000fdfe70616e69633a2041726974686d65746963206f7065726174696f6e20756e646572666c6f772e70616e69633a205a65726f2d696e697469616c697a6564207661726961626c65206f6620696e7465726e616c2066756e6374696f6e20747970652e70616e69633a206172726179206f75742d6f662d626f756e6473206163636573732028307833322970616e69633a2041726974686d65746963206f7065726174696f6e206f766572666c6f772e70616e69633a20416c6c6f636174696f6e206f6620746f6f206d756368206d656d6f72792e70616e69633a204172726179206f72206d656d6f727920616363657373206f7574206f6620626f756e64732ea26469706673582212200cdd9a4fd41c52394b55de786e91843ab6dbce7e6f34230648ecef169837e87864736f6c634300081a0033",
        "nonce": "0x211c",
        "chainId": "0xaa36a7"
      },
      "additionalContracts": [],
      "isFixedGasLimit": false
    },
    {
      "hash": "0xc8f3e84ec2490b7ce1522dafa6c507f3aab8ef32343a6e80bce2702476df9d25",
      "transactionType": "CREATE",
      "contractName": "MemberJoinProtected",
      "contractAddress": "0xd37269d1a023af210a191281f9a22d49f22f41d7",
      "function": null,
      "arguments": null,
      "transaction": {
        "from": "0xf39fd6e51aad88f6f4ce6ab8827279cfffb92266",
        "gas": "0x52ae9",
        "value": "0x0",
        "input": "0x6080604052348015600f57600080fd5b506103c08061001f6000396000f3fe608060405234801561001057600080fd5b506004361061002b5760003560e01c806306f7e36d14610030575b600080fd5b61004361003e366004610247565b610057565b604051901515815260200160405180910390f35b60008281527f9a70c69f78b954ec2ace8c62308c5ea2ed35f782ee583f10b56d88886fa993006020819052604082208491907f2909c0a05d58f8b7f14a4ef9b6dfbc139611bb545981c04988c895be90f35000845b86518110156101b5578681815181106100c7576100c761034d565b6020026020010151600001518260000160008385600101546100e99190610363565b8152602081019190915260400160002055865187908290811061010e5761010e61034d565b6020026020010151602001518260000160008385600101546101309190610363565b815260200190815260200160002060010160006101000a8154816001600160a01b0302191690836001600160a01b031602179055508681815181106101775761017761034d565b6020026020010151604001518260000160008385600101546101999190610363565b81526020810191909152604001600020600201556001016100ac565b50855181600101546101c79190610363565b6001909101555091949350505050565b634e487b7160e01b600052604160045260246000fd5b6040516060810167ffffffffffffffff81118282101715610210576102106101d7565b60405290565b604051601f8201601f1916810167ffffffffffffffff8111828210171561023f5761023f6101d7565b604052919050565b6000806040838503121561025a57600080fd5b82359150602083013567ffffffffffffffff81111561027857600080fd5b8301601f8101851361028957600080fd5b803567ffffffffffffffff8111156102a3576102a36101d7565b6102b260208260051b01610216565b808282526020820191506020606084028501019250878311156102d457600080fd5b6020840193505b8284101561033f57606084890312156102f357600080fd5b6102fb6101ed565b8435815260208501356001600160a01b038116811461031957600080fd5b8060208301525060408501356040820152808352506020820191506060840193506102db565b809450505050509250929050565b634e487b7160e01b600052603260045260246000fd5b8082018082111561038457634e487b7160e01b600052601160045260246000fd5b9291505056fea26469706673582212207967f7ae80268022217cedf7e72f003e57ed85a5653cf2e7b213b14bef92178e64736f6c634300081a0033",
        "nonce": "0x211d",
        "chainId": "0xaa36a7"
      },
      "additionalContracts": [],
      "isFixedGasLimit": false
    },
    {
      "hash": "0x4ca59e7fe1ff7d302a9da225fa0c28ea87a30e9f02cfc17621bf49f66f4fa166",
      "transactionType": "CREATE",
      "contractName": "SetConfigsProtected",
      "contractAddress": "0xcd24332ebe0e63ef540d69d2f8aabe81f181dbb8",
      "function": null,
      "arguments": null,
      "transaction": {
        "from": "0xf39fd6e51aad88f6f4ce6ab8827279cfffb92266",
        "gas": "0x89e3a",
        "value": "0x0",
        "input": "0x6080604052348015600f57600080fd5b506106e78061001f6000396000f3fe608060405234801561001057600080fd5b50600436106100415760003560e01c80635cefc4ad146100465780635ebf4de31461010557806369c30f0e14610255575b600080fd5b6100f1610054366004610446565b60009182527f9a70c69f78b954ec2ace8c62308c5ea2ed35f782ee583f10b56d88886fa9930060205280517f9a70c69f78b954ec2ace8c62308c5ea2ed35f782ee583f10b56d88886fa993025560408101517f9a70c69f78b954ec2ace8c62308c5ea2ed35f782ee583f10b56d88886fa9930455606001517f9a70c69f78b954ec2ace8c62308c5ea2ed35f782ee583f10b56d88886fa993055590565b604051901515815260200160405180910390f35b6100f1610113366004610508565b60009182527f9a70c69f78b954ec2ace8c62308c5ea2ed35f782ee583f10b56d88886fa99300602090815281517fe4fa6871814422bfe1d10a118a3483c970f3cc6a461f81c9d5701005cfdaf40380546001600160a01b039283166001600160a01b0319909116179055908201517fe4fa6871814422bfe1d10a118a3483c970f3cc6a461f81c9d5701005cfdaf4045560408201517fe4fa6871814422bfe1d10a118a3483c970f3cc6a461f81c9d5701005cfdaf40580546060850151608086015160a090960151909416600160501b027fffff0000000000000000000000000000000000000000ffffffffffffffffffff63ffffffff968716660100000000000002166601000000000000600160f01b031961ffff9096166401000000000265ffffffffffff19909316969094169590951717929092161791909117905590565b6100f16102633660046105ab565b60008281527f9a70c69f78b954ec2ace8c62308c5ea2ed35f782ee583f10b56d88886fa99300602081815260408084207fe4fa6871814422bfe1d10a118a3483c970f3cc6a461f81c9d5701005cfdaf40354825163288688f960e21b8152925188959492937fe4fa6871814422bfe1d10a118a3483c970f3cc6a461f81c9d5701005cfdaf400936001600160a01b039093169263a21a23e49260048084019382900301818b875af115801561031c573d6000803e3d6000fd5b505050506040513d601f19601f8201168201806040525081019061034091906105ec565b60028201805467ffffffffffffffff9290921667ffffffffffffffff199092168217905560058201546003830154604080516020808201959095528151808203909501855280820191829052630200057560e51b9091526001600160a01b03600160501b909304831693634000aea0936103c19316918b919060440161061d565b6020604051808303816000875af11580156103e0573d6000803e3d6000fd5b505050506040513d601f19601f82011682018060405250810190610404919061068f565b505050505092915050565b60405160c0810167ffffffffffffffff8111828210171561044057634e487b7160e01b600052604160045260246000fd5b60405290565b60008082840360a081121561045a57600080fd5b833592506080601f198201121561047057600080fd5b506040516080810167ffffffffffffffff811182821017156104a257634e487b7160e01b600052604160045260246000fd5b60409081526020858101358352858201359083015260608086013591830191909152608090940135938101939093525092909150565b80356001600160a01b03811681146104ef57600080fd5b919050565b803563ffffffff811681146104ef57600080fd5b60008082840360e081121561051c57600080fd5b8335925060c0601f198201121561053257600080fd5b5061053b61040f565b610547602085016104d8565b81526040840135602082015261055f606085016104f4565b6040820152608084013561ffff8116811461057957600080fd5b606082015261058a60a085016104f4565b608082015261059b60c085016104d8565b60a0820152809150509250929050565b600080604083850312156105be57600080fd5b8235915060208301356bffffffffffffffffffffffff811681146105e157600080fd5b809150509250929050565b6000602082840312156105fe57600080fd5b815167ffffffffffffffff8116811461061657600080fd5b9392505050565b60018060a01b03841681526bffffffffffffffffffffffff83166020820152606060408201526000825180606084015260005b8181101561066d5760208186018101516080868401015201610650565b506000608082850101526080601f19601f830116840101915050949350505050565b6000602082840312156106a157600080fd5b8151801515811461061657600080fdfea2646970667358221220b886ebc50e8eebe1b5466900be9f742827f7a099f201f04cddf78defebea11a364736f6c634300081a0033",
        "nonce": "0x211e",
        "chainId": "0xaa36a7"
      },
      "additionalContracts": [],
      "isFixedGasLimit": false
    },
    {
      "hash": "0x2a8e8979ed67d596964ed25bd876dab3f42c15bb00fb743b5a4a6370d63f2dfa",
      "transactionType": "CREATE",
      "contractName": "ConfigOverrideProtected",
      "contractAddress": "0xb0518f00c94193e58bf84fbd3e8bb94a3bcb9151",
      "function": null,
      "arguments": null,
      "transaction": {
        "from": "0xf39fd6e51aad88f6f4ce6ab8827279cfffb92266",
        "gas": "0x2aa07",
        "value": "0x0",
        "input": "0x6080604052348015600f57600080fd5b506101778061001f6000396000f3fe608060405234801561001057600080fd5b506004361061002b5760003560e01c80639f31e87b14610030575b600080fd5b6100be61003e3660046100d2565b60009182527f9a70c69f78b954ec2ace8c62308c5ea2ed35f782ee583f10b56d88886fa993006020908152905163ed8b6b3160e01b83527f147a311fe1db87247fe76cc1e6db3134e5d52a59e0824f018dad572e05b140009091527f5383e7c9ddd7d9b1763c1c2f58463c31530bb7fd97b38b4d6c0ce4a8002064665590565b604051901515815260200160405180910390f35b60008082840360408112156100e657600080fd5b833592506020601f19820112156100fc57600080fd5b506040516020810181811067ffffffffffffffff8211171561012e57634e487b7160e01b600052604160045260246000fd5b604052602093909301358352509290915056fea2646970667358221220a9f8415f4091816158e15e2743b79ecffedc2537bc8bd21d59883933114a2f4764736f6c634300081a0033",
        "nonce": "0x211f",
        "chainId": "0xaa36a7"
      },
      "additionalContracts": [],
      "isFixedGasLimit": false
    },
    {
      "hash": "0xd9efda423c26a01f25b86bca9af51c969085d5b9b9683c201f4e6101df7bd8a6",
      "transactionType": "CREATE",
      "contractName": "SaveTextProtected",
      "contractAddress": "0xc257a853f47bf2f9dabfbd5f39fda52d331ea66d",
      "function": null,
      "arguments": null,
      "transaction": {
        "from": "0xf39fd6e51aad88f6f4ce6ab8827279cfffb92266",
        "gas": "0x4182d",
        "value": "0x0",
        "input": "0x6080604052348015600f57600080fd5b506102c58061001f6000396000f3fe608060405234801561001057600080fd5b506004361061002b5760003560e01c80639877696714610030575b600080fd5b61004361003e366004610186565b610057565b604051901515815260200160405180910390f35b60008381527f9a70c69f78b954ec2ace8c62308c5ea2ed35f782ee583f10b56d88886fa99300602081815260408084208685527ec2b62a56d6a36d26f9b1ee520f3f92694a04313c94e467f10a03b080d779008084529185207ec2b62a56d6a36d26f9b1ee520f3f92694a04313c94e467f10a03b080d7790154815586518995949293926100ec9160018401918a0190610110565b506001820180549060006100ff83610268565b919050555050505050509392505050565b82805482825590600052602060002090810192821561014b579160200282015b8281111561014b578251825591602001919060010190610130565b5061015792915061015b565b5090565b5b80821115610157576000815560010161015c565b634e487b7160e01b600052604160045260246000fd5b60008060006060848603121561019b57600080fd5b8335925060208401359150604084013567ffffffffffffffff8111156101c057600080fd5b8401601f810186136101d157600080fd5b803567ffffffffffffffff8111156101eb576101eb610170565b8060051b604051601f19603f830116810181811067ffffffffffffffff8211171561021857610218610170565b60405291825260208184018101929081018984111561023657600080fd5b6020850194505b838510156102595784358082526020958601959093500161023d565b50809450505050509250925092565b60006001820161028857634e487b7160e01b600052601160045260246000fd5b506001019056fea264697066735822122066a855a438a466fba3fa13d4b3ef48e4d6c60979e355d921cae32dc89d08bea564736f6c634300081a0033",
        "nonce": "0x2120",
        "chainId": "0xaa36a7"
      },
      "additionalContracts": [],
      "isFixedGasLimit": false
    },
    {
      "hash": "0x4a4d391e6f3bc122cabdcce2bf9aad18ed73f7d18082f4ab4c1e155810521318",
      "transactionType": "CREATE",
      "contractName": "Getter",
      "contractAddress": "0x6a8222e3f009f5d38ea67ec04c512ff3e6770ed7",
      "function": null,
      "arguments": null,
      "transaction": {
        "from": "0xf39fd6e51aad88f6f4ce6ab8827279cfffb92266",
        "gas": "0x12bd6d",
        "value": "0x0",
        "input": "0x6080604052348015600f57600080fd5b506110218061001f6000396000f3fe608060405234801561001057600080fd5b50600436106100ea5760003560e01c8063a4c5e9cb1161008c578063c7f758a811610066578063c7f758a81461046d578063cb37be9e1461048d578063de3d9fb714610495578063e8109953146104d057600080fd5b8063a4c5e9cb14610300578063ab3545e51461033b578063c1e582ba146103e757600080fd5b80636c996f88116100c85780636c996f8814610183578063787e0fe0146101a35780637f4ef9d4146101ab5780639a5ea6a0146101cb57600080fd5b806325be10bd146100ef5780632a2c16a0146101655780632b7efac11461017b575b600080fd5b6101516100fd366004610c00565b60408051602080820183526000918290526001600160e01b03199390931681527f147a311fe1db87247fe76cc1e6db3134e5d52a59e0824f018dad572e05b140008352819020815192830190915254815290565b604051905181526020015b60405180910390f35b61016d6104f0565b60405190815260200161015c565b61016d61051d565b610196610191366004610c31565b610544565b60405161015c9190610c86565b61016d610630565b6101be6101b9366004610c31565b610646565b60405161015c9190610d16565b6102946040805160c081018252600080825260208201819052918101829052606081018290526080810182905260a08101919091527fe4fa6871814422bfe1d10a118a3483c970f3cc6a461f81c9d5701005cfdaf4006040805160c08101825260038301546001600160a01b0390811682526004840154602083015260059093015463ffffffff8082169383019390935261ffff6401000000008204166060830152660100000000000081049092166080820152600160501b90910490911660a0820152919050565b60405161015c9190600060c08201905060018060a01b0383511682526020830151602083015263ffffffff604084015116604083015261ffff606084015116606083015263ffffffff608084015116608083015260018060a01b0360a08401511660a083015292915050565b6103086106f5565b60405161015c91908151815260208083015190820152604080830151908201526060918201519181019190915260800190565b6103bc610349366004610c31565b6040805160608082018352600080835260208084018290529284018190529384527f2909c0a05d58f8b7f14a4ef9b6dfbc139611bb545981c04988c895be90f35000825292829020825193840183528054845260018101546001600160a01b031691840191909152600201549082015290565b60408051825181526020808401516001600160a01b031690820152918101519082015260600161015c565b6104526103f5366004610c31565b60408051808201909152600080825260208201527fe4fa6871814422bfe1d10a118a3483c970f3cc6a461f81c9d5701005cfdaf4006000928352602090815260409283902083518085019094528054845260010154908301525090565b6040805182518152602092830151928101929092520161015c565b61048061047b366004610c31565b6107c9565b60405161015c9190610dac565b61016d610965565b7fe4fa6871814422bfe1d10a118a3483c970f3cc6a461f81c9d5701005cfdaf4025460405167ffffffffffffffff909116815260200161015c565b6104e36104de366004610e66565b61098d565b60405161015c9190610ece565b60007fe4fa6871814422bfe1d10a118a3483c970f3cc6a461f81c9d5701005cfdaf4005b60010154905090565b60007ec2b62a56d6a36d26f9b1ee520f3f92694a04313c94e467f10a03b080d77900610514565b6060600080516020610fcc8339815191526000838152602091825260408082208054825181860281018601909352808352919390929084015b8282101561062557838290600052602060002090600402016040518060800160405290816000820154815260200160018201548152602001600282015481526020016003820180548060200260200160405190810160405280929190818152602001828054801561060d57602002820191906000526020600020905b8154815260200190600101908083116105f9575b5050505050815250508152602001906001019061057d565b505050509050919050565b6000600080516020610fcc833981519152610514565b6040805180820190915260008152606060208201527ec2b62a56d6a36d26f9b1ee520f3f92694a04313c94e467f10a03b080d7790060008381526020918252604090819020815180830183528154815260018201805484518187028101870190955280855291949293858401939092908301828280156106e557602002820191906000526020600020905b8154815260200190600101908083116106d1575b5050505050815250509050919050565b6107206040518060800160405280600081526020016000815260200160008152602001600081525090565b50604080516080810182527f9a70c69f78b954ec2ace8c62308c5ea2ed35f782ee583f10b56d88886fa993025481527f9a70c69f78b954ec2ace8c62308c5ea2ed35f782ee583f10b56d88886fa993035460208201527f9a70c69f78b954ec2ace8c62308c5ea2ed35f782ee583f10b56d88886fa9930454918101919091527f9a70c69f78b954ec2ace8c62308c5ea2ed35f782ee583f10b56d88886fa9930554606082015290565b6107d1610b99565b6000828152600080516020610fcc8339815191526020908152604091829020825161016081018452600382018054606083019081526004840180548751818802810188019098528088529496939586959294608087019390929183018282801561085a57602002820191906000526020600020905b815481526020019060010190808311610846575b50505050508152602001600282018054806020026020016040519081016040528092919081815260200182805480156108b257602002820191906000526020600020905b81548152602001906001019080831161089e575b5050505050815260200160038201548152602001600482015481526020016005820180548060200260200160405190810160405280929190818152602001828054801561092857602002820191906000526020600020905b81546001600160a01b0316815260019091019060200180831161090a575b5050509183525050600682015460208083019190915260079092015460409182015291835284549083015260019093015492019190915292915050565b60007f2909c0a05d58f8b7f14a4ef9b6dfbc139611bb545981c04988c895be90f35000610514565b6109b160405180606001604052806000815260200160608152602001600081525090565b6000838152600080516020610fcc833981519152602052604090206001018054839081106109e1576109e1610f7b565b90600052602060002090600302016040518060600160405290816000820154815260200160018201805480602002602001604051908101604052809291908181526020016000905b82821015610b7f5783829060005260206000209060020201604051806040016040529081600082018054610a5c90610f91565b80601f0160208091040260200160405190810160405280929190818152602001828054610a8890610f91565b8015610ad55780601f10610aaa57610100808354040283529160200191610ad5565b820191906000526020600020905b815481529060010190602001808311610ab857829003601f168201915b50505050508152602001600182018054610aee90610f91565b80601f0160208091040260200160405190810160405280929190818152602001828054610b1a90610f91565b8015610b675780601f10610b3c57610100808354040283529160200191610b67565b820191906000526020600020905b815481529060010190602001808311610b4a57829003601f168201915b50505050508152505081526020019060010190610a29565b505050508152602001600282015481525050905092915050565b6040518060600160405280610bec60405180610100016040528060008152602001606081526020016060815260200160008152602001600081526020016060815260200160008152602001600081525090565b815260200160008152602001600081525090565b600060208284031215610c1257600080fd5b81356001600160e01b031981168114610c2a57600080fd5b9392505050565b600060208284031215610c4357600080fd5b5035919050565b600081518084526020840193506020830160005b82811015610c7c578151865260209586019590910190600101610c5e565b5093949350505050565b6000602082016020835280845180835260408501915060408160051b86010192506020860160005b82811015610d0a57603f1987860301845281518051865260208101516020870152604081015160408701526060810151905060806060870152610cf46080870182610c4a565b9550506020938401939190910190600101610cae565b50929695505050505050565b6020808252825182820152828101516040808401528051606084018190526000929190910190829060808501905b80831015610d675783518252602082019150602084019350600183019250610d44565b5095945050505050565b600081518084526020840193506020830160005b82811015610c7c5781516001600160a01b0316865260209586019590910190600101610d85565b60208152600082516060602084015280516080840152602081015161010060a0850152610ddd610180850182610c4a565b90506040820151607f198583030160c0860152610dfa8282610c4a565b915050606082015160e0850152608082015161010085015260a0820151607f1985830301610120860152610e2e8282610d71565b91505060c082015161014085015260e08201516101608501526020850151604085015260408501516060850152809250505092915050565b60008060408385031215610e7957600080fd5b50508035926020909101359150565b6000815180845260005b81811015610eae57602081850181015186830182015201610e92565b506000602082860101526020601f19601f83011685010191505092915050565b602081526000608082018351602084015260208401516060604085015281815180845260a08601915060a08160051b870101935060208301925060005b81811015610f6357609f198786030183528351805160408752610f316040880182610e88565b9050602082015191508681036020880152610f4c8183610e88565b965050506020938401939290920191600101610f0b565b50505050604084015160608401528091505092915050565b634e487b7160e01b600052603260045260246000fd5b600181811c90821680610fa557607f821691505b602082108103610fc557634e487b7160e01b600052602260045260246000fd5b5091905056fe9a70c69f78b954ec2ace8c62308c5ea2ed35f782ee583f10b56d88886fa99300a264697066735822122053223e79553b77665cb0675ca21b9efed86ce36252a4a1836ecb1a52ba5742b964736f6c634300081a0033",
        "nonce": "0x2121",
        "chainId": "0xaa36a7"
      },
      "additionalContracts": [],
      "isFixedGasLimit": false
    },
    {
      "hash": "0x899cd762c472c4cf4e1f30b2ef295e07b0abbf211d4fd14c47aa4a85f428951b",
      "transactionType": "CREATE",
      "contractName": "TextDAOFacade",
      "contractAddress": "0xae1d5a8ead8abc744d97533895ad632f18f471dc",
      "function": null,
      "arguments": null,
      "transaction": {
        "from": "0xf39fd6e51aad88f6f4ce6ab8827279cfffb92266",
        "gas": "0xde708",
        "value": "0x0",
        "input": "0x6080604052348015600f57600080fd5b50610bb88061001f6000396000f3fe608060405234801561001057600080fd5b506004361061018e5760003560e01c8063a4c5e9cb116100de578063cb37be9e11610097578063e69b9edc11610071578063e69b9edc146103f9578063e810995314610444578063ed8b6b3114610464578063fe0d94c11461046457600080fd5b8063cb37be9e146101dd578063dc1ec0e514610427578063de3d9fb71461043557600080fd5b8063a4c5e9cb14610315578063ab3545e514610350578063bca2007b146103aa578063c1e582ba146103b8578063c5b36441146103f9578063c7f758a81461040757600080fd5b8063603d9eb71161014b5780637f4ef9d4116101255780637f4ef9d41461023d5780638124b78e146102715780639a5ea6a0146102825780639f46786e1461030157600080fd5b8063603d9eb71461020e5780636c996f881461021c578063787e0fe0146101dd57600080fd5b806306f7e36d1461019357806325be10bd146101a85780632a2c16a0146101dd5780632b7efac1146101dd5780633fc765ad146101ee5780634f4a953614610200575b600080fd5b6101a66101a136600461053e565b505050565b005b6101c96101b63660046105bf565b5060408051602081019091526000815290565b604051905181526020015b60405180910390f35b60005b6040519081526020016101d4565b6101a66101fc366004610608565b5050565b6101a66101a1366004610635565b6101a66101fc3660046106b4565b61023061022a3660046106fb565b50606090565b6040516101d49190610750565b61026461024b3660046106fb565b5060408051808201909152600081526060602082015290565b6040516101d491906107e0565b6101a661027f36600461083b565b50565b6040805160c08082018352600080835260208084018281528486018381526060808701858152608080890187815260a0998a018881528b51988952955196880196909652925163ffffffff908116998701999099525161ffff169085015291519095169082015292516001600160a01b031691830191909152016101d4565b6101e061030f366004610864565b50600090565b61031d61047a565b6040516101d491908151815260208083015190820152604080830151908201526060918201519181019190915260800190565b61037f61035e3660046106fb565b50604080516060810182526000808252602082018190529181019190915290565b60408051825181526020808401516001600160a01b03169082015291810151908201526060016101d4565b6101a661027f3660046108a1565b6103de6103c63660046106fb565b50604080518082019091526000808252602082015290565b604080518251815260209283015192810192909252016101d4565b6101a66101fc3660046108bd565b61041a6104153660046106fb565b6104a5565b6040516101d4919061092b565b6101a66101a13660046109e5565b604051600081526020016101d4565b610457610452366004610a6d565b6104ad565b6040516101d49190610ad5565b6101a661027f3660046106fb565b919050565b90565b6104776040518060800160405280600081526020016000815260200160008152602001600081525090565b6104726104d7565b6104d160405180606001604052806000815260200160608152602001600081525090565b92915050565b604051806060016040528061052a60405180610100016040528060008152602001606081526020016060815260200160008152602001600081526020016060815260200160008152602001600081525090565b815260200160008152602001600081525090565b60008060006040848603121561055357600080fd5b83359250602084013567ffffffffffffffff81111561057157600080fd5b8401601f8101861361058257600080fd5b803567ffffffffffffffff81111561059957600080fd5b8660206060830284010111156105ae57600080fd5b939660209190910195509293505050565b6000602082840312156105d157600080fd5b81356001600160e01b0319811681146105e957600080fd5b9392505050565b60006080828403121561060257600080fd5b50919050565b60008060a0838503121561061b57600080fd5b8235915061062c84602085016105f0565b90509250929050565b60008060006040848603121561064a57600080fd5b83359250602084013567ffffffffffffffff81111561066857600080fd5b8401601f8101861361067957600080fd5b803567ffffffffffffffff81111561069057600080fd5b8660208284010111156105ae57600080fd5b60006060828403121561060257600080fd5b600080604083850312156106c757600080fd5b82359150602083013567ffffffffffffffff8111156106e557600080fd5b6106f1858286016106a2565b9150509250929050565b60006020828403121561070d57600080fd5b5035919050565b600081518084526020840193506020830160005b82811015610746578151865260209586019590910190600101610728565b5093949350505050565b6000602082016020835280845180835260408501915060408160051b86010192506020860160005b828110156107d457603f19878603018452815180518652602081015160208701526040810151604087015260608101519050608060608701526107be6080870182610714565b9550506020938401939190910190600101610778565b50929695505050505050565b6020808252825182820152828101516040808401528051606084018190526000929190910190829060808501905b80831015610831578351825260208201915060208401935060018301925061080e565b5095945050505050565b60006020828403121561084d57600080fd5b81356001600160a01b03811681146105e957600080fd5b60006020828403121561087657600080fd5b813567ffffffffffffffff81111561088d57600080fd5b610899848285016106a2565b949350505050565b6000608082840312156108b357600080fd5b6105e983836105f0565b600080608083850312156108d057600080fd5b82359150608083018410156108e457600080fd5b50926020919091019150565b600081518084526020840193506020830160005b828110156107465781516001600160a01b0316865260209586019590910190600101610904565b60208152600082516060602084015280516080840152602081015161010060a085015261095c610180850182610714565b90506040820151607f198583030160c08601526109798282610714565b915050606082015160e0850152608082015161010085015260a0820151607f19858303016101208601526109ad82826108f0565b91505060c082015161014085015260e08201516101608501526020850151604085015260408501516060850152809250505092915050565b600080600060a084860312156109fa57600080fd5b833567ffffffffffffffff811115610a1157600080fd5b8401601f81018613610a2257600080fd5b803567ffffffffffffffff811115610a3957600080fd5b8660208260051b8401011115610a4e57600080fd5b602091820194509250610a6490869086016105f0565b90509250925092565b60008060408385031215610a8057600080fd5b50508035926020909101359150565b6000815180845260005b81811015610ab557602081850181015186830182015201610a99565b506000602082860101526020601f19601f83011685010191505092915050565b602081526000608082018351602084015260208401516060604085015281815180845260a08601915060a08160051b870101935060208301925060005b81811015610b6a57609f198786030183528351805160408752610b386040880182610a8f565b9050602082015191508681036020880152610b538183610a8f565b965050506020938401939290920191600101610b12565b5050505060408401516060840152809150509291505056fea264697066735822122020ca0b023be49a0ad1de7b569e14759c2450367445acfbe9d1acabeecf39990564736f6c634300081a0033",
        "nonce": "0x2122",
        "chainId": "0xaa36a7"
      },
      "additionalContracts": [],
      "isFixedGasLimit": false
    },
    {
      "hash": "0x07d09f63464f3f53dc1dd2677f5277b3e83b2ccf64b902a2a21c125f673cfc20",
      "transactionType": "CREATE",
      "contractName": "Dictionary",
      "contractAddress": "0x12bfd1dc0d9b368096f0d5ef24a2084af934e067",
      "function": null,
      "arguments": [
        "0xf39Fd6e51aad88F6F4ce6aB8827279cffFb92266"
      ],
      "transaction": {
        "from": "0xf39fd6e51aad88f6f4ce6ab8827279cfffb92266",
        "gas": "0xa7856",
        "value": "0x0",
        "input": "0x608060405234801561001057600080fd5b5060405161091438038061091483398101604081905261002f916100c0565b806001600160a01b03811661005e57604051631e4fbdf760e01b81526000600482015260240160405180910390fd5b6100678161006e565b50506100f0565b600380546001600160a01b038381166001600160a01b0319831681179093556040519116919082907f8be0079c531659141344cd1fd0a4f28419497f9722a3daafe3b4186f6b6457e090600090a35050565b6000602082840312156100d257600080fd5b81516001600160a01b03811681146100e957600080fd5b9392505050565b610815806100ff6000396000f3fe608060405234801561001057600080fd5b50600436106100935760003560e01c8063715018a611610066578063715018a61461012f5780638da5cb5b14610137578063a5954dd714610148578063dc9cc6451461015d578063f2fde38b1461017057600080fd5b806301ffc9a7146100985780630815f6fd146100e25780635c60da1b146100f7578063651dc03d1461011c575b600080fd5b6100cd6100a63660046106f5565b6001600160e01b0319166000908152602081905260409020546001600160a01b0316151590565b60405190151581526020015b60405180910390f35b6100f56100f036600461072e565b610183565b005b6002546001600160a01b03165b6040516001600160a01b0390911681526020016100d9565b6100f561012a366004610761565b610199565b6100f56101ad565b6003546001600160a01b0316610104565b6101506101c1565b6040516100d9919061077c565b61010461016b3660046106f5565b610246565b6100f561017e366004610761565b6102df565b61018b61031a565b6101958282610347565b5050565b6101a161031a565b6101aa81610371565b50565b6101b561031a565b6101bf60006103c6565b565b6060600180548060200260200160405190810160405280929190818152602001828054801561023c57602002820191906000526020600020906000905b82829054906101000a900460e01b6001600160e01b031916815260200190600401906020826003010492830192600103820291508084116101fe5790505b5050505050905090565b6001600160e01b031981166000908152602081905260408120546001600160a01b031680156102755792915050565b5060008080526020527fad3228b676f7d3cd4284a5443f17f1962b36e491b30a40b2405849e597ba5fb5546001600160a01b031680156102b55792915050565b60405163404ceef760e11b81526001600160e01b0319841660048201526024015b60405180910390fd5b6102e761031a565b6001600160a01b03811661031157604051631e4fbdf760e01b8152600060048201526024016102d6565b6101aa816103c6565b6003546001600160a01b031633146101bf5760405163118cdaa760e01b81523360048201526024016102d6565b6001600160a01b03811661035e5761019582610418565b61036782610514565b61019582826105bb565b600280546001600160a01b0319166001600160a01b0383169081179091556040519081527f159f10d3da077d18f228d52be447d552e7d1892d10f7af8f615658160e374729906020015b60405180910390a150565b600380546001600160a01b038381166001600160a01b0319831681179093556040519116919082907f8be0079c531659141344cd1fd0a4f28419497f9722a3daafe3b4186f6b6457e090600090a35050565b60005b6001548110156104bd57816001600160e01b03191660018281548110610443576104436107c9565b90600052602060002090600891828204019190066004029054906101000a900460e01b6001600160e01b031916036104b55760018181548110610488576104886107c9565b90600052602060002090600891828204019190066004026101000a81549063ffffffff02191690556104bd565b60010161041b565b506001600160e01b031981166000818152602081815260409182902080546001600160a01b031916905590519182527fb0f2f3a9229724df0b95683e95488b72aed817bc1a5bd6fe1d2e7504e92871cb91016103bb565b61051d81610660565b156105255750565b6001805480820182556000919091527fb10e2d527612073b26eecdfd717e6a320cf44b4afac2b0732d9fcbe2b7fa0cf66008820401805463ffffffff60079093166004026101000a928302191660e084901c929092029190911790556040516001600160e01b0319821681527fbe533f538959a17d76f1b09e966e741ee3b1183099682f96216c93d21feaecba906020016103bb565b806001600160a01b03163b6000036105f157604051630c76093760e01b81526001600160a01b03821660048201526024016102d6565b6001600160e01b031982166000818152602081815260409182902080546001600160a01b0319166001600160a01b0386169081179091558251938452908301527fda3c8142b3c1d27633026f55bfcb4eeb0b5b8db0daa0a3e10c2213a441722ad1910160405180910390a15050565b6000805b6001548110156106cf57826001600160e01b0319166001828154811061068c5761068c6107c9565b90600052602060002090600891828204019190066004029054906101000a900460e01b6001600160e01b031916036106c75750600192915050565b600101610664565b50600092915050565b80356001600160e01b0319811681146106f057600080fd5b919050565b60006020828403121561070757600080fd5b610710826106d8565b9392505050565b80356001600160a01b03811681146106f057600080fd5b6000806040838503121561074157600080fd5b61074a836106d8565b915061075860208401610717565b90509250929050565b60006020828403121561077357600080fd5b61071082610717565b602080825282518282018190526000918401906040840190835b818110156107be5783516001600160e01b031916835260209384019390920191600101610796565b509095945050505050565b634e487b7160e01b600052603260045260246000fdfea2646970667358221220412e573aa59fd977a3266ad81937acabd215642956df49437ac017320511d9db64736f6c634300081a0033000000000000000000000000f39fd6e51aad88f6f4ce6ab8827279cfffb92266",
        "nonce": "0x2123",
        "chainId": "0xaa36a7"
      },
      "additionalContracts": [],
      "isFixedGasLimit": false
    },
    {
      "hash": "0x681a7de3be5e513e9541acb6f879a0631a45e9f6f2b807083edba04aa20bbc6c",
      "transactionType": "CALL",
      "contractName": "Dictionary",
      "contractAddress": "0x12bfd1dc0d9b368096f0d5ef24a2084af934e067",
      "function": "setImplementation(bytes4,address)",
      "arguments": [
        "0x8ca89f7700000000000000000000000000000000000000000000000000000000",
        "0x0C521EcA10D7f98ac98f14BBf6261e0716e2989c"
      ],
      "transaction": {
        "from": "0xf39fd6e51aad88f6f4ce6ab8827279cfffb92266",
        "to": "0x12bfd1dc0d9b368096f0d5ef24a2084af934e067",
        "gas": "0x206fc",
        "value": "0x0",
        "input": "0x0815f6fd8ca89f77000000000000000000000000000000000000000000000000000000000000000000000000000000000c521eca10d7f98ac98f14bbf6261e0716e2989c",
        "nonce": "0x2124",
        "chainId": "0xaa36a7"
      },
      "additionalContracts": [],
      "isFixedGasLimit": false
    },
    {
      "hash": "0x235e57e791b8df67faa428e1ec76e4b3b28f8907bffd9d2617291a02c84a26dc",
      "transactionType": "CALL",
      "contractName": "Dictionary",
      "contractAddress": "0x12bfd1dc0d9b368096f0d5ef24a2084af934e067",
      "function": "setImplementation(bytes4,address)",
      "arguments": [
        "0xdc1ec0e500000000000000000000000000000000000000000000000000000000",
        "0xA7759921f1a8345791cBa9960485b47a0d7B0838"
      ],
      "transaction": {
        "from": "0xf39fd6e51aad88f6f4ce6ab8827279cfffb92266",
        "to": "0x12bfd1dc0d9b368096f0d5ef24a2084af934e067",
        "gas": "0x151c0",
        "value": "0x0",
        "input": "0x0815f6fddc1ec0e500000000000000000000000000000000000000000000000000000000000000000000000000000000a7759921f1a8345791cba9960485b47a0d7b0838",
        "nonce": "0x2125",
        "chainId": "0xaa36a7"
      },
      "additionalContracts": [],
      "isFixedGasLimit": false
    },
    {
      "hash": "0x64aa9824f0c591f64e5a3e6934574547531ed95be8a66010adc12795d50b9118",
      "transactionType": "CALL",
      "contractName": "Dictionary",
      "contractAddress": "0x12bfd1dc0d9b368096f0d5ef24a2084af934e067",
      "function": "setImplementation(bytes4,address)",
      "arguments": [
        "0x9f46786e00000000000000000000000000000000000000000000000000000000",
        "0x145D50E8dAeAAB284CAc5d888759657229fB723D"
      ],
      "transaction": {
        "from": "0xf39fd6e51aad88f6f4ce6ab8827279cfffb92266",
        "to": "0x12bfd1dc0d9b368096f0d5ef24a2084af934e067",
        "gas": "0x1691b",
        "value": "0x0",
        "input": "0x0815f6fd9f46786e00000000000000000000000000000000000000000000000000000000000000000000000000000000145d50e8daeaab284cac5d888759657229fb723d",
        "nonce": "0x2126",
        "chainId": "0xaa36a7"
      },
      "additionalContracts": [],
      "isFixedGasLimit": false
    },
    {
      "hash": "0x937ca524bbe9c7f2deebb718d53dbc75ab1b202d2bbf0d22acfb68439507dcd3",
      "transactionType": "CALL",
      "contractName": "Dictionary",
      "contractAddress": "0x12bfd1dc0d9b368096f0d5ef24a2084af934e067",
      "function": "setImplementation(bytes4,address)",
      "arguments": [
        "0x603d9eb700000000000000000000000000000000000000000000000000000000",
        "0xEABcB578F9Ef0B4583B523fc57C05188a098621E"
      ],
      "transaction": {
        "from": "0xf39fd6e51aad88f6f4ce6ab8827279cfffb92266",
        "to": "0x12bfd1dc0d9b368096f0d5ef24a2084af934e067",
        "gas": "0x16c96",
        "value": "0x0",
        "input": "0x0815f6fd603d9eb700000000000000000000000000000000000000000000000000000000000000000000000000000000eabcb578f9ef0b4583b523fc57c05188a098621e",
        "nonce": "0x2127",
        "chainId": "0xaa36a7"
      },
      "additionalContracts": [],
      "isFixedGasLimit": false
    },
    {
      "hash": "0x6cd6055ebc1d987a0e910388ad3cd3f7aa34fb9b0a0d3e55091e67de15dec405",
      "transactionType": "CALL",
      "contractName": "Dictionary",
      "contractAddress": "0x12bfd1dc0d9b368096f0d5ef24a2084af934e067",
      "function": "setImplementation(bytes4,address)",
      "arguments": [
        "0xc5b3644100000000000000000000000000000000000000000000000000000000",
        "0xe4F49E42BadB4A6E87E277A0140E9cE0F3e3B2e0"
      ],
      "transaction": {
        "from": "0xf39fd6e51aad88f6f4ce6ab8827279cfffb92266",
        "to": "0x12bfd1dc0d9b368096f0d5ef24a2084af934e067",
        "gas": "0x15b9f",
        "value": "0x0",
        "input": "0x0815f6fdc5b3644100000000000000000000000000000000000000000000000000000000000000000000000000000000e4f49e42badb4a6e87e277a0140e9ce0f3e3b2e0",
        "nonce": "0x2128",
        "chainId": "0xaa36a7"
      },
      "additionalContracts": [],
      "isFixedGasLimit": false
    },
    {
      "hash": "0x589b5033d0966e546f4b81bbea779cb5dddee46ca3b592008c28fc32fc33abb7",
      "transactionType": "CALL",
      "contractName": "Dictionary",
      "contractAddress": "0x12bfd1dc0d9b368096f0d5ef24a2084af934e067",
      "function": "setImplementation(bytes4,address)",
      "arguments": [
        "0xe69b9edc00000000000000000000000000000000000000000000000000000000",
        "0xe4F49E42BadB4A6E87E277A0140E9cE0F3e3B2e0"
      ],
      "transaction": {
        "from": "0xf39fd6e51aad88f6f4ce6ab8827279cfffb92266",
        "to": "0x12bfd1dc0d9b368096f0d5ef24a2084af934e067",
        "gas": "0x15ee9",
        "value": "0x0",
        "input": "0x0815f6fde69b9edc00000000000000000000000000000000000000000000000000000000000000000000000000000000e4f49e42badb4a6e87e277a0140e9ce0f3e3b2e0",
        "nonce": "0x2129",
        "chainId": "0xaa36a7"
      },
      "additionalContracts": [],
      "isFixedGasLimit": false
    },
    {
      "hash": "0xde050d9adac84a20d4db6dd4ce619ca1f11f0450e16c2d110733f7fbdcbc34d9",
      "transactionType": "CALL",
      "contractName": "Dictionary",
      "contractAddress": "0x12bfd1dc0d9b368096f0d5ef24a2084af934e067",
      "function": "setImplementation(bytes4,address)",
      "arguments": [
        "0xed8b6b3100000000000000000000000000000000000000000000000000000000",
        "0x9B552406037758e7f9B3623e6F0e678EF6Ceec3e"
      ],
      "transaction": {
        "from": "0xf39fd6e51aad88f6f4ce6ab8827279cfffb92266",
        "to": "0x12bfd1dc0d9b368096f0d5ef24a2084af934e067",
        "gas": "0x1770b",
        "value": "0x0",
        "input": "0x0815f6fded8b6b31000000000000000000000000000000000000000000000000000000000000000000000000000000009b552406037758e7f9b3623e6f0e678ef6ceec3e",
        "nonce": "0x212a",
        "chainId": "0xaa36a7"
      },
      "additionalContracts": [],
      "isFixedGasLimit": false
    },
    {
      "hash": "0xe36f092d5d1c1b3fcfb5bd25c66bf7af83ac8f7e213b41a50845e7671c2c5c1e",
      "transactionType": "CALL",
      "contractName": "Dictionary",
      "contractAddress": "0x12bfd1dc0d9b368096f0d5ef24a2084af934e067",
      "function": "setImplementation(bytes4,address)",
      "arguments": [
        "0xfe0d94c100000000000000000000000000000000000000000000000000000000",
        "0x7682B6DDC20CE79B1cc4C30647f0384E7F2Ab918"
      ],
      "transaction": {
        "from": "0xf39fd6e51aad88f6f4ce6ab8827279cfffb92266",
        "to": "0x12bfd1dc0d9b368096f0d5ef24a2084af934e067",
        "gas": "0x17a87",
        "value": "0x0",
        "input": "0x0815f6fdfe0d94c1000000000000000000000000000000000000000000000000000000000000000000000000000000007682b6ddc20ce79b1cc4c30647f0384e7f2ab918",
        "nonce": "0x212b",
        "chainId": "0xaa36a7"
      },
      "additionalContracts": [],
      "isFixedGasLimit": false
    },
    {
      "hash": "0x8fd4af81e716438a6e5f8cab38c2cf31ef101c5d74834447d576b72bdf6c8d78",
      "transactionType": "CALL",
      "contractName": "Dictionary",
      "contractAddress": "0x12bfd1dc0d9b368096f0d5ef24a2084af934e067",
      "function": "setImplementation(bytes4,address)",
      "arguments": [
        "0x06f7e36d00000000000000000000000000000000000000000000000000000000",
        "0xd37269d1A023AF210a191281f9a22D49f22f41D7"
      ],
      "transaction": {
        "from": "0xf39fd6e51aad88f6f4ce6ab8827279cfffb92266",
        "to": "0x12bfd1dc0d9b368096f0d5ef24a2084af934e067",
        "gas": "0x1cf92",
        "value": "0x0",
        "input": "0x0815f6fd06f7e36d00000000000000000000000000000000000000000000000000000000000000000000000000000000d37269d1a023af210a191281f9a22d49f22f41d7",
        "nonce": "0x212c",
        "chainId": "0xaa36a7"
      },
      "additionalContracts": [],
      "isFixedGasLimit": false
    },
    {
      "hash": "0xa6cbbef139e9a267765f2e61ac6bd2160102026c6c24e801a215be77fc2d95c1",
      "transactionType": "CALL",
      "contractName": "Dictionary",
      "contractAddress": "0x12bfd1dc0d9b368096f0d5ef24a2084af934e067",
      "function": "setImplementation(bytes4,address)",
      "arguments": [
        "0x5cefc4ad00000000000000000000000000000000000000000000000000000000",
        "0xCD24332ebE0E63ef540D69D2F8Aabe81F181dbb8"
      ],
      "transaction": {
        "from": "0xf39fd6e51aad88f6f4ce6ab8827279cfffb92266",
        "to": "0x12bfd1dc0d9b368096f0d5ef24a2084af934e067",
        "gas": "0x1769a",
        "value": "0x0",
        "input": "0x0815f6fd5cefc4ad00000000000000000000000000000000000000000000000000000000000000000000000000000000cd24332ebe0e63ef540d69d2f8aabe81f181dbb8",
        "nonce": "0x212d",
        "chainId": "0xaa36a7"
      },
      "additionalContracts": [],
      "isFixedGasLimit": false
    },
    {
      "hash": "0xd81d93d87175556a1dbf3cf991ee49eecb7b960b89cab9cedf40b0644245d215",
      "transactionType": "CALL",
      "contractName": "Dictionary",
      "contractAddress": "0x12bfd1dc0d9b368096f0d5ef24a2084af934e067",
      "function": "setImplementation(bytes4,address)",
      "arguments": [
        "0x9f31e87b00000000000000000000000000000000000000000000000000000000",
        "0xB0518f00C94193E58bf84FBD3E8Bb94a3BCB9151"
      ],
      "transaction": {
        "from": "0xf39fd6e51aad88f6f4ce6ab8827279cfffb92266",
        "to": "0x12bfd1dc0d9b368096f0d5ef24a2084af934e067",
        "gas": "0x1900e",
        "value": "0x0",
        "input": "0x0815f6fd9f31e87b00000000000000000000000000000000000000000000000000000000000000000000000000000000b0518f00c94193e58bf84fbd3e8bb94a3bcb9151",
        "nonce": "0x212e",
        "chainId": "0xaa36a7"
      },
      "additionalContracts": [],
      "isFixedGasLimit": false
    },
    {
      "hash": "0x9d6432f32961807ca2f6a3db1f3251a664620f0da4fe299855fd3df2da195280",
      "transactionType": "CALL",
      "contractName": "Dictionary",
      "contractAddress": "0x12bfd1dc0d9b368096f0d5ef24a2084af934e067",
      "function": "setImplementation(bytes4,address)",
      "arguments": [
        "0x9877696700000000000000000000000000000000000000000000000000000000",
        "0xc257A853f47bF2F9dABFBd5f39fdA52d331Ea66d"
      ],
      "transaction": {
        "from": "0xf39fd6e51aad88f6f4ce6ab8827279cfffb92266",
        "to": "0x12bfd1dc0d9b368096f0d5ef24a2084af934e067",
        "gas": "0x1939c",
        "value": "0x0",
        "input": "0x0815f6fd9877696700000000000000000000000000000000000000000000000000000000000000000000000000000000c257a853f47bf2f9dabfbd5f39fda52d331ea66d",
        "nonce": "0x212f",
        "chainId": "0xaa36a7"
      },
      "additionalContracts": [],
      "isFixedGasLimit": false
    },
    {
      "hash": "0x99f823ddeb33ad4424ff0a6102c9de94b6c5cbe94e219704e7aa137ec4338ce6",
      "transactionType": "CALL",
      "contractName": "Dictionary",
      "contractAddress": "0x12bfd1dc0d9b368096f0d5ef24a2084af934e067",
      "function": "setImplementation(bytes4,address)",
      "arguments": [
        "0xc7f758a800000000000000000000000000000000000000000000000000000000",
        "0x6A8222E3f009f5D38ea67ec04c512fF3E6770ED7"
      ],
      "transaction": {
        "from": "0xf39fd6e51aad88f6f4ce6ab8827279cfffb92266",
        "to": "0x12bfd1dc0d9b368096f0d5ef24a2084af934e067",
        "gas": "0x19717",
        "value": "0x0",
        "input": "0x0815f6fdc7f758a8000000000000000000000000000000000000000000000000000000000000000000000000000000006a8222e3f009f5d38ea67ec04c512ff3e6770ed7",
        "nonce": "0x2130",
        "chainId": "0xaa36a7"
      },
      "additionalContracts": [],
      "isFixedGasLimit": false
    },
    {
      "hash": "0x32855f25b5695fbe4724f0e22dd39ccb8c64aefffe1ab147df3c5512f49c84c6",
      "transactionType": "CALL",
      "contractName": "Dictionary",
      "contractAddress": "0x12bfd1dc0d9b368096f0d5ef24a2084af934e067",
      "function": "setImplementation(bytes4,address)",
      "arguments": [
        "0x6c996f8800000000000000000000000000000000000000000000000000000000",
        "0x6A8222E3f009f5D38ea67ec04c512fF3E6770ED7"
      ],
      "transaction": {
        "from": "0xf39fd6e51aad88f6f4ce6ab8827279cfffb92266",
        "to": "0x12bfd1dc0d9b368096f0d5ef24a2084af934e067",
        "gas": "0x183c4",
        "value": "0x0",
        "input": "0x0815f6fd6c996f88000000000000000000000000000000000000000000000000000000000000000000000000000000006a8222e3f009f5d38ea67ec04c512ff3e6770ed7",
        "nonce": "0x2131",
        "chainId": "0xaa36a7"
      },
      "additionalContracts": [],
      "isFixedGasLimit": false
    },
    {
      "hash": "0x0ab59b3fcb79d6087e170156e4cbb1a3f5ca936e7c539a50aebdc1d7c4b8fcd1",
      "transactionType": "CALL",
      "contractName": "Dictionary",
      "contractAddress": "0x12bfd1dc0d9b368096f0d5ef24a2084af934e067",
      "function": "setImplementation(bytes4,address)",
      "arguments": [
        "0xe810995300000000000000000000000000000000000000000000000000000000",
        "0x6A8222E3f009f5D38ea67ec04c512fF3E6770ED7"
      ],
      "transaction": {
        "from": "0xf39fd6e51aad88f6f4ce6ab8827279cfffb92266",
        "to": "0x12bfd1dc0d9b368096f0d5ef24a2084af934e067",
        "gas": "0x1870e",
        "value": "0x0",
        "input": "0x0815f6fde8109953000000000000000000000000000000000000000000000000000000000000000000000000000000006a8222e3f009f5d38ea67ec04c512ff3e6770ed7",
        "nonce": "0x2132",
        "chainId": "0xaa36a7"
      },
      "additionalContracts": [],
      "isFixedGasLimit": false
    },
    {
      "hash": "0xcac7d2722319e107a3f2e40506ada821a266cae169613b3a01b67a14dfab5e69",
      "transactionType": "CALL",
      "contractName": "Dictionary",
      "contractAddress": "0x12bfd1dc0d9b368096f0d5ef24a2084af934e067",
      "function": "setImplementation(bytes4,address)",
      "arguments": [
        "0x787e0fe000000000000000000000000000000000000000000000000000000000",
        "0x6A8222E3f009f5D38ea67ec04c512fF3E6770ED7"
      ],
      "transaction": {
        "from": "0xf39fd6e51aad88f6f4ce6ab8827279cfffb92266",
        "to": "0x12bfd1dc0d9b368096f0d5ef24a2084af934e067",
        "gas": "0x1a18c",
        "value": "0x0",
        "input": "0x0815f6fd787e0fe0000000000000000000000000000000000000000000000000000000000000000000000000000000006a8222e3f009f5d38ea67ec04c512ff3e6770ed7",
        "nonce": "0x2133",
        "chainId": "0xaa36a7"
      },
      "additionalContracts": [],
      "isFixedGasLimit": false
    },
    {
      "hash": "0x6baea0a9db8ff36c42b254f562f5d5f8b3b0860fb9500f8987135a7fc3a4b5c9",
      "transactionType": "CALL",
      "contractName": "Dictionary",
      "contractAddress": "0x12bfd1dc0d9b368096f0d5ef24a2084af934e067",
      "function": "setImplementation(bytes4,address)",
      "arguments": [
        "0xa4c5e9cb00000000000000000000000000000000000000000000000000000000",
        "0x6A8222E3f009f5D38ea67ec04c512fF3E6770ED7"
      ],
      "transaction": {
        "from": "0xf39fd6e51aad88f6f4ce6ab8827279cfffb92266",
        "to": "0x12bfd1dc0d9b368096f0d5ef24a2084af934e067",
        "gas": "0x1f46c",
        "value": "0x0",
        "input": "0x0815f6fda4c5e9cb000000000000000000000000000000000000000000000000000000000000000000000000000000006a8222e3f009f5d38ea67ec04c512ff3e6770ed7",
        "nonce": "0x2134",
        "chainId": "0xaa36a7"
      },
      "additionalContracts": [],
      "isFixedGasLimit": false
    },
    {
      "hash": "0x7ac237681ca307cd064f21fc0ee7901f3b2ec575285f4d061b76adc4efb41d2a",
      "transactionType": "CALL",
      "contractName": "Dictionary",
      "contractAddress": "0x12bfd1dc0d9b368096f0d5ef24a2084af934e067",
      "function": "setImplementation(bytes4,address)",
      "arguments": [
        "0x7f4ef9d400000000000000000000000000000000000000000000000000000000",
        "0x6A8222E3f009f5D38ea67ec04c512fF3E6770ED7"
      ],
      "transaction": {
        "from": "0xf39fd6e51aad88f6f4ce6ab8827279cfffb92266",
        "to": "0x12bfd1dc0d9b368096f0d5ef24a2084af934e067",
        "gas": "0x1b3a8",
        "value": "0x0",
        "input": "0x0815f6fd7f4ef9d4000000000000000000000000000000000000000000000000000000000000000000000000000000006a8222e3f009f5d38ea67ec04c512ff3e6770ed7",
        "nonce": "0x2135",
        "chainId": "0xaa36a7"
      },
      "additionalContracts": [],
      "isFixedGasLimit": false
    },
    {
      "hash": "0x9599d74ae1612e775bdbfe00bfd5e4c2e53a9f11a3754f41b2a759d76ce65dfa",
      "transactionType": "CALL",
      "contractName": "Dictionary",
      "contractAddress": "0x12bfd1dc0d9b368096f0d5ef24a2084af934e067",
      "function": "setImplementation(bytes4,address)",
      "arguments": [
        "0x2b7efac100000000000000000000000000000000000000000000000000000000",
        "0x6A8222E3f009f5D38ea67ec04c512fF3E6770ED7"
      ],
      "transaction": {
        "from": "0xf39fd6e51aad88f6f4ce6ab8827279cfffb92266",
        "to": "0x12bfd1dc0d9b368096f0d5ef24a2084af934e067",
        "gas": "0x19ebe",
        "value": "0x0",
        "input": "0x0815f6fd2b7efac1000000000000000000000000000000000000000000000000000000000000000000000000000000006a8222e3f009f5d38ea67ec04c512ff3e6770ed7",
        "nonce": "0x2136",
        "chainId": "0xaa36a7"
      },
      "additionalContracts": [],
      "isFixedGasLimit": false
    },
    {
      "hash": "0x28fea8c48f867ea25f204ebdd53f7a5a40ece56f3e69e3787c0255bf988d405f",
      "transactionType": "CALL",
      "contractName": "Dictionary",
      "contractAddress": "0x12bfd1dc0d9b368096f0d5ef24a2084af934e067",
      "function": "setImplementation(bytes4,address)",
      "arguments": [
        "0xab3545e500000000000000000000000000000000000000000000000000000000",
        "0x6A8222E3f009f5D38ea67ec04c512fF3E6770ED7"
      ],
      "transaction": {
        "from": "0xf39fd6e51aad88f6f4ce6ab8827279cfffb92266",
        "to": "0x12bfd1dc0d9b368096f0d5ef24a2084af934e067",
        "gas": "0x1a209",
        "value": "0x0",
        "input": "0x0815f6fdab3545e5000000000000000000000000000000000000000000000000000000000000000000000000000000006a8222e3f009f5d38ea67ec04c512ff3e6770ed7",
        "nonce": "0x2137",
        "chainId": "0xaa36a7"
      },
      "additionalContracts": [],
      "isFixedGasLimit": false
    },
    {
      "hash": "0x188f8f63d7e58f01e28b7bd9e3ddea0735bd475f02342e211dac07227ec3f475",
      "transactionType": "CALL",
      "contractName": "Dictionary",
      "contractAddress": "0x12bfd1dc0d9b368096f0d5ef24a2084af934e067",
      "function": "setImplementation(bytes4,address)",
      "arguments": [
        "0xcb37be9e00000000000000000000000000000000000000000000000000000000",
        "0x6A8222E3f009f5D38ea67ec04c512fF3E6770ED7"
      ],
      "transaction": {
        "from": "0xf39fd6e51aad88f6f4ce6ab8827279cfffb92266",
        "to": "0x12bfd1dc0d9b368096f0d5ef24a2084af934e067",
        "gas": "0x1be1d",
        "value": "0x0",
        "input": "0x0815f6fdcb37be9e000000000000000000000000000000000000000000000000000000000000000000000000000000006a8222e3f009f5d38ea67ec04c512ff3e6770ed7",
        "nonce": "0x2138",
        "chainId": "0xaa36a7"
      },
      "additionalContracts": [],
      "isFixedGasLimit": false
    },
    {
      "hash": "0xef28c334365fb6d914b46312a5e5c42ac686b9f6a22cfcd2f4c22f4ea8be1480",
      "transactionType": "CALL",
      "contractName": "Dictionary",
      "contractAddress": "0x12bfd1dc0d9b368096f0d5ef24a2084af934e067",
      "function": "setImplementation(bytes4,address)",
      "arguments": [
        "0xc1e582ba00000000000000000000000000000000000000000000000000000000",
        "0x6A8222E3f009f5D38ea67ec04c512fF3E6770ED7"
      ],
      "transaction": {
        "from": "0xf39fd6e51aad88f6f4ce6ab8827279cfffb92266",
        "to": "0x12bfd1dc0d9b368096f0d5ef24a2084af934e067",
        "gas": "0x1c198",
        "value": "0x0",
        "input": "0x0815f6fdc1e582ba000000000000000000000000000000000000000000000000000000000000000000000000000000006a8222e3f009f5d38ea67ec04c512ff3e6770ed7",
        "nonce": "0x2139",
        "chainId": "0xaa36a7"
      },
      "additionalContracts": [],
      "isFixedGasLimit": false
    },
    {
      "hash": "0x3e9f0d0234d519cdcc96d67eed3cb27cabe7431bec43b583e2ac3c7a4fda02a1",
      "transactionType": "CALL",
      "contractName": "Dictionary",
      "contractAddress": "0x12bfd1dc0d9b368096f0d5ef24a2084af934e067",
      "function": "setImplementation(bytes4,address)",
      "arguments": [
        "0x2a2c16a000000000000000000000000000000000000000000000000000000000",
        "0x6A8222E3f009f5D38ea67ec04c512fF3E6770ED7"
      ],
      "transaction": {
        "from": "0xf39fd6e51aad88f6f4ce6ab8827279cfffb92266",
        "to": "0x12bfd1dc0d9b368096f0d5ef24a2084af934e067",
        "gas": "0x1abe8",
        "value": "0x0",
        "input": "0x0815f6fd2a2c16a0000000000000000000000000000000000000000000000000000000000000000000000000000000006a8222e3f009f5d38ea67ec04c512ff3e6770ed7",
        "nonce": "0x213a",
        "chainId": "0xaa36a7"
      },
      "additionalContracts": [],
      "isFixedGasLimit": false
    },
    {
      "hash": "0x82c267c3cebec038f45d7aa7c9689c47a11057e060d387bb2f933d10c7f867c4",
      "transactionType": "CALL",
      "contractName": "Dictionary",
      "contractAddress": "0x12bfd1dc0d9b368096f0d5ef24a2084af934e067",
      "function": "setImplementation(bytes4,address)",
      "arguments": [
        "0xde3d9fb700000000000000000000000000000000000000000000000000000000",
        "0x6A8222E3f009f5D38ea67ec04c512fF3E6770ED7"
      ],
      "transaction": {
        "from": "0xf39fd6e51aad88f6f4ce6ab8827279cfffb92266",
        "to": "0x12bfd1dc0d9b368096f0d5ef24a2084af934e067",
        "gas": "0x1af32",
        "value": "0x0",
        "input": "0x0815f6fdde3d9fb7000000000000000000000000000000000000000000000000000000000000000000000000000000006a8222e3f009f5d38ea67ec04c512ff3e6770ed7",
        "nonce": "0x213b",
        "chainId": "0xaa36a7"
      },
      "additionalContracts": [],
      "isFixedGasLimit": false
    },
    {
      "hash": "0x0b8152c27d77dff29ad29de9a6db9a4b81e8bc05c86289c512d1ae77bf3b174e",
      "transactionType": "CALL",
      "contractName": "Dictionary",
      "contractAddress": "0x12bfd1dc0d9b368096f0d5ef24a2084af934e067",
      "function": "setImplementation(bytes4,address)",
      "arguments": [
        "0x9a5ea6a000000000000000000000000000000000000000000000000000000000",
        "0x6A8222E3f009f5D38ea67ec04c512fF3E6770ED7"
      ],
      "transaction": {
        "from": "0xf39fd6e51aad88f6f4ce6ab8827279cfffb92266",
        "to": "0x12bfd1dc0d9b368096f0d5ef24a2084af934e067",
        "gas": "0x238e1",
        "value": "0x0",
        "input": "0x0815f6fd9a5ea6a0000000000000000000000000000000000000000000000000000000000000000000000000000000006a8222e3f009f5d38ea67ec04c512ff3e6770ed7",
        "nonce": "0x213c",
        "chainId": "0xaa36a7"
      },
      "additionalContracts": [],
      "isFixedGasLimit": false
    },
    {
      "hash": "0x3fcf2810f97697f6809d27c2c4cfb55351e4cc15a22ea4508949cb7f2b88a1a9",
      "transactionType": "CALL",
      "contractName": "Dictionary",
      "contractAddress": "0x12bfd1dc0d9b368096f0d5ef24a2084af934e067",
      "function": "setImplementation(bytes4,address)",
      "arguments": [
        "0x25be10bd00000000000000000000000000000000000000000000000000000000",
        "0x6A8222E3f009f5D38ea67ec04c512fF3E6770ED7"
      ],
      "transaction": {
        "from": "0xf39fd6e51aad88f6f4ce6ab8827279cfffb92266",
        "to": "0x12bfd1dc0d9b368096f0d5ef24a2084af934e067",
        "gas": "0x1daad",
        "value": "0x0",
        "input": "0x0815f6fd25be10bd000000000000000000000000000000000000000000000000000000000000000000000000000000006a8222e3f009f5d38ea67ec04c512ff3e6770ed7",
        "nonce": "0x213d",
        "chainId": "0xaa36a7"
      },
      "additionalContracts": [],
      "isFixedGasLimit": false
    },
    {
      "hash": "0xb5f621500807cc81023cd2db05d532a08cc3b26a3d9d391258af198529e95984",
      "transactionType": "CALL",
      "contractName": "Dictionary",
      "contractAddress": "0x12bfd1dc0d9b368096f0d5ef24a2084af934e067",
      "function": "upgradeFacade(address)",
      "arguments": [
        "0xAE1D5A8eaD8ABC744d97533895AD632f18F471DC"
      ],
      "transaction": {
        "from": "0xf39fd6e51aad88f6f4ce6ab8827279cfffb92266",
        "to": "0x12bfd1dc0d9b368096f0d5ef24a2084af934e067",
        "gas": "0x10dbe",
        "value": "0x0",
        "input": "0x651dc03d000000000000000000000000ae1d5a8ead8abc744d97533895ad632f18f471dc",
        "nonce": "0x213e",
        "chainId": "0xaa36a7"
      },
      "additionalContracts": [],
      "isFixedGasLimit": false
    },
    {
      "hash": "0xd61a712cbf6dc9893e46a2f46dcaef2c65513dc46b344246c59218eee9c53f54",
      "transactionType": "CREATE",
      "contractName": null,
      "contractAddress": "0xa9ec4de0eaf65cade28e9b70ae8586dfb06d4dbc",
      "function": null,
      "arguments": null,
      "transaction": {
        "from": "0xf39fd6e51aad88f6f4ce6ab8827279cfffb92266",
        "gas": "0x3de18",
        "value": "0x0",
        "input": "0x60806040526040516105ed3803806105ed8339810160408190526100229161034b565b61002c828261003c565b6100358261011c565b5050610486565b61004582610160565b6040516001600160a01b03831681527fa657f2ad315cf3bb35cf1964158da75c3f334481df05a4a1644b2376b17a59b29060200160405180910390a18051156101105761010b6001600160a01b03831663dc9cc6456100a384610411565b6040516001600160e01b031960e084901b81168252919091166004820152602401602060405180830381865afa1580156100e1573d6000803e3d6000fd5b505050506040513d601f19601f82011682018060405250810190610105919061044f565b826101d5565b505050565b61011861024c565b5050565b807fa3f0ad74e5423aebfd80d3ef4346578335a9a72aeaee59ff6cb3582b35133d505b80546001600160a01b0319166001600160a01b039290921691909117905550565b806001600160a01b03163b6000036101ae5760405162461bcd60e51b815260206004820152600c60248201526b1393d397d0d3d395149050d560a21b60448201526064015b60405180910390fd5b807f267691be3525af8a813d30db0c9e2bad08f63baecf6dceb85e2cf3676cff56f461013f565b6060600080846001600160a01b0316846040516101f2919061046a565b600060405180830381855af49150503d806000811461022d576040519150601f19603f3d011682016040523d82523d6000602084013e610232565b606091505b50909250905061024385838361026d565b95945050505050565b341561026b5760405163b398979f60e01b815260040160405180910390fd5b565b6060826102825761027d826102cc565b6102c5565b815115801561029957506001600160a01b0384163b155b156102c257604051639996b31560e01b81526001600160a01b03851660048201526024016101a5565b50805b9392505050565b8051156102dc5780518082602001fd5b604051630a12f52160e11b815260040160405180910390fd5b80516001600160a01b038116811461030c57600080fd5b919050565b634e487b7160e01b600052604160045260246000fd5b60005b8381101561034257818101518382015260200161032a565b50506000910152565b6000806040838503121561035e57600080fd5b610367836102f5565b60208401519092506001600160401b0381111561038357600080fd5b8301601f8101851361039457600080fd5b80516001600160401b038111156103ad576103ad610311565b604051601f8201601f19908116603f011681016001600160401b03811182821017156103db576103db610311565b6040528181528282016020018710156103f357600080fd5b610404826020830160208601610327565b8093505050509250929050565b805160208201516001600160e01b0319811691906004821015610448576001600160e01b0319600483900360031b81901b82161692505b5050919050565b60006020828403121561046157600080fd5b6102c5826102f5565b6000825161047c818460208701610327565b9190910192915050565b610158806104956000396000f3fe608060405261000c61000e565b005b61001e610019610020565b6100ce565b565b60006100537f267691be3525af8a813d30db0c9e2bad08f63baecf6dceb85e2cf3676cff56f4546001600160a01b031690565b60405163dc9cc64560e01b81526001600160e01b03196000351660048201526001600160a01b03919091169063dc9cc64590602401602060405180830381865afa1580156100a5573d6000803e3d6000fd5b505050506040513d601f19601f820116820180604052508101906100c991906100f2565b905090565b3660008037600080366000845af43d6000803e8080156100ed573d6000f35b3d6000fd5b60006020828403121561010457600080fd5b81516001600160a01b038116811461011b57600080fd5b939250505056fea2646970667358221220edeb9a03e51fb4befaa08189d6da8fca48148c9e6789ddf587ece46a3ab49f3b64736f6c634300081a003300000000000000000000000012bfd1dc0d9b368096f0d5ef24a2084af934e06700000000000000000000000000000000000000000000000000000000000000400000000000000000000000000000000000000000000000000000000000000000",
        "nonce": "0x213f",
        "chainId": "0xaa36a7"
      },
      "additionalContracts": [],
      "isFixedGasLimit": false
    }
  ],
  "receipts": [
    {
      "status": "0x1",
      "cumulativeGasUsed": "0x56c94",
      "logs": [],
      "logsBloom": "0x00000000000000000000000000000000000000000000000000000000000000000000000000000000000000000000000000000000000000000000000000000000000000000000000000000000000000000000000000000000000000000000000000000000000000000000000000000000000000000000000000000000000000000000000000000000000000000000000000000000000000000000000000000000000000000000000000000000000000000000000000000000000000000000000000000000000000000000000000000000000000000000000000000000000000000000000000000000000000000000000000000000000000000000000000000000",
      "type": "0x0",
      "transactionHash": "0x3c4cfed7b3b57e71dc1c07835df525548af049cfe280766b2a0c889a8ac3c09a",
      "transactionIndex": "0x0",
      "blockHash": "0xf19acb8ee8dc94c6be1e293c9eada33befd653a45893234c1b1930b9d5c31138",
      "blockNumber": "0x5d4838",
      "gasUsed": "0x56c94",
      "effectiveGasPrice": "0x3b9b0960",
      "blobGasPrice": "0x1",
      "from": "0xf39fd6e51aad88f6f4ce6ab8827279cfffb92266",
      "to": null,
      "contractAddress": "0xe4f49e42badb4a6e87e277a0140e9ce0f3e3b2e0",
      "root": "0x0000000000000000000000000000000000000000000000000000000000000000"
    },
    {
      "status": "0x1",
      "cumulativeGasUsed": "0x7dd75",
      "logs": [],
      "logsBloom": "0x00000000000000000000000000000000000000000000000000000000000000000000000000000000000000000000000000000000000000000000000000000000000000000000000000000000000000000000000000000000000000000000000000000000000000000000000000000000000000000000000000000000000000000000000000000000000000000000000000000000000000000000000000000000000000000000000000000000000000000000000000000000000000000000000000000000000000000000000000000000000000000000000000000000000000000000000000000000000000000000000000000000000000000000000000000000",
      "type": "0x0",
      "transactionHash": "0x76d60bdb930b8aefc436d3e7e996927bbb25e2fb4509af310dab4013a922e962",
      "transactionIndex": "0x0",
      "blockHash": "0xd5fa829252a56c0bd701e17275222ada96a8b5b482887ca9d1d4d16516a259df",
      "blockNumber": "0x5d4839",
      "gasUsed": "0x7dd75",
      "effectiveGasPrice": "0x3b9b0960",
      "blobGasPrice": "0x1",
      "from": "0xf39fd6e51aad88f6f4ce6ab8827279cfffb92266",
      "to": null,
      "contractAddress": "0x0c521eca10d7f98ac98f14bbf6261e0716e2989c",
      "root": "0x0000000000000000000000000000000000000000000000000000000000000000"
    },
    {
      "status": "0x1",
      "cumulativeGasUsed": "0xbc1cf",
      "logs": [],
      "logsBloom": "0x00000000000000000000000000000000000000000000000000000000000000000000000000000000000000000000000000000000000000000000000000000000000000000000000000000000000000000000000000000000000000000000000000000000000000000000000000000000000000000000000000000000000000000000000000000000000000000000000000000000000000000000000000000000000000000000000000000000000000000000000000000000000000000000000000000000000000000000000000000000000000000000000000000000000000000000000000000000000000000000000000000000000000000000000000000000",
      "type": "0x0",
      "transactionHash": "0xda0bc40eb94155eea2f906761992ee6583a4341f5b0cd795b1ac66fa248a82f4",
      "transactionIndex": "0x1",
      "blockHash": "0xd5fa829252a56c0bd701e17275222ada96a8b5b482887ca9d1d4d16516a259df",
      "blockNumber": "0x5d4839",
      "gasUsed": "0x3e45a",
      "effectiveGasPrice": "0x3b9b0960",
      "blobGasPrice": "0x1",
      "from": "0xf39fd6e51aad88f6f4ce6ab8827279cfffb92266",
      "to": null,
      "contractAddress": "0xa7759921f1a8345791cba9960485b47a0d7b0838",
      "root": "0x0000000000000000000000000000000000000000000000000000000000000000"
    },
    {
      "status": "0x1",
      "cumulativeGasUsed": "0x182cc0",
      "logs": [],
      "logsBloom": "0x00000000000000000000000000000000000000000000000000000000000000000000000000000000000000000000000000000000000000000000000000000000000000000000000000000000000000000000000000000000000000000000000000000000000000000000000000000000000000000000000000000000000000000000000000000000000000000000000000000000000000000000000000000000000000000000000000000000000000000000000000000000000000000000000000000000000000000000000000000000000000000000000000000000000000000000000000000000000000000000000000000000000000000000000000000000",
      "type": "0x0",
      "transactionHash": "0xc9a2d87d8a3861952f769ccf247b51320f003fe55d59807d750d125e244923c4",
      "transactionIndex": "0x2",
      "blockHash": "0xd5fa829252a56c0bd701e17275222ada96a8b5b482887ca9d1d4d16516a259df",
      "blockNumber": "0x5d4839",
      "gasUsed": "0xc6af1",
      "effectiveGasPrice": "0x3b9b0960",
      "blobGasPrice": "0x1",
      "from": "0xf39fd6e51aad88f6f4ce6ab8827279cfffb92266",
      "to": null,
      "contractAddress": "0x145d50e8daeaab284cac5d888759657229fb723d",
      "root": "0x0000000000000000000000000000000000000000000000000000000000000000"
    },
    {
      "status": "0x1",
      "cumulativeGasUsed": "0x1fd5a5",
      "logs": [],
      "logsBloom": "0x00000000000000000000000000000000000000000000000000000000000000000000000000000000000000000000000000000000000000000000000000000000000000000000000000000000000000000000000000000000000000000000000000000000000000000000000000000000000000000000000000000000000000000000000000000000000000000000000000000000000000000000000000000000000000000000000000000000000000000000000000000000000000000000000000000000000000000000000000000000000000000000000000000000000000000000000000000000000000000000000000000000000000000000000000000000",
      "type": "0x0",
      "transactionHash": "0xf528b23266b6aaf18741ab744b5e8aadf683f40009848b46b0b023137f55b467",
      "transactionIndex": "0x3",
      "blockHash": "0xd5fa829252a56c0bd701e17275222ada96a8b5b482887ca9d1d4d16516a259df",
      "blockNumber": "0x5d4839",
      "gasUsed": "0x7a8e5",
      "effectiveGasPrice": "0x3b9b0960",
      "blobGasPrice": "0x1",
      "from": "0xf39fd6e51aad88f6f4ce6ab8827279cfffb92266",
      "to": null,
      "contractAddress": "0xeabcb578f9ef0b4583b523fc57c05188a098621e",
      "root": "0x0000000000000000000000000000000000000000000000000000000000000000"
    },
    {
      "status": "0x1",
      "cumulativeGasUsed": "0xb1a0b",
      "logs": [],
      "logsBloom": "0x00000000000000000000000000000000000000000000000000000000000000000000000000000000000000000000000000000000000000000000000000000000000000000000000000000000000000000000000000000000000000000000000000000000000000000000000000000000000000000000000000000000000000000000000000000000000000000000000000000000000000000000000000000000000000000000000000000000000000000000000000000000000000000000000000000000000000000000000000000000000000000000000000000000000000000000000000000000000000000000000000000000000000000000000000000000",
      "type": "0x0",
      "transactionHash": "0xf64b90d5008915b25ba330736524c7c72929dac543c57aad77657d63048ef107",
      "transactionIndex": "0x0",
      "blockHash": "0xeedf7d90d0313bdeca3c15f7a88892630762c334a610d2b46f67a5fcf622f521",
      "blockNumber": "0x5d483a",
      "gasUsed": "0xb1a0b",
      "effectiveGasPrice": "0x3b9b0960",
      "blobGasPrice": "0x1",
      "from": "0xf39fd6e51aad88f6f4ce6ab8827279cfffb92266",
      "to": null,
      "contractAddress": "0x9b552406037758e7f9b3623e6f0e678ef6ceec3e",
      "root": "0x0000000000000000000000000000000000000000000000000000000000000000"
    },
    {
      "status": "0x1",
      "cumulativeGasUsed": "0x14c83e",
      "logs": [],
      "logsBloom": "0x00000000000000000000000000000000000000000000000000000000000000000000000000000000000000000000000000000000000000000000000000000000000000000000000000000000000000000000000000000000000000000000000000000000000000000000000000000000000000000000000000000000000000000000000000000000000000000000000000000000000000000000000000000000000000000000000000000000000000000000000000000000000000000000000000000000000000000000000000000000000000000000000000000000000000000000000000000000000000000000000000000000000000000000000000000000",
      "type": "0x0",
      "transactionHash": "0xa3ec3a86109698eac6863dc765954804952bc8514bdd37b059d3ed9ee8e0b83d",
      "transactionIndex": "0x1",
      "blockHash": "0xeedf7d90d0313bdeca3c15f7a88892630762c334a610d2b46f67a5fcf622f521",
      "blockNumber": "0x5d483a",
      "gasUsed": "0x9ae33",
      "effectiveGasPrice": "0x3b9b0960",
      "blobGasPrice": "0x1",
      "from": "0xf39fd6e51aad88f6f4ce6ab8827279cfffb92266",
      "to": null,
      "contractAddress": "0x7682b6ddc20ce79b1cc4c30647f0384e7f2ab918",
      "root": "0x0000000000000000000000000000000000000000000000000000000000000000"
    },
    {
      "status": "0x1",
      "cumulativeGasUsed": "0x18c21c",
      "logs": [],
      "logsBloom": "0x00000000000000000000000000000000000000000000000000000000000000000000000000000000000000000000000000000000000000000000000000000000000000000000000000000000000000000000000000000000000000000000000000000000000000000000000000000000000000000000000000000000000000000000000000000000000000000000000000000000000000000000000000000000000000000000000000000000000000000000000000000000000000000000000000000000000000000000000000000000000000000000000000000000000000000000000000000000000000000000000000000000000000000000000000000000",
      "type": "0x0",
      "transactionHash": "0xc8f3e84ec2490b7ce1522dafa6c507f3aab8ef32343a6e80bce2702476df9d25",
      "transactionIndex": "0x2",
      "blockHash": "0xeedf7d90d0313bdeca3c15f7a88892630762c334a610d2b46f67a5fcf622f521",
      "blockNumber": "0x5d483a",
      "gasUsed": "0x3f9de",
      "effectiveGasPrice": "0x3b9b0960",
      "blobGasPrice": "0x1",
      "from": "0xf39fd6e51aad88f6f4ce6ab8827279cfffb92266",
      "to": null,
      "contractAddress": "0xd37269d1a023af210a191281f9a22d49f22f41d7",
      "root": "0x0000000000000000000000000000000000000000000000000000000000000000"
    },
    {
      "status": "0x1",
      "cumulativeGasUsed": "0x6a18b",
      "logs": [],
      "logsBloom": "0x00000000000000000000000000000000000000000000000000000000000000000000000000000000000000000000000000000000000000000000000000000000000000000000000000000000000000000000000000000000000000000000000000000000000000000000000000000000000000000000000000000000000000000000000000000000000000000000000000000000000000000000000000000000000000000000000000000000000000000000000000000000000000000000000000000000000000000000000000000000000000000000000000000000000000000000000000000000000000000000000000000000000000000000000000000000",
      "type": "0x0",
      "transactionHash": "0x4ca59e7fe1ff7d302a9da225fa0c28ea87a30e9f02cfc17621bf49f66f4fa166",
      "transactionIndex": "0x0",
      "blockHash": "0x62d13067bd7473ddc52095b3ceaf60e0832119f5eb39686cdcfaa5f117f2f0ac",
      "blockNumber": "0x5d483b",
      "gasUsed": "0x6a18b",
      "effectiveGasPrice": "0x3b9b0960",
      "blobGasPrice": "0x1",
      "from": "0xf39fd6e51aad88f6f4ce6ab8827279cfffb92266",
      "to": null,
      "contractAddress": "0xcd24332ebe0e63ef540d69d2f8aabe81f181dbb8",
      "root": "0x0000000000000000000000000000000000000000000000000000000000000000"
    },
    {
      "status": "0x1",
      "cumulativeGasUsed": "0x20cbd",
      "logs": [],
      "logsBloom": "0x00000000000000000000000000000000000000000000000000000000000000000000000000000000000000000000000000000000000000000000000000000000000000000000000000000000000000000000000000000000000000000000000000000000000000000000000000000000000000000000000000000000000000000000000000000000000000000000000000000000000000000000000000000000000000000000000000000000000000000000000000000000000000000000000000000000000000000000000000000000000000000000000000000000000000000000000000000000000000000000000000000000000000000000000000000000",
      "type": "0x0",
      "transactionHash": "0x2a8e8979ed67d596964ed25bd876dab3f42c15bb00fb743b5a4a6370d63f2dfa",
      "transactionIndex": "0x0",
      "blockHash": "0x2966689a9da99a58027b2cf3f9cb4424bc71d7346f844ea3767d49ed52d048e1",
      "blockNumber": "0x5d483c",
      "gasUsed": "0x20cbd",
      "effectiveGasPrice": "0x3b9b0960",
      "blobGasPrice": "0x1",
      "from": "0xf39fd6e51aad88f6f4ce6ab8827279cfffb92266",
      "to": null,
      "contractAddress": "0xb0518f00c94193e58bf84fbd3e8bb94a3bcb9151",
      "root": "0x0000000000000000000000000000000000000000000000000000000000000000"
    },
    {
      "status": "0x1",
      "cumulativeGasUsed": "0x3267a",
      "logs": [],
      "logsBloom": "0x00000000000000000000000000000000000000000000000000000000000000000000000000000000000000000000000000000000000000000000000000000000000000000000000000000000000000000000000000000000000000000000000000000000000000000000000000000000000000000000000000000000000000000000000000000000000000000000000000000000000000000000000000000000000000000000000000000000000000000000000000000000000000000000000000000000000000000000000000000000000000000000000000000000000000000000000000000000000000000000000000000000000000000000000000000000",
      "type": "0x0",
      "transactionHash": "0xd9efda423c26a01f25b86bca9af51c969085d5b9b9683c201f4e6101df7bd8a6",
      "transactionIndex": "0x0",
      "blockHash": "0x3f2b893140ea0f76cde9c4c6257468af68178be43df5c18855bac70420c7e6c4",
      "blockNumber": "0x5d483d",
      "gasUsed": "0x3267a",
      "effectiveGasPrice": "0x3b9b0960",
      "blobGasPrice": "0x1",
      "from": "0xf39fd6e51aad88f6f4ce6ab8827279cfffb92266",
      "to": null,
      "contractAddress": "0xc257a853f47bf2f9dabfbd5f39fda52d331ea66d",
      "root": "0x0000000000000000000000000000000000000000000000000000000000000000"
    },
    {
      "status": "0x1",
      "cumulativeGasUsed": "0xe6b58",
      "logs": [],
      "logsBloom": "0x00000000000000000000000000000000000000000000000000000000000000000000000000000000000000000000000000000000000000000000000000000000000000000000000000000000000000000000000000000000000000000000000000000000000000000000000000000000000000000000000000000000000000000000000000000000000000000000000000000000000000000000000000000000000000000000000000000000000000000000000000000000000000000000000000000000000000000000000000000000000000000000000000000000000000000000000000000000000000000000000000000000000000000000000000000000",
      "type": "0x0",
      "transactionHash": "0x4a4d391e6f3bc122cabdcce2bf9aad18ed73f7d18082f4ab4c1e155810521318",
      "transactionIndex": "0x0",
      "blockHash": "0xe2cb4caa2cedda7cffe0cbfb0d2e98a1fc28b376d2c00366f43f34e3758a5c8b",
      "blockNumber": "0x5d483e",
      "gasUsed": "0xe6b58",
      "effectiveGasPrice": "0x3b9b0960",
      "blobGasPrice": "0x1",
      "from": "0xf39fd6e51aad88f6f4ce6ab8827279cfffb92266",
      "to": null,
      "contractAddress": "0x6a8222e3f009f5d38ea67ec04c512ff3e6770ed7",
      "root": "0x0000000000000000000000000000000000000000000000000000000000000000"
    },
    {
      "status": "0x1",
      "cumulativeGasUsed": "0xab276",
      "logs": [],
      "logsBloom": "0x00000000000000000000000000000000000000000000000000000000000000000000000000000000000000000000000000000000000000000000000000000000000000000000000000000000000000000000000000000000000000000000000000000000000000000000000000000000000000000000000000000000000000000000000000000000000000000000000000000000000000000000000000000000000000000000000000000000000000000000000000000000000000000000000000000000000000000000000000000000000000000000000000000000000000000000000000000000000000000000000000000000000000000000000000000000",
      "type": "0x0",
      "transactionHash": "0x899cd762c472c4cf4e1f30b2ef295e07b0abbf211d4fd14c47aa4a85f428951b",
      "transactionIndex": "0x0",
      "blockHash": "0x1b00541eccce50d17e796e1a011ab0bb69cad17fe86176e6d2af8923fa29f4fa",
      "blockNumber": "0x5d483f",
      "gasUsed": "0xab276",
      "effectiveGasPrice": "0x3b9b0960",
      "blobGasPrice": "0x1",
      "from": "0xf39fd6e51aad88f6f4ce6ab8827279cfffb92266",
      "to": null,
      "contractAddress": "0xae1d5a8ead8abc744d97533895ad632f18f471dc",
      "root": "0x0000000000000000000000000000000000000000000000000000000000000000"
    },
    {
      "status": "0x1",
      "cumulativeGasUsed": "0x12c0d6",
      "logs": [
        {
          "address": "0x12bfd1dc0d9b368096f0d5ef24a2084af934e067",
          "topics": [
            "0x8be0079c531659141344cd1fd0a4f28419497f9722a3daafe3b4186f6b6457e0",
            "0x0000000000000000000000000000000000000000000000000000000000000000",
            "0x000000000000000000000000f39fd6e51aad88f6f4ce6ab8827279cfffb92266"
          ],
          "data": "0x",
          "blockHash": "0x1b00541eccce50d17e796e1a011ab0bb69cad17fe86176e6d2af8923fa29f4fa",
          "blockNumber": "0x5d483f",
          "blockTimestamp": "0x666d9644",
          "transactionHash": "0x07d09f63464f3f53dc1dd2677f5277b3e83b2ccf64b902a2a21c125f673cfc20",
          "transactionIndex": "0x1",
          "logIndex": "0x0",
          "removed": false
        }
      ],
      "logsBloom": "0x00000000000000000000000000000000000000000000000000800000000000000000000000000000000000000000000000000000000000000000000000000000000000000000000000000000000000000001000000000000000000001000000000000000020000000000000100000800000000000000200000000000000000400000000000000000000000000000000000000000000000000000000000000000000000000000000000000000000000000000000000800000000000000000000000000000000000200000000000000000000000002000000000000000000020000000000000000000000000000000000000000000000000000000000000000000",
      "type": "0x0",
      "transactionHash": "0x07d09f63464f3f53dc1dd2677f5277b3e83b2ccf64b902a2a21c125f673cfc20",
      "transactionIndex": "0x1",
      "blockHash": "0x1b00541eccce50d17e796e1a011ab0bb69cad17fe86176e6d2af8923fa29f4fa",
      "blockNumber": "0x5d483f",
      "gasUsed": "0x80e60",
      "effectiveGasPrice": "0x3b9b0960",
      "blobGasPrice": "0x1",
      "from": "0xf39fd6e51aad88f6f4ce6ab8827279cfffb92266",
      "to": null,
      "contractAddress": "0x12bfd1dc0d9b368096f0d5ef24a2084af934e067",
      "root": "0x0000000000000000000000000000000000000000000000000000000000000000"
    },
    {
      "status": "0x1",
      "cumulativeGasUsed": "0x177bd",
      "logs": [
        {
          "address": "0x12bfd1dc0d9b368096f0d5ef24a2084af934e067",
          "topics": [
            "0xbe533f538959a17d76f1b09e966e741ee3b1183099682f96216c93d21feaecba"
          ],
          "data": "0x8ca89f7700000000000000000000000000000000000000000000000000000000",
          "blockHash": "0x5c732d3e333101cf04f5edbeeb75ef2262ff5a44f8270c27965e25e7b720a09d",
          "blockNumber": "0x5d4840",
          "blockTimestamp": "0x666d9645",
          "transactionHash": "0x681a7de3be5e513e9541acb6f879a0631a45e9f6f2b807083edba04aa20bbc6c",
          "transactionIndex": "0x0",
          "logIndex": "0x0",
          "removed": false
        },
        {
          "address": "0x12bfd1dc0d9b368096f0d5ef24a2084af934e067",
          "topics": [
            "0xda3c8142b3c1d27633026f55bfcb4eeb0b5b8db0daa0a3e10c2213a441722ad1"
          ],
          "data": "0x8ca89f77000000000000000000000000000000000000000000000000000000000000000000000000000000000c521eca10d7f98ac98f14bbf6261e0716e2989c",
          "blockHash": "0x5c732d3e333101cf04f5edbeeb75ef2262ff5a44f8270c27965e25e7b720a09d",
          "blockNumber": "0x5d4840",
          "blockTimestamp": "0x666d9645",
          "transactionHash": "0x681a7de3be5e513e9541acb6f879a0631a45e9f6f2b807083edba04aa20bbc6c",
          "transactionIndex": "0x0",
          "logIndex": "0x1",
          "removed": false
        }
      ],
      "logsBloom": "0x00000000000000000000000000000000000000000000000000000000000000080000000000000000000000000000000000000000000000000000000000000000000000000000000000000000000000000000000000000000000000001000000000000000000000000000200000000000000000000000200010000000000000000000000000000000000000000000100000000000000000000000000000000000000000000000000000004000080000000000000000800000000000000000000000000000000000000000000000000000000000000000000000000000000000000000000000000000000000000000000000000000000000000000000000000000",
      "type": "0x0",
      "transactionHash": "0x681a7de3be5e513e9541acb6f879a0631a45e9f6f2b807083edba04aa20bbc6c",
      "transactionIndex": "0x0",
      "blockHash": "0x5c732d3e333101cf04f5edbeeb75ef2262ff5a44f8270c27965e25e7b720a09d",
      "blockNumber": "0x5d4840",
      "gasUsed": "0x177bd",
      "effectiveGasPrice": "0x3b9b0960",
      "blobGasPrice": "0x1",
      "from": "0xf39fd6e51aad88f6f4ce6ab8827279cfffb92266",
      "to": "0x12bfd1dc0d9b368096f0d5ef24a2084af934e067",
      "contractAddress": null,
      "root": "0x0000000000000000000000000000000000000000000000000000000000000000"
    },
    {
      "status": "0x1",
      "cumulativeGasUsed": "0xf487",
      "logs": [
        {
          "address": "0x12bfd1dc0d9b368096f0d5ef24a2084af934e067",
          "topics": [
            "0xbe533f538959a17d76f1b09e966e741ee3b1183099682f96216c93d21feaecba"
          ],
          "data": "0xdc1ec0e500000000000000000000000000000000000000000000000000000000",
          "blockHash": "0x960ab5d6184b098fae7bfc8dfc895bdbc34f5e75971f27cda3ba4b9ab6041dc3",
          "blockNumber": "0x5d4841",
          "blockTimestamp": "0x666d9646",
          "transactionHash": "0x235e57e791b8df67faa428e1ec76e4b3b28f8907bffd9d2617291a02c84a26dc",
          "transactionIndex": "0x0",
          "logIndex": "0x0",
          "removed": false
        },
        {
          "address": "0x12bfd1dc0d9b368096f0d5ef24a2084af934e067",
          "topics": [
            "0xda3c8142b3c1d27633026f55bfcb4eeb0b5b8db0daa0a3e10c2213a441722ad1"
          ],
          "data": "0xdc1ec0e500000000000000000000000000000000000000000000000000000000000000000000000000000000a7759921f1a8345791cba9960485b47a0d7b0838",
          "blockHash": "0x960ab5d6184b098fae7bfc8dfc895bdbc34f5e75971f27cda3ba4b9ab6041dc3",
          "blockNumber": "0x5d4841",
          "blockTimestamp": "0x666d9646",
          "transactionHash": "0x235e57e791b8df67faa428e1ec76e4b3b28f8907bffd9d2617291a02c84a26dc",
          "transactionIndex": "0x0",
          "logIndex": "0x1",
          "removed": false
        }
      ],
      "logsBloom": "0x00000000000000000000000000000000000000000000000000000000000000080000000000000000000000000000000000000000000000000000000000000000000000000000000000000000000000000000000000000000000000001000000000000000000000000000200000000000000000000000200010000000000000000000000000000000000000000000100000000000000000000000000000000000000000000000000000004000080000000000000000800000000000000000000000000000000000000000000000000000000000000000000000000000000000000000000000000000000000000000000000000000000000000000000000000000",
      "type": "0x0",
      "transactionHash": "0x235e57e791b8df67faa428e1ec76e4b3b28f8907bffd9d2617291a02c84a26dc",
      "transactionIndex": "0x0",
      "blockHash": "0x960ab5d6184b098fae7bfc8dfc895bdbc34f5e75971f27cda3ba4b9ab6041dc3",
      "blockNumber": "0x5d4841",
      "gasUsed": "0xf487",
      "effectiveGasPrice": "0x3b9b0960",
      "blobGasPrice": "0x1",
      "from": "0xf39fd6e51aad88f6f4ce6ab8827279cfffb92266",
      "to": "0x12bfd1dc0d9b368096f0d5ef24a2084af934e067",
      "contractAddress": null,
      "root": "0x0000000000000000000000000000000000000000000000000000000000000000"
    },
    {
      "status": "0x1",
      "cumulativeGasUsed": "0xf6e9",
      "logs": [
        {
          "address": "0x12bfd1dc0d9b368096f0d5ef24a2084af934e067",
          "topics": [
            "0xbe533f538959a17d76f1b09e966e741ee3b1183099682f96216c93d21feaecba"
          ],
          "data": "0x9f46786e00000000000000000000000000000000000000000000000000000000",
          "blockHash": "0xb4b84e35218126126fa1d86a925c2a7e8a3b15684bf5f3fe9b95980c29fed89c",
          "blockNumber": "0x5d4842",
          "blockTimestamp": "0x666d9647",
          "transactionHash": "0x64aa9824f0c591f64e5a3e6934574547531ed95be8a66010adc12795d50b9118",
          "transactionIndex": "0x0",
          "logIndex": "0x0",
          "removed": false
        },
        {
          "address": "0x12bfd1dc0d9b368096f0d5ef24a2084af934e067",
          "topics": [
            "0xda3c8142b3c1d27633026f55bfcb4eeb0b5b8db0daa0a3e10c2213a441722ad1"
          ],
          "data": "0x9f46786e00000000000000000000000000000000000000000000000000000000000000000000000000000000145d50e8daeaab284cac5d888759657229fb723d",
          "blockHash": "0xb4b84e35218126126fa1d86a925c2a7e8a3b15684bf5f3fe9b95980c29fed89c",
          "blockNumber": "0x5d4842",
          "blockTimestamp": "0x666d9647",
          "transactionHash": "0x64aa9824f0c591f64e5a3e6934574547531ed95be8a66010adc12795d50b9118",
          "transactionIndex": "0x0",
          "logIndex": "0x1",
          "removed": false
        }
      ],
      "logsBloom": "0x00000000000000000000000000000000000000000000000000000000000000080000000000000000000000000000000000000000000000000000000000000000000000000000000000000000000000000000000000000000000000001000000000000000000000000000200000000000000000000000200010000000000000000000000000000000000000000000100000000000000000000000000000000000000000000000000000004000080000000000000000800000000000000000000000000000000000000000000000000000000000000000000000000000000000000000000000000000000000000000000000000000000000000000000000000000",
      "type": "0x0",
      "transactionHash": "0x64aa9824f0c591f64e5a3e6934574547531ed95be8a66010adc12795d50b9118",
      "transactionIndex": "0x0",
      "blockHash": "0xb4b84e35218126126fa1d86a925c2a7e8a3b15684bf5f3fe9b95980c29fed89c",
      "blockNumber": "0x5d4842",
      "gasUsed": "0xf6e9",
      "effectiveGasPrice": "0x3b9b0960",
      "blobGasPrice": "0x1",
      "from": "0xf39fd6e51aad88f6f4ce6ab8827279cfffb92266",
      "to": "0x12bfd1dc0d9b368096f0d5ef24a2084af934e067",
      "contractAddress": null,
      "root": "0x0000000000000000000000000000000000000000000000000000000000000000"
    },
    {
      "status": "0x1",
      "cumulativeGasUsed": "0x1f034",
      "logs": [
        {
          "address": "0x12bfd1dc0d9b368096f0d5ef24a2084af934e067",
          "topics": [
            "0xbe533f538959a17d76f1b09e966e741ee3b1183099682f96216c93d21feaecba"
          ],
          "data": "0x603d9eb700000000000000000000000000000000000000000000000000000000",
          "blockHash": "0xb4b84e35218126126fa1d86a925c2a7e8a3b15684bf5f3fe9b95980c29fed89c",
          "blockNumber": "0x5d4842",
          "blockTimestamp": "0x666d9647",
          "transactionHash": "0x937ca524bbe9c7f2deebb718d53dbc75ab1b202d2bbf0d22acfb68439507dcd3",
          "transactionIndex": "0x1",
          "logIndex": "0x2",
          "removed": false
        },
        {
          "address": "0x12bfd1dc0d9b368096f0d5ef24a2084af934e067",
          "topics": [
            "0xda3c8142b3c1d27633026f55bfcb4eeb0b5b8db0daa0a3e10c2213a441722ad1"
          ],
          "data": "0x603d9eb700000000000000000000000000000000000000000000000000000000000000000000000000000000eabcb578f9ef0b4583b523fc57c05188a098621e",
          "blockHash": "0xb4b84e35218126126fa1d86a925c2a7e8a3b15684bf5f3fe9b95980c29fed89c",
          "blockNumber": "0x5d4842",
          "blockTimestamp": "0x666d9647",
          "transactionHash": "0x937ca524bbe9c7f2deebb718d53dbc75ab1b202d2bbf0d22acfb68439507dcd3",
          "transactionIndex": "0x1",
          "logIndex": "0x3",
          "removed": false
        }
      ],
      "logsBloom": "0x00000000000000000000000000000000000000000000000000000000000000080000000000000000000000000000000000000000000000000000000000000000000000000000000000000000000000000000000000000000000000001000000000000000000000000000200000000000000000000000200010000000000000000000000000000000000000000000100000000000000000000000000000000000000000000000000000004000080000000000000000800000000000000000000000000000000000000000000000000000000000000000000000000000000000000000000000000000000000000000000000000000000000000000000000000000",
      "type": "0x0",
      "transactionHash": "0x937ca524bbe9c7f2deebb718d53dbc75ab1b202d2bbf0d22acfb68439507dcd3",
      "transactionIndex": "0x1",
      "blockHash": "0xb4b84e35218126126fa1d86a925c2a7e8a3b15684bf5f3fe9b95980c29fed89c",
      "blockNumber": "0x5d4842",
      "gasUsed": "0xf94b",
      "effectiveGasPrice": "0x3b9b0960",
      "blobGasPrice": "0x1",
      "from": "0xf39fd6e51aad88f6f4ce6ab8827279cfffb92266",
      "to": "0x12bfd1dc0d9b368096f0d5ef24a2084af934e067",
      "contractAddress": null,
      "root": "0x0000000000000000000000000000000000000000000000000000000000000000"
    },
    {
      "status": "0x1",
      "cumulativeGasUsed": "0x2ebe1",
      "logs": [
        {
          "address": "0x12bfd1dc0d9b368096f0d5ef24a2084af934e067",
          "topics": [
            "0xbe533f538959a17d76f1b09e966e741ee3b1183099682f96216c93d21feaecba"
          ],
          "data": "0xc5b3644100000000000000000000000000000000000000000000000000000000",
          "blockHash": "0xb4b84e35218126126fa1d86a925c2a7e8a3b15684bf5f3fe9b95980c29fed89c",
          "blockNumber": "0x5d4842",
          "blockTimestamp": "0x666d9647",
          "transactionHash": "0x6cd6055ebc1d987a0e910388ad3cd3f7aa34fb9b0a0d3e55091e67de15dec405",
          "transactionIndex": "0x2",
          "logIndex": "0x4",
          "removed": false
        },
        {
          "address": "0x12bfd1dc0d9b368096f0d5ef24a2084af934e067",
          "topics": [
            "0xda3c8142b3c1d27633026f55bfcb4eeb0b5b8db0daa0a3e10c2213a441722ad1"
          ],
          "data": "0xc5b3644100000000000000000000000000000000000000000000000000000000000000000000000000000000e4f49e42badb4a6e87e277a0140e9ce0f3e3b2e0",
          "blockHash": "0xb4b84e35218126126fa1d86a925c2a7e8a3b15684bf5f3fe9b95980c29fed89c",
          "blockNumber": "0x5d4842",
          "blockTimestamp": "0x666d9647",
          "transactionHash": "0x6cd6055ebc1d987a0e910388ad3cd3f7aa34fb9b0a0d3e55091e67de15dec405",
          "transactionIndex": "0x2",
          "logIndex": "0x5",
          "removed": false
        }
      ],
      "logsBloom": "0x00000000000000000000000000000000000000000000000000000000000000080000000000000000000000000000000000000000000000000000000000000000000000000000000000000000000000000000000000000000000000001000000000000000000000000000200000000000000000000000200010000000000000000000000000000000000000000000100000000000000000000000000000000000000000000000000000004000080000000000000000800000000000000000000000000000000000000000000000000000000000000000000000000000000000000000000000000000000000000000000000000000000000000000000000000000",
      "type": "0x0",
      "transactionHash": "0x6cd6055ebc1d987a0e910388ad3cd3f7aa34fb9b0a0d3e55091e67de15dec405",
      "transactionIndex": "0x2",
      "blockHash": "0xb4b84e35218126126fa1d86a925c2a7e8a3b15684bf5f3fe9b95980c29fed89c",
      "blockNumber": "0x5d4842",
      "gasUsed": "0xfbad",
      "effectiveGasPrice": "0x3b9b0960",
      "blobGasPrice": "0x1",
      "from": "0xf39fd6e51aad88f6f4ce6ab8827279cfffb92266",
      "to": "0x12bfd1dc0d9b368096f0d5ef24a2084af934e067",
      "contractAddress": null,
      "root": "0x0000000000000000000000000000000000000000000000000000000000000000"
    },
    {
      "status": "0x1",
      "cumulativeGasUsed": "0xfe0f",
      "logs": [
        {
          "address": "0x12bfd1dc0d9b368096f0d5ef24a2084af934e067",
          "topics": [
            "0xbe533f538959a17d76f1b09e966e741ee3b1183099682f96216c93d21feaecba"
          ],
          "data": "0xe69b9edc00000000000000000000000000000000000000000000000000000000",
          "blockHash": "0x3a5f63ecc5c23d22333225baa9d6610ef19f6f271d6ead0ac235c1b9ab9e0313",
          "blockNumber": "0x5d4843",
          "blockTimestamp": "0x666d9648",
          "transactionHash": "0x589b5033d0966e546f4b81bbea779cb5dddee46ca3b592008c28fc32fc33abb7",
          "transactionIndex": "0x0",
          "logIndex": "0x0",
          "removed": false
        },
        {
          "address": "0x12bfd1dc0d9b368096f0d5ef24a2084af934e067",
          "topics": [
            "0xda3c8142b3c1d27633026f55bfcb4eeb0b5b8db0daa0a3e10c2213a441722ad1"
          ],
          "data": "0xe69b9edc00000000000000000000000000000000000000000000000000000000000000000000000000000000e4f49e42badb4a6e87e277a0140e9ce0f3e3b2e0",
          "blockHash": "0x3a5f63ecc5c23d22333225baa9d6610ef19f6f271d6ead0ac235c1b9ab9e0313",
          "blockNumber": "0x5d4843",
          "blockTimestamp": "0x666d9648",
          "transactionHash": "0x589b5033d0966e546f4b81bbea779cb5dddee46ca3b592008c28fc32fc33abb7",
          "transactionIndex": "0x0",
          "logIndex": "0x1",
          "removed": false
        }
      ],
      "logsBloom": "0x00000000000000000000000000000000000000000000000000000000000000080000000000000000000000000000000000000000000000000000000000000000000000000000000000000000000000000000000000000000000000001000000000000000000000000000200000000000000000000000200010000000000000000000000000000000000000000000100000000000000000000000000000000000000000000000000000004000080000000000000000800000000000000000000000000000000000000000000000000000000000000000000000000000000000000000000000000000000000000000000000000000000000000000000000000000",
      "type": "0x0",
      "transactionHash": "0x589b5033d0966e546f4b81bbea779cb5dddee46ca3b592008c28fc32fc33abb7",
      "transactionIndex": "0x0",
      "blockHash": "0x3a5f63ecc5c23d22333225baa9d6610ef19f6f271d6ead0ac235c1b9ab9e0313",
      "blockNumber": "0x5d4843",
      "gasUsed": "0xfe0f",
      "effectiveGasPrice": "0x3b9b0960",
      "blobGasPrice": "0x1",
      "from": "0xf39fd6e51aad88f6f4ce6ab8827279cfffb92266",
      "to": "0x12bfd1dc0d9b368096f0d5ef24a2084af934e067",
      "contractAddress": null,
      "root": "0x0000000000000000000000000000000000000000000000000000000000000000"
    },
    {
      "status": "0x1",
      "cumulativeGasUsed": "0x1fe80",
      "logs": [
        {
          "address": "0x12bfd1dc0d9b368096f0d5ef24a2084af934e067",
          "topics": [
            "0xbe533f538959a17d76f1b09e966e741ee3b1183099682f96216c93d21feaecba"
          ],
          "data": "0xed8b6b3100000000000000000000000000000000000000000000000000000000",
          "blockHash": "0x3a5f63ecc5c23d22333225baa9d6610ef19f6f271d6ead0ac235c1b9ab9e0313",
          "blockNumber": "0x5d4843",
          "blockTimestamp": "0x666d9648",
          "transactionHash": "0xde050d9adac84a20d4db6dd4ce619ca1f11f0450e16c2d110733f7fbdcbc34d9",
          "transactionIndex": "0x1",
          "logIndex": "0x2",
          "removed": false
        },
        {
          "address": "0x12bfd1dc0d9b368096f0d5ef24a2084af934e067",
          "topics": [
            "0xda3c8142b3c1d27633026f55bfcb4eeb0b5b8db0daa0a3e10c2213a441722ad1"
          ],
          "data": "0xed8b6b31000000000000000000000000000000000000000000000000000000000000000000000000000000009b552406037758e7f9b3623e6f0e678ef6ceec3e",
          "blockHash": "0x3a5f63ecc5c23d22333225baa9d6610ef19f6f271d6ead0ac235c1b9ab9e0313",
          "blockNumber": "0x5d4843",
          "blockTimestamp": "0x666d9648",
          "transactionHash": "0xde050d9adac84a20d4db6dd4ce619ca1f11f0450e16c2d110733f7fbdcbc34d9",
          "transactionIndex": "0x1",
          "logIndex": "0x3",
          "removed": false
        }
      ],
      "logsBloom": "0x00000000000000000000000000000000000000000000000000000000000000080000000000000000000000000000000000000000000000000000000000000000000000000000000000000000000000000000000000000000000000001000000000000000000000000000200000000000000000000000200010000000000000000000000000000000000000000000100000000000000000000000000000000000000000000000000000004000080000000000000000800000000000000000000000000000000000000000000000000000000000000000000000000000000000000000000000000000000000000000000000000000000000000000000000000000",
      "type": "0x0",
      "transactionHash": "0xde050d9adac84a20d4db6dd4ce619ca1f11f0450e16c2d110733f7fbdcbc34d9",
      "transactionIndex": "0x1",
      "blockHash": "0x3a5f63ecc5c23d22333225baa9d6610ef19f6f271d6ead0ac235c1b9ab9e0313",
      "blockNumber": "0x5d4843",
      "gasUsed": "0x10071",
      "effectiveGasPrice": "0x3b9b0960",
      "blobGasPrice": "0x1",
      "from": "0xf39fd6e51aad88f6f4ce6ab8827279cfffb92266",
      "to": "0x12bfd1dc0d9b368096f0d5ef24a2084af934e067",
      "contractAddress": null,
      "root": "0x0000000000000000000000000000000000000000000000000000000000000000"
    },
    {
      "status": "0x1",
      "cumulativeGasUsed": "0x30153",
      "logs": [
        {
          "address": "0x12bfd1dc0d9b368096f0d5ef24a2084af934e067",
          "topics": [
            "0xbe533f538959a17d76f1b09e966e741ee3b1183099682f96216c93d21feaecba"
          ],
          "data": "0xfe0d94c100000000000000000000000000000000000000000000000000000000",
          "blockHash": "0x3a5f63ecc5c23d22333225baa9d6610ef19f6f271d6ead0ac235c1b9ab9e0313",
          "blockNumber": "0x5d4843",
          "blockTimestamp": "0x666d9648",
          "transactionHash": "0xe36f092d5d1c1b3fcfb5bd25c66bf7af83ac8f7e213b41a50845e7671c2c5c1e",
          "transactionIndex": "0x2",
          "logIndex": "0x4",
          "removed": false
        },
        {
          "address": "0x12bfd1dc0d9b368096f0d5ef24a2084af934e067",
          "topics": [
            "0xda3c8142b3c1d27633026f55bfcb4eeb0b5b8db0daa0a3e10c2213a441722ad1"
          ],
          "data": "0xfe0d94c1000000000000000000000000000000000000000000000000000000000000000000000000000000007682b6ddc20ce79b1cc4c30647f0384e7f2ab918",
          "blockHash": "0x3a5f63ecc5c23d22333225baa9d6610ef19f6f271d6ead0ac235c1b9ab9e0313",
          "blockNumber": "0x5d4843",
          "blockTimestamp": "0x666d9648",
          "transactionHash": "0xe36f092d5d1c1b3fcfb5bd25c66bf7af83ac8f7e213b41a50845e7671c2c5c1e",
          "transactionIndex": "0x2",
          "logIndex": "0x5",
          "removed": false
        }
      ],
      "logsBloom": "0x00000000000000000000000000000000000000000000000000000000000000080000000000000000000000000000000000000000000000000000000000000000000000000000000000000000000000000000000000000000000000001000000000000000000000000000200000000000000000000000200010000000000000000000000000000000000000000000100000000000000000000000000000000000000000000000000000004000080000000000000000800000000000000000000000000000000000000000000000000000000000000000000000000000000000000000000000000000000000000000000000000000000000000000000000000000",
      "type": "0x0",
      "transactionHash": "0xe36f092d5d1c1b3fcfb5bd25c66bf7af83ac8f7e213b41a50845e7671c2c5c1e",
      "transactionIndex": "0x2",
      "blockHash": "0x3a5f63ecc5c23d22333225baa9d6610ef19f6f271d6ead0ac235c1b9ab9e0313",
      "blockNumber": "0x5d4843",
      "gasUsed": "0x102d3",
      "effectiveGasPrice": "0x3b9b0960",
      "blobGasPrice": "0x1",
      "from": "0xf39fd6e51aad88f6f4ce6ab8827279cfffb92266",
      "to": "0x12bfd1dc0d9b368096f0d5ef24a2084af934e067",
      "contractAddress": null,
      "root": "0x0000000000000000000000000000000000000000000000000000000000000000"
    },
    {
      "status": "0x1",
      "cumulativeGasUsed": "0x14f9f",
      "logs": [
        {
          "address": "0x12bfd1dc0d9b368096f0d5ef24a2084af934e067",
          "topics": [
            "0xbe533f538959a17d76f1b09e966e741ee3b1183099682f96216c93d21feaecba"
          ],
          "data": "0x06f7e36d00000000000000000000000000000000000000000000000000000000",
          "blockHash": "0x38ecf1713cb782ac8ac65b94330e7e3dd122bc3fcdfa43157652ae600a6446ed",
          "blockNumber": "0x5d4844",
          "blockTimestamp": "0x666d9649",
          "transactionHash": "0x8fd4af81e716438a6e5f8cab38c2cf31ef101c5d74834447d576b72bdf6c8d78",
          "transactionIndex": "0x0",
          "logIndex": "0x0",
          "removed": false
        },
        {
          "address": "0x12bfd1dc0d9b368096f0d5ef24a2084af934e067",
          "topics": [
            "0xda3c8142b3c1d27633026f55bfcb4eeb0b5b8db0daa0a3e10c2213a441722ad1"
          ],
          "data": "0x06f7e36d00000000000000000000000000000000000000000000000000000000000000000000000000000000d37269d1a023af210a191281f9a22d49f22f41d7",
          "blockHash": "0x38ecf1713cb782ac8ac65b94330e7e3dd122bc3fcdfa43157652ae600a6446ed",
          "blockNumber": "0x5d4844",
          "blockTimestamp": "0x666d9649",
          "transactionHash": "0x8fd4af81e716438a6e5f8cab38c2cf31ef101c5d74834447d576b72bdf6c8d78",
          "transactionIndex": "0x0",
          "logIndex": "0x1",
          "removed": false
        }
      ],
      "logsBloom": "0x00000000000000000000000000000000000000000000000000000000000000080000000000000000000000000000000000000000000000000000000000000000000000000000000000000000000000000000000000000000000000001000000000000000000000000000200000000000000000000000200010000000000000000000000000000000000000000000100000000000000000000000000000000000000000000000000000004000080000000000000000800000000000000000000000000000000000000000000000000000000000000000000000000000000000000000000000000000000000000000000000000000000000000000000000000000",
      "type": "0x0",
      "transactionHash": "0x8fd4af81e716438a6e5f8cab38c2cf31ef101c5d74834447d576b72bdf6c8d78",
      "transactionIndex": "0x0",
      "blockHash": "0x38ecf1713cb782ac8ac65b94330e7e3dd122bc3fcdfa43157652ae600a6446ed",
      "blockNumber": "0x5d4844",
      "gasUsed": "0x14f9f",
      "effectiveGasPrice": "0x3b9b0960",
      "blobGasPrice": "0x1",
      "from": "0xf39fd6e51aad88f6f4ce6ab8827279cfffb92266",
      "to": "0x12bfd1dc0d9b368096f0d5ef24a2084af934e067",
      "contractAddress": null,
      "root": "0x0000000000000000000000000000000000000000000000000000000000000000"
    },
    {
      "status": "0x1",
      "cumulativeGasUsed": "0x10f35",
      "logs": [
        {
          "address": "0x12bfd1dc0d9b368096f0d5ef24a2084af934e067",
          "topics": [
            "0xbe533f538959a17d76f1b09e966e741ee3b1183099682f96216c93d21feaecba"
          ],
          "data": "0x5cefc4ad00000000000000000000000000000000000000000000000000000000",
          "blockHash": "0xdeb2df815b759c76dc87f92adcb36319a8f3d97b27186929baa507bf947d92ef",
          "blockNumber": "0x5d4845",
          "blockTimestamp": "0x666d964a",
          "transactionHash": "0xa6cbbef139e9a267765f2e61ac6bd2160102026c6c24e801a215be77fc2d95c1",
          "transactionIndex": "0x0",
          "logIndex": "0x0",
          "removed": false
        },
        {
          "address": "0x12bfd1dc0d9b368096f0d5ef24a2084af934e067",
          "topics": [
            "0xda3c8142b3c1d27633026f55bfcb4eeb0b5b8db0daa0a3e10c2213a441722ad1"
          ],
          "data": "0x5cefc4ad00000000000000000000000000000000000000000000000000000000000000000000000000000000cd24332ebe0e63ef540d69d2f8aabe81f181dbb8",
          "blockHash": "0xdeb2df815b759c76dc87f92adcb36319a8f3d97b27186929baa507bf947d92ef",
          "blockNumber": "0x5d4845",
          "blockTimestamp": "0x666d964a",
          "transactionHash": "0xa6cbbef139e9a267765f2e61ac6bd2160102026c6c24e801a215be77fc2d95c1",
          "transactionIndex": "0x0",
          "logIndex": "0x1",
          "removed": false
        }
      ],
      "logsBloom": "0x00000000000000000000000000000000000000000000000000000000000000080000000000000000000000000000000000000000000000000000000000000000000000000000000000000000000000000000000000000000000000001000000000000000000000000000200000000000000000000000200010000000000000000000000000000000000000000000100000000000000000000000000000000000000000000000000000004000080000000000000000800000000000000000000000000000000000000000000000000000000000000000000000000000000000000000000000000000000000000000000000000000000000000000000000000000",
      "type": "0x0",
      "transactionHash": "0xa6cbbef139e9a267765f2e61ac6bd2160102026c6c24e801a215be77fc2d95c1",
      "transactionIndex": "0x0",
      "blockHash": "0xdeb2df815b759c76dc87f92adcb36319a8f3d97b27186929baa507bf947d92ef",
      "blockNumber": "0x5d4845",
      "gasUsed": "0x10f35",
      "effectiveGasPrice": "0x3b9b0960",
      "blobGasPrice": "0x1",
      "from": "0xf39fd6e51aad88f6f4ce6ab8827279cfffb92266",
      "to": "0x12bfd1dc0d9b368096f0d5ef24a2084af934e067",
      "contractAddress": null,
      "root": "0x0000000000000000000000000000000000000000000000000000000000000000"
    },
    {
      "status": "0x1",
      "cumulativeGasUsed": "0x1118b",
      "logs": [
        {
          "address": "0x12bfd1dc0d9b368096f0d5ef24a2084af934e067",
          "topics": [
            "0xbe533f538959a17d76f1b09e966e741ee3b1183099682f96216c93d21feaecba"
          ],
          "data": "0x9f31e87b00000000000000000000000000000000000000000000000000000000",
          "blockHash": "0xea3f821b466b3f579ec9cf57c1237c960082819534905aba0644093187fb115c",
          "blockNumber": "0x5d4846",
          "blockTimestamp": "0x666d964b",
          "transactionHash": "0xd81d93d87175556a1dbf3cf991ee49eecb7b960b89cab9cedf40b0644245d215",
          "transactionIndex": "0x0",
          "logIndex": "0x0",
          "removed": false
        },
        {
          "address": "0x12bfd1dc0d9b368096f0d5ef24a2084af934e067",
          "topics": [
            "0xda3c8142b3c1d27633026f55bfcb4eeb0b5b8db0daa0a3e10c2213a441722ad1"
          ],
          "data": "0x9f31e87b00000000000000000000000000000000000000000000000000000000000000000000000000000000b0518f00c94193e58bf84fbd3e8bb94a3bcb9151",
          "blockHash": "0xea3f821b466b3f579ec9cf57c1237c960082819534905aba0644093187fb115c",
          "blockNumber": "0x5d4846",
          "blockTimestamp": "0x666d964b",
          "transactionHash": "0xd81d93d87175556a1dbf3cf991ee49eecb7b960b89cab9cedf40b0644245d215",
          "transactionIndex": "0x0",
          "logIndex": "0x1",
          "removed": false
        }
      ],
      "logsBloom": "0x00000000000000000000000000000000000000000000000000000000000000080000000000000000000000000000000000000000000000000000000000000000000000000000000000000000000000000000000000000000000000001000000000000000000000000000200000000000000000000000200010000000000000000000000000000000000000000000100000000000000000000000000000000000000000000000000000004000080000000000000000800000000000000000000000000000000000000000000000000000000000000000000000000000000000000000000000000000000000000000000000000000000000000000000000000000",
      "type": "0x0",
      "transactionHash": "0xd81d93d87175556a1dbf3cf991ee49eecb7b960b89cab9cedf40b0644245d215",
      "transactionIndex": "0x0",
      "blockHash": "0xea3f821b466b3f579ec9cf57c1237c960082819534905aba0644093187fb115c",
      "blockNumber": "0x5d4846",
      "gasUsed": "0x1118b",
      "effectiveGasPrice": "0x3b9b0960",
      "blobGasPrice": "0x1",
      "from": "0xf39fd6e51aad88f6f4ce6ab8827279cfffb92266",
      "to": "0x12bfd1dc0d9b368096f0d5ef24a2084af934e067",
      "contractAddress": null,
      "root": "0x0000000000000000000000000000000000000000000000000000000000000000"
    },
    {
      "status": "0x1",
      "cumulativeGasUsed": "0x113f9",
      "logs": [
        {
          "address": "0x12bfd1dc0d9b368096f0d5ef24a2084af934e067",
          "topics": [
            "0xbe533f538959a17d76f1b09e966e741ee3b1183099682f96216c93d21feaecba"
          ],
          "data": "0x9877696700000000000000000000000000000000000000000000000000000000",
          "blockHash": "0x315db843fb89644d70ab46620dab5cab798c63ddd504ddb90ae3867fe464e544",
          "blockNumber": "0x5d4847",
          "blockTimestamp": "0x666d964c",
          "transactionHash": "0x9d6432f32961807ca2f6a3db1f3251a664620f0da4fe299855fd3df2da195280",
          "transactionIndex": "0x0",
          "logIndex": "0x0",
          "removed": false
        },
        {
          "address": "0x12bfd1dc0d9b368096f0d5ef24a2084af934e067",
          "topics": [
            "0xda3c8142b3c1d27633026f55bfcb4eeb0b5b8db0daa0a3e10c2213a441722ad1"
          ],
          "data": "0x9877696700000000000000000000000000000000000000000000000000000000000000000000000000000000c257a853f47bf2f9dabfbd5f39fda52d331ea66d",
          "blockHash": "0x315db843fb89644d70ab46620dab5cab798c63ddd504ddb90ae3867fe464e544",
          "blockNumber": "0x5d4847",
          "blockTimestamp": "0x666d964c",
          "transactionHash": "0x9d6432f32961807ca2f6a3db1f3251a664620f0da4fe299855fd3df2da195280",
          "transactionIndex": "0x0",
          "logIndex": "0x1",
          "removed": false
        }
      ],
      "logsBloom": "0x00000000000000000000000000000000000000000000000000000000000000080000000000000000000000000000000000000000000000000000000000000000000000000000000000000000000000000000000000000000000000001000000000000000000000000000200000000000000000000000200010000000000000000000000000000000000000000000100000000000000000000000000000000000000000000000000000004000080000000000000000800000000000000000000000000000000000000000000000000000000000000000000000000000000000000000000000000000000000000000000000000000000000000000000000000000",
      "type": "0x0",
      "transactionHash": "0x9d6432f32961807ca2f6a3db1f3251a664620f0da4fe299855fd3df2da195280",
      "transactionIndex": "0x0",
      "blockHash": "0x315db843fb89644d70ab46620dab5cab798c63ddd504ddb90ae3867fe464e544",
      "blockNumber": "0x5d4847",
      "gasUsed": "0x113f9",
      "effectiveGasPrice": "0x3b9b0960",
      "blobGasPrice": "0x1",
      "from": "0xf39fd6e51aad88f6f4ce6ab8827279cfffb92266",
      "to": "0x12bfd1dc0d9b368096f0d5ef24a2084af934e067",
      "contractAddress": null,
      "root": "0x0000000000000000000000000000000000000000000000000000000000000000"
    },
    {
      "status": "0x1",
      "cumulativeGasUsed": "0x22a54",
      "logs": [
        {
          "address": "0x12bfd1dc0d9b368096f0d5ef24a2084af934e067",
          "topics": [
            "0xbe533f538959a17d76f1b09e966e741ee3b1183099682f96216c93d21feaecba"
          ],
          "data": "0xc7f758a800000000000000000000000000000000000000000000000000000000",
          "blockHash": "0x315db843fb89644d70ab46620dab5cab798c63ddd504ddb90ae3867fe464e544",
          "blockNumber": "0x5d4847",
          "blockTimestamp": "0x666d964c",
          "transactionHash": "0x99f823ddeb33ad4424ff0a6102c9de94b6c5cbe94e219704e7aa137ec4338ce6",
          "transactionIndex": "0x1",
          "logIndex": "0x2",
          "removed": false
        },
        {
          "address": "0x12bfd1dc0d9b368096f0d5ef24a2084af934e067",
          "topics": [
            "0xda3c8142b3c1d27633026f55bfcb4eeb0b5b8db0daa0a3e10c2213a441722ad1"
          ],
          "data": "0xc7f758a8000000000000000000000000000000000000000000000000000000000000000000000000000000006a8222e3f009f5d38ea67ec04c512ff3e6770ed7",
          "blockHash": "0x315db843fb89644d70ab46620dab5cab798c63ddd504ddb90ae3867fe464e544",
          "blockNumber": "0x5d4847",
          "blockTimestamp": "0x666d964c",
          "transactionHash": "0x99f823ddeb33ad4424ff0a6102c9de94b6c5cbe94e219704e7aa137ec4338ce6",
          "transactionIndex": "0x1",
          "logIndex": "0x3",
          "removed": false
        }
      ],
      "logsBloom": "0x00000000000000000000000000000000000000000000000000000000000000080000000000000000000000000000000000000000000000000000000000000000000000000000000000000000000000000000000000000000000000001000000000000000000000000000200000000000000000000000200010000000000000000000000000000000000000000000100000000000000000000000000000000000000000000000000000004000080000000000000000800000000000000000000000000000000000000000000000000000000000000000000000000000000000000000000000000000000000000000000000000000000000000000000000000000",
      "type": "0x0",
      "transactionHash": "0x99f823ddeb33ad4424ff0a6102c9de94b6c5cbe94e219704e7aa137ec4338ce6",
      "transactionIndex": "0x1",
      "blockHash": "0x315db843fb89644d70ab46620dab5cab798c63ddd504ddb90ae3867fe464e544",
      "blockNumber": "0x5d4847",
      "gasUsed": "0x1165b",
      "effectiveGasPrice": "0x3b9b0960",
      "blobGasPrice": "0x1",
      "from": "0xf39fd6e51aad88f6f4ce6ab8827279cfffb92266",
      "to": "0x12bfd1dc0d9b368096f0d5ef24a2084af934e067",
      "contractAddress": null,
      "root": "0x0000000000000000000000000000000000000000000000000000000000000000"
    },
    {
      "status": "0x1",
      "cumulativeGasUsed": "0x34311",
      "logs": [
        {
          "address": "0x12bfd1dc0d9b368096f0d5ef24a2084af934e067",
          "topics": [
            "0xbe533f538959a17d76f1b09e966e741ee3b1183099682f96216c93d21feaecba"
          ],
          "data": "0x6c996f8800000000000000000000000000000000000000000000000000000000",
          "blockHash": "0x315db843fb89644d70ab46620dab5cab798c63ddd504ddb90ae3867fe464e544",
          "blockNumber": "0x5d4847",
          "blockTimestamp": "0x666d964c",
          "transactionHash": "0x32855f25b5695fbe4724f0e22dd39ccb8c64aefffe1ab147df3c5512f49c84c6",
          "transactionIndex": "0x2",
          "logIndex": "0x4",
          "removed": false
        },
        {
          "address": "0x12bfd1dc0d9b368096f0d5ef24a2084af934e067",
          "topics": [
            "0xda3c8142b3c1d27633026f55bfcb4eeb0b5b8db0daa0a3e10c2213a441722ad1"
          ],
          "data": "0x6c996f88000000000000000000000000000000000000000000000000000000000000000000000000000000006a8222e3f009f5d38ea67ec04c512ff3e6770ed7",
          "blockHash": "0x315db843fb89644d70ab46620dab5cab798c63ddd504ddb90ae3867fe464e544",
          "blockNumber": "0x5d4847",
          "blockTimestamp": "0x666d964c",
          "transactionHash": "0x32855f25b5695fbe4724f0e22dd39ccb8c64aefffe1ab147df3c5512f49c84c6",
          "transactionIndex": "0x2",
          "logIndex": "0x5",
          "removed": false
        }
      ],
      "logsBloom": "0x00000000000000000000000000000000000000000000000000000000000000080000000000000000000000000000000000000000000000000000000000000000000000000000000000000000000000000000000000000000000000001000000000000000000000000000200000000000000000000000200010000000000000000000000000000000000000000000100000000000000000000000000000000000000000000000000000004000080000000000000000800000000000000000000000000000000000000000000000000000000000000000000000000000000000000000000000000000000000000000000000000000000000000000000000000000",
      "type": "0x0",
      "transactionHash": "0x32855f25b5695fbe4724f0e22dd39ccb8c64aefffe1ab147df3c5512f49c84c6",
      "transactionIndex": "0x2",
      "blockHash": "0x315db843fb89644d70ab46620dab5cab798c63ddd504ddb90ae3867fe464e544",
      "blockNumber": "0x5d4847",
      "gasUsed": "0x118bd",
      "effectiveGasPrice": "0x3b9b0960",
      "blobGasPrice": "0x1",
      "from": "0xf39fd6e51aad88f6f4ce6ab8827279cfffb92266",
      "to": "0x12bfd1dc0d9b368096f0d5ef24a2084af934e067",
      "contractAddress": null,
      "root": "0x0000000000000000000000000000000000000000000000000000000000000000"
    },
    {
      "status": "0x1",
      "cumulativeGasUsed": "0x45e30",
      "logs": [
        {
          "address": "0x12bfd1dc0d9b368096f0d5ef24a2084af934e067",
          "topics": [
            "0xbe533f538959a17d76f1b09e966e741ee3b1183099682f96216c93d21feaecba"
          ],
          "data": "0xe810995300000000000000000000000000000000000000000000000000000000",
          "blockHash": "0x315db843fb89644d70ab46620dab5cab798c63ddd504ddb90ae3867fe464e544",
          "blockNumber": "0x5d4847",
          "blockTimestamp": "0x666d964c",
          "transactionHash": "0x0ab59b3fcb79d6087e170156e4cbb1a3f5ca936e7c539a50aebdc1d7c4b8fcd1",
          "transactionIndex": "0x3",
          "logIndex": "0x6",
          "removed": false
        },
        {
          "address": "0x12bfd1dc0d9b368096f0d5ef24a2084af934e067",
          "topics": [
            "0xda3c8142b3c1d27633026f55bfcb4eeb0b5b8db0daa0a3e10c2213a441722ad1"
          ],
          "data": "0xe8109953000000000000000000000000000000000000000000000000000000000000000000000000000000006a8222e3f009f5d38ea67ec04c512ff3e6770ed7",
          "blockHash": "0x315db843fb89644d70ab46620dab5cab798c63ddd504ddb90ae3867fe464e544",
          "blockNumber": "0x5d4847",
          "blockTimestamp": "0x666d964c",
          "transactionHash": "0x0ab59b3fcb79d6087e170156e4cbb1a3f5ca936e7c539a50aebdc1d7c4b8fcd1",
          "transactionIndex": "0x3",
          "logIndex": "0x7",
          "removed": false
        }
      ],
      "logsBloom": "0x00000000000000000000000000000000000000000000000000000000000000080000000000000000000000000000000000000000000000000000000000000000000000000000000000000000000000000000000000000000000000001000000000000000000000000000200000000000000000000000200010000000000000000000000000000000000000000000100000000000000000000000000000000000000000000000000000004000080000000000000000800000000000000000000000000000000000000000000000000000000000000000000000000000000000000000000000000000000000000000000000000000000000000000000000000000",
      "type": "0x0",
      "transactionHash": "0x0ab59b3fcb79d6087e170156e4cbb1a3f5ca936e7c539a50aebdc1d7c4b8fcd1",
      "transactionIndex": "0x3",
      "blockHash": "0x315db843fb89644d70ab46620dab5cab798c63ddd504ddb90ae3867fe464e544",
      "blockNumber": "0x5d4847",
      "gasUsed": "0x11b1f",
      "effectiveGasPrice": "0x3b9b0960",
      "blobGasPrice": "0x1",
      "from": "0xf39fd6e51aad88f6f4ce6ab8827279cfffb92266",
      "to": "0x12bfd1dc0d9b368096f0d5ef24a2084af934e067",
      "contractAddress": null,
      "root": "0x0000000000000000000000000000000000000000000000000000000000000000"
    },
    {
      "status": "0x1",
      "cumulativeGasUsed": "0x57bb1",
      "logs": [
        {
          "address": "0x12bfd1dc0d9b368096f0d5ef24a2084af934e067",
          "topics": [
            "0xbe533f538959a17d76f1b09e966e741ee3b1183099682f96216c93d21feaecba"
          ],
          "data": "0x787e0fe000000000000000000000000000000000000000000000000000000000",
          "blockHash": "0x315db843fb89644d70ab46620dab5cab798c63ddd504ddb90ae3867fe464e544",
          "blockNumber": "0x5d4847",
          "blockTimestamp": "0x666d964c",
          "transactionHash": "0xcac7d2722319e107a3f2e40506ada821a266cae169613b3a01b67a14dfab5e69",
          "transactionIndex": "0x4",
          "logIndex": "0x8",
          "removed": false
        },
        {
          "address": "0x12bfd1dc0d9b368096f0d5ef24a2084af934e067",
          "topics": [
            "0xda3c8142b3c1d27633026f55bfcb4eeb0b5b8db0daa0a3e10c2213a441722ad1"
          ],
          "data": "0x787e0fe0000000000000000000000000000000000000000000000000000000000000000000000000000000006a8222e3f009f5d38ea67ec04c512ff3e6770ed7",
          "blockHash": "0x315db843fb89644d70ab46620dab5cab798c63ddd504ddb90ae3867fe464e544",
          "blockNumber": "0x5d4847",
          "blockTimestamp": "0x666d964c",
          "transactionHash": "0xcac7d2722319e107a3f2e40506ada821a266cae169613b3a01b67a14dfab5e69",
          "transactionIndex": "0x4",
          "logIndex": "0x9",
          "removed": false
        }
      ],
      "logsBloom": "0x00000000000000000000000000000000000000000000000000000000000000080000000000000000000000000000000000000000000000000000000000000000000000000000000000000000000000000000000000000000000000001000000000000000000000000000200000000000000000000000200010000000000000000000000000000000000000000000100000000000000000000000000000000000000000000000000000004000080000000000000000800000000000000000000000000000000000000000000000000000000000000000000000000000000000000000000000000000000000000000000000000000000000000000000000000000",
      "type": "0x0",
      "transactionHash": "0xcac7d2722319e107a3f2e40506ada821a266cae169613b3a01b67a14dfab5e69",
      "transactionIndex": "0x4",
      "blockHash": "0x315db843fb89644d70ab46620dab5cab798c63ddd504ddb90ae3867fe464e544",
      "blockNumber": "0x5d4847",
      "gasUsed": "0x11d81",
      "effectiveGasPrice": "0x3b9b0960",
      "blobGasPrice": "0x1",
      "from": "0xf39fd6e51aad88f6f4ce6ab8827279cfffb92266",
      "to": "0x12bfd1dc0d9b368096f0d5ef24a2084af934e067",
      "contractAddress": null,
      "root": "0x0000000000000000000000000000000000000000000000000000000000000000"
    },
    {
      "status": "0x1",
      "cumulativeGasUsed": "0x16a4d",
      "logs": [
        {
          "address": "0x12bfd1dc0d9b368096f0d5ef24a2084af934e067",
          "topics": [
            "0xbe533f538959a17d76f1b09e966e741ee3b1183099682f96216c93d21feaecba"
          ],
          "data": "0xa4c5e9cb00000000000000000000000000000000000000000000000000000000",
          "blockHash": "0xd54c607af614d94e3a486bfecfb0bef8ba461d06fe06cac379a815ed81d84f70",
          "blockNumber": "0x5d4848",
          "blockTimestamp": "0x666d964d",
          "transactionHash": "0x6baea0a9db8ff36c42b254f562f5d5f8b3b0860fb9500f8987135a7fc3a4b5c9",
          "transactionIndex": "0x0",
          "logIndex": "0x0",
          "removed": false
        },
        {
          "address": "0x12bfd1dc0d9b368096f0d5ef24a2084af934e067",
          "topics": [
            "0xda3c8142b3c1d27633026f55bfcb4eeb0b5b8db0daa0a3e10c2213a441722ad1"
          ],
          "data": "0xa4c5e9cb000000000000000000000000000000000000000000000000000000000000000000000000000000006a8222e3f009f5d38ea67ec04c512ff3e6770ed7",
          "blockHash": "0xd54c607af614d94e3a486bfecfb0bef8ba461d06fe06cac379a815ed81d84f70",
          "blockNumber": "0x5d4848",
          "blockTimestamp": "0x666d964d",
          "transactionHash": "0x6baea0a9db8ff36c42b254f562f5d5f8b3b0860fb9500f8987135a7fc3a4b5c9",
          "transactionIndex": "0x0",
          "logIndex": "0x1",
          "removed": false
        }
      ],
      "logsBloom": "0x00000000000000000000000000000000000000000000000000000000000000080000000000000000000000000000000000000000000000000000000000000000000000000000000000000000000000000000000000000000000000001000000000000000000000000000200000000000000000000000200010000000000000000000000000000000000000000000100000000000000000000000000000000000000000000000000000004000080000000000000000800000000000000000000000000000000000000000000000000000000000000000000000000000000000000000000000000000000000000000000000000000000000000000000000000000",
      "type": "0x0",
      "transactionHash": "0x6baea0a9db8ff36c42b254f562f5d5f8b3b0860fb9500f8987135a7fc3a4b5c9",
      "transactionIndex": "0x0",
      "blockHash": "0xd54c607af614d94e3a486bfecfb0bef8ba461d06fe06cac379a815ed81d84f70",
      "blockNumber": "0x5d4848",
      "gasUsed": "0x16a4d",
      "effectiveGasPrice": "0x3b9b0960",
      "blobGasPrice": "0x1",
      "from": "0xf39fd6e51aad88f6f4ce6ab8827279cfffb92266",
      "to": "0x12bfd1dc0d9b368096f0d5ef24a2084af934e067",
      "contractAddress": null,
      "root": "0x0000000000000000000000000000000000000000000000000000000000000000"
    },
    {
      "status": "0x1",
      "cumulativeGasUsed": "0x29430",
      "logs": [
        {
          "address": "0x12bfd1dc0d9b368096f0d5ef24a2084af934e067",
          "topics": [
            "0xbe533f538959a17d76f1b09e966e741ee3b1183099682f96216c93d21feaecba"
          ],
          "data": "0x7f4ef9d400000000000000000000000000000000000000000000000000000000",
          "blockHash": "0xd54c607af614d94e3a486bfecfb0bef8ba461d06fe06cac379a815ed81d84f70",
          "blockNumber": "0x5d4848",
          "blockTimestamp": "0x666d964d",
          "transactionHash": "0x7ac237681ca307cd064f21fc0ee7901f3b2ec575285f4d061b76adc4efb41d2a",
          "transactionIndex": "0x1",
          "logIndex": "0x2",
          "removed": false
        },
        {
          "address": "0x12bfd1dc0d9b368096f0d5ef24a2084af934e067",
          "topics": [
            "0xda3c8142b3c1d27633026f55bfcb4eeb0b5b8db0daa0a3e10c2213a441722ad1"
          ],
          "data": "0x7f4ef9d4000000000000000000000000000000000000000000000000000000000000000000000000000000006a8222e3f009f5d38ea67ec04c512ff3e6770ed7",
          "blockHash": "0xd54c607af614d94e3a486bfecfb0bef8ba461d06fe06cac379a815ed81d84f70",
          "blockNumber": "0x5d4848",
          "blockTimestamp": "0x666d964d",
          "transactionHash": "0x7ac237681ca307cd064f21fc0ee7901f3b2ec575285f4d061b76adc4efb41d2a",
          "transactionIndex": "0x1",
          "logIndex": "0x3",
          "removed": false
        }
      ],
      "logsBloom": "0x00000000000000000000000000000000000000000000000000000000000000080000000000000000000000000000000000000000000000000000000000000000000000000000000000000000000000000000000000000000000000001000000000000000000000000000200000000000000000000000200010000000000000000000000000000000000000000000100000000000000000000000000000000000000000000000000000004000080000000000000000800000000000000000000000000000000000000000000000000000000000000000000000000000000000000000000000000000000000000000000000000000000000000000000000000000",
      "type": "0x0",
      "transactionHash": "0x7ac237681ca307cd064f21fc0ee7901f3b2ec575285f4d061b76adc4efb41d2a",
      "transactionIndex": "0x1",
      "blockHash": "0xd54c607af614d94e3a486bfecfb0bef8ba461d06fe06cac379a815ed81d84f70",
      "blockNumber": "0x5d4848",
      "gasUsed": "0x129e3",
      "effectiveGasPrice": "0x3b9b0960",
      "blobGasPrice": "0x1",
      "from": "0xf39fd6e51aad88f6f4ce6ab8827279cfffb92266",
      "to": "0x12bfd1dc0d9b368096f0d5ef24a2084af934e067",
      "contractAddress": null,
      "root": "0x0000000000000000000000000000000000000000000000000000000000000000"
    },
    {
      "status": "0x1",
      "cumulativeGasUsed": "0x12c45",
      "logs": [
        {
          "address": "0x12bfd1dc0d9b368096f0d5ef24a2084af934e067",
          "topics": [
            "0xbe533f538959a17d76f1b09e966e741ee3b1183099682f96216c93d21feaecba"
          ],
          "data": "0x2b7efac100000000000000000000000000000000000000000000000000000000",
          "blockHash": "0x865511d8bbe0a62db38eab9acb989c4f83052cfbe6dda96af28fec3e124563a7",
          "blockNumber": "0x5d4849",
          "blockTimestamp": "0x666d964e",
          "transactionHash": "0x9599d74ae1612e775bdbfe00bfd5e4c2e53a9f11a3754f41b2a759d76ce65dfa",
          "transactionIndex": "0x0",
          "logIndex": "0x0",
          "removed": false
        },
        {
          "address": "0x12bfd1dc0d9b368096f0d5ef24a2084af934e067",
          "topics": [
            "0xda3c8142b3c1d27633026f55bfcb4eeb0b5b8db0daa0a3e10c2213a441722ad1"
          ],
          "data": "0x2b7efac1000000000000000000000000000000000000000000000000000000000000000000000000000000006a8222e3f009f5d38ea67ec04c512ff3e6770ed7",
          "blockHash": "0x865511d8bbe0a62db38eab9acb989c4f83052cfbe6dda96af28fec3e124563a7",
          "blockNumber": "0x5d4849",
          "blockTimestamp": "0x666d964e",
          "transactionHash": "0x9599d74ae1612e775bdbfe00bfd5e4c2e53a9f11a3754f41b2a759d76ce65dfa",
          "transactionIndex": "0x0",
          "logIndex": "0x1",
          "removed": false
        }
      ],
      "logsBloom": "0x00000000000000000000000000000000000000000000000000000000000000080000000000000000000000000000000000000000000000000000000000000000000000000000000000000000000000000000000000000000000000001000000000000000000000000000200000000000000000000000200010000000000000000000000000000000000000000000100000000000000000000000000000000000000000000000000000004000080000000000000000800000000000000000000000000000000000000000000000000000000000000000000000000000000000000000000000000000000000000000000000000000000000000000000000000000",
      "type": "0x0",
      "transactionHash": "0x9599d74ae1612e775bdbfe00bfd5e4c2e53a9f11a3754f41b2a759d76ce65dfa",
      "transactionIndex": "0x0",
      "blockHash": "0x865511d8bbe0a62db38eab9acb989c4f83052cfbe6dda96af28fec3e124563a7",
      "blockNumber": "0x5d4849",
      "gasUsed": "0x12c45",
      "effectiveGasPrice": "0x3b9b0960",
      "blobGasPrice": "0x1",
      "from": "0xf39fd6e51aad88f6f4ce6ab8827279cfffb92266",
      "to": "0x12bfd1dc0d9b368096f0d5ef24a2084af934e067",
      "contractAddress": null,
      "root": "0x0000000000000000000000000000000000000000000000000000000000000000"
    },
    {
      "status": "0x1",
      "cumulativeGasUsed": "0x12ea7",
      "logs": [
        {
          "address": "0x12bfd1dc0d9b368096f0d5ef24a2084af934e067",
          "topics": [
            "0xbe533f538959a17d76f1b09e966e741ee3b1183099682f96216c93d21feaecba"
          ],
          "data": "0xab3545e500000000000000000000000000000000000000000000000000000000",
          "blockHash": "0xa3f6c230e1ab70b50fe4896f3e3831d55d1f6e10cab402afa19b0380cec936ab",
          "blockNumber": "0x5d484a",
          "blockTimestamp": "0x666d964f",
          "transactionHash": "0x28fea8c48f867ea25f204ebdd53f7a5a40ece56f3e69e3787c0255bf988d405f",
          "transactionIndex": "0x0",
          "logIndex": "0x0",
          "removed": false
        },
        {
          "address": "0x12bfd1dc0d9b368096f0d5ef24a2084af934e067",
          "topics": [
            "0xda3c8142b3c1d27633026f55bfcb4eeb0b5b8db0daa0a3e10c2213a441722ad1"
          ],
          "data": "0xab3545e5000000000000000000000000000000000000000000000000000000000000000000000000000000006a8222e3f009f5d38ea67ec04c512ff3e6770ed7",
          "blockHash": "0xa3f6c230e1ab70b50fe4896f3e3831d55d1f6e10cab402afa19b0380cec936ab",
          "blockNumber": "0x5d484a",
          "blockTimestamp": "0x666d964f",
          "transactionHash": "0x28fea8c48f867ea25f204ebdd53f7a5a40ece56f3e69e3787c0255bf988d405f",
          "transactionIndex": "0x0",
          "logIndex": "0x1",
          "removed": false
        }
      ],
      "logsBloom": "0x00000000000000000000000000000000000000000000000000000000000000080000000000000000000000000000000000000000000000000000000000000000000000000000000000000000000000000000000000000000000000001000000000000000000000000000200000000000000000000000200010000000000000000000000000000000000000000000100000000000000000000000000000000000000000000000000000004000080000000000000000800000000000000000000000000000000000000000000000000000000000000000000000000000000000000000000000000000000000000000000000000000000000000000000000000000",
      "type": "0x0",
      "transactionHash": "0x28fea8c48f867ea25f204ebdd53f7a5a40ece56f3e69e3787c0255bf988d405f",
      "transactionIndex": "0x0",
      "blockHash": "0xa3f6c230e1ab70b50fe4896f3e3831d55d1f6e10cab402afa19b0380cec936ab",
      "blockNumber": "0x5d484a",
      "gasUsed": "0x12ea7",
      "effectiveGasPrice": "0x3b9b0960",
      "blobGasPrice": "0x1",
      "from": "0xf39fd6e51aad88f6f4ce6ab8827279cfffb92266",
      "to": "0x12bfd1dc0d9b368096f0d5ef24a2084af934e067",
      "contractAddress": null,
      "root": "0x0000000000000000000000000000000000000000000000000000000000000000"
    },
    {
      "status": "0x1",
      "cumulativeGasUsed": "0x25fb0",
      "logs": [
        {
          "address": "0x12bfd1dc0d9b368096f0d5ef24a2084af934e067",
          "topics": [
            "0xbe533f538959a17d76f1b09e966e741ee3b1183099682f96216c93d21feaecba"
          ],
          "data": "0xcb37be9e00000000000000000000000000000000000000000000000000000000",
          "blockHash": "0xa3f6c230e1ab70b50fe4896f3e3831d55d1f6e10cab402afa19b0380cec936ab",
          "blockNumber": "0x5d484a",
          "blockTimestamp": "0x666d964f",
          "transactionHash": "0x188f8f63d7e58f01e28b7bd9e3ddea0735bd475f02342e211dac07227ec3f475",
          "transactionIndex": "0x1",
          "logIndex": "0x2",
          "removed": false
        },
        {
          "address": "0x12bfd1dc0d9b368096f0d5ef24a2084af934e067",
          "topics": [
            "0xda3c8142b3c1d27633026f55bfcb4eeb0b5b8db0daa0a3e10c2213a441722ad1"
          ],
          "data": "0xcb37be9e000000000000000000000000000000000000000000000000000000000000000000000000000000006a8222e3f009f5d38ea67ec04c512ff3e6770ed7",
          "blockHash": "0xa3f6c230e1ab70b50fe4896f3e3831d55d1f6e10cab402afa19b0380cec936ab",
          "blockNumber": "0x5d484a",
          "blockTimestamp": "0x666d964f",
          "transactionHash": "0x188f8f63d7e58f01e28b7bd9e3ddea0735bd475f02342e211dac07227ec3f475",
          "transactionIndex": "0x1",
          "logIndex": "0x3",
          "removed": false
        }
      ],
      "logsBloom": "0x00000000000000000000000000000000000000000000000000000000000000080000000000000000000000000000000000000000000000000000000000000000000000000000000000000000000000000000000000000000000000001000000000000000000000000000200000000000000000000000200010000000000000000000000000000000000000000000100000000000000000000000000000000000000000000000000000004000080000000000000000800000000000000000000000000000000000000000000000000000000000000000000000000000000000000000000000000000000000000000000000000000000000000000000000000000",
      "type": "0x0",
      "transactionHash": "0x188f8f63d7e58f01e28b7bd9e3ddea0735bd475f02342e211dac07227ec3f475",
      "transactionIndex": "0x1",
      "blockHash": "0xa3f6c230e1ab70b50fe4896f3e3831d55d1f6e10cab402afa19b0380cec936ab",
      "blockNumber": "0x5d484a",
      "gasUsed": "0x13109",
      "effectiveGasPrice": "0x3b9b0960",
      "blobGasPrice": "0x1",
      "from": "0xf39fd6e51aad88f6f4ce6ab8827279cfffb92266",
      "to": "0x12bfd1dc0d9b368096f0d5ef24a2084af934e067",
      "contractAddress": null,
      "root": "0x0000000000000000000000000000000000000000000000000000000000000000"
    },
    {
      "status": "0x1",
      "cumulativeGasUsed": "0x3931b",
      "logs": [
        {
          "address": "0x12bfd1dc0d9b368096f0d5ef24a2084af934e067",
          "topics": [
            "0xbe533f538959a17d76f1b09e966e741ee3b1183099682f96216c93d21feaecba"
          ],
          "data": "0xc1e582ba00000000000000000000000000000000000000000000000000000000",
          "blockHash": "0xa3f6c230e1ab70b50fe4896f3e3831d55d1f6e10cab402afa19b0380cec936ab",
          "blockNumber": "0x5d484a",
          "blockTimestamp": "0x666d964f",
          "transactionHash": "0xef28c334365fb6d914b46312a5e5c42ac686b9f6a22cfcd2f4c22f4ea8be1480",
          "transactionIndex": "0x2",
          "logIndex": "0x4",
          "removed": false
        },
        {
          "address": "0x12bfd1dc0d9b368096f0d5ef24a2084af934e067",
          "topics": [
            "0xda3c8142b3c1d27633026f55bfcb4eeb0b5b8db0daa0a3e10c2213a441722ad1"
          ],
          "data": "0xc1e582ba000000000000000000000000000000000000000000000000000000000000000000000000000000006a8222e3f009f5d38ea67ec04c512ff3e6770ed7",
          "blockHash": "0xa3f6c230e1ab70b50fe4896f3e3831d55d1f6e10cab402afa19b0380cec936ab",
          "blockNumber": "0x5d484a",
          "blockTimestamp": "0x666d964f",
          "transactionHash": "0xef28c334365fb6d914b46312a5e5c42ac686b9f6a22cfcd2f4c22f4ea8be1480",
          "transactionIndex": "0x2",
          "logIndex": "0x5",
          "removed": false
        }
      ],
      "logsBloom": "0x00000000000000000000000000000000000000000000000000000000000000080000000000000000000000000000000000000000000000000000000000000000000000000000000000000000000000000000000000000000000000001000000000000000000000000000200000000000000000000000200010000000000000000000000000000000000000000000100000000000000000000000000000000000000000000000000000004000080000000000000000800000000000000000000000000000000000000000000000000000000000000000000000000000000000000000000000000000000000000000000000000000000000000000000000000000",
      "type": "0x0",
      "transactionHash": "0xef28c334365fb6d914b46312a5e5c42ac686b9f6a22cfcd2f4c22f4ea8be1480",
      "transactionIndex": "0x2",
      "blockHash": "0xa3f6c230e1ab70b50fe4896f3e3831d55d1f6e10cab402afa19b0380cec936ab",
      "blockNumber": "0x5d484a",
      "gasUsed": "0x1336b",
      "effectiveGasPrice": "0x3b9b0960",
      "blobGasPrice": "0x1",
      "from": "0xf39fd6e51aad88f6f4ce6ab8827279cfffb92266",
      "to": "0x12bfd1dc0d9b368096f0d5ef24a2084af934e067",
      "contractAddress": null,
      "root": "0x0000000000000000000000000000000000000000000000000000000000000000"
    },
    {
      "status": "0x1",
      "cumulativeGasUsed": "0x4c8e8",
      "logs": [
        {
          "address": "0x12bfd1dc0d9b368096f0d5ef24a2084af934e067",
          "topics": [
            "0xbe533f538959a17d76f1b09e966e741ee3b1183099682f96216c93d21feaecba"
          ],
          "data": "0x2a2c16a000000000000000000000000000000000000000000000000000000000",
          "blockHash": "0xa3f6c230e1ab70b50fe4896f3e3831d55d1f6e10cab402afa19b0380cec936ab",
          "blockNumber": "0x5d484a",
          "blockTimestamp": "0x666d964f",
          "transactionHash": "0x3e9f0d0234d519cdcc96d67eed3cb27cabe7431bec43b583e2ac3c7a4fda02a1",
          "transactionIndex": "0x3",
          "logIndex": "0x6",
          "removed": false
        },
        {
          "address": "0x12bfd1dc0d9b368096f0d5ef24a2084af934e067",
          "topics": [
            "0xda3c8142b3c1d27633026f55bfcb4eeb0b5b8db0daa0a3e10c2213a441722ad1"
          ],
          "data": "0x2a2c16a0000000000000000000000000000000000000000000000000000000000000000000000000000000006a8222e3f009f5d38ea67ec04c512ff3e6770ed7",
          "blockHash": "0xa3f6c230e1ab70b50fe4896f3e3831d55d1f6e10cab402afa19b0380cec936ab",
          "blockNumber": "0x5d484a",
          "blockTimestamp": "0x666d964f",
          "transactionHash": "0x3e9f0d0234d519cdcc96d67eed3cb27cabe7431bec43b583e2ac3c7a4fda02a1",
          "transactionIndex": "0x3",
          "logIndex": "0x7",
          "removed": false
        }
      ],
      "logsBloom": "0x00000000000000000000000000000000000000000000000000000000000000080000000000000000000000000000000000000000000000000000000000000000000000000000000000000000000000000000000000000000000000001000000000000000000000000000200000000000000000000000200010000000000000000000000000000000000000000000100000000000000000000000000000000000000000000000000000004000080000000000000000800000000000000000000000000000000000000000000000000000000000000000000000000000000000000000000000000000000000000000000000000000000000000000000000000000",
      "type": "0x0",
      "transactionHash": "0x3e9f0d0234d519cdcc96d67eed3cb27cabe7431bec43b583e2ac3c7a4fda02a1",
      "transactionIndex": "0x3",
      "blockHash": "0xa3f6c230e1ab70b50fe4896f3e3831d55d1f6e10cab402afa19b0380cec936ab",
      "blockNumber": "0x5d484a",
      "gasUsed": "0x135cd",
      "effectiveGasPrice": "0x3b9b0960",
      "blobGasPrice": "0x1",
      "from": "0xf39fd6e51aad88f6f4ce6ab8827279cfffb92266",
      "to": "0x12bfd1dc0d9b368096f0d5ef24a2084af934e067",
      "contractAddress": null,
      "root": "0x0000000000000000000000000000000000000000000000000000000000000000"
    },
    {
      "status": "0x1",
      "cumulativeGasUsed": "0x1382f",
      "logs": [
        {
          "address": "0x12bfd1dc0d9b368096f0d5ef24a2084af934e067",
          "topics": [
            "0xbe533f538959a17d76f1b09e966e741ee3b1183099682f96216c93d21feaecba"
          ],
          "data": "0xde3d9fb700000000000000000000000000000000000000000000000000000000",
          "blockHash": "0xa365be0221272b44f2e6751718a92b36c268102d121d58c24a9f935bd0c0e290",
          "blockNumber": "0x5d484b",
          "blockTimestamp": "0x666d9650",
          "transactionHash": "0x82c267c3cebec038f45d7aa7c9689c47a11057e060d387bb2f933d10c7f867c4",
          "transactionIndex": "0x0",
          "logIndex": "0x0",
          "removed": false
        },
        {
          "address": "0x12bfd1dc0d9b368096f0d5ef24a2084af934e067",
          "topics": [
            "0xda3c8142b3c1d27633026f55bfcb4eeb0b5b8db0daa0a3e10c2213a441722ad1"
          ],
          "data": "0xde3d9fb7000000000000000000000000000000000000000000000000000000000000000000000000000000006a8222e3f009f5d38ea67ec04c512ff3e6770ed7",
          "blockHash": "0xa365be0221272b44f2e6751718a92b36c268102d121d58c24a9f935bd0c0e290",
          "blockNumber": "0x5d484b",
          "blockTimestamp": "0x666d9650",
          "transactionHash": "0x82c267c3cebec038f45d7aa7c9689c47a11057e060d387bb2f933d10c7f867c4",
          "transactionIndex": "0x0",
          "logIndex": "0x1",
          "removed": false
        }
      ],
      "logsBloom": "0x00000000000000000000000000000000000000000000000000000000000000080000000000000000000000000000000000000000000000000000000000000000000000000000000000000000000000000000000000000000000000001000000000000000000000000000200000000000000000000000200010000000000000000000000000000000000000000000100000000000000000000000000000000000000000000000000000004000080000000000000000800000000000000000000000000000000000000000000000000000000000000000000000000000000000000000000000000000000000000000000000000000000000000000000000000000",
      "type": "0x0",
      "transactionHash": "0x82c267c3cebec038f45d7aa7c9689c47a11057e060d387bb2f933d10c7f867c4",
      "transactionIndex": "0x0",
      "blockHash": "0xa365be0221272b44f2e6751718a92b36c268102d121d58c24a9f935bd0c0e290",
      "blockNumber": "0x5d484b",
      "gasUsed": "0x1382f",
      "effectiveGasPrice": "0x3b9b0960",
      "blobGasPrice": "0x1",
      "from": "0xf39fd6e51aad88f6f4ce6ab8827279cfffb92266",
      "to": "0x12bfd1dc0d9b368096f0d5ef24a2084af934e067",
      "contractAddress": null,
      "root": "0x0000000000000000000000000000000000000000000000000000000000000000"
    },
    {
      "status": "0x1",
      "cumulativeGasUsed": "0x2bd2a",
      "logs": [
        {
          "address": "0x12bfd1dc0d9b368096f0d5ef24a2084af934e067",
          "topics": [
            "0xbe533f538959a17d76f1b09e966e741ee3b1183099682f96216c93d21feaecba"
          ],
          "data": "0x9a5ea6a000000000000000000000000000000000000000000000000000000000",
          "blockHash": "0xa365be0221272b44f2e6751718a92b36c268102d121d58c24a9f935bd0c0e290",
          "blockNumber": "0x5d484b",
          "blockTimestamp": "0x666d9650",
          "transactionHash": "0x0b8152c27d77dff29ad29de9a6db9a4b81e8bc05c86289c512d1ae77bf3b174e",
          "transactionIndex": "0x1",
          "logIndex": "0x2",
          "removed": false
        },
        {
          "address": "0x12bfd1dc0d9b368096f0d5ef24a2084af934e067",
          "topics": [
            "0xda3c8142b3c1d27633026f55bfcb4eeb0b5b8db0daa0a3e10c2213a441722ad1"
          ],
          "data": "0x9a5ea6a0000000000000000000000000000000000000000000000000000000000000000000000000000000006a8222e3f009f5d38ea67ec04c512ff3e6770ed7",
          "blockHash": "0xa365be0221272b44f2e6751718a92b36c268102d121d58c24a9f935bd0c0e290",
          "blockNumber": "0x5d484b",
          "blockTimestamp": "0x666d9650",
          "transactionHash": "0x0b8152c27d77dff29ad29de9a6db9a4b81e8bc05c86289c512d1ae77bf3b174e",
          "transactionIndex": "0x1",
          "logIndex": "0x3",
          "removed": false
        }
      ],
      "logsBloom": "0x00000000000000000000000000000000000000000000000000000000000000080000000000000000000000000000000000000000000000000000000000000000000000000000000000000000000000000000000000000000000000001000000000000000000000000000200000000000000000000000200010000000000000000000000000000000000000000000100000000000000000000000000000000000000000000000000000004000080000000000000000800000000000000000000000000000000000000000000000000000000000000000000000000000000000000000000000000000000000000000000000000000000000000000000000000000",
      "type": "0x0",
      "transactionHash": "0x0b8152c27d77dff29ad29de9a6db9a4b81e8bc05c86289c512d1ae77bf3b174e",
      "transactionIndex": "0x1",
      "blockHash": "0xa365be0221272b44f2e6751718a92b36c268102d121d58c24a9f935bd0c0e290",
      "blockNumber": "0x5d484b",
      "gasUsed": "0x184fb",
      "effectiveGasPrice": "0x3b9b0960",
      "blobGasPrice": "0x1",
      "from": "0xf39fd6e51aad88f6f4ce6ab8827279cfffb92266",
      "to": "0x12bfd1dc0d9b368096f0d5ef24a2084af934e067",
      "contractAddress": null,
      "root": "0x0000000000000000000000000000000000000000000000000000000000000000"
    },
    {
      "status": "0x1",
      "cumulativeGasUsed": "0x14491",
      "logs": [
        {
          "address": "0x12bfd1dc0d9b368096f0d5ef24a2084af934e067",
          "topics": [
            "0xbe533f538959a17d76f1b09e966e741ee3b1183099682f96216c93d21feaecba"
          ],
          "data": "0x25be10bd00000000000000000000000000000000000000000000000000000000",
          "blockHash": "0x35299792d875469460451047340d223c9e121ee150c825a5038020a635396034",
          "blockNumber": "0x5d484c",
          "blockTimestamp": "0x666d9651",
          "transactionHash": "0x3fcf2810f97697f6809d27c2c4cfb55351e4cc15a22ea4508949cb7f2b88a1a9",
          "transactionIndex": "0x0",
          "logIndex": "0x0",
          "removed": false
        },
        {
          "address": "0x12bfd1dc0d9b368096f0d5ef24a2084af934e067",
          "topics": [
            "0xda3c8142b3c1d27633026f55bfcb4eeb0b5b8db0daa0a3e10c2213a441722ad1"
          ],
          "data": "0x25be10bd000000000000000000000000000000000000000000000000000000000000000000000000000000006a8222e3f009f5d38ea67ec04c512ff3e6770ed7",
          "blockHash": "0x35299792d875469460451047340d223c9e121ee150c825a5038020a635396034",
          "blockNumber": "0x5d484c",
          "blockTimestamp": "0x666d9651",
          "transactionHash": "0x3fcf2810f97697f6809d27c2c4cfb55351e4cc15a22ea4508949cb7f2b88a1a9",
          "transactionIndex": "0x0",
          "logIndex": "0x1",
          "removed": false
        }
      ],
      "logsBloom": "0x00000000000000000000000000000000000000000000000000000000000000080000000000000000000000000000000000000000000000000000000000000000000000000000000000000000000000000000000000000000000000001000000000000000000000000000200000000000000000000000200010000000000000000000000000000000000000000000100000000000000000000000000000000000000000000000000000004000080000000000000000800000000000000000000000000000000000000000000000000000000000000000000000000000000000000000000000000000000000000000000000000000000000000000000000000000",
      "type": "0x0",
      "transactionHash": "0x3fcf2810f97697f6809d27c2c4cfb55351e4cc15a22ea4508949cb7f2b88a1a9",
      "transactionIndex": "0x0",
      "blockHash": "0x35299792d875469460451047340d223c9e121ee150c825a5038020a635396034",
      "blockNumber": "0x5d484c",
      "gasUsed": "0x14491",
      "effectiveGasPrice": "0x3b9b0960",
      "blobGasPrice": "0x1",
      "from": "0xf39fd6e51aad88f6f4ce6ab8827279cfffb92266",
      "to": "0x12bfd1dc0d9b368096f0d5ef24a2084af934e067",
      "contractAddress": null,
      "root": "0x0000000000000000000000000000000000000000000000000000000000000000"
    },
    {
      "status": "0x1",
      "cumulativeGasUsed": "0x1fd02",
      "logs": [
        {
          "address": "0x12bfd1dc0d9b368096f0d5ef24a2084af934e067",
          "topics": [
            "0x159f10d3da077d18f228d52be447d552e7d1892d10f7af8f615658160e374729"
          ],
          "data": "0x000000000000000000000000ae1d5a8ead8abc744d97533895ad632f18f471dc",
          "blockHash": "0x35299792d875469460451047340d223c9e121ee150c825a5038020a635396034",
          "blockNumber": "0x5d484c",
          "blockTimestamp": "0x666d9651",
          "transactionHash": "0xb5f621500807cc81023cd2db05d532a08cc3b26a3d9d391258af198529e95984",
          "transactionIndex": "0x1",
          "logIndex": "0x2",
          "removed": false
        }
      ],
      "logsBloom": "0x00000000000000080000000000000000000000000000000000000000000000000000000000000000000000000200000000000000000000000000000000000000000000000000000000000000000000000000000000000000000000001000000000000000000000000000000000000000000000000000200000000000000000000000000000000000000000000000000000000000000000000000000000000000000000000000000000000000000000000000000000800000000000000000000000000000000000000000000000000000000000000000000000000000000000000000000000000000000000000010000000000000000000000000000000000000",
      "type": "0x0",
      "transactionHash": "0xb5f621500807cc81023cd2db05d532a08cc3b26a3d9d391258af198529e95984",
      "transactionIndex": "0x1",
      "blockHash": "0x35299792d875469460451047340d223c9e121ee150c825a5038020a635396034",
      "blockNumber": "0x5d484c",
      "gasUsed": "0xb871",
      "effectiveGasPrice": "0x3b9b0960",
      "blobGasPrice": "0x1",
      "from": "0xf39fd6e51aad88f6f4ce6ab8827279cfffb92266",
      "to": "0x12bfd1dc0d9b368096f0d5ef24a2084af934e067",
      "contractAddress": null,
      "root": "0x0000000000000000000000000000000000000000000000000000000000000000"
    },
    {
      "status": "0x1",
      "cumulativeGasUsed": "0x2fa03",
      "logs": [
        {
          "address": "0xa9ec4de0eaf65cade28e9b70ae8586dfb06d4dbc",
          "topics": [
            "0xa657f2ad315cf3bb35cf1964158da75c3f334481df05a4a1644b2376b17a59b2"
          ],
          "data": "0x00000000000000000000000012bfd1dc0d9b368096f0d5ef24a2084af934e067",
          "blockHash": "0x1eb8e91a2593b4a535046f02a741594c4d39bcba0064b79a1d96b68807a7d6ff",
          "blockNumber": "0x5d484d",
          "blockTimestamp": "0x666d9652",
          "transactionHash": "0xd61a712cbf6dc9893e46a2f46dcaef2c65513dc46b344246c59218eee9c53f54",
          "transactionIndex": "0x0",
          "logIndex": "0x0",
          "removed": false
        }
      ],
      "logsBloom": "0x00000800000000000000000000000000000000000000000000000000000000000000000000000000000000000000000000000000000000008000000000000000000000000000000000000000000000000000000000000000000000000000000000000000000000000000000000000000000040000000000000000000000000000000000000000000000000000000000000000200000000000000000000000000000000000000000000000000000000000000000000000000000000000000000000000010000000000000000000000000000000000000000000000000000000000000000000000000000000000000000000000000000008000000000000000000",
      "type": "0x0",
      "transactionHash": "0xd61a712cbf6dc9893e46a2f46dcaef2c65513dc46b344246c59218eee9c53f54",
      "transactionIndex": "0x0",
      "blockHash": "0x1eb8e91a2593b4a535046f02a741594c4d39bcba0064b79a1d96b68807a7d6ff",
      "blockNumber": "0x5d484d",
      "gasUsed": "0x2fa03",
      "effectiveGasPrice": "0x3b9b0960",
      "blobGasPrice": "0x1",
      "from": "0xf39fd6e51aad88f6f4ce6ab8827279cfffb92266",
      "to": null,
      "contractAddress": "0xa9ec4de0eaf65cade28e9b70ae8586dfb06d4dbc",
      "root": "0x0000000000000000000000000000000000000000000000000000000000000000"
    }
  ],
  "libraries": [],
  "pending": [],
  "returns": {},
  "timestamp": 1718457925,
  "chain": 11155111,
  "commit": "732f7b6"
}